{
  "address": "0x994e0F91eeF84d64fC1d4E4c283712928915feDD",
  "abi": [
    {
      "inputs": [],
      "name": "createBribe",
      "outputs": [
        {
          "internalType": "address",
          "name": "",
          "type": "address"
        }
      ],
      "stateMutability": "nonpayable",
      "type": "function"
    },
    {
      "inputs": [],
      "name": "last_gauge",
      "outputs": [
        {
          "internalType": "address",
          "name": "",
          "type": "address"
        }
      ],
      "stateMutability": "view",
      "type": "function"
    }
  ],
  "transactionHash": "0x7e581c13ad284228ce03daca7077b4649ce32c1b19fb08b042f927d5cc3a0d91",
  "args": [],
  "numDeployments": 1,
  "bytecode": "0x608060405234801561001057600080fd5b50612776806100206000396000f3fe608060405234801561001057600080fd5b50600436106100365760003560e01c8063730a8bdb1461003b578063d27b9a781461006a575b600080fd5b60005461004e906001600160a01b031681565b6040516001600160a01b03909116815260200160405180910390f35b61004e60003360405161007c906100cd565b6001600160a01b039091168152602001604051809103906000f0801580156100a8573d6000803e3d6000fd5b50600080546001600160a01b0319166001600160a01b03929092169182179055919050565b612666806100db8339019056fe60c060405260016010553480156200001657600080fd5b5060405162002666380380620026668339810160408190526200003991620000bd565b6001600160a01b038116608081905260408051638dd598fb60e01b81529051638dd598fb916004808201926020929091908290030181865afa15801562000084573d6000803e3d6000fd5b505050506040513d601f19601f82011682018060405250810190620000aa9190620000bd565b6001600160a01b031660a05250620000ef565b600060208284031215620000d057600080fd5b81516001600160a01b0381168114620000e857600080fd5b9392505050565b60805160a05161252e62000138600039600081816103bb01528181610ca901526114af0152600081816104c801528181610a3e01528181610c6601526113c1015261252e6000f3fe608060405234801561001057600080fd5b50600436106102065760003560e01c80639e2bf22c1161011a578063e6886396116100ad578063f301af421161007c578063f301af4214610559578063f32077231461056c578063f5f8d3651461057f578063f7412baf14610592578063fd314098146105b957600080fd5b8063e68863961461050a578063e8111a1214610512578063f12297771461051b578063f25e55a51461052e57600080fd5b8063aaf5eb68116100e9578063aaf5eb68146104a1578063b66503cf146104b0578063c45a0155146104c3578063da09d19d146104ea57600080fd5b80639e2bf22c14610448578063a28d4c9c1461045b578063a7852afa1461046e578063aa4796521461048157600080fd5b80634d5ce0381161019d57806376f4be361161016c57806376f4be36146103a35780638dd598fb146103b657806399bcc052146103f55780639cc7f708146104085780639ce43f901461042857600080fd5b80634d5ce03814610328578063505897931461035b5780635a45d0521461037b578063638634ee1461039057600080fd5b80632ce9aead116101d95780632ce9aead146102985780633b881999146102b85780633e491d47146102e357806349dcc204146102f657600080fd5b806301316ddf1461020b57806318160ddd146102575780631be052891461026e578063221ca18c14610278575b600080fd5b61023d610219366004612243565b600e6020908152600092835260408084209091529082529020805460019091015482565b604080519283526020830191909152015b60405180910390f35b61026060085481565b60405190815260200161024e565b61026062093a8081565b61026061028636600461226f565b60006020819052908152604090205481565b6102606102a636600461226f565b60026020526000908152604090205481565b6102606102c6366004612243565b600560209081526000928352604080842090915290825290205481565b6102606102f1366004612243565b6105cc565b61023d61030436600461228c565b600a6020908152600092835260408084209091529082529020805460019091015482565b61034b61033636600461226f565b60076020526000908152604090205460ff1681565b604051901515815260200161024e565b6102606103693660046122ae565b600b6020526000908152604090205481565b61038e610389366004612243565b610834565b005b61026061039e36600461226f565b61086c565b6102606103b13660046122ae565b610890565b6103dd7f000000000000000000000000000000000000000000000000000000000000000081565b6040516001600160a01b03909116815260200161024e565b61026061040336600461226f565b6109c2565b6102606104163660046122ae565b60096020526000908152604090205481565b61026061043636600461226f565b60036020526000908152604090205481565b61038e61045636600461228c565b610a33565b61026061046936600461228c565b610b04565b61038e61047c3660046122dd565b610c47565b61026061048f36600461226f565b600f6020526000908152604090205481565b610260670de0b6b3a764000081565b61038e6104be366004612243565b610f87565b6103dd7f000000000000000000000000000000000000000000000000000000000000000081565b6102606104f836600461226f565b60016020526000908152604090205481565b600654610260565b610260600d5481565b61026061052936600461226f565b6112ce565b61026061053c366004612243565b600460209081526000928352604080842090915290825290205481565b6103dd6105673660046122ae565b61138c565b61038e61057a36600461228c565b6113b6565b61038e61058d3660046122dd565b61147f565b61023d6105a03660046122ae565b600c602052600090815260409020805460019091015482565b61023d6105c7366004612243565b611786565b6001600160a01b0382166000818152600460209081526040808320858452825280832054938352600e82528083208380529091528120549091829161061191906119a5565b6000848152600b602052604090205490915061063157600091505061082e565b600061063d8483610b04565b6000858152600b60205260408120549192509061065c906001906123c4565b90506000600161066c84846123c4565b111561077257825b61067f6001846123c4565b811015610770576000878152600a60208181526040808420858552808352818520825180840190935280548352600190810154838501528c865293909252929182906106cc9086906123db565b8152602001908152602001600020604051806040016040529081600082015481526020016001820154815250509050600061070b8b8460000151611786565b509050600061071e8c8460000151611786565b509050670de0b6b3a764000061073483836123c4565b856020015161074391906123f3565b61074d9190612412565b61075790876123db565b955050505050808061076890612434565b915050610674565b505b6000868152600a602090815260408083208584528252808320815180830190925280548083526001909101549282019290925291906107b2908a90611786565b506001600160a01b038a1660009081526005602090815260408083208c8452909152902054909150670de0b6b3a7640000906107ef9083906119a5565b6107f88b6112ce565b61080291906123c4565b836020015161081191906123f3565b61081b9190612412565b61082590846123db565b96505050505050505b92915050565b61083e82826119bc565b6001600160a01b03909316600090815260036020908152604080832060029092529091209390935590915550565b6001600160a01b03811660009081526001602052604081205461082e904290611b1b565b600d54600090806108a45750600092915050565b82600c60006108b46001856123c4565b815260200190815260200160002060000154116108dd576108d66001826123c4565b9392505050565b60008052600c6020527f13649b2456f1b42fef0f0040b3aaeabcd21a76a0f3f5defd4f583839455116e8548310156109185750600092915050565b6000806109266001846123c4565b90505b818111156109ba576000600261093f84846123c4565b6109499190612412565b61095390836123c4565b6000818152600c6020908152604091829020825180840190935280548084526001909101549183019190915291925090871415610994575095945050505050565b80518711156109a5578193506109b3565b6109b06001836123c4565b92505b5050610929565b509392505050565b6001600160a01b03811660009081526001602052604081205442106109e957506000919050565b6001600160a01b038216600090815260016020526040812054610a0d9042906123c4565b6001600160a01b0384166000908152602081905260409020549091506108d690826123f3565b336001600160a01b037f00000000000000000000000000000000000000000000000000000000000000001614610a6857600080fd5b8160086000828254610a7a91906123c4565b909155505060008181526009602052604081208054849290610a9d9084906123c4565b9091555050600081815260096020526040902054610abc908290611b2a565b610ac4611c03565b604080518281526020810184905233917ff279e6a1f5e320cca91135676d9cb6e44ca8a08c0b88342bcdb1144f6511b56891015b60405180910390a25050565b6000828152600b602052604081205480610b2257600091505061082e565b6000848152600a602052604081208491610b3d6001856123c4565b81526020019081526020016000206000015411610b6757610b5f6001826123c4565b91505061082e565b6000848152600a60209081526040808320838052909152902054831015610b9257600091505061082e565b600080610ba06001846123c4565b90505b81811115610c3e5760006002610bb984846123c4565b610bc39190612412565b610bcd90836123c4565b6000888152600a60209081526040808320848452825291829020825180840190935280548084526001909101549183019190915291925090871415610c185750935061082e92505050565b8051871115610c2957819350610c37565b610c346001836123c4565b92505b5050610ba3565b50949350505050565b601054600114610c5657600080fd5b6002601055336001600160a01b037f00000000000000000000000000000000000000000000000000000000000000001614610c9057600080fd5b6040516331a9108f60e11b8152600481018390526000907f00000000000000000000000000000000000000000000000000000000000000006001600160a01b031690636352211e90602401602060405180830381865afa158015610cf8573d6000803e3d6000fd5b505050506040513d601f19601f82011682018060405250810190610d1c919061244f565b905060005b8251811015610f7c57610d4c838281518110610d3f57610d3f61246c565b6020026020010151611ca7565b60036000868581518110610d6257610d6261246c565b60200260200101516001600160a01b03166001600160a01b03168152602001908152602001600020600060026000888781518110610da257610da261246c565b60200260200101516001600160a01b03166001600160a01b0316815260200190815260200160002060008491905055839190505550506000610dfd848381518110610def57610def61246c565b6020026020010151866105cc565b90504260046000868581518110610e1657610e1661246c565b60200260200101516001600160a01b03166001600160a01b0316815260200190815260200160002060008781526020019081526020016000208190555060036000858481518110610e6957610e6961246c565b60200260200101516001600160a01b03166001600160a01b031681526020019081526020016000205460056000868581518110610ea857610ea861246c565b6020908102919091018101516001600160a01b0316825281810192909252604090810160009081208982529092529020558015610f0357610f03848381518110610ef457610ef461246c565b60200260200101518483611e8a565b838281518110610f1557610f1561246c565b60200260200101516001600160a01b0316836001600160a01b03167f9aa05b3d70a9e3e2f004f039648839560576334fb45c81f91b6db03ad9e2efc983604051610f6191815260200190565b60405180910390a35080610f7481612434565b915050610d21565b505060016010555050565b601054600114610f9657600080fd5b600260105580610fa557600080fd5b6001600160a01b038216600090815260208190526040902054610fce57610fce82600042611f79565b610fd782611ca7565b6001600160a01b03841660009081526003602090815260408083206002835281842094909455939092556001909152205442106110455761101a82333084612068565b61102762093a8082612412565b6001600160a01b0383166000908152602081905260409020556110de565b6001600160a01b0382166000908152600160205260408120546110699042906123c4565b6001600160a01b0384166000908152602081905260408120549192509061109090836123f3565b905080831161109e57600080fd5b6110aa84333086612068565b62093a806110b882856123db565b6110c29190612412565b6001600160a01b03851660009081526020819052604090205550505b6001600160a01b03821660009081526020819052604090205461110057600080fd5b6040516370a0823160e01b81523060048201526000906001600160a01b038416906370a0823190602401602060405180830381865afa158015611147573d6000803e3d6000fd5b505050506040513d601f19601f8201168201806040525081019061116b9190612482565b905061117a62093a8082612412565b6001600160a01b03841660009081526020819052604090205411156111e55760405162461bcd60e51b815260206004820152601860248201527f50726f76696465642072657761726420746f6f20686967680000000000000000604482015260640160405180910390fd5b6111f262093a80426123db565b6001600160a01b03841660009081526001602090815260408083209390935560079052205460ff16611284576001600160a01b0383166000818152600760205260408120805460ff191660019081179091556006805491820181559091527ff652222313e28459528d920b65115c16c04f3efc82aaedc97be59f3f377c0d3f0180546001600160a01b03191690911790555b6040518281526001600160a01b0384169033907ff70d5c697de7ea828df48e5c4573cb2194c659f1901f70110c52b066dcf508269060200160405180910390a35050600160105550565b6000600854600014156112f757506001600160a01b031660009081526003602052604090205490565b6008546001600160a01b0383166000908152602081815260408083205460028352818420546001909352922054670de0b6b3a7640000929161133891611b1b565b6113418661086c565b61134b91906123c4565b61135591906123f3565b61135f91906123f3565b6113699190612412565b6001600160a01b03831660009081526003602052604090205461082e91906123db565b6006818154811061139c57600080fd5b6000918252602090912001546001600160a01b0316905081565b336001600160a01b037f000000000000000000000000000000000000000000000000000000000000000016146113eb57600080fd5b81600860008282546113fd91906123db565b9091555050600081815260096020526040812080548492906114209084906123db565b909155505060008181526009602052604090205461143f908290611b2a565b611447611c03565b604080518281526020810184905233917f90890809c654f11d6e72a28fa60149770a0d11ec6c92319d6ceb2bb0a4ea1a159101610af8565b60105460011461148e57600080fd5b600260105560405163430c208160e01b8152336004820152602481018390527f00000000000000000000000000000000000000000000000000000000000000006001600160a01b03169063430c208190604401602060405180830381865afa1580156114fe573d6000803e3d6000fd5b505050506040513d601f19601f82011682018060405250810190611522919061249b565b61152b57600080fd5b60005b815181101561177c5761154c828281518110610d3f57610d3f61246c565b600360008585815181106115625761156261246c565b60200260200101516001600160a01b03166001600160a01b031681526020019081526020016000206000600260008787815181106115a2576115a261246c565b60200260200101516001600160a01b03166001600160a01b03168152602001908152602001600020600084919050558391905055505060006115fd8383815181106115ef576115ef61246c565b6020026020010151856105cc565b905042600460008585815181106116165761161661246c565b60200260200101516001600160a01b03166001600160a01b03168152602001908152602001600020600086815260200190815260200160002081905550600360008484815181106116695761166961246c565b60200260200101516001600160a01b03166001600160a01b0316815260200190815260200160002054600560008585815181106116a8576116a861246c565b6020908102919091018101516001600160a01b0316825281810192909252604090810160009081208882529092529020558015611703576117038383815181106116f4576116f461246c565b60200260200101513383611e8a565b8282815181106117155761171561246c565b60200260200101516001600160a01b0316336001600160a01b03167f9aa05b3d70a9e3e2f004f039648839560576334fb45c81f91b6db03ad9e2efc98360405161176191815260200190565b60405180910390a3508061177481612434565b91505061152e565b5050600160105550565b6001600160a01b0382166000908152600f60205260408120548190806117b357600080925092505061199e565b6001600160a01b0385166000908152600e6020526040812085916117d86001856123c4565b81526020019081526020016000206000015411611875576001600160a01b0385166000908152600e60205260408120906118136001846123c4565b815260200190815260200160002060010154600e6000876001600160a01b03166001600160a01b03168152602001908152602001600020600060018461185991906123c4565b815260200190815260200160002060000154925092505061199e565b6001600160a01b0385166000908152600e602090815260408083208380529091529020548410156118ad57600080925092505061199e565b6000806118bb6001846123c4565b90505b8181111561196d57600060026118d484846123c4565b6118de9190612412565b6118e890836123c4565b6001600160a01b0389166000908152600e602090815260408083208484528252918290208251808401909352805480845260019091015491830191909152919250908814156119475760208101519051909650945061199e9350505050565b805188111561195857819350611966565b6119636001836123c4565b92505b50506118be565b506001600160a01b0386166000908152600e6020908152604080832093835292905220600181015490549093509150505b9250929050565b6000818310156119b557816108d6565b5090919050565b6001600160a01b0382166000908152600260209081526040808320546003909252822054600d54839291906119f4579250905061199e565b6001600160a01b038616600090815260208190526040902054611a1d57925042915061199e9050565b6000611a2883610890565b90506000611a446001600d54611a3e91906123c4565b88611b1b565b9050815b81811015611b0c576000818152600c60209081526040918290208251808401909352805483526001015490820181905215611af9576000600c81611a8d8560016123db565b8152602001908152602001600020604051806040016040529081600082015481526020016001820154815250509050600080611ad88d8460000151866000015187602001518d612160565b9092509050611ae782896123db565b9750611af48d8983611f79565b975050505b5080611b0481612434565b915050611a48565b50919792965091945050505050565b60008183106119b557816108d6565b6000828152600b602052604090205442908015801590611b7457506000848152600a602052604081208391611b606001856123c4565b815260200190815260200160002060000154145b15611bad576000848152600a602052604081208491611b946001856123c4565b8152602081019190915260400160002060010155611bfd565b60408051808201825283815260208082018681526000888152600a8352848120868252909252929020905181559051600191820155611bed9082906123db565b6000858152600b60205260409020555b50505050565b600d54428115801590611c35575080600c6000611c216001866123c4565b815260200190815260200160002060000154145b15611c6457600854600c6000611c4c6001866123c4565b81526020810191909152604001600020600101555050565b60408051808201825282815260085460208083019182526000868152600c90915292909220905181559051600191820155611ca09083906123db565b600d555050565b6001600160a01b0381166000908152600260209081526040808320546003909252822054600d5483929190611cdf5794909350915050565b6001600160a01b038516600090815260208190526040902054611d06579442945092505050565b6000611d1183610890565b905060006001600d54611d2491906123c4565b90506001611d3283836123c4565b1115611e0a57815b611d456001836123c4565b811015611e08576000818152600c60209081526040918290208251808401909352805483526001015490820181905215611df5576000600c81611d898560016123db565b8152602001908152602001600020604051806040016040529081600082015481526020016001820154815250509050600080611dd48c8460000151866000015187602001518d612160565b9092509050611de382896123db565b9750611df08c8983611f79565b975050505b5080611e0081612434565b915050611d3a565b505b6000818152600c60209081526040918290208251808401909352805483526001015490820181905215611e7c576000611e5d89611e468b61086c565b8451611e52908a6119a5565b85602001518a612160565b509050611e6a81866123db565b9450611e77898642611f79565b429550505b509196929550919350505050565b6000836001600160a01b03163b11611ea157600080fd5b604080516001600160a01b038481166024830152604480830185905283518084039091018152606490920183526020820180516001600160e01b031663a9059cbb60e01b1790529151600092839290871691611efd91906124bd565b6000604051808303816000865af19150503d8060008114611f3a576040519150601f19603f3d011682016040523d82523d6000602084013e611f3f565b606091505b5091509150818015611f69575080511580611f69575080806020019051810190611f69919061249b565b611f7257600080fd5b5050505050565b6001600160a01b0383166000908152600f60205260409020548015801590611fd557506001600160a01b0384166000908152600e602052604081208391611fc16001856123c4565b815260200190815260200160002060000154145b15611fff576001600160a01b0384166000908152600e602052604081208491611b946001856123c4565b60408051808201825283815260208082018681526001600160a01b0388166000908152600e83528481208682529092529290209051815590516001918201556120499082906123db565b6001600160a01b0385166000908152600f602052604090205550505050565b6000846001600160a01b03163b1161207f57600080fd5b604080516001600160a01b0385811660248301528481166044830152606480830185905283518084039091018152608490920183526020820180516001600160e01b03166323b872dd60e01b17905291516000928392908816916120e391906124bd565b6000604051808303816000865af19150503d8060008114612120576040519150601f19603f3d011682016040523d82523d6000602084013e612125565b606091505b509150915081801561214f57508051158061214f57508080602001905181019061214f919061249b565b61215857600080fd5b505050505050565b600080600061216f87856119a5565b6001600160a01b0389166000908152602081905260409020549091508590670de0b6b3a7640000906121c26121a48a896119a5565b6001600160a01b038d16600090815260016020526040902054611b1b565b6001600160a01b038c166000908152600160205260409020546121e6908690611b1b565b6121f091906123c4565b6121fa91906123f3565b61220491906123f3565b61220e9190612412565b9890975095505050505050565b6001600160a01b038116811461223057600080fd5b50565b803561223e8161221b565b919050565b6000806040838503121561225657600080fd5b82356122618161221b565b946020939093013593505050565b60006020828403121561228157600080fd5b81356108d68161221b565b6000806040838503121561229f57600080fd5b50508035926020909101359150565b6000602082840312156122c057600080fd5b5035919050565b634e487b7160e01b600052604160045260246000fd5b600080604083850312156122f057600080fd5b8235915060208084013567ffffffffffffffff8082111561231057600080fd5b818601915086601f83011261232457600080fd5b813581811115612336576123366122c7565b8060051b604051601f19603f8301168101818110858211171561235b5761235b6122c7565b60405291825284820192508381018501918983111561237957600080fd5b938501935b8285101561239e5761238f85612233565b8452938501939285019261237e565b8096505050505050509250929050565b634e487b7160e01b600052601160045260246000fd5b6000828210156123d6576123d66123ae565b500390565b600082198211156123ee576123ee6123ae565b500190565b600081600019048311821515161561240d5761240d6123ae565b500290565b60008261242f57634e487b7160e01b600052601260045260246000fd5b500490565b6000600019821415612448576124486123ae565b5060010190565b60006020828403121561246157600080fd5b81516108d68161221b565b634e487b7160e01b600052603260045260246000fd5b60006020828403121561249457600080fd5b5051919050565b6000602082840312156124ad57600080fd5b815180151581146108d657600080fd5b6000825160005b818110156124de57602081860181015185830152016124c4565b818111156124ed576000828501525b50919091019291505056fea2646970667358221220a22a6d9731fe98e7396bc8f8c9b50514291e16577c041398eaf2bd17fac19cd864736f6c634300080b0033a2646970667358221220050ef2c284efb85cc33b236199e225cd19590b93115ff70b69454acea810d17a64736f6c634300080b0033"
}