{
  "address": "0x460efd0b3be2Fe44856C3347AAc2A01e4C9eb09b",
  "abi": [
    {
      "inputs": [
        {
          "internalType": "address",
          "name": "_owner",
          "type": "address"
        },
        {
          "internalType": "contract Authority",
          "name": "_authority",
          "type": "address"
        }
      ],
      "stateMutability": "nonpayable",
      "type": "constructor"
    },
    {
      "anonymous": false,
      "inputs": [
        {
          "indexed": true,
          "internalType": "address",
          "name": "user",
          "type": "address"
        },
        {
          "indexed": true,
          "internalType": "contract Authority",
          "name": "newAuthority",
          "type": "address"
        }
      ],
      "name": "AuthorityUpdated",
      "type": "event"
    },
    {
      "anonymous": false,
      "inputs": [
        {
          "indexed": true,
          "internalType": "address",
          "name": "user",
          "type": "address"
        },
        {
          "indexed": true,
          "internalType": "address",
          "name": "newOwner",
          "type": "address"
        }
      ],
      "name": "OwnerUpdated",
      "type": "event"
    },
    {
      "anonymous": false,
      "inputs": [
        {
          "indexed": false,
          "internalType": "contract Vault",
          "name": "vault",
          "type": "address"
        },
        {
          "indexed": false,
          "internalType": "contract ERC20",
          "name": "underlying",
          "type": "address"
        }
      ],
      "name": "VaultDeployed",
      "type": "event"
    },
    {
      "inputs": [],
      "name": "authority",
      "outputs": [
        {
          "internalType": "contract Authority",
          "name": "",
          "type": "address"
        }
      ],
      "stateMutability": "view",
      "type": "function"
    },
    {
      "inputs": [
        {
          "internalType": "contract ERC20",
          "name": "underlying",
          "type": "address"
        }
      ],
      "name": "deployVault",
      "outputs": [
        {
          "internalType": "contract Vault",
          "name": "vault",
          "type": "address"
        }
      ],
      "stateMutability": "nonpayable",
      "type": "function"
    },
    {
      "inputs": [
        {
          "internalType": "contract ERC20",
          "name": "underlying",
          "type": "address"
        }
      ],
      "name": "getVaultFromUnderlying",
      "outputs": [
        {
          "internalType": "contract Vault",
          "name": "",
          "type": "address"
        }
      ],
      "stateMutability": "view",
      "type": "function"
    },
    {
      "inputs": [
        {
          "internalType": "contract Vault",
          "name": "vault",
          "type": "address"
        }
      ],
      "name": "isVaultDeployed",
      "outputs": [
        {
          "internalType": "bool",
          "name": "",
          "type": "bool"
        }
      ],
      "stateMutability": "view",
      "type": "function"
    },
    {
      "inputs": [],
      "name": "owner",
      "outputs": [
        {
          "internalType": "address",
          "name": "",
          "type": "address"
        }
      ],
      "stateMutability": "view",
      "type": "function"
    },
    {
      "inputs": [
        {
          "internalType": "contract Authority",
          "name": "newAuthority",
          "type": "address"
        }
      ],
      "name": "setAuthority",
      "outputs": [],
      "stateMutability": "nonpayable",
      "type": "function"
    },
    {
      "inputs": [
        {
          "internalType": "address",
          "name": "newOwner",
          "type": "address"
        }
      ],
      "name": "setOwner",
      "outputs": [],
      "stateMutability": "nonpayable",
      "type": "function"
    }
  ],
  "transactionHash": "0xf1913bd17b23df4519a780a84363cb6741585ff548c3489ea5edd371f3c7b53b",
  "args": [
    "0x1594B6Fd7C346376E51C4Cf46525a9c57c5ea916",
    "0xcbb46b017e8d785C107e97c56135894b3eAD599C"
  ],
  "numDeployments": 1,
  "solcInputHash": "edd68036c391002ae2af5111886505d2",
  "bytecode": "0x608060405234801561001057600080fd5b5060405161500f38038061500f83398101604081905261002f916100e1565b600080546001600160a01b03199081166001600160a01b0385811691821784556001805490931690851617909155604051849284929133917f8292fce18fa69edf4db7b94ea2e58241df0ae57f97e0a6c9b29067028bf92d7691a36040516001600160a01b0382169033907fa3396fd7f6e0a21b50e5089d2da70d5ac0a3bbbd1f617a93f134b7638998019890600090a35050505061011b565b6001600160a01b03811681146100de57600080fd5b50565b600080604083850312156100f457600080fd5b82516100ff816100c9565b6020840151909250610110816100c9565b809150509250929050565b614ee58061012a6000396000f3fe60806040523480156200001157600080fd5b5060043610620000875760003560e01c80637a9e5e4b11620000625780637a9e5e4b14620000f05780637d6020f414620001075780638da5cb5b1462000138578063bf7e214f146200014c57600080fd5b806313af4035146200008c578063252dd0cb14620000a55780635eb512e714620000d9575b600080fd5b620000a36200009d36600462000556565b62000160565b005b620000bc620000b636600462000556565b62000203565b6040516001600160a01b0390911681526020015b60405180910390f35b620000bc620000ea36600462000556565b620002f0565b620000a36200010136600462000556565b6200038d565b620001276200011836600462000556565b6001600160a01b03163b151590565b6040519015158152602001620000d0565b600054620000bc906001600160a01b031681565b600154620000bc906001600160a01b031681565b62000178336000356001600160e01b0319166200047e565b620001b85760405162461bcd60e51b815260206004820152600c60248201526b15539055551213d49256915160a21b604482015260640160405180910390fd5b600080546001600160a01b0319166001600160a01b0383169081178255604051909133917f8292fce18fa69edf4db7b94ea2e58241df0ae57f97e0a6c9b29067028bf92d769190a350565b6000620002ea6001600160f81b031930606085901b6001600160601b03191660405162000233602082016200052f565b601f1982820381018352601f9091011660408181526001600160a01b03891660208301520160408051601f1981840301815290829052620002789291602001620005bb565b60405160208183030381529060405280519060200120604051602001620002d194939291906001600160f81b031994909416845260609290921b6001600160601b03191660018401526015830152603582015260550190565b6040516020818303038152906040528051906020012090565b92915050565b6000606082901b6001600160601b0319168260405162000310906200052f565b6001600160a01b0390911681526020018190604051809103906000f590508015801562000341573d6000803e3d6000fd5b50604080516001600160a01b038084168252851660208201529192507f09d75e12e349f79020715b0ea7b2c707e8acf1889b6d6f1337fce7f4e1b9e5c7910160405180910390a1919050565b6000546001600160a01b031633148062000428575060015460405163b700961360e01b81526001600160a01b039091169063b700961390620003e490339030906001600160e01b03196000351690600401620005d4565b602060405180830381865afa15801562000402573d6000803e3d6000fd5b505050506040513d601f19601f8201168201806040525081019062000428919062000601565b6200043257600080fd5b600180546001600160a01b0319166001600160a01b03831690811790915560405133907fa3396fd7f6e0a21b50e5089d2da70d5ac0a3bbbd1f617a93f134b7638998019890600090a350565b6001546000906001600160a01b031680158015906200050e575060405163b700961360e01b81526001600160a01b0382169063b700961390620004ca90879030908890600401620005d4565b602060405180830381865afa158015620004e8573d6000803e3d6000fd5b505050506040513d601f19601f820116820180604052508101906200050e919062000601565b806200052757506000546001600160a01b038581169116145b949350505050565b61488a806200062683390190565b6001600160a01b03811681146200055357600080fd5b50565b6000602082840312156200056957600080fd5b813562000576816200053d565b9392505050565b6000815160005b81811015620005a0576020818501810151868301520162000584565b81811115620005b0576000828601525b509290920192915050565b600062000527620005cd83866200057d565b846200057d565b6001600160a01b0393841681529190921660208201526001600160e01b0319909116604082015260600190565b6000602082840312156200061457600080fd5b815180151581146200057657600080fdfe6101206040523480156200001257600080fd5b506040516200488a3803806200488a8339810160408190526200003591620004db565b336001600160a01b0316638da5cb5b6040518163ffffffff1660e01b8152600401602060405180830381865afa15801562000074573d6000803e3d6000fd5b505050506040513d601f19601f820116820180604052508101906200009a9190620004db565b336001600160a01b031663bf7e214f6040518163ffffffff1660e01b8152600401602060405180830381865afa158015620000d9573d6000803e3d6000fd5b505050506040513d601f19601f82011682018060405250810190620000ff9190620004db565b826001600160a01b03166306fdde036040518163ffffffff1660e01b8152600401600060405180830381865afa1580156200013e573d6000803e3d6000fd5b505050506040513d6000823e601f3d908101601f191682016040526200016891908101906200054b565b6040516020016200017a919062000603565b604051602081830303815290604052836001600160a01b03166395d89b416040518163ffffffff1660e01b8152600401600060405180830381865afa158015620001c8573d6000803e3d6000fd5b505050506040513d6000823e601f3d908101601f19168201604052620001f291908101906200054b565b60405160200162000204919062000643565b604051602081830303815290604052846001600160a01b031663313ce5676040518163ffffffff1660e01b8152600401602060405180830381865afa15801562000252573d6000803e3d6000fd5b505050506040513d601f19601f820116820180604052508101906200027891906200066f565b82516200028d9060009060208601906200041c565b508151620002a39060019060208501906200041c565b5060ff81166080524660a052620002b962000380565b60c0525050600680546001600160a01b038086166001600160a01b03199283168117909355600780549186169190921617905560405190915033907f8292fce18fa69edf4db7b94ea2e58241df0ae57f97e0a6c9b29067028bf92d7690600090a36040516001600160a01b0382169033907fa3396fd7f6e0a21b50e5089d2da70d5ac0a3bbbd1f617a93f134b7638998019890600090a350506001600160a01b03811660e0526080516200036f90600a620007a9565b61010052506000196002556200089b565b60007f8b73c3c69bb8fe3d512ecc4cf759cc79239f7b179b0ffacaa9a75d522b39400f6000604051620003b49190620007f7565b6040805191829003822060208301939093528101919091527fc89efdaa54c0f20c7adf612882df0950f5a951637e0307cdcb4c672f298b8bc660608201524660808201523060a082015260c00160405160208183030381529060405280519060200120905090565b8280546200042a90620007ba565b90600052602060002090601f0160209004810192826200044e576000855562000499565b82601f106200046957805160ff191683800117855562000499565b8280016001018555821562000499579182015b82811115620004995782518255916020019190600101906200047c565b50620004a7929150620004ab565b5090565b5b80821115620004a75760008155600101620004ac565b6001600160a01b0381168114620004d857600080fd5b50565b600060208284031215620004ee57600080fd5b8151620004fb81620004c2565b9392505050565b634e487b7160e01b600052604160045260246000fd5b60005b83811015620005355781810151838201526020016200051b565b8381111562000545576000848401525b50505050565b6000602082840312156200055e57600080fd5b81516001600160401b03808211156200057657600080fd5b818401915084601f8301126200058b57600080fd5b815181811115620005a057620005a062000502565b604051601f8201601f19908116603f01168101908382118183101715620005cb57620005cb62000502565b81604052828152876020848701011115620005e557600080fd5b620005f883602083016020880162000518565b979650505050505050565b65020b8343930960d51b8152600082516200062681600685016020870162000518565b650815985d5b1d60d21b6006939091019283015250600c01919050565b6130bb60f11b8152600082516200066281600285016020870162000518565b9190910160020192915050565b6000602082840312156200068257600080fd5b815160ff81168114620004fb57600080fd5b634e487b7160e01b600052601160045260246000fd5b600181815b80851115620006eb578160001904821115620006cf57620006cf62000694565b80851615620006dd57918102915b93841c9390800290620006af565b509250929050565b6000826200070457506001620007a3565b816200071357506000620007a3565b81600181146200072c5760028114620007375762000757565b6001915050620007a3565b60ff8411156200074b576200074b62000694565b50506001821b620007a3565b5060208310610133831016604e8410600b84101617156200077c575081810a620007a3565b620007888383620006aa565b80600019048211156200079f576200079f62000694565b0290505b92915050565b6000620004fb60ff841683620006f3565b600181811c90821680620007cf57607f821691505b60208210811415620007f157634e487b7160e01b600052602260045260246000fd5b50919050565b600080835481600182811c9150808316806200081457607f831692505b60208084108214156200083557634e487b7160e01b86526022600452602486fd5b8180156200084c57600181146200085e576200088d565b60ff198616895284890196506200088d565b60008a81526020902060005b86811015620008855781548b8201529085019083016200086a565b505084890196505b509498975050505050505050565b60805160a05160c05160e05161010051613f4f6200093b60003960008181611434015281816116c8015281816116ff0152818161172a0152612c9d0152600081816109db015281816114db01528181611dc701528181612145015281816122110152818161246e0152818161251a01528181612dc8015281816131ed015261377e0152600061167d015260006116480152600061061b0152613f4f6000f3fe60806040526004361061039b5760003560e01c80637ce3489b116101dc578063c5d664c611610102578063e9ec2e99116100a0578063eed74e671161006f578063eed74e6714610b5f578063f1a392da14610b7f578063f84d73f414610ba6578063f97d2ed714610bc057600080fd5b8063e9ec2e9914610af4578063ec523afd14610b09578063ecad956514610b29578063ed2c552114610b3f57600080fd5b8063d00364be116100dc578063d00364be14610a3d578063d505accf14610a7c578063db006a7514610a9c578063dd62ed3e14610abc57600080fd5b8063c5d664c6146109c9578063c866983b146109fd578063c89d346014610a1d57600080fd5b806395d89b411161017a578063b6b55f2511610149578063b6b55f2514610949578063bd662f8814610969578063bdf06c8e14610989578063bf7e214f146109a957600080fd5b806395d89b41146108d4578063a9059cbb146108e9578063ac68a74814610909578063b53d09581461092957600080fd5b80638129fc1c116101b65780638129fc1c1461087557806383197ef01461088a578063841219e51461089f5780638da5cb5b146108b457600080fd5b80637ce3489b146108125780637ecebe00146108325780637fd6f15c1461085f57600080fd5b8063313ce567116102c1578063448f56b91161025f57806370a082311161022e57806370a082311461077e578063797ba463146107ab5780637a9e5e4b146107d25780637b72aeb9146107f257600080fd5b8063448f56b9146106f557806344b81396146107345780634a3c39901461074957806360dc8fac1461076957600080fd5b80633644e5151161029b5780633644e51514610691578063392e53cd146106a65780633af9e669146106c05780633ba0b9a9146106e057600080fd5b8063313ce5671461060957806332ff77321461064f57806334051c031461066f57600080fd5b80631c693478116103395780632493fea6116103085780632493fea6146105365780632968676e146105565780632e1a7d4d146105b557806330adf81f146105d557600080fd5b80631c693478146104c057806320ea2cc3146104d657806323152745146104f657806323b872dd1461051657600080fd5b8063136a8ce711610375578063136a8ce71461042457806313af40351461045c57806316e5440a1461047c57806318160ddd1461049c57600080fd5b806306fdde03146103a757806307b35d1d146103d2578063095ea7b3146103f457600080fd5b366103a257005b600080fd5b3480156103b357600080fd5b506103bc610be0565b6040516103c99190613865565b60405180910390f35b3480156103de57600080fd5b506103f26103ed3660046138ba565b610c6e565b005b34801561040057600080fd5b5061041461040f3660046138ff565b610d66565b60405190151581526020016103c9565b34801561043057600080fd5b5061044461043f36600461392b565b610dd2565b6040516001600160a01b0390911681526020016103c9565b34801561046857600080fd5b506103f2610477366004613944565b610dfc565b34801561048857600080fd5b506103f261049736600461392b565b610e7a565b3480156104a857600080fd5b506104b260025481565b6040519081526020016103c9565b3480156104cc57600080fd5b506104b2600a5481565b3480156104e257600080fd5b506103f26104f1366004613944565b610fde565b34801561050257600080fd5b506103f2610511366004613961565b611128565b34801561052257600080fd5b506104146105313660046139d5565b6111ef565b34801561054257600080fd5b506103f2610551366004613a16565b6112cf565b34801561056257600080fd5b50610596610571366004613944565b600d6020526000908152604090205460ff81169061010090046001600160f81b031682565b6040805192151583526001600160f81b039091166020830152016103c9565b3480156105c157600080fd5b506103f26105d036600461392b565b611421565b3480156105e157600080fd5b506104b27f6e71edae12b1b97f4d1f60370fef10105fa2faae0126114a169c64845d6126c981565b34801561061557600080fd5b5061063d7f000000000000000000000000000000000000000000000000000000000000000081565b60405160ff90911681526020016103c9565b34801561065b57600080fd5b506103f261066a366004613a46565b61149f565b34801561067b57600080fd5b506106846115e2565b6040516103c99190613a63565b34801561069d57600080fd5b506104b2611644565b3480156106b257600080fd5b506010546104149060ff1681565b3480156106cc57600080fd5b506104b26106db366004613944565b61169f565b3480156106ec57600080fd5b506104b26116f2565b34801561070157600080fd5b5060095461071c90600160801b90046001600160401b031681565b6040516001600160401b0390911681526020016103c9565b34801561074057600080fd5b506104b261175e565b34801561075557600080fd5b506103f2610764366004613944565b6117c5565b34801561077557600080fd5b506103f26118b1565b34801561078a57600080fd5b506104b2610799366004613944565b60036020526000908152604090205481565b3480156107b757600080fd5b5060095461071c90600160c01b90046001600160401b031681565b3480156107de57600080fd5b506103f26107ed366004613944565b61198e565b3480156107fe57600080fd5b506103f261080d366004613ab0565b611a78565b34801561081e57600080fd5b506103f261082d36600461392b565b611c11565b34801561083e57600080fd5b506104b261084d366004613944565b60056020526000908152604090205481565b34801561086b57600080fd5b506104b260085481565b34801561088157600080fd5b506103f2611cc1565b34801561089657600080fd5b506103f2611d7a565b3480156108ab57600080fd5b506104b2611daf565b3480156108c057600080fd5b50600654610444906001600160a01b031681565b3480156108e057600080fd5b506103bc611e3a565b3480156108f557600080fd5b506104146109043660046138ff565b611e47565b34801561091557600080fd5b506103f261092436600461392b565b611ead565b34801561093557600080fd5b506103f26109443660046138ff565b611f1f565b34801561095557600080fd5b506103f261096436600461392b565b6121bb565b34801561097557600080fd5b506103f261098436600461392b565b612239565b34801561099557600080fd5b506103f26109a43660046138ff565b6122ec565b3480156109b557600080fd5b50600754610444906001600160a01b031681565b3480156109d557600080fd5b506104447f000000000000000000000000000000000000000000000000000000000000000081565b348015610a0957600080fd5b506103f2610a18366004613944565b6125e7565b348015610a2957600080fd5b506103f2610a38366004613961565b612663565b348015610a4957600080fd5b50600e54610a6490600160801b90046001600160801b031681565b6040516001600160801b0390911681526020016103c9565b348015610a8857600080fd5b506103f2610a97366004613ae8565b612a3b565b348015610aa857600080fd5b506103f2610ab736600461392b565b612c8c565b348015610ac857600080fd5b506104b2610ad7366004613b59565b600460209081526000928352604080842090915290825290205481565b348015610b0057600080fd5b506104b2612d0c565b348015610b1557600080fd5b506103f2610b24366004613944565b612d2e565b348015610b3557600080fd5b506104b2600c5481565b348015610b4b57600080fd5b506103f2610b5a366004613b92565b612ef4565b348015610b6b57600080fd5b50600e5461071c906001600160401b031681565b348015610b8b57600080fd5b50600e5461071c90600160401b90046001600160401b031681565b348015610bb257600080fd5b50600b546104149060ff1681565b348015610bcc57600080fd5b50600954610a64906001600160801b031681565b60008054610bed90613bb7565b80601f0160208091040260200160405190810160405280929190818152602001828054610c1990613bb7565b8015610c665780601f10610c3b57610100808354040283529160200191610c66565b820191906000526020600020905b815481529060010190602001808311610c4957829003601f168201915b505050505081565b610c84336000356001600160e01b031916612fc7565b610ca95760405162461bcd60e51b8152600401610ca090613bf2565b60405180910390fd5b600954600160801b90046001600160401b03166001600160801b0382161115610d065760405162461bcd60e51b815260206004820152600f60248201526e57494e444f575f544f4f5f4c4f4e4760881b6044820152606401610ca0565b600980546fffffffffffffffffffffffffffffffff19166001600160801b03831690811790915560405190815233907ff61ebd3c01f656aba479c738a8744215d6f1ec2c19169500f3bff0a9d8374ce1906020015b60405180910390a250565b3360008181526004602090815260408083206001600160a01b038716808552925280832085905551919290917f8c5be1e5ebec7d5bd14f71427d1e84f3dd0314c0f7b2291e5b200ac8c7c3b92590610dc19086815260200190565b60405180910390a350600192915050565b600f8181548110610de257600080fd5b6000918252602090912001546001600160a01b0316905081565b610e12336000356001600160e01b031916612fc7565b610e2e5760405162461bcd60e51b8152600401610ca090613bf2565b600680546001600160a01b0319166001600160a01b03831690811790915560405133907f8292fce18fa69edf4db7b94ea2e58241df0ae57f97e0a6c9b29067028bf92d7690600090a350565b610e90336000356001600160e01b031916612fc7565b610eac5760405162461bcd60e51b8152600401610ca090613bf2565b600f805460009190610ec090600190613c2e565b81548110610ed057610ed0613c45565b6000918252602082200154600f80546001600160a01b0390921693509084908110610efd57610efd613c45565b600091825260209091200154600f80546001600160a01b039092169250839185908110610f2c57610f2c613c45565b9060005260206000200160006101000a8154816001600160a01b0302191690836001600160a01b03160217905550600f805480610f6b57610f6b613c5b565b600082815260209020810160001990810180546001600160a01b03191690550190556040516001600160a01b03838116919083169033907f473192fe0c9f1496de6fb6e5c8d6ad88651b595d4e00ff84da3824c86bd8fc0c90610fd19088815260200190565b60405180910390a4505050565b610ff4336000356001600160e01b031916612fc7565b6110105760405162461bcd60e51b8152600401610ca090613bf2565b6001600160a01b0381166000908152600d602052604090205461010090046001600160f81b031661103f612d0c565b81111561105657600e80546001600160801b031690555b6001600160a01b0382166000818152600d6020526040808220805460ff169055600c805485900390555133917fe5211b194c7994bf5eba21ddab25713549e67c4c84028d2f28c1377195de0fb991a36040516370a0823160e01b81523060048201526111249033906001600160a01b038516906370a0823190602401602060405180830381865afa1580156110ef573d6000803e3d6000fd5b505050506040513d601f19601f820116820180604052508101906111139190613c71565b6001600160a01b0385169190613071565b5050565b61113e336000356001600160e01b031916612fc7565b61115a5760405162461bcd60e51b8152600401610ca090613bf2565b602081111561119b5760405162461bcd60e51b815260206004820152600d60248201526c535441434b5f544f4f5f42494760981b6044820152606401610ca0565b6111a7600f83836137f6565b50336001600160a01b03167ff110ec6f3f76ff60fb27d301a8a5d810ca482392df21dc15cdb1492922b8b0b383836040516111e3929190613c8a565b60405180910390a25050565b6001600160a01b0383166000908152600460209081526040808320338452909152812054600019811461124b576112268382613c2e565b6001600160a01b03861660009081526004602090815260408083203384529091529020555b6001600160a01b03851660009081526003602052604081208054859290611273908490613c2e565b90915550506001600160a01b0380851660008181526003602052604090819020805487019055519091871690600080516020613efa833981519152906112bc9087815260200190565b60405180910390a3506001949350505050565b6112e5336000356001600160e01b031916612fc7565b6113015760405162461bcd60e51b8152600401610ca090613bf2565b6000600f838154811061131657611316613c45565b6000918252602082200154600f80546001600160a01b039092169350908490811061134357611343613c45565b600091825260209091200154600f80546001600160a01b03909216925082918690811061137257611372613c45565b9060005260206000200160006101000a8154816001600160a01b0302191690836001600160a01b0316021790555081600f84815481106113b4576113b4613c45565b60009182526020918290200180546001600160a01b0319166001600160a01b03938416179055604080518781529182018690528483169284169133917f5d605201cae91441cf473a96f9217ad688f1ee9d42c1cfb6ed1be9fb50576c30910160405180910390a450505050565b61145d336114586114306116f2565b84907f00000000000000000000000000000000000000000000000000000000000000006130f0565b613112565b60405181815233907f884edad9ce6fa2440d8a54cc123490eb96d2768479d49ff9c7366125a94243649060200160405180910390a261149c338261317c565b50565b6114b5336000356001600160e01b031916612fc7565b6114d15760405162461bcd60e51b8152600401610ca090613bf2565b80158061156257507f00000000000000000000000000000000000000000000000000000000000000006001600160a01b031663313ce5676040518163ffffffff1660e01b8152600401602060405180830381865afa158015611537573d6000803e3d6000fd5b505050506040513d601f19601f8201168201806040525081019061155b9190613cd8565b60ff166012145b61159f5760405162461bcd60e51b815260206004820152600e60248201526d57524f4e475f444543494d414c5360901b6044820152606401610ca0565b600b805460ff191682151590811790915560405190815233907f6375b140d4463d47b864f1f47e5d2893cc3478e73aedcc268b054fab0230a84190602001610d5b565b6060600f80548060200260200160405190810160405280929190818152602001828054801561163a57602002820191906000526020600020905b81546001600160a01b0316815260019091019060200180831161161c575b5050505050905090565b60007f0000000000000000000000000000000000000000000000000000000000000000461461167a57611675613219565b905090565b507f000000000000000000000000000000000000000000000000000000000000000090565b60006116ec6116ac6116f2565b6001600160a01b038416600090815260036020526040902054907f00000000000000000000000000000000000000000000000000000000000000006132b3565b92915050565b60025460009080611724577f000000000000000000000000000000000000000000000000000000000000000091505090565b611758817f0000000000000000000000000000000000000000000000000000000000000000611751612d0c565b91906130f0565b91505090565b600e546009546000916001600160401b03600160401b909104811691600160801b90041680820142106117945760009250505090565b600e54600160801b90046001600160801b031681428490038202816117bb576117bb613cf5565b0490039392505050565b6117db336000356001600160e01b031916612fc7565b6117f75760405162461bcd60e51b8152600401610ca090613bf2565b600f546020116118365760405162461bcd60e51b815260206004820152600a60248201526914d51050d2d7d195531360b21b6044820152606401610ca0565b600f805460018101825560009182527f8d1108e10bcb7c27dddfc02ed9d693a074039d026cf4ea4240b40f7d581ac8020180546001600160a01b0319166001600160a01b038416908117909155604051909133917f5abc18e64ea5219f39a4afb4519bdb3d895e6ec8282ec44db4c253289abdab1b9190a350565b6118c7336000356001600160e01b031916612fc7565b6118e35760405162461bcd60e51b8152600401610ca090613bf2565b600f8054600091906118f790600190613c2e565b8154811061190757611907613c45565b600091825260209091200154600f80546001600160a01b039092169250908061193257611932613c5b565b600082815260208120820160001990810180546001600160a01b03191690559091019091556040516001600160a01b0383169133917f61d23abf676b955085fda50d45f510cdab69e13e63afebdde7f4453b529fbfdc9190a350565b6006546001600160a01b0316331480611a23575060075460405163b700961360e01b81526001600160a01b039091169063b7009613906119e290339030906001600160e01b03196000351690600401613d0b565b602060405180830381865afa1580156119ff573d6000803e3d6000fd5b505050506040513d601f19601f82011682018060405250810190611a239190613d38565b611a2c57600080fd5b600780546001600160a01b0319166001600160a01b03831690811790915560405133907fa3396fd7f6e0a21b50e5089d2da70d5ac0a3bbbd1f617a93f134b7638998019890600090a350565b611a8e336000356001600160e01b031916612fc7565b611aaa5760405162461bcd60e51b8152600401610ca090613bf2565b6001600160401b038116611af75760405162461bcd60e51b815260206004820152601460248201527344454c41595f43414e4e4f545f42455f5a45524f60601b6044820152606401610ca0565b6301e13380816001600160401b03161115611b455760405162461bcd60e51b815260206004820152600e60248201526d44454c41595f544f4f5f4c4f4e4760901b6044820152606401610ca0565b600954600160801b90046001600160401b0316611bb9576009805467ffffffffffffffff60801b1916600160801b6001600160401b0384169081029190911790915560405190815233907fe893fa207c5a5094cad036347b877c23ebecd9df94ae0426f287040c13220b3f90602001610d5b565b600980546001600160c01b0316600160c01b6001600160401b0384169081029190911790915560405190815233907f342b344c0ac2ffff8f84b1d82d8235a2401a0accf4666f1fec4a1c3cdf1d29e790602001610d5b565b611c27336000356001600160e01b031916612fc7565b611c435760405162461bcd60e51b8152600401610ca090613bf2565b670de0b6b3a7640000811115611c8a5760405162461bcd60e51b815260206004820152600c60248201526b08c8a8abea89e9ebe90928e960a31b6044820152606401610ca0565b600881905560405181815233907fec370615cc81fb334e5566fbc80664d9082377bf59288d64a79f3fbecf4323a990602001610d5b565b611cd7336000356001600160e01b031916612fc7565b611cf35760405162461bcd60e51b8152600401610ca090613bf2565b60105460ff1615611d3c5760405162461bcd60e51b81526020600482015260136024820152721053149150511657d253925512505312569151606a1b6044820152606401610ca0565b6010805460ff191660011790556000600281905560405133917f908408e307fc569b417f6cbec5d5a06f44a0a505ac0479b47d421a4b2fd6a1e691a2565b611d90336000356001600160e01b031916612fc7565b611dac5760405162461bcd60e51b8152600401610ca090613bf2565b33ff5b6040516370a0823160e01b81523060048201526000907f00000000000000000000000000000000000000000000000000000000000000006001600160a01b0316906370a0823190602401602060405180830381865afa158015611e16573d6000803e3d6000fd5b505050506040513d601f19601f820116820180604052508101906116759190613c71565b60018054610bed90613bb7565b33600090815260036020526040812080548391908390611e68908490613c2e565b90915550506001600160a01b03831660008181526003602052604090819020805485019055513390600080516020613efa83398151915290610dc19086815260200190565b611ec3336000356001600160e01b031916612fc7565b611edf5760405162461bcd60e51b8152600401610ca090613bf2565b60405181815233907f9493e5bbe4e8e0ac67284469a2d677403d0378a85a59e341d3abc433d0d9a2099060200160405180910390a261149c303383613071565b611f35336000356001600160e01b031916612fc7565b611f515760405162461bcd60e51b8152600401610ca090613bf2565b6001600160a01b0382166000908152600d602052604090205460ff16611f895760405162461bcd60e51b8152600401610ca090613d55565b611f92816132ce565b6001600160a01b0383166000908152600d602052604090208054600190611fc890849061010090046001600160f81b0316613d81565b82546001600160f81b039182166101009390930a928302919092021990911617905550600c805482900390556040518181526001600160a01b0383169033907f8d851b682e239b1de720e92e5c5cffdb72d353104cc63dc6ed144d7080217fbe9060200160405180910390a360405163852a12e360e01b8152600481018290526001600160a01b0383169063852a12e3906024016020604051808303816000875af115801561207b573d6000803e3d6000fd5b505050506040513d601f19601f8201168201806040525081019061209f9190613c71565b156120dc5760405162461bcd60e51b815260206004820152600d60248201526c14915111515357d19052531151609a1b6044820152606401610ca0565b816001600160a01b031663ac784ddc6040518163ffffffff1660e01b8152600401602060405180830381865afa15801561211a573d6000803e3d6000fd5b505050506040513d601f19601f8201168201806040525081019061213e9190613d38565b15611124577f00000000000000000000000000000000000000000000000000000000000000006001600160a01b031663d0e30db0826040518263ffffffff1660e01b81526004016000604051808303818588803b15801561219e57600080fd5b505af11580156121b2573d6000803e3d6000fd5b50505050505050565b6121cf336121ca6114306116f2565b6132e8565b60405181815233907fe1fffcc4923d04b559f4d29a8bfc6cda04eb5b0d3c460751c2402c5c5cc9109c9060200160405180910390a261149c6001600160a01b037f00000000000000000000000000000000000000000000000000000000000000001633308461333a565b61224f336000356001600160e01b031916612fc7565b61226b5760405162461bcd60e51b8152600401610ca090613bf2565b670de0b6b3a76400008111156122b55760405162461bcd60e51b815260206004820152600f60248201526e0a882a48e8aa8bea89e9ebe90928e9608b1b6044820152606401610ca0565b600a81905560405181815233907f95bc4480b51f4860106d42850bcae222cf3303fb2b7d433e896205e0ebefe36990602001610d5b565b612302336000356001600160e01b031916612fc7565b61231e5760405162461bcd60e51b8152600401610ca090613bf2565b6001600160a01b0382166000908152600d602052604090205460ff166123565760405162461bcd60e51b8152600401610ca090613d55565b80600c60008282546123689190613da9565b909155506123779050816132ce565b6001600160a01b0383166000818152600d60205260409081902080546001600160f81b0361010080830482169096011690940260ff90941693909317909255905133907f49e9138fe0dacf001ea634236e38aa8bd229efd55ec4d7975228d679db6ce8f9906123e99085815260200190565b60405180910390a3816001600160a01b031663ac784ddc6040518163ffffffff1660e01b8152600401602060405180830381865afa15801561242f573d6000803e3d6000fd5b505050506040513d601f19601f820116820180604052508101906124539190613d38565b1561250d57604051632e1a7d4d60e01b8152600481018290527f00000000000000000000000000000000000000000000000000000000000000006001600160a01b031690632e1a7d4d90602401600060405180830381600087803b1580156124ba57600080fd5b505af11580156124ce573d6000803e3d6000fd5b50505050816001600160a01b0316631249c58b826040518263ffffffff1660e01b81526004016000604051808303818588803b15801561219e57600080fd5b6125416001600160a01b037f00000000000000000000000000000000000000000000000000000000000000001683836133ce565b60405163140e25ad60e31b8152600481018290526001600160a01b0383169063a0712d68906024016020604051808303816000875af1158015612588573d6000803e3d6000fd5b505050506040513d601f19601f820116820180604052508101906125ac9190613c71565b156111245760405162461bcd60e51b815260206004820152600b60248201526a1352539517d1905253115160aa1b6044820152606401610ca0565b6125fd336000356001600160e01b031916612fc7565b6126195760405162461bcd60e51b8152600401610ca090613bf2565b6001600160a01b0381166000818152600d6020526040808220805460ff191690555133917fff8fe190f3935e9e8681ce444b08be824a6be3e5184465ddbd710cc4f1a9f2f291a350565b612679336000356001600160e01b031916612fc7565b6126955760405162461bcd60e51b8152600401610ca090613bf2565b600954600e546126bf916001600160401b03600160801b909104811691600160401b900416613dc1565b6001600160401b031642106126ef57600e805467ffffffffffffffff1916426001600160401b031617905561275c565b600954600e54612711916001600160801b0316906001600160401b0316613dec565b6001600160801b031642111561275c5760405162461bcd60e51b815260206004820152601060248201526f4241445f484152564553545f54494d4560801b6044820152606401610ca0565b600c54600081815b848110156128dc57600086868381811061278057612780613c45565b90506020020160208101906127959190613944565b6001600160a01b0381166000908152600d602052604090205490915060ff166127d05760405162461bcd60e51b8152600401610ca090613d55565b6001600160a01b0381166000818152600d6020526040808220549051633af9e66960e01b81523060048201526101009091046001600160f81b03169290633af9e669906024016020604051808303816000875af1158015612835573d6000803e3d6000fd5b505050506040513d601f19601f820116820180604052508101906128599190613c71565b9050612864816132ce565b6001600160a01b0384166000908152600d6020526040902080546001600160f81b03929092166101000260ff909216919091179055816128a48287613da9565b6128ae9190613c2e565b94508181116128be5760006128c2565b8181035b8601955050505080806128d490613e0e565b915050612764565b506008546000906128f7908490670de0b6b3a76400006132b3565b9050612908306121ca6114306116f2565b61292e818461291561175e565b61291f9190613da9565b6129299190613c2e565b613446565b600e8054600c8590556001600160401b03428116600160401b026fffffffffffffffff0000000000000000196001600160801b0395909516600160801b029490941691161791909117905560405133907f69e9c71f6799744a94d9897e77c3ed426cc2f92ba0ef3300785368209b6f4b2d906129ad9089908990613c8a565b60405180910390a2600954600160c01b90046001600160401b031680156121b257600980546001600160801b0316600160801b6001600160401b0384169081026001600160c01b03169190911790915560405190815233907fe893fa207c5a5094cad036347b877c23ebecd9df94ae0426f287040c13220b3f9060200160405180910390a250505050505050565b42841015612a8b5760405162461bcd60e51b815260206004820152601760248201527f5045524d49545f444541444c494e455f455850495245440000000000000000006044820152606401610ca0565b6000612a95611644565b6001600160a01b0389811660008181526005602090815260409182902080546001810190915582517f6e71edae12b1b97f4d1f60370fef10105fa2faae0126114a169c64845d6126c98184015280840194909452938c166060840152608083018b905260a083019390935260c08083018a90528151808403909101815260e08301909152805192019190912061190160f01b6101008301526101028201929092526101228101919091526101420160408051601f198184030181528282528051602091820120600080855291840180845281905260ff88169284019290925260608301869052608083018590529092509060019060a0016020604051602081039080840390855afa158015612bae573d6000803e3d6000fd5b5050604051601f1901519150506001600160a01b03811615801590612be45750886001600160a01b0316816001600160a01b0316145b612c215760405162461bcd60e51b815260206004820152600e60248201526d24a72b20a624a22fa9a4a3a722a960911b6044820152606401610ca0565b6001600160a01b0390811660009081526004602090815260408083208b8516808552908352928190208a905551898152919350918a16917f8c5be1e5ebec7d5bd14f71427d1e84f3dd0314c0f7b2291e5b200ac8c7c3b925910160405180910390a350505050505050565b6000612cc1612c996116f2565b83907f00000000000000000000000000000000000000000000000000000000000000006132b3565b9050612ccd3383613112565b60405181815233907f884edad9ce6fa2440d8a54cc123490eb96d2768479d49ff9c7366125a94243649060200160405180910390a2611124338261317c565b6000612d1661175e565b600c54039050612d24611daf565b6116759082613da9565b612d44336000356001600160e01b031916612fc7565b612d605760405162461bcd60e51b8152600401610ca090613bf2565b806001600160a01b031663ac784ddc6040518163ffffffff1660e01b8152600401602060405180830381865afa158015612d9e573d6000803e3d6000fd5b505050506040513d601f19601f82011682018060405250810190612dc29190613d38565b612e61577f00000000000000000000000000000000000000000000000000000000000000006001600160a01b0316816001600160a01b0316636f307dc36040518163ffffffff1660e01b8152600401602060405180830381865afa158015612e2e573d6000803e3d6000fd5b505050506040513d601f19601f82011682018060405250810190612e529190613e29565b6001600160a01b031614612e68565b600b5460ff165b612ea75760405162461bcd60e51b815260206004820152601060248201526f57524f4e475f554e4445524c59494e4760801b6044820152606401610ca0565b6001600160a01b0381166000818152600d6020526040808220805460ff191660011790555133917f2fc1f5b589e399a463bf89605c1539bdd9878a9a3acd089abeca7a15e1fbe6ec91a350565b612f0a336000356001600160e01b031916612fc7565b612f265760405162461bcd60e51b8152600401610ca090613bf2565b6000600f8381548110612f3b57612f3b613c45565b600091825260209091200154600f80546001600160a01b039092169250839185908110612f6a57612f6a613c45565b60009182526020918290200180546001600160a01b0319166001600160a01b039384161790556040518581528483169284169133917f6b3d5cb176c4387df974c7528104dc97592d836de95196de9f68adbb6f46d5ac9101610fd1565b6007546000906001600160a01b03168015801590613051575060405163b700961360e01b81526001600160a01b0382169063b70096139061301090879030908890600401613d0b565b602060405180830381865afa15801561302d573d6000803e3d6000fd5b505050506040513d601f19601f820116820180604052508101906130519190613d38565b8061306957506006546001600160a01b038581169116145b949350505050565b600060405163a9059cbb60e01b81526001600160a01b03841660048201528260248201526000806044836000895af19150506130ac8161345c565b6130ea5760405162461bcd60e51b815260206004820152600f60248201526e1514905394d1915497d19052531151608a1b6044820152606401610ca0565b50505050565b82810282151584158583048414171661310857600080fd5b9190910492915050565b6001600160a01b0382166000908152600360205260408120805483929061313a908490613c2e565b90915550506002805482900390556040518181526000906001600160a01b03841690600080516020613efa833981519152906020015b60405180910390a35050565b6000613186611daf565b9050808211156131e05760006131bb600a54670de0b6b3a7640000856131aa612d0c565b6131b49190613c2e565b91906132b3565b905060006131c98385613c2e565b90506131dd6131d88383613da9565b6134a3565b50505b6132146001600160a01b037f0000000000000000000000000000000000000000000000000000000000000000168484613071565b505050565b60007f8b73c3c69bb8fe3d512ecc4cf759cc79239f7b179b0ffacaa9a75d522b39400f600060405161324b9190613e46565b6040805191829003822060208301939093528101919091527fc89efdaa54c0f20c7adf612882df0950f5a951637e0307cdcb4c672f298b8bc660608201524660808201523060a082015260c00160405160208183030381529060405280519060200120905090565b82820283158482048414176132c757600080fd5b0492915050565b60006001600160f81b038211156132e457600080fd5b5090565b80600260008282546132fa9190613da9565b90915550506001600160a01b038216600081815260036020908152604080832080548601905551848152600080516020613efa8339815191529101613170565b60006040516323b872dd60e01b81526001600160a01b03851660048201526001600160a01b038416602482015282604482015260008060648360008a5af19150506133848161345c565b6133c75760405162461bcd60e51b81526020600482015260146024820152731514905394d1915497d19493d357d1905253115160621b6044820152606401610ca0565b5050505050565b600060405163095ea7b360e01b81526001600160a01b03841660048201528260248201526000806044836000895af19150506134098161345c565b6130ea5760405162461bcd60e51b815260206004820152600e60248201526d1054141493d59157d1905253115160921b6044820152606401610ca0565b60006001600160801b038211156132e457600080fd5b60003d8261346e57806000803e806000fd5b8060208114613486578015613497576000925061349c565b816000803e6000511515925061349c565b600192505b5050919050565b600f5481906000906134b790600190613c2e565b90505b6000600f82815481106134cf576134cf613c45565b60009182526020808320909101546001600160a01b0316808352600d9091526040909120549091506001600160f81b036101008204169060ff161580613513575080155b1561358957600f80548061352957613529613c5b565b600082815260208120820160001990810180546001600160a01b03191690559091019091556040516001600160a01b0384169133917f61d23abf676b955085fda50d45f510cdab69e13e63afebdde7f4453b529fbfdc9190a3505061374a565b6000848211613598578161359a565b845b90508082036135a8816132ce565b6001600160a01b0385166000818152600d60205260409081902080546001600160f81b03949094166101000260ff909416939093179092559051968390039633907f8d851b682e239b1de720e92e5c5cffdb72d353104cc63dc6ed144d7080217fbe906136189086815260200190565b60405180910390a360405163852a12e360e01b8152600481018390526001600160a01b0385169063852a12e3906024016020604051808303816000875af1158015613667573d6000803e3d6000fd5b505050506040513d601f19601f8201168201806040525081019061368b9190613c71565b156136c85760405162461bcd60e51b815260206004820152600d60248201526c14915111515357d19052531151609a1b6044820152606401610ca0565b8061373857600f8054806136de576136de613c5b565b600082815260208120820160001990810180546001600160a01b03191690559091019091556040516001600160a01b0386169133917f61d23abf676b955085fda50d45f510cdab69e13e63afebdde7f4453b529fbfdc9190a35b50846137465750505061375c565b5050505b8061375481613ee2565b9150506134ba565b600c805484900390554780158015906137775750600b5460ff165b156130ea577f00000000000000000000000000000000000000000000000000000000000000006001600160a01b031663d0e30db0826040518263ffffffff1660e01b81526004016000604051808303818588803b1580156137d757600080fd5b505af11580156137eb573d6000803e3d6000fd5b505050505050505050565b828054828255906000526020600020908101928215613849579160200282015b828111156138495781546001600160a01b0319166001600160a01b03843516178255602090920191600190910190613816565b506132e49291505b808211156132e45760008155600101613851565b600060208083528351808285015260005b8181101561389257858101830151858201604001528201613876565b818111156138a4576000604083870101525b50601f01601f1916929092016040019392505050565b6000602082840312156138cc57600080fd5b81356001600160801b03811681146138e357600080fd5b9392505050565b6001600160a01b038116811461149c57600080fd5b6000806040838503121561391257600080fd5b823561391d816138ea565b946020939093013593505050565b60006020828403121561393d57600080fd5b5035919050565b60006020828403121561395657600080fd5b81356138e3816138ea565b6000806020838503121561397457600080fd5b82356001600160401b038082111561398b57600080fd5b818501915085601f83011261399f57600080fd5b8135818111156139ae57600080fd5b8660208260051b85010111156139c357600080fd5b60209290920196919550909350505050565b6000806000606084860312156139ea57600080fd5b83356139f5816138ea565b92506020840135613a05816138ea565b929592945050506040919091013590565b60008060408385031215613a2957600080fd5b50508035926020909101359150565b801515811461149c57600080fd5b600060208284031215613a5857600080fd5b81356138e381613a38565b6020808252825182820181905260009190848201906040850190845b81811015613aa45783516001600160a01b031683529284019291840191600101613a7f565b50909695505050505050565b600060208284031215613ac257600080fd5b81356001600160401b03811681146138e357600080fd5b60ff8116811461149c57600080fd5b600080600080600080600060e0888a031215613b0357600080fd5b8735613b0e816138ea565b96506020880135613b1e816138ea565b955060408801359450606088013593506080880135613b3c81613ad9565b9699959850939692959460a0840135945060c09093013592915050565b60008060408385031215613b6c57600080fd5b8235613b77816138ea565b91506020830135613b87816138ea565b809150509250929050565b60008060408385031215613ba557600080fd5b823591506020830135613b87816138ea565b600181811c90821680613bcb57607f821691505b60208210811415613bec57634e487b7160e01b600052602260045260246000fd5b50919050565b6020808252600c908201526b15539055551213d49256915160a21b604082015260600190565b634e487b7160e01b600052601160045260246000fd5b600082821015613c4057613c40613c18565b500390565b634e487b7160e01b600052603260045260246000fd5b634e487b7160e01b600052603160045260246000fd5b600060208284031215613c8357600080fd5b5051919050565b60208082528181018390526000908460408401835b86811015613ccd578235613cb2816138ea565b6001600160a01b031682529183019190830190600101613c9f565b509695505050505050565b600060208284031215613cea57600080fd5b81516138e381613ad9565b634e487b7160e01b600052601260045260246000fd5b6001600160a01b0393841681529190921660208201526001600160e01b0319909116604082015260600190565b600060208284031215613d4a57600080fd5b81516138e381613a38565b602080825260129082015271554e545255535445445f535452415445475960701b604082015260600190565b60006001600160f81b0383811690831681811015613da157613da1613c18565b039392505050565b60008219821115613dbc57613dbc613c18565b500190565b60006001600160401b03808316818516808303821115613de357613de3613c18565b01949350505050565b60006001600160801b03808316818516808303821115613de357613de3613c18565b6000600019821415613e2257613e22613c18565b5060010190565b600060208284031215613e3b57600080fd5b81516138e3816138ea565b600080835481600182811c915080831680613e6257607f831692505b6020808410821415613e8257634e487b7160e01b86526022600452602486fd5b818015613e965760018114613ea757613ed4565b60ff19861689528489019650613ed4565b60008a81526020902060005b86811015613ecc5781548b820152908501908301613eb3565b505084890196505b509498975050505050505050565b600081613ef157613ef1613c18565b50600019019056feddf252ad1be2c89b69c2b068fc378daa952ba7f163c4a11628f55a4df523b3efa26469706673582212208de4f2e4f90038de1484734e50e4731605e2bffe1ecde3badb1f119f1d4a7c3d64736f6c634300080b0033a2646970667358221220028ec5c65dc131a4dad56355a623e0eec52cd9208aa0dcc6cdd21a3187f8930064736f6c634300080b0033",
  "devdoc": {
    "author": "Transmissions11 and JetJadeja",
    "events": {
      "VaultDeployed(address,address)": {
        "params": {
          "underlying": "The underlying token the new Vault accepts.",
          "vault": "The newly deployed Vault contract."
        }
      }
    },
    "kind": "dev",
    "methods": {
      "constructor": {
        "params": {
          "_authority": "The Authority of the factory.",
          "_owner": "The owner of the factory."
        }
      },
      "deployVault(address)": {
        "details": "This will revert if a Vault that accepts the same underlying token has already been deployed.",
        "params": {
          "underlying": "The ERC20 token that the Vault should accept."
        },
        "returns": {
          "vault": "The newly deployed Vault contract which accepts the provided underlying token."
        }
      },
      "getVaultFromUnderlying(address)": {
        "details": "The Vault returned may not be deployed yet. Use isVaultDeployed to check.",
        "params": {
          "underlying": "The ERC20 token that the Vault should accept."
        },
        "returns": {
          "_0": "The address of a Vault which accepts the provided underlying token."
        }
      },
      "isVaultDeployed(address)": {
        "details": "This function is useful to check the return values of getVaultFromUnderlying, as it does not check that the Vault addresses it computes have been deployed yet.",
        "params": {
          "vault": "The address of a Vault which may not have been deployed yet."
        },
        "returns": {
          "_0": "A boolean indicating whether the Vault has been deployed already."
        }
      }
    },
    "title": "Rari Vault Factory",
    "version": 1
  },
  "userdoc": {
    "events": {
      "VaultDeployed(address,address)": {
        "notice": "Emitted when a new Vault is deployed."
      }
    },
    "kind": "user",
    "methods": {
      "constructor": {
        "notice": "Creates a Vault factory."
      },
      "deployVault(address)": {
        "notice": "Deploys a new Vault which supports a specific underlying token."
      },
      "getVaultFromUnderlying(address)": {
        "notice": "Computes a Vault's address from its accepted underlying token."
      },
      "isVaultDeployed(address)": {
        "notice": "Returns if a Vault at an address has already been deployed."
      }
    },
    "notice": "Factory which enables deploying a Vault for any ERC20 token.",
    "version": 1
  },
  "storageLayout": {
    "storage": [
      {
        "astId": 17,
        "contract": "srcBuild/VaultFactory.sol:VaultFactory",
        "label": "owner",
        "offset": 0,
        "slot": "0",
        "type": "t_address"
      },
      {
        "astId": 20,
        "contract": "srcBuild/VaultFactory.sol:VaultFactory",
        "label": "authority",
        "offset": 0,
        "slot": "1",
        "type": "t_contract(Authority)171"
      }
    ],
    "types": {
      "t_address": {
        "encoding": "inplace",
        "label": "address",
        "numberOfBytes": "20"
      },
      "t_contract(Authority)171": {
        "encoding": "inplace",
        "label": "contract Authority",
        "numberOfBytes": "20"
      }
    }
  }
}