{
  "address": "0x77a903733d36A8bAF751b00F376ca75201ab0D1d",
  "abi": [
    {
      "inputs": [
        {
          "internalType": "address",
          "name": "_owner",
          "type": "address"
        },
        {
          "internalType": "contract Authority",
          "name": "_authority",
          "type": "address"
        }
      ],
      "stateMutability": "nonpayable",
      "type": "constructor"
    },
    {
      "anonymous": false,
      "inputs": [
        {
          "indexed": true,
          "internalType": "address",
          "name": "user",
          "type": "address"
        },
        {
          "indexed": true,
          "internalType": "contract Authority",
          "name": "newAuthority",
          "type": "address"
        }
      ],
      "name": "AuthorityUpdated",
      "type": "event"
    },
    {
      "anonymous": false,
      "inputs": [
        {
          "indexed": true,
          "internalType": "contract Vault",
          "name": "vault",
          "type": "address"
        },
        {
          "indexed": false,
          "internalType": "uint256",
          "name": "newCustomFeePercent",
          "type": "uint256"
        }
      ],
      "name": "CustomFeePercentUpdated",
      "type": "event"
    },
    {
      "anonymous": false,
      "inputs": [
        {
          "indexed": true,
          "internalType": "contract Vault",
          "name": "vault",
          "type": "address"
        },
        {
          "indexed": false,
          "internalType": "uint256",
          "name": "newCustomHarvestDelay",
          "type": "uint256"
        }
      ],
      "name": "CustomHarvestDelayUpdated",
      "type": "event"
    },
    {
      "anonymous": false,
      "inputs": [
        {
          "indexed": true,
          "internalType": "contract Vault",
          "name": "vault",
          "type": "address"
        },
        {
          "indexed": false,
          "internalType": "uint256",
          "name": "newCustomHarvestWindow",
          "type": "uint256"
        }
      ],
      "name": "CustomHarvestWindowUpdated",
      "type": "event"
    },
    {
      "anonymous": false,
      "inputs": [
        {
          "indexed": true,
          "internalType": "contract Vault",
          "name": "vault",
          "type": "address"
        },
        {
          "indexed": false,
          "internalType": "uint256",
          "name": "newCustomTargetFloatPercent",
          "type": "uint256"
        }
      ],
      "name": "CustomTargetFloatPercentUpdated",
      "type": "event"
    },
    {
      "anonymous": false,
      "inputs": [
        {
          "indexed": false,
          "internalType": "uint256",
          "name": "newDefaultFeePercent",
          "type": "uint256"
        }
      ],
      "name": "DefaultFeePercentUpdated",
      "type": "event"
    },
    {
      "anonymous": false,
      "inputs": [
        {
          "indexed": false,
          "internalType": "uint64",
          "name": "newDefaultHarvestDelay",
          "type": "uint64"
        }
      ],
      "name": "DefaultHarvestDelayUpdated",
      "type": "event"
    },
    {
      "anonymous": false,
      "inputs": [
        {
          "indexed": false,
          "internalType": "uint128",
          "name": "newDefaultHarvestWindow",
          "type": "uint128"
        }
      ],
      "name": "DefaultHarvestWindowUpdated",
      "type": "event"
    },
    {
      "anonymous": false,
      "inputs": [
        {
          "indexed": false,
          "internalType": "uint256",
          "name": "newDefaultTargetFloatPercent",
          "type": "uint256"
        }
      ],
      "name": "DefaultTargetFloatPercentUpdated",
      "type": "event"
    },
    {
      "anonymous": false,
      "inputs": [
        {
          "indexed": true,
          "internalType": "address",
          "name": "user",
          "type": "address"
        },
        {
          "indexed": true,
          "internalType": "address",
          "name": "newOwner",
          "type": "address"
        }
      ],
      "name": "OwnerUpdated",
      "type": "event"
    },
    {
      "inputs": [],
      "name": "authority",
      "outputs": [
        {
          "internalType": "contract Authority",
          "name": "",
          "type": "address"
        }
      ],
      "stateMutability": "view",
      "type": "function"
    },
    {
      "inputs": [],
      "name": "defaultFeePercent",
      "outputs": [
        {
          "internalType": "uint256",
          "name": "",
          "type": "uint256"
        }
      ],
      "stateMutability": "view",
      "type": "function"
    },
    {
      "inputs": [],
      "name": "defaultHarvestDelay",
      "outputs": [
        {
          "internalType": "uint64",
          "name": "",
          "type": "uint64"
        }
      ],
      "stateMutability": "view",
      "type": "function"
    },
    {
      "inputs": [],
      "name": "defaultHarvestWindow",
      "outputs": [
        {
          "internalType": "uint128",
          "name": "",
          "type": "uint128"
        }
      ],
      "stateMutability": "view",
      "type": "function"
    },
    {
      "inputs": [],
      "name": "defaultTargetFloatPercent",
      "outputs": [
        {
          "internalType": "uint256",
          "name": "",
          "type": "uint256"
        }
      ],
      "stateMutability": "view",
      "type": "function"
    },
    {
      "inputs": [
        {
          "internalType": "contract Vault",
          "name": "",
          "type": "address"
        }
      ],
      "name": "getVaultCustomFeePercent",
      "outputs": [
        {
          "internalType": "uint256",
          "name": "",
          "type": "uint256"
        }
      ],
      "stateMutability": "view",
      "type": "function"
    },
    {
      "inputs": [
        {
          "internalType": "contract Vault",
          "name": "",
          "type": "address"
        }
      ],
      "name": "getVaultCustomHarvestDelay",
      "outputs": [
        {
          "internalType": "uint64",
          "name": "",
          "type": "uint64"
        }
      ],
      "stateMutability": "view",
      "type": "function"
    },
    {
      "inputs": [
        {
          "internalType": "contract Vault",
          "name": "",
          "type": "address"
        }
      ],
      "name": "getVaultCustomHarvestWindow",
      "outputs": [
        {
          "internalType": "uint128",
          "name": "",
          "type": "uint128"
        }
      ],
      "stateMutability": "view",
      "type": "function"
    },
    {
      "inputs": [
        {
          "internalType": "contract Vault",
          "name": "",
          "type": "address"
        }
      ],
      "name": "getVaultCustomTargetFloatPercent",
      "outputs": [
        {
          "internalType": "uint256",
          "name": "",
          "type": "uint256"
        }
      ],
      "stateMutability": "view",
      "type": "function"
    },
    {
      "inputs": [],
      "name": "owner",
      "outputs": [
        {
          "internalType": "address",
          "name": "",
          "type": "address"
        }
      ],
      "stateMutability": "view",
      "type": "function"
    },
    {
      "inputs": [
        {
          "internalType": "contract Authority",
          "name": "newAuthority",
          "type": "address"
        }
      ],
      "name": "setAuthority",
      "outputs": [],
      "stateMutability": "nonpayable",
      "type": "function"
    },
    {
      "inputs": [
        {
          "internalType": "uint256",
          "name": "newDefaultFeePercent",
          "type": "uint256"
        }
      ],
      "name": "setDefaultFeePercent",
      "outputs": [],
      "stateMutability": "nonpayable",
      "type": "function"
    },
    {
      "inputs": [
        {
          "internalType": "uint64",
          "name": "newDefaultHarvestDelay",
          "type": "uint64"
        }
      ],
      "name": "setDefaultHarvestDelay",
      "outputs": [],
      "stateMutability": "nonpayable",
      "type": "function"
    },
    {
      "inputs": [
        {
          "internalType": "uint128",
          "name": "newDefaultHarvestWindow",
          "type": "uint128"
        }
      ],
      "name": "setDefaultHarvestWindow",
      "outputs": [],
      "stateMutability": "nonpayable",
      "type": "function"
    },
    {
      "inputs": [
        {
          "internalType": "uint256",
          "name": "newDefaultTargetFloatPercent",
          "type": "uint256"
        }
      ],
      "name": "setDefaultTargetFloatPercent",
      "outputs": [],
      "stateMutability": "nonpayable",
      "type": "function"
    },
    {
      "inputs": [
        {
          "internalType": "address",
          "name": "newOwner",
          "type": "address"
        }
      ],
      "name": "setOwner",
      "outputs": [],
      "stateMutability": "nonpayable",
      "type": "function"
    },
    {
      "inputs": [
        {
          "internalType": "contract Vault",
          "name": "vault",
          "type": "address"
        },
        {
          "internalType": "uint256",
          "name": "customFeePercent",
          "type": "uint256"
        }
      ],
      "name": "setVaultCustomFeePercent",
      "outputs": [],
      "stateMutability": "nonpayable",
      "type": "function"
    },
    {
      "inputs": [
        {
          "internalType": "contract Vault",
          "name": "vault",
          "type": "address"
        },
        {
          "internalType": "uint64",
          "name": "customHarvestDelay",
          "type": "uint64"
        }
      ],
      "name": "setVaultCustomHarvestDelay",
      "outputs": [],
      "stateMutability": "nonpayable",
      "type": "function"
    },
    {
      "inputs": [
        {
          "internalType": "contract Vault",
          "name": "vault",
          "type": "address"
        },
        {
          "internalType": "uint128",
          "name": "customHarvestWindow",
          "type": "uint128"
        }
      ],
      "name": "setVaultCustomHarvestWindow",
      "outputs": [],
      "stateMutability": "nonpayable",
      "type": "function"
    },
    {
      "inputs": [
        {
          "internalType": "contract Vault",
          "name": "vault",
          "type": "address"
        },
        {
          "internalType": "uint256",
          "name": "customTargetFloatPercent",
          "type": "uint256"
        }
      ],
      "name": "setVaultCustomTargetFloatPercent",
      "outputs": [],
      "stateMutability": "nonpayable",
      "type": "function"
    },
    {
      "inputs": [
        {
          "internalType": "contract Vault",
          "name": "vault",
          "type": "address"
        }
      ],
      "name": "syncFeePercent",
      "outputs": [],
      "stateMutability": "nonpayable",
      "type": "function"
    },
    {
      "inputs": [
        {
          "internalType": "contract Vault",
          "name": "vault",
          "type": "address"
        }
      ],
      "name": "syncHarvestDelay",
      "outputs": [],
      "stateMutability": "nonpayable",
      "type": "function"
    },
    {
      "inputs": [
        {
          "internalType": "contract Vault",
          "name": "vault",
          "type": "address"
        }
      ],
      "name": "syncHarvestWindow",
      "outputs": [],
      "stateMutability": "nonpayable",
      "type": "function"
    },
    {
      "inputs": [
        {
          "internalType": "contract Vault",
          "name": "vault",
          "type": "address"
        }
      ],
      "name": "syncTargetFloatPercent",
      "outputs": [],
      "stateMutability": "nonpayable",
      "type": "function"
    }
  ],
  "transactionHash": "0x26d2be3d2ab78cad3dccf4d5ae9a5a303c0e1173ae4969818bb76fcaa6f21d64",
  "args": [
    "0x1594B6Fd7C346376E51C4Cf46525a9c57c5ea916",
    "0xcbb46b017e8d785C107e97c56135894b3eAD599C"
  ],
  "numDeployments": 1,
  "solcInputHash": "edd68036c391002ae2af5111886505d2",
  "bytecode": "0x608060405234801561001057600080fd5b506040516111a83803806111a883398101604081905261002f916100e1565b600080546001600160a01b03199081166001600160a01b0385811691821784556001805490931690851617909155604051849284929133917f8292fce18fa69edf4db7b94ea2e58241df0ae57f97e0a6c9b29067028bf92d7691a36040516001600160a01b0382169033907fa3396fd7f6e0a21b50e5089d2da70d5ac0a3bbbd1f617a93f134b7638998019890600090a35050505061011b565b6001600160a01b03811681146100de57600080fd5b50565b600080604083850312156100f457600080fd5b82516100ff816100c9565b6020840151909250610110816100c9565b809150509250929050565b61107e8061012a6000396000f3fe608060405234801561001057600080fd5b50600436106101585760003560e01c80637a9e5e4b116100c3578063bc3e38fa1161007c578063bc3e38fa14610355578063bf7e214f14610368578063c9b639d21461037b578063dd55002d1461038f578063e7926d5c146103a2578063e7d9934b146103ab57600080fd5b80637a9e5e4b146102c45780638da5cb5b146102d7578063ac345d0314610302578063af54da9114610315578063b5ef8b1e14610328578063b7c392c81461034257600080fd5b80634022d941116101155780634022d941146102085780634ce908f41461021b5780635607702f1461022e5780635fad65b0146102415780636eae9513146102615780636f8409321461028157600080fd5b806305d7282c1461015d57806313af4035146101725780632487bbff14610185578063261d26b6146101cb5780632b4b2753146101e25780633295ce96146101f5575b600080fd5b61017061016b366004610e23565b6103be565b005b610170610180366004610e4f565b610452565b6101ae610193366004610e4f565b6007602052600090815260409020546001600160801b031681565b6040516001600160801b0390911681526020015b60405180910390f35b6101d460045481565b6040519081526020016101c2565b6101706101f0366004610e73565b6104cf565b610170610203366004610ea1565b61053d565b610170610216366004610ed4565b6105d7565b610170610229366004610ef1565b610659565b61017061023c366004610e4f565b6106f9565b6101d461024f366004610e4f565b60086020526000908152604090205481565b6101d461026f366004610e4f565b60056020526000908152604090205481565b6102ab61028f366004610e4f565b60066020526000908152604090205467ffffffffffffffff1681565b60405167ffffffffffffffff90911681526020016101c2565b6101706102d2366004610e4f565b610837565b6000546102ea906001600160a01b031681565b6040516001600160a01b0390911681526020016101c2565b610170610310366004610e4f565b610921565b610170610323366004610f2a565b6109fb565b6003546101ae90600160401b90046001600160801b031681565b610170610350366004610e4f565b610a94565b610170610363366004610e23565b610b6e565b6001546102ea906001600160a01b031681565b6003546102ab9067ffffffffffffffff1681565b61017061039d366004610e73565b610bed565b6101d460025481565b6101706103b9366004610e4f565b610c54565b6103d4336000356001600160e01b031916610d61565b6103f95760405162461bcd60e51b81526004016103f090610f58565b60405180910390fd5b6001600160a01b03821660008181526008602052604090819020839055517fd710c46434b3517342d3119bd7db2b06b533042ad40997249339dc52a84ef87c906104469084815260200190565b60405180910390a25050565b610468336000356001600160e01b031916610d61565b6104845760405162461bcd60e51b81526004016103f090610f58565b600080546001600160a01b0319166001600160a01b0383169081178255604051909133917f8292fce18fa69edf4db7b94ea2e58241df0ae57f97e0a6c9b29067028bf92d769190a350565b6104e5336000356001600160e01b031916610d61565b6105015760405162461bcd60e51b81526004016103f090610f58565b60048190556040518181527ff6ac39ac7a3a4a8e0820f1f0db868216520c8194410993c9a4256df18f2c1648906020015b60405180910390a150565b610553336000356001600160e01b031916610d61565b61056f5760405162461bcd60e51b81526004016103f090610f58565b6003805477ffffffffffffffffffffffffffffffff00000000000000001916600160401b6001600160801b038416908102919091179091556040519081527f54707f3cc4f1f275c1ca6cc5ea22b131da3e4e3187055769a011b8bfa3fe7e2c90602001610532565b6105ed336000356001600160e01b031916610d61565b6106095760405162461bcd60e51b81526004016103f090610f58565b6003805467ffffffffffffffff191667ffffffffffffffff83169081179091556040519081527fd49755c36f0046593fc57349146d19a3d849086b9f6f07f5262bbe51338dd02090602001610532565b61066f336000356001600160e01b031916610d61565b61068b5760405162461bcd60e51b81526004016103f090610f58565b6001600160a01b03821660008181526007602090815260409182902080546fffffffffffffffffffffffffffffffff19166001600160801b03861690811790915591519182527f020f4b532e50c21e70f84cf5b279d8b67380fe88a156bc883d11cbd3c90646089101610446565b6001600160a01b03811660009081526006602052604081205467ffffffffffffffff169081156107295781610737565b60035467ffffffffffffffff165b90508067ffffffffffffffff16836001600160a01b031663448f56b96040518163ffffffff1660e01b8152600401602060405180830381865afa158015610782573d6000803e3d6000fd5b505050506040513d601f19601f820116820180604052508101906107a69190610f7e565b67ffffffffffffffff1614156107ce5760405162461bcd60e51b81526004016103f090610f9b565b604051637b72aeb960e01b815267ffffffffffffffff821660048201526001600160a01b03841690637b72aeb9906024015b600060405180830381600087803b15801561081a57600080fd5b505af115801561082e573d6000803e3d6000fd5b50505050505050565b6000546001600160a01b03163314806108cc575060015460405163b700961360e01b81526001600160a01b039091169063b70096139061088b90339030906001600160e01b03196000351690600401610fc3565b602060405180830381865afa1580156108a8573d6000803e3d6000fd5b505050506040513d601f19601f820116820180604052508101906108cc9190610ff0565b6108d557600080fd5b600180546001600160a01b0319166001600160a01b03831690811790915560405133907fa3396fd7f6e0a21b50e5089d2da70d5ac0a3bbbd1f617a93f134b7638998019890600090a350565b6001600160a01b038116600090815260086020526040812054908115610947578161094b565b6004545b905080836001600160a01b0316631c6934786040518163ffffffff1660e01b8152600401602060405180830381865afa15801561098c573d6000803e3d6000fd5b505050506040513d601f19601f820116820180604052508101906109b09190611012565b14156109ce5760405162461bcd60e51b81526004016103f090610f9b565b6040516317acc5f160e31b8152600481018290526001600160a01b0384169063bd662f8890602401610800565b610a11336000356001600160e01b031916610d61565b610a2d5760405162461bcd60e51b81526004016103f090610f58565b6001600160a01b038216600081815260066020908152604091829020805467ffffffffffffffff191667ffffffffffffffff861690811790915591519182527f0d239ace1084ebc7a2681e317ee23b0ddccdfb63175585667a8cf7d6771aa36e9101610446565b6001600160a01b038116600090815260056020526040812054908115610aba5781610abe565b6002545b905080836001600160a01b0316637fd6f15c6040518163ffffffff1660e01b8152600401602060405180830381865afa158015610aff573d6000803e3d6000fd5b505050506040513d601f19601f82011682018060405250810190610b239190611012565b1415610b415760405162461bcd60e51b81526004016103f090610f9b565b604051637ce3489b60e01b8152600481018290526001600160a01b03841690637ce3489b90602401610800565b610b84336000356001600160e01b031916610d61565b610ba05760405162461bcd60e51b81526004016103f090610f58565b6001600160a01b03821660008181526005602052604090819020839055517f1d66532ea81d485f8eedbb61c45181fc69b2cbf6f5b05f741b0d3d54d80f9ea9906104469084815260200190565b610c03336000356001600160e01b031916610d61565b610c1f5760405162461bcd60e51b81526004016103f090610f58565b60028190556040518181527f1ba0c7196822b2db3b609b1fbf446c9e0857b6864a4143877b6eb5fa9e9d2bb790602001610532565b6001600160a01b0381166000908152600760205260408120546001600160801b0316908115610c835781610c97565b600354600160401b90046001600160801b03165b9050806001600160801b0316836001600160a01b031663f97d2ed76040518163ffffffff1660e01b8152600401602060405180830381865afa158015610ce1573d6000803e3d6000fd5b505050506040513d601f19601f82011682018060405250810190610d05919061102b565b6001600160801b03161415610d2c5760405162461bcd60e51b81526004016103f090610f9b565b6040516307b35d1d60e01b81526001600160801b03821660048201526001600160a01b038416906307b35d1d90602401610800565b6001546000906001600160a01b03168015801590610deb575060405163b700961360e01b81526001600160a01b0382169063b700961390610daa90879030908890600401610fc3565b602060405180830381865afa158015610dc7573d6000803e3d6000fd5b505050506040513d601f19601f82011682018060405250810190610deb9190610ff0565b80610e0357506000546001600160a01b038581169116145b949350505050565b6001600160a01b0381168114610e2057600080fd5b50565b60008060408385031215610e3657600080fd5b8235610e4181610e0b565b946020939093013593505050565b600060208284031215610e6157600080fd5b8135610e6c81610e0b565b9392505050565b600060208284031215610e8557600080fd5b5035919050565b6001600160801b0381168114610e2057600080fd5b600060208284031215610eb357600080fd5b8135610e6c81610e8c565b67ffffffffffffffff81168114610e2057600080fd5b600060208284031215610ee657600080fd5b8135610e6c81610ebe565b60008060408385031215610f0457600080fd5b8235610f0f81610e0b565b91506020830135610f1f81610e8c565b809150509250929050565b60008060408385031215610f3d57600080fd5b8235610f4881610e0b565b91506020830135610f1f81610ebe565b6020808252600c908201526b15539055551213d49256915160a21b604082015260600190565b600060208284031215610f9057600080fd5b8151610e6c81610ebe565b6020808252600e908201526d1053149150511657d4d65390d15160921b604082015260600190565b6001600160a01b0393841681529190921660208201526001600160e01b0319909116604082015260600190565b60006020828403121561100257600080fd5b81518015158114610e6c57600080fd5b60006020828403121561102457600080fd5b5051919050565b60006020828403121561103d57600080fd5b8151610e6c81610e8c56fea2646970667358221220dabd9749dca04c003188c7b8c6643c8ca55cc0cd41720b3b50def07f235cc61764736f6c634300080b0033",
  "devdoc": {
    "author": "Transmissions11 and JetJadeja",
    "events": {
      "CustomFeePercentUpdated(address,uint256)": {
        "params": {
          "newCustomFeePercent": "The new custom fee percentage for the Vault.",
          "vault": "The Vault that had its custom fee percentage set/updated."
        }
      },
      "CustomHarvestDelayUpdated(address,uint256)": {
        "params": {
          "newCustomHarvestDelay": "The new custom harvest delay for the Vault.",
          "vault": "The Vault that had its custom harvest delay set/updated."
        }
      },
      "CustomHarvestWindowUpdated(address,uint256)": {
        "params": {
          "newCustomHarvestWindow": "The new custom harvest window for the Vault.",
          "vault": "The Vault that had its custom harvest window set/updated."
        }
      },
      "CustomTargetFloatPercentUpdated(address,uint256)": {
        "params": {
          "newCustomTargetFloatPercent": "The new custom target float percentage for the Vault.",
          "vault": "The Vault that had its custom target float percentage set/updated."
        }
      },
      "DefaultFeePercentUpdated(uint256)": {
        "params": {
          "newDefaultFeePercent": "The new default fee percentage."
        }
      },
      "DefaultHarvestDelayUpdated(uint64)": {
        "params": {
          "newDefaultHarvestDelay": "The new default harvest delay."
        }
      },
      "DefaultHarvestWindowUpdated(uint128)": {
        "params": {
          "newDefaultHarvestWindow": "The new default harvest window."
        }
      },
      "DefaultTargetFloatPercentUpdated(uint256)": {
        "params": {
          "newDefaultTargetFloatPercent": "The new default target float percentage."
        }
      }
    },
    "kind": "dev",
    "methods": {
      "constructor": {
        "params": {
          "_authority": "The Authority of the module.",
          "_owner": "The owner of the module."
        }
      },
      "setDefaultFeePercent(uint256)": {
        "params": {
          "newDefaultFeePercent": "The new default fee percentage to set."
        }
      },
      "setDefaultHarvestDelay(uint64)": {
        "params": {
          "newDefaultHarvestDelay": "The new default harvest delay to set."
        }
      },
      "setDefaultHarvestWindow(uint128)": {
        "params": {
          "newDefaultHarvestWindow": "The new default harvest window to set."
        }
      },
      "setDefaultTargetFloatPercent(uint256)": {
        "params": {
          "newDefaultTargetFloatPercent": "The new default target float percentage to set."
        }
      },
      "setVaultCustomFeePercent(address,uint256)": {
        "params": {
          "customFeePercent": "The new custom fee percentage to set.",
          "vault": "The Vault to set the custom fee percentage for."
        }
      },
      "setVaultCustomHarvestDelay(address,uint64)": {
        "params": {
          "customHarvestDelay": "The new custom harvest delay to set.",
          "vault": "The Vault to set the custom harvest delay for."
        }
      },
      "setVaultCustomHarvestWindow(address,uint128)": {
        "params": {
          "customHarvestWindow": "The new custom harvest window to set.",
          "vault": "The Vault to set the custom harvest window for."
        }
      },
      "setVaultCustomTargetFloatPercent(address,uint256)": {
        "params": {
          "customTargetFloatPercent": "The new custom target float percentage to set.",
          "vault": "The Vault to set the custom target float percentage for."
        }
      },
      "syncFeePercent(address)": {
        "params": {
          "vault": "The Vault to sync the fee percentage for."
        }
      },
      "syncHarvestDelay(address)": {
        "params": {
          "vault": "The Vault to sync the harvest delay for."
        }
      },
      "syncHarvestWindow(address)": {
        "params": {
          "vault": "The Vault to sync the harvest window for."
        }
      },
      "syncTargetFloatPercent(address)": {
        "params": {
          "vault": "The Vault to sync the target float percentage for."
        }
      }
    },
    "stateVariables": {
      "defaultFeePercent": {
        "details": "See the documentation for the feePercentage variable in the Vault contract for more details."
      },
      "defaultHarvestDelay": {
        "details": "See the documentation for the harvestDelay variable in the Vault contract for more details."
      },
      "defaultHarvestWindow": {
        "details": "See the documentation for the harvestWindow variable in the Vault contract for more details."
      },
      "defaultTargetFloatPercent": {
        "details": "See the documentation for the targetFloatPercent variable in the Vault contract for more details."
      },
      "getVaultCustomFeePercent": {
        "details": "Will be 0 if there is no custom fee percentage for the Vault.See the documentation for the targetFloatPercent variable in the Vault contract for more details."
      },
      "getVaultCustomHarvestDelay": {
        "details": "Will be 0 if there is no custom harvest delay for the Vault.See the documentation for the harvestDelay variable in the Vault contract for more details."
      },
      "getVaultCustomHarvestWindow": {
        "details": "Will be 0 if there is no custom harvest window for the Vault.See the documentation for the harvestWindow variable in the Vault contract for more details."
      },
      "getVaultCustomTargetFloatPercent": {
        "details": "Will be 0 if there is no custom target float percentage for the Vault.See the documentation for the targetFloatPercent variable in the Vault contract for more details."
      }
    },
    "title": "Rari Vault Configuration Module",
    "version": 1
  },
  "userdoc": {
    "events": {
      "CustomFeePercentUpdated(address,uint256)": {
        "notice": "Emitted when a Vault has its custom fee percentage set/updated."
      },
      "CustomHarvestDelayUpdated(address,uint256)": {
        "notice": "Emitted when a Vault has its custom harvest delay set/updated."
      },
      "CustomHarvestWindowUpdated(address,uint256)": {
        "notice": "Emitted when a Vault has its custom harvest window set/updated."
      },
      "CustomTargetFloatPercentUpdated(address,uint256)": {
        "notice": "Emitted when a Vault has its custom target float percentage set/updated."
      },
      "DefaultFeePercentUpdated(uint256)": {
        "notice": "Emitted when the default fee percentage is updated."
      },
      "DefaultHarvestDelayUpdated(uint64)": {
        "notice": "Emitted when the default harvest delay is updated."
      },
      "DefaultHarvestWindowUpdated(uint128)": {
        "notice": "Emitted when the default harvest window is updated."
      },
      "DefaultTargetFloatPercentUpdated(uint256)": {
        "notice": "Emitted when the default target float percentage is updated."
      }
    },
    "kind": "user",
    "methods": {
      "constructor": {
        "notice": "Creates a Vault configuration module."
      },
      "defaultFeePercent()": {
        "notice": "The default fee percentage for Vaults."
      },
      "defaultHarvestDelay()": {
        "notice": "The default harvest delay for Vaults."
      },
      "defaultHarvestWindow()": {
        "notice": "The default harvest window for Vaults."
      },
      "defaultTargetFloatPercent()": {
        "notice": "The default target float percentage for Vaults."
      },
      "getVaultCustomFeePercent(address)": {
        "notice": "Maps Vaults to their custom fee percentage."
      },
      "getVaultCustomHarvestDelay(address)": {
        "notice": "Maps Vaults to their custom harvest delay."
      },
      "getVaultCustomHarvestWindow(address)": {
        "notice": "Maps Vaults to their custom harvest window."
      },
      "getVaultCustomTargetFloatPercent(address)": {
        "notice": "Maps Vaults to their custom target float percentage."
      },
      "setDefaultFeePercent(uint256)": {
        "notice": "Sets the default fee percentage for Vaults."
      },
      "setDefaultHarvestDelay(uint64)": {
        "notice": "Sets the default harvest delay for Vaults."
      },
      "setDefaultHarvestWindow(uint128)": {
        "notice": "Sets the default harvest window for Vaults."
      },
      "setDefaultTargetFloatPercent(uint256)": {
        "notice": "Sets the default target float percentage for Vaults."
      },
      "setVaultCustomFeePercent(address,uint256)": {
        "notice": "Sets the custom fee percentage for the Vault."
      },
      "setVaultCustomHarvestDelay(address,uint64)": {
        "notice": "Sets the custom harvest delay for the Vault."
      },
      "setVaultCustomHarvestWindow(address,uint128)": {
        "notice": "Sets the custom harvest window for the Vault."
      },
      "setVaultCustomTargetFloatPercent(address,uint256)": {
        "notice": "Sets the custom target float percentage for the Vault."
      },
      "syncFeePercent(address)": {
        "notice": "Syncs a Vault's fee percentage with either the Vault's custom fee percentage or the default fee percentage if a custom percentage is not set."
      },
      "syncHarvestDelay(address)": {
        "notice": "Syncs a Vault's harvest delay with either the Vault's custom harvest delay or the default harvest delay if a custom delay is not set."
      },
      "syncHarvestWindow(address)": {
        "notice": "Syncs a Vault's harvest window with either the Vault's custom harvest window or the default harvest window if a custom window is not set."
      },
      "syncTargetFloatPercent(address)": {
        "notice": "Syncs a Vault's target float percentage with either the Vault's custom target float percentage or the default target float percentage if a custom percentage is not set."
      }
    },
    "notice": "Module for configuring Vault parameters.",
    "version": 1
  },
  "storageLayout": {
    "storage": [
      {
        "astId": 17,
        "contract": "srcBuild/modules/VaultConfigurationModule.sol:VaultConfigurationModule",
        "label": "owner",
        "offset": 0,
        "slot": "0",
        "type": "t_address"
      },
      {
        "astId": 20,
        "contract": "srcBuild/modules/VaultConfigurationModule.sol:VaultConfigurationModule",
        "label": "authority",
        "offset": 0,
        "slot": "1",
        "type": "t_contract(Authority)171"
      },
      {
        "astId": 7849,
        "contract": "srcBuild/modules/VaultConfigurationModule.sol:VaultConfigurationModule",
        "label": "defaultFeePercent",
        "offset": 0,
        "slot": "2",
        "type": "t_uint256"
      },
      {
        "astId": 7852,
        "contract": "srcBuild/modules/VaultConfigurationModule.sol:VaultConfigurationModule",
        "label": "defaultHarvestDelay",
        "offset": 0,
        "slot": "3",
        "type": "t_uint64"
      },
      {
        "astId": 7855,
        "contract": "srcBuild/modules/VaultConfigurationModule.sol:VaultConfigurationModule",
        "label": "defaultHarvestWindow",
        "offset": 8,
        "slot": "3",
        "type": "t_uint128"
      },
      {
        "astId": 7858,
        "contract": "srcBuild/modules/VaultConfigurationModule.sol:VaultConfigurationModule",
        "label": "defaultTargetFloatPercent",
        "offset": 0,
        "slot": "4",
        "type": "t_uint256"
      },
      {
        "astId": 7964,
        "contract": "srcBuild/modules/VaultConfigurationModule.sol:VaultConfigurationModule",
        "label": "getVaultCustomFeePercent",
        "offset": 0,
        "slot": "5",
        "type": "t_mapping(t_contract(Vault)5033,t_uint256)"
      },
      {
        "astId": 7970,
        "contract": "srcBuild/modules/VaultConfigurationModule.sol:VaultConfigurationModule",
        "label": "getVaultCustomHarvestDelay",
        "offset": 0,
        "slot": "6",
        "type": "t_mapping(t_contract(Vault)5033,t_uint64)"
      },
      {
        "astId": 7976,
        "contract": "srcBuild/modules/VaultConfigurationModule.sol:VaultConfigurationModule",
        "label": "getVaultCustomHarvestWindow",
        "offset": 0,
        "slot": "7",
        "type": "t_mapping(t_contract(Vault)5033,t_uint128)"
      },
      {
        "astId": 7982,
        "contract": "srcBuild/modules/VaultConfigurationModule.sol:VaultConfigurationModule",
        "label": "getVaultCustomTargetFloatPercent",
        "offset": 0,
        "slot": "8",
        "type": "t_mapping(t_contract(Vault)5033,t_uint256)"
      }
    ],
    "types": {
      "t_address": {
        "encoding": "inplace",
        "label": "address",
        "numberOfBytes": "20"
      },
      "t_contract(Authority)171": {
        "encoding": "inplace",
        "label": "contract Authority",
        "numberOfBytes": "20"
      },
      "t_contract(Vault)5033": {
        "encoding": "inplace",
        "label": "contract Vault",
        "numberOfBytes": "20"
      },
      "t_mapping(t_contract(Vault)5033,t_uint128)": {
        "encoding": "mapping",
        "key": "t_contract(Vault)5033",
        "label": "mapping(contract Vault => uint128)",
        "numberOfBytes": "32",
        "value": "t_uint128"
      },
      "t_mapping(t_contract(Vault)5033,t_uint256)": {
        "encoding": "mapping",
        "key": "t_contract(Vault)5033",
        "label": "mapping(contract Vault => uint256)",
        "numberOfBytes": "32",
        "value": "t_uint256"
      },
      "t_mapping(t_contract(Vault)5033,t_uint64)": {
        "encoding": "mapping",
        "key": "t_contract(Vault)5033",
        "label": "mapping(contract Vault => uint64)",
        "numberOfBytes": "32",
        "value": "t_uint64"
      },
      "t_uint128": {
        "encoding": "inplace",
        "label": "uint128",
        "numberOfBytes": "16"
      },
      "t_uint256": {
        "encoding": "inplace",
        "label": "uint256",
        "numberOfBytes": "32"
      },
      "t_uint64": {
        "encoding": "inplace",
        "label": "uint64",
        "numberOfBytes": "8"
      }
    }
  }
}