{
  "address": "0x9723Ee5809cF9Fa6Add0B99004857c3D2b02F93B",
  "abi": [
    {
      "inputs": [
        {
          "internalType": "contract Timelock",
          "name": "timelock_",
          "type": "address"
        },
        {
          "internalType": "contract veAPHRA",
          "name": "ve_",
          "type": "address"
        },
        {
          "internalType": "address",
          "name": "guardian_",
          "type": "address"
        }
      ],
      "stateMutability": "nonpayable",
      "type": "constructor"
    },
    {
      "anonymous": false,
      "inputs": [
        {
          "indexed": false,
          "internalType": "uint256",
          "name": "id",
          "type": "uint256"
        }
      ],
      "name": "ProposalCanceled",
      "type": "event"
    },
    {
      "anonymous": false,
      "inputs": [
        {
          "indexed": false,
          "internalType": "uint256",
          "name": "id",
          "type": "uint256"
        },
        {
          "indexed": false,
          "internalType": "uint256",
          "name": "badgeId",
          "type": "uint256"
        },
        {
          "indexed": false,
          "internalType": "address[]",
          "name": "targets",
          "type": "address[]"
        },
        {
          "indexed": false,
          "internalType": "uint256[]",
          "name": "values",
          "type": "uint256[]"
        },
        {
          "indexed": false,
          "internalType": "string[]",
          "name": "signatures",
          "type": "string[]"
        },
        {
          "indexed": false,
          "internalType": "bytes[]",
          "name": "calldatas",
          "type": "bytes[]"
        },
        {
          "indexed": false,
          "internalType": "uint256",
          "name": "startBlock",
          "type": "uint256"
        },
        {
          "indexed": false,
          "internalType": "uint256",
          "name": "endBlock",
          "type": "uint256"
        },
        {
          "indexed": false,
          "internalType": "string",
          "name": "description",
          "type": "string"
        }
      ],
      "name": "ProposalCreated",
      "type": "event"
    },
    {
      "anonymous": false,
      "inputs": [
        {
          "indexed": false,
          "internalType": "uint256",
          "name": "id",
          "type": "uint256"
        }
      ],
      "name": "ProposalExecuted",
      "type": "event"
    },
    {
      "anonymous": false,
      "inputs": [
        {
          "indexed": false,
          "internalType": "uint256",
          "name": "id",
          "type": "uint256"
        },
        {
          "indexed": false,
          "internalType": "uint256",
          "name": "eta",
          "type": "uint256"
        }
      ],
      "name": "ProposalQueued",
      "type": "event"
    },
    {
      "anonymous": false,
      "inputs": [
        {
          "indexed": false,
          "internalType": "uint256",
          "name": "badgeId",
          "type": "uint256"
        },
        {
          "indexed": false,
          "internalType": "uint256",
          "name": "proposalId",
          "type": "uint256"
        },
        {
          "indexed": false,
          "internalType": "bool",
          "name": "support",
          "type": "bool"
        },
        {
          "indexed": false,
          "internalType": "uint256",
          "name": "votes",
          "type": "uint256"
        }
      ],
      "name": "VoteCast",
      "type": "event"
    },
    {
      "inputs": [],
      "name": "BALLOT_TYPEHASH",
      "outputs": [
        {
          "internalType": "bytes32",
          "name": "",
          "type": "bytes32"
        }
      ],
      "stateMutability": "view",
      "type": "function"
    },
    {
      "inputs": [],
      "name": "DOMAIN_TYPEHASH",
      "outputs": [
        {
          "internalType": "bytes32",
          "name": "",
          "type": "bytes32"
        }
      ],
      "stateMutability": "view",
      "type": "function"
    },
    {
      "inputs": [],
      "name": "__abdicate",
      "outputs": [],
      "stateMutability": "nonpayable",
      "type": "function"
    },
    {
      "inputs": [],
      "name": "__acceptAdmin",
      "outputs": [],
      "stateMutability": "nonpayable",
      "type": "function"
    },
    {
      "inputs": [
        {
          "internalType": "address",
          "name": "newPendingAdmin_",
          "type": "address"
        },
        {
          "internalType": "uint256",
          "name": "eta_",
          "type": "uint256"
        }
      ],
      "name": "__executeSetTimelockPendingAdmin",
      "outputs": [],
      "stateMutability": "nonpayable",
      "type": "function"
    },
    {
      "inputs": [
        {
          "internalType": "address",
          "name": "newPendingAdmin_",
          "type": "address"
        },
        {
          "internalType": "uint256",
          "name": "eta_",
          "type": "uint256"
        }
      ],
      "name": "__queueSetTimelockPendingAdmin",
      "outputs": [],
      "stateMutability": "nonpayable",
      "type": "function"
    },
    {
      "inputs": [
        {
          "internalType": "uint256",
          "name": "proposalId_",
          "type": "uint256"
        }
      ],
      "name": "cancel",
      "outputs": [],
      "stateMutability": "nonpayable",
      "type": "function"
    },
    {
      "inputs": [
        {
          "internalType": "uint256",
          "name": "badgeId_",
          "type": "uint256"
        },
        {
          "internalType": "uint256",
          "name": "proposalId_",
          "type": "uint256"
        },
        {
          "internalType": "bool",
          "name": "support_",
          "type": "bool"
        }
      ],
      "name": "castVote",
      "outputs": [],
      "stateMutability": "nonpayable",
      "type": "function"
    },
    {
      "inputs": [
        {
          "internalType": "uint256",
          "name": "badgeId_",
          "type": "uint256"
        },
        {
          "internalType": "uint256",
          "name": "proposalId_",
          "type": "uint256"
        },
        {
          "internalType": "bool",
          "name": "support_",
          "type": "bool"
        },
        {
          "internalType": "uint8",
          "name": "v_",
          "type": "uint8"
        },
        {
          "internalType": "bytes32",
          "name": "r_",
          "type": "bytes32"
        },
        {
          "internalType": "bytes32",
          "name": "s_",
          "type": "bytes32"
        }
      ],
      "name": "castVoteBySig",
      "outputs": [],
      "stateMutability": "nonpayable",
      "type": "function"
    },
    {
      "inputs": [
        {
          "internalType": "uint256",
          "name": "proposalId_",
          "type": "uint256"
        }
      ],
      "name": "execute",
      "outputs": [],
      "stateMutability": "payable",
      "type": "function"
    },
    {
      "inputs": [
        {
          "internalType": "uint256",
          "name": "proposalId_",
          "type": "uint256"
        }
      ],
      "name": "getActions",
      "outputs": [
        {
          "internalType": "address[]",
          "name": "targets",
          "type": "address[]"
        },
        {
          "internalType": "uint256[]",
          "name": "values",
          "type": "uint256[]"
        },
        {
          "internalType": "string[]",
          "name": "signatures",
          "type": "string[]"
        },
        {
          "internalType": "bytes[]",
          "name": "calldatas",
          "type": "bytes[]"
        }
      ],
      "stateMutability": "view",
      "type": "function"
    },
    {
      "inputs": [
        {
          "internalType": "uint256",
          "name": "proposalId_",
          "type": "uint256"
        },
        {
          "internalType": "uint256",
          "name": "badgeId_",
          "type": "uint256"
        }
      ],
      "name": "getReceipt",
      "outputs": [
        {
          "components": [
            {
              "internalType": "bool",
              "name": "hasVoted",
              "type": "bool"
            },
            {
              "internalType": "bool",
              "name": "support",
              "type": "bool"
            },
            {
              "internalType": "uint256",
              "name": "votes",
              "type": "uint256"
            }
          ],
          "internalType": "struct veGovernor.Receipt",
          "name": "",
          "type": "tuple"
        }
      ],
      "stateMutability": "view",
      "type": "function"
    },
    {
      "inputs": [],
      "name": "guardian",
      "outputs": [
        {
          "internalType": "address",
          "name": "",
          "type": "address"
        }
      ],
      "stateMutability": "view",
      "type": "function"
    },
    {
      "inputs": [
        {
          "internalType": "uint256",
          "name": "",
          "type": "uint256"
        }
      ],
      "name": "latestProposalIds",
      "outputs": [
        {
          "internalType": "uint256",
          "name": "",
          "type": "uint256"
        }
      ],
      "stateMutability": "view",
      "type": "function"
    },
    {
      "inputs": [],
      "name": "name",
      "outputs": [
        {
          "internalType": "string",
          "name": "",
          "type": "string"
        }
      ],
      "stateMutability": "view",
      "type": "function"
    },
    {
      "inputs": [],
      "name": "proposalCount",
      "outputs": [
        {
          "internalType": "uint256",
          "name": "",
          "type": "uint256"
        }
      ],
      "stateMutability": "view",
      "type": "function"
    },
    {
      "inputs": [],
      "name": "proposalMaxOperations",
      "outputs": [
        {
          "internalType": "uint256",
          "name": "",
          "type": "uint256"
        }
      ],
      "stateMutability": "pure",
      "type": "function"
    },
    {
      "inputs": [],
      "name": "proposalThreshold",
      "outputs": [
        {
          "internalType": "uint256",
          "name": "",
          "type": "uint256"
        }
      ],
      "stateMutability": "pure",
      "type": "function"
    },
    {
      "inputs": [
        {
          "internalType": "uint256",
          "name": "",
          "type": "uint256"
        }
      ],
      "name": "proposals",
      "outputs": [
        {
          "internalType": "uint256",
          "name": "id",
          "type": "uint256"
        },
        {
          "internalType": "uint256",
          "name": "badgeId",
          "type": "uint256"
        },
        {
          "internalType": "uint256",
          "name": "eta",
          "type": "uint256"
        },
        {
          "internalType": "uint256",
          "name": "startBlock",
          "type": "uint256"
        },
        {
          "internalType": "uint256",
          "name": "endBlock",
          "type": "uint256"
        },
        {
          "internalType": "uint256",
          "name": "forVotes",
          "type": "uint256"
        },
        {
          "internalType": "uint256",
          "name": "againstVotes",
          "type": "uint256"
        },
        {
          "internalType": "bool",
          "name": "canceled",
          "type": "bool"
        },
        {
          "internalType": "bool",
          "name": "executed",
          "type": "bool"
        }
      ],
      "stateMutability": "view",
      "type": "function"
    },
    {
      "inputs": [
        {
          "internalType": "uint256",
          "name": "badgeId_",
          "type": "uint256"
        },
        {
          "internalType": "address[]",
          "name": "targets",
          "type": "address[]"
        },
        {
          "internalType": "uint256[]",
          "name": "values",
          "type": "uint256[]"
        },
        {
          "internalType": "string[]",
          "name": "signatures",
          "type": "string[]"
        },
        {
          "internalType": "bytes[]",
          "name": "calldatas",
          "type": "bytes[]"
        },
        {
          "internalType": "string",
          "name": "description",
          "type": "string"
        }
      ],
      "name": "propose",
      "outputs": [
        {
          "internalType": "uint256",
          "name": "",
          "type": "uint256"
        }
      ],
      "stateMutability": "nonpayable",
      "type": "function"
    },
    {
      "inputs": [
        {
          "internalType": "uint256",
          "name": "proposalId_",
          "type": "uint256"
        }
      ],
      "name": "queue",
      "outputs": [],
      "stateMutability": "nonpayable",
      "type": "function"
    },
    {
      "inputs": [],
      "name": "quorumVotes",
      "outputs": [
        {
          "internalType": "uint256",
          "name": "",
          "type": "uint256"
        }
      ],
      "stateMutability": "pure",
      "type": "function"
    },
    {
      "inputs": [
        {
          "internalType": "uint256",
          "name": "proposalId_",
          "type": "uint256"
        }
      ],
      "name": "state",
      "outputs": [
        {
          "internalType": "enum veGovernor.ProposalState",
          "name": "",
          "type": "uint8"
        }
      ],
      "stateMutability": "view",
      "type": "function"
    },
    {
      "inputs": [],
      "name": "timelock",
      "outputs": [
        {
          "internalType": "contract Timelock",
          "name": "",
          "type": "address"
        }
      ],
      "stateMutability": "view",
      "type": "function"
    },
    {
      "inputs": [],
      "name": "ve",
      "outputs": [
        {
          "internalType": "contract veAPHRA",
          "name": "",
          "type": "address"
        }
      ],
      "stateMutability": "view",
      "type": "function"
    },
    {
      "inputs": [],
      "name": "votingDelay",
      "outputs": [
        {
          "internalType": "uint256",
          "name": "",
          "type": "uint256"
        }
      ],
      "stateMutability": "pure",
      "type": "function"
    },
    {
      "inputs": [],
      "name": "votingPeriod",
      "outputs": [
        {
          "internalType": "uint256",
          "name": "",
          "type": "uint256"
        }
      ],
      "stateMutability": "pure",
      "type": "function"
    }
  ],
  "transactionHash": "0xfaae3e2bc77ba74d3abb1bada2d8758497a0b7570d386566e2a2ac4d15629529",
  "args": [
    "0x51D87C521422D94ddC9b9089C47e6EedE138A259",
    "0xafd941c536bc1f253d3a90B9E63f3E666B627e33",
    "0x1594B6Fd7C346376E51C4Cf46525a9c57c5ea916"
  ],
  "numDeployments": 1,
  "solcInputHash": "08b94a755db016ddbedb581038501fa2",
  "bytecode": "0x60806040523480156200001157600080fd5b50604051620030dc380380620030dc833981016040819052620000349162000090565b600080546001600160a01b039485166001600160a01b031991821617909155600180549385169382169390931790925560028054919093169116179055620000e4565b6001600160a01b03811681146200008d57600080fd5b50565b600080600060608486031215620000a657600080fd5b8351620000b38162000077565b6020850151909350620000c68162000077565b6040850151909250620000d98162000077565b809150509250925092565b612fe880620000f46000396000f3fe60806040526004361061019c5760003560e01c80634686f190116100ec578063b9a619611161008a578063ddf0b00911610064578063ddf0b009146105e6578063deaaa7cc14610606578063f9000ba81461063a578063fe0d94c11461065a57600080fd5b8063b9a619611461059b578063d33219b4146105b0578063da35c664146105d057600080fd5b80637bdbe4d0116100c65780637bdbe4d01461052b5780638ccd78b11461053f578063915006711461055f578063b58131b01461057f57600080fd5b80634686f190146104c9578063537791b8146104f6578063760fbc131461051657600080fd5b806324bc1a64116101595780633e4f49e6116101335780633e4f49e6146103b057806340e58ee5146103dd57806343701f69146103fd578063452a9320146104a957600080fd5b806324bc1a641461034e578063328dd9821461036c5780633932abb11461039c57600080fd5b8063013cf08b146101a157806302a251a31461025857806306fdde03146102775780631f850716146102c057806320606b70146102f857806321f43e421461032c575b600080fd5b3480156101ad57600080fd5b5061020b6101bc36600461257e565b6004602052600090815260409020805460018201546002830154600784015460088501546009860154600a870154600b9097015495969495939492939192909160ff8082169161010090041689565b60408051998a5260208a0198909852968801959095526060870193909352608086019190915260a085015260c0840152151560e08301521515610100820152610120015b60405180910390f35b34801561026457600080fd5b50619d805b60405190815260200161024f565b34801561028357600080fd5b506102b36040518060400160405280601081526020016f20b8343930903b32a3b7bb32b93737b960811b81525081565b60405161024f91906125ef565b3480156102cc57600080fd5b506001546102e0906001600160a01b031681565b6040516001600160a01b03909116815260200161024f565b34801561030457600080fd5b506102697f8cad95687ba82c2ce50e74f7b754645e5117c3a5bec8151c0726d5857980a86681565b34801561033857600080fd5b5061034c61034736600461261e565b61066d565b005b34801561035a57600080fd5b506a0a56fa5b99019a5c800000610269565b34801561037857600080fd5b5061038c61038736600461257e565b6107a4565b60405161024f9493929190612713565b3480156103a857600080fd5b506001610269565b3480156103bc57600080fd5b506103d06103cb36600461257e565b610a35565b60405161024f9190612781565b3480156103e957600080fd5b5061034c6103f836600461257e565b610bf2565b34801561040957600080fd5b506104836104183660046127a9565b6040805160608101825260008082526020820181905291810191909152506000918252600460209081526040808420928452600c9092018152918190208151606081018352815460ff8082161515835261010090910416151593810193909352600101549082015290565b60408051825115158152602080840151151590820152918101519082015260600161024f565b3480156104b557600080fd5b506002546102e0906001600160a01b031681565b3480156104d557600080fd5b506102696104e436600461257e565b60056020526000908152604090205481565b34801561050257600080fd5b50610269610511366004612a9b565b610efb565b34801561052257600080fd5b5061034c611461565b34801561053757600080fd5b50600a610269565b34801561054b57600080fd5b5061034c61055a366004612b83565b6114e9565b34801561056b57600080fd5b5061034c61057a36600461261e565b611774565b34801561058b57600080fd5b5068878678326eac900000610269565b3480156105a757600080fd5b5061034c61189b565b3480156105bc57600080fd5b506000546102e0906001600160a01b031681565b3480156105dc57600080fd5b5061026960035481565b3480156105f257600080fd5b5061034c61060136600461257e565b61196f565b34801561061257600080fd5b506102697f8e25870c07e0b0b3884c78da52790939a455c275406c44ae8b434b692fb916ee81565b34801561064657600080fd5b5061034c610655366004612be5565b611c94565b61034c61066836600461257e565b611d29565b6002546001600160a01b031633146107045760405162461bcd60e51b815260206004820152604960248201527f7665476f7665726e6f723a3a5f5f6578656375746553657454696d656c6f636b60448201527f50656e64696e6741646d696e3a2073656e646572206d75737420626520676f766064820152681033bab0b93234b0b760b91b608482015260a4015b60405180910390fd5b60008054604080516001600160a01b03868116602083015290921692630825f38f92849201604051602081830303815290604052856040518563ffffffff1660e01b81526004016107589493929190612c1e565b6000604051808303816000875af1158015610777573d6000803e3d6000fd5b505050506040513d6000823e601f3d908101601f1916820160405261079f9190810190612c8a565b505050565b6060806060806000600460008781526020019081526020016000209050806003018160040182600501836006018380548060200260200160405190810160405280929190818152602001828054801561082657602002820191906000526020600020905b81546001600160a01b03168152600190910190602001808311610808575b505050505093508280548060200260200160405190810160405280929190818152602001828054801561087857602002820191906000526020600020905b815481526020019060010190808311610864575b5050505050925081805480602002602001604051908101604052809291908181526020016000905b8282101561094c5783829060005260206000200180546108bf90612d01565b80601f01602080910402602001604051908101604052809291908181526020018280546108eb90612d01565b80156109385780601f1061090d57610100808354040283529160200191610938565b820191906000526020600020905b81548152906001019060200180831161091b57829003601f168201915b5050505050815260200190600101906108a0565b50505050915080805480602002602001604051908101604052809291908181526020016000905b82821015610a1f57838290600052602060002001805461099290612d01565b80601f01602080910402602001604051908101604052809291908181526020018280546109be90612d01565b8015610a0b5780601f106109e057610100808354040283529160200191610a0b565b820191906000526020600020905b8154815290600101906020018083116109ee57829003601f168201915b505050505081526020019060010190610973565b5050505090509450945094509450509193509193565b60008160035410158015610a495750600082115b610aa45760405162461bcd60e51b815260206004820152602660248201527f7665476f7665726e6f723a3a73746174653a20696e76616c69642070726f706f6044820152651cd85b081a5960d21b60648201526084016106fb565b6000828152600460205260409020600b81015460ff1615610ac85750600292915050565b80600701544311610adc5750600092915050565b80600801544311610af05750600192915050565b80600a01548160090154111580610b1557506a0a56fa5b99019a5c8000008160090154105b15610b235750600392915050565b6002810154610b355750600492915050565b600b810154610100900460ff1615610b505750600792915050565b60008054906101000a90046001600160a01b03166001600160a01b031663c1a287e26040518163ffffffff1660e01b8152600401602060405180830381865afa158015610ba1573d6000803e3d6000fd5b505050506040513d601f19601f82011682018060405250810190610bc59190612d36565b8160020154610bd49190612d65565b4210610be35750600692915050565b50600592915050565b50919050565b6000610bfd82610a35565b90506007816007811115610c1357610c1361276b565b1415610c7d5760405162461bcd60e51b815260206004820152603360248201527f7665476f7665726e6f723a3a63616e63656c3a2063616e6e6f742063616e63656044820152721b08195e1958dd5d1959081c1c9bdc1bdcd85b606a1b60648201526084016106fb565b60008281526004602052604090206002546001600160a01b0316331480610d35575068878678326eac90000060018054838201546001600160a01b039091169163e0514aba9190610cce9043612d7d565b6040516001600160e01b031960e085901b16815260048101929092526024820152604401602060405180830381865afa158015610d0f573d6000803e3d6000fd5b505050506040513d601f19601f82011682018060405250810190610d339190612d36565b105b610d965760405162461bcd60e51b815260206004820152602c60248201527f7665476f7665726e6f723a3a63616e63656c3a2070726f706f7365722061626f60448201526b1d99481d1a1c995cda1bdb1960a21b60648201526084016106fb565b600b8101805460ff1916600117905560005b6003820154811015610ec1576000546003830180546001600160a01b039092169163591fcdfe919084908110610de057610de0612d94565b6000918252602090912001546004850180546001600160a01b039092169185908110610e0e57610e0e612d94565b9060005260206000200154856005018581548110610e2e57610e2e612d94565b90600052602060002001866006018681548110610e4d57610e4d612d94565b9060005260206000200187600201546040518663ffffffff1660e01b8152600401610e7c959493929190612e4b565b600060405180830381600087803b158015610e9657600080fd5b505af1158015610eaa573d6000803e3d6000fd5b505050508080610eb990612e97565b915050610da8565b506040518381527f789cf55be980739dad1d0699b93b58e806b51c9d96619bfa8fe0a28abaa7b30c906020015b60405180910390a1505050565b600068878678326eac900000600180546001600160a01b03169063e0514aba908a90610f279043612d7d565b6040516001600160e01b031960e085901b16815260048101929092526024820152604401602060405180830381865afa158015610f68573d6000803e3d6000fd5b505050506040513d601f19601f82011682018060405250810190610f8c9190612d36565b11610fff5760405162461bcd60e51b815260206004820152603c60248201527f7665476f7665726e6f723a3a70726f706f73653a2070726f706f73657220766f60448201527f7465732062656c6f772070726f706f73616c207468726573686f6c640000000060648201526084016106fb565b84518651148015611011575083518651145b801561101e575082518651145b61109a5760405162461bcd60e51b815260206004820152604160248201527f7665476f7665726e6f723a3a70726f706f73653a2070726f706f73616c20667560448201527f6e6374696f6e20696e666f726d6174696f6e206172697479206d69736d6174636064820152600d60fb1b608482015260a4016106fb565b85516110fa5760405162461bcd60e51b815260206004820152602960248201527f7665476f7665726e6f723a3a70726f706f73653a206d7573742070726f7669646044820152686520616374696f6e7360b81b60648201526084016106fb565b600a8651111561115a5760405162461bcd60e51b815260206004820152602560248201527f7665476f7665726e6f723a3a70726f706f73653a20746f6f206d616e7920616360448201526474696f6e7360d81b60648201526084016106fb565b60008781526005602052604090205480156112cb57600061117a82610a35565b905060018160078111156111905761119061276b565b14156112225760405162461bcd60e51b815260206004820152605560248201527f7665476f7665726e6f723a3a70726f706f73653a206f6e65206c69766520707260448201527f6f706f73616c207065722070726f706f7365722c20666f756e6420616e20616c6064820152741c9958591e481858dd1a5d99481c1c9bdc1bdcd85b605a1b608482015260a4016106fb565b60008160078111156112365761123661276b565b14156112c95760405162461bcd60e51b815260206004820152605660248201527f7665476f7665726e6f723a3a70726f706f73653a206f6e65206c69766520707260448201527f6f706f73616c207065722070726f706f7365722c20666f756e6420616e20616c6064820152751c9958591e481c195b991a5b99c81c1c9bdc1bdcd85b60521b608482015260a4016106fb565b505b60006112d8600143612d65565b905060006112e8619d8083612d65565b90506000600460006003600081548092919061130390612e97565b9091555081526020808201929092526040016000908120600380548255600182018f905560028201929092558c5190935061134492918401918d019061232d565b50885161135a90600483019060208c0190612392565b50875161137090600583019060208b01906123cd565b50865161138690600683019060208a0190612426565b5082816007018190555081816008018190555060008160090181905550600081600a0181905550600081600b0160006101000a81548160ff021916908315150217905550600081600b0160016101000a81548160ff02191690831515021790555080600001546005600083600101548152602001908152602001600020819055507f1cd9ea8bb9644781a0c881308199c4b17f58fb8272cc761b3af6abdeb409374481600001548c8c8c8c8c89898e60405161144a99989796959493929190612eb2565b60405180910390a1549a9950505050505050505050565b6002546001600160a01b031633146114d75760405162461bcd60e51b815260206004820152603360248201527f7665476f7665726e6f723a3a5f5f61626469636174653a2073656e646572206d6044820152723ab9ba1031329033b7bb1033bab0b93234b0b760691b60648201526084016106fb565b600280546001600160a01b0319169055565b604080518082018252601081526f20b8343930903b32a3b7bb32b93737b960811b60209182015281517f8cad95687ba82c2ce50e74f7b754645e5117c3a5bec8151c0726d5857980a866818301527fe62256bdb071d9952d5ecdfe2d6e605399691451e8c78279995de029789b494081840152466060820152306080808301919091528351808303909101815260a0820184528051908301207f8e25870c07e0b0b3884c78da52790939a455c275406c44ae8b434b692fb916ee60c083015260e082018a90526101008201899052871515610120808401919091528451808403909101815261014083019094528351939092019290922061190160f01b6101608401526101628301829052610182830181905290916000906101a20160408051601f198184030181528282528051602091820120600080855291840180845281905260ff8a169284019290925260608301889052608083018790529092509060019060a0016020604051602081039080840390855afa158015611670573d6000803e3d6000fd5b5050604051601f198101516001546331a9108f60e11b8352600483018e90529093506001600160a01b03169150636352211e90602401602060405180830381865afa1580156116c3573d6000803e3d6000fd5b505050506040513d601f19601f820116820180604052508101906116e79190612f3f565b6001600160a01b0316816001600160a01b03161461175c5760405162461bcd60e51b815260206004820152602c60248201527f7665476f7665726e6f723a3a63617374566f746542795369673a20696e76616c60448201526b6964207369676e617475726560a01b60648201526084016106fb565b6117678a8a8a611f6a565b505050505b505050505050565b6002546001600160a01b031633146118045760405162461bcd60e51b815260206004820152604760248201527f7665476f7665726e6f723a3a5f5f717565756553657454696d656c6f636b506560448201527f6e64696e6741646d696e3a2073656e646572206d75737420626520676f7620676064820152663ab0b93234b0b760c91b608482015260a4016106fb565b60008054604080516001600160a01b03868116602083015290921692633a66f90192849201604051602081830303815290604052856040518563ffffffff1660e01b81526004016118589493929190612c1e565b6020604051808303816000875af1158015611877573d6000803e3d6000fd5b505050506040513d601f19601f8201168201806040525081019061079f9190612d36565b6002546001600160a01b031633146119145760405162461bcd60e51b815260206004820152603660248201527f7665476f7665726e6f723a3a5f5f61636365707441646d696e3a2073656e6465604482015275391036bab9ba1031329033b7bb1033bab0b93234b0b760511b60648201526084016106fb565b6000805460408051630e18b68160e01b815290516001600160a01b0390921692630e18b6819260048084019382900301818387803b15801561195557600080fd5b505af1158015611969573d6000803e3d6000fd5b50505050565b600461197a82610a35565b600781111561198b5761198b61276b565b14611a085760405162461bcd60e51b815260206004820152604160248201527f7665476f7665726e6f723a3a71756575653a2070726f706f73616c2063616e2060448201527f6f6e6c79206265207175657565642069662069742069732073756363656564656064820152601960fa1b608482015260a4016106fb565b600081815260046020818152604080842084548251630d48571f60e31b815292519195946001600160a01b0390911693636a42b8f893808301939192908290030181865afa158015611a5e573d6000803e3d6000fd5b505050506040513d601f19601f82011682018060405250810190611a829190612d36565b611a8c9042612d65565b905060005b6003830154811015611c5657611c44836003018281548110611ab557611ab5612d94565b6000918252602090912001546004850180546001600160a01b039092169184908110611ae357611ae3612d94565b9060005260206000200154856005018481548110611b0357611b03612d94565b906000526020600020018054611b1890612d01565b80601f0160208091040260200160405190810160405280929190818152602001828054611b4490612d01565b8015611b915780601f10611b6657610100808354040283529160200191611b91565b820191906000526020600020905b815481529060010190602001808311611b7457829003601f168201915b5050505050866006018581548110611bab57611bab612d94565b906000526020600020018054611bc090612d01565b80601f0160208091040260200160405190810160405280929190818152602001828054611bec90612d01565b8015611c395780601f10611c0e57610100808354040283529160200191611c39565b820191906000526020600020905b815481529060010190602001808311611c1c57829003601f168201915b505050505086612192565b80611c4e81612e97565b915050611a91565b506002820181905560408051848152602081018390527f9a2e42fd6722813d69113e7d0079d3d940171428df7373df9c7f7617cfda28929101610eee565b6001546040516331a9108f60e11b8152600481018590526001600160a01b0390911690636352211e90602401602060405180830381865afa158015611cdd573d6000803e3d6000fd5b505050506040513d601f19601f82011682018060405250810190611d019190612f3f565b6001600160a01b0316336001600160a01b031614611d1e57600080fd5b61079f838383611f6a565b6005611d3482610a35565b6007811115611d4557611d4561276b565b14611dc35760405162461bcd60e51b815260206004820152604260248201527f7665476f7665726e6f723a3a657865637574653a2070726f706f73616c20636160448201527f6e206f6e6c792062652065786563757465642069662069742069732071756575606482015261195960f21b608482015260a4016106fb565b6000818152600460205260408120600b8101805461ff001916610100179055905b6003820154811015611f32576000546004830180546001600160a01b0390921691630825f38f919084908110611e1c57611e1c612d94565b9060005260206000200154846003018481548110611e3c57611e3c612d94565b6000918252602090912001546004860180546001600160a01b039092169186908110611e6a57611e6a612d94565b9060005260206000200154866005018681548110611e8a57611e8a612d94565b90600052602060002001876006018781548110611ea957611ea9612d94565b9060005260206000200188600201546040518763ffffffff1660e01b8152600401611ed8959493929190612e4b565b60006040518083038185885af1158015611ef6573d6000803e3d6000fd5b50505050506040513d6000823e601f3d908101601f19168201604052611f1f9190810190612c8a565b5080611f2a81612e97565b915050611de4565b506040518281527f712ae1383f79ac853f8d882153778e0260ef8f03b504e2866e0593e04d2b291f9060200160405180910390a15050565b6001611f7583610a35565b6007811115611f8657611f8661276b565b14611fe35760405162461bcd60e51b815260206004820152602760248201527f7665476f7665726e6f723a3a5f63617374566f74653a20766f74696e672069736044820152660818db1bdcd95960ca1b60648201526084016106fb565b6000828152600460209081526040808320868452600c8101909252909120805460ff16156120685760405162461bcd60e51b815260206004820152602c60248201527f7665476f7665726e6f723a3a5f63617374566f74653a2062616467654964206160448201526b1b1c9958591e481d9bdd195960a21b60648201526084016106fb565b6001546007830154604051637028a55d60e11b81526000926001600160a01b03169163e0514aba916120a7918a91600401918252602082015260400190565b602060405180830381865afa1580156120c4573d6000803e3d6000fd5b505050506040513d601f19601f820116820180604052508101906120e89190612d36565b9050831561210a578083600901546121009190612d65565b6009840155612120565b8083600a015461211a9190612d65565b600a8401555b8154841515610100810261ffff1990921691909117600190811784558301829055604080518881526020810188905290810191909152606081018290527f2125e8dac7e38d10b3104d5656759f572fe191acad6948613f2e9f3c46bd2c3d9060800160405180910390a1505050505050565b6000546040516001600160a01b039091169063f2b06537906121c09088908890889088908890602001612f5c565b604051602081830303815290604052805190602001206040518263ffffffff1660e01b81526004016121f491815260200190565b602060405180830381865afa158015612211573d6000803e3d6000fd5b505050506040513d601f19601f820116820180604052508101906122359190612f95565b156122b25760405162461bcd60e51b815260206004820152604160248201527f7665476f7665726e6f723a3a5f71756575654f725265766572743a2070726f7060448201527f6f73616c20616374696f6e20616c7265616479207175657565642061742065746064820152606160f81b608482015260a4016106fb565b600054604051633a66f90160e01b81526001600160a01b0390911690633a66f901906122ea9088908890889088908890600401612f5c565b6020604051808303816000875af1158015612309573d6000803e3d6000fd5b505050506040513d601f19601f8201168201806040525081019061176c9190612d36565b828054828255906000526020600020908101928215612382579160200282015b8281111561238257825182546001600160a01b0319166001600160a01b0390911617825560209092019160019091019061234d565b5061238e92915061247f565b5090565b828054828255906000526020600020908101928215612382579160200282015b828111156123825782518255916020019190600101906123b2565b82805482825590600052602060002090810192821561241a579160200282015b8281111561241a578251805161240a918491602090910190612494565b50916020019190600101906123ed565b5061238e929150612507565b828054828255906000526020600020908101928215612473579160200282015b828111156124735782518051612463918491602090910190612494565b5091602001919060010190612446565b5061238e929150612524565b5b8082111561238e5760008155600101612480565b8280546124a090612d01565b90600052602060002090601f0160209004810192826124c25760008555612382565b82601f106124db57805160ff1916838001178555612382565b8280016001018555821561238257918201828111156123825782518255916020019190600101906123b2565b8082111561238e57600061251b8282612541565b50600101612507565b8082111561238e5760006125388282612541565b50600101612524565b50805461254d90612d01565b6000825580601f1061255d575050565b601f01602090049060005260206000209081019061257b919061247f565b50565b60006020828403121561259057600080fd5b5035919050565b60005b838110156125b257818101518382015260200161259a565b838111156119695750506000910152565b600081518084526125db816020860160208601612597565b601f01601f19169290920160200192915050565b60208152600061260260208301846125c3565b9392505050565b6001600160a01b038116811461257b57600080fd5b6000806040838503121561263157600080fd5b823561263c81612609565b946020939093013593505050565b600081518084526020808501945080840160005b838110156126835781516001600160a01b03168752958201959082019060010161265e565b509495945050505050565b600081518084526020808501945080840160005b83811015612683578151875295820195908201906001016126a2565b600081518084526020808501808196508360051b8101915082860160005b858110156127065782840389526126f48483516125c3565b988501989350908401906001016126dc565b5091979650505050505050565b608081526000612726608083018761264a565b8281036020840152612738818761268e565b9050828103604084015261274c81866126be565b9050828103606084015261276081856126be565b979650505050505050565b634e487b7160e01b600052602160045260246000fd5b60208101600883106127a357634e487b7160e01b600052602160045260246000fd5b91905290565b600080604083850312156127bc57600080fd5b50508035926020909101359150565b634e487b7160e01b600052604160045260246000fd5b604051601f8201601f1916810167ffffffffffffffff8111828210171561280a5761280a6127cb565b604052919050565b600067ffffffffffffffff82111561282c5761282c6127cb565b5060051b60200190565b600082601f83011261284757600080fd5b8135602061285c61285783612812565b6127e1565b82815260059290921b8401810191818101908684111561287b57600080fd5b8286015b8481101561289f57803561289281612609565b835291830191830161287f565b509695505050505050565b600082601f8301126128bb57600080fd5b813560206128cb61285783612812565b82815260059290921b840181019181810190868411156128ea57600080fd5b8286015b8481101561289f57803583529183019183016128ee565b600067ffffffffffffffff82111561291f5761291f6127cb565b50601f01601f191660200190565b600061293b61285784612905565b905082815283838301111561294f57600080fd5b828260208301376000602084830101529392505050565b600082601f83011261297757600080fd5b6126028383356020850161292d565b600082601f83011261299757600080fd5b813560206129a761285783612812565b82815260059290921b840181019181810190868411156129c657600080fd5b8286015b8481101561289f57803567ffffffffffffffff8111156129ea5760008081fd5b6129f88986838b0101612966565b8452509183019183016129ca565b600082601f830112612a1757600080fd5b81356020612a2761285783612812565b82815260059290921b84018101918181019086841115612a4657600080fd5b8286015b8481101561289f57803567ffffffffffffffff811115612a6a5760008081fd5b8701603f81018913612a7c5760008081fd5b612a8d89868301356040840161292d565b845250918301918301612a4a565b60008060008060008060c08789031215612ab457600080fd5b86359550602087013567ffffffffffffffff80821115612ad357600080fd5b612adf8a838b01612836565b96506040890135915080821115612af557600080fd5b612b018a838b016128aa565b95506060890135915080821115612b1757600080fd5b612b238a838b01612986565b94506080890135915080821115612b3957600080fd5b612b458a838b01612a06565b935060a0890135915080821115612b5b57600080fd5b50612b6889828a01612966565b9150509295509295509295565b801515811461257b57600080fd5b60008060008060008060c08789031215612b9c57600080fd5b86359550602087013594506040870135612bb581612b75565b9350606087013560ff81168114612bcb57600080fd5b9598949750929560808101359460a0909101359350915050565b600080600060608486031215612bfa57600080fd5b83359250602084013591506040840135612c1381612b75565b809150509250925092565b60018060a01b038516815283602082015260a06040820152601860a08201527f73657450656e64696e6741646d696e286164647265737329000000000000000060c082015260e060608201526000612c7960e08301856125c3565b905082608083015295945050505050565b600060208284031215612c9c57600080fd5b815167ffffffffffffffff811115612cb357600080fd5b8201601f81018413612cc457600080fd5b8051612cd261285782612905565b818152856020838501011115612ce757600080fd5b612cf8826020830160208601612597565b95945050505050565b600181811c90821680612d1557607f821691505b60208210811415610bec57634e487b7160e01b600052602260045260246000fd5b600060208284031215612d4857600080fd5b5051919050565b634e487b7160e01b600052601160045260246000fd5b60008219821115612d7857612d78612d4f565b500190565b600082821015612d8f57612d8f612d4f565b500390565b634e487b7160e01b600052603260045260246000fd5b8054600090600181811c9080831680612dc457607f831692505b6020808410821415612de657634e487b7160e01b600052602260045260246000fd5b838852818015612dfd5760018114612e1157612e3f565b60ff19861689830152604089019650612e3f565b876000528160002060005b86811015612e375781548b8201850152908501908301612e1c565b8a0183019750505b50505050505092915050565b60018060a01b038616815284602082015260a060408201526000612e7260a0830186612daa565b8281036060840152612e848186612daa565b9150508260808301529695505050505050565b6000600019821415612eab57612eab612d4f565b5060010190565b60006101208b83528a6020840152806040840152612ed28184018b61264a565b90508281036060840152612ee6818a61268e565b90508281036080840152612efa81896126be565b905082810360a0840152612f0e81886126be565b90508560c08401528460e0840152828103610100840152612f2f81856125c3565b9c9b505050505050505050505050565b600060208284031215612f5157600080fd5b815161260281612609565b60018060a01b038616815284602082015260a060408201526000612f8360a08301866125c3565b8281036060840152612e8481866125c3565b600060208284031215612fa757600080fd5b815161260281612b7556fea26469706673582212202ab6a73a4a5d8fdf197ed7346dc1236d6334b3be78d2d967cfba42765fa6e89d64736f6c634300080b0033",
  "devdoc": {
    "kind": "dev",
    "methods": {},
    "version": 1
  },
  "userdoc": {
    "events": {
      "ProposalCanceled(uint256)": {
        "notice": "An event emitted when a proposal has been canceled"
      },
      "ProposalCreated(uint256,uint256,address[],uint256[],string[],bytes[],uint256,uint256,string)": {
        "notice": "An event emitted when a new proposal is created"
      },
      "ProposalExecuted(uint256)": {
        "notice": "An event emitted when a proposal has been executed in the Timelock"
      },
      "ProposalQueued(uint256,uint256)": {
        "notice": "An event emitted when a proposal has been queued in the Timelock"
      },
      "VoteCast(uint256,uint256,bool,uint256)": {
        "notice": "An event emitted when a vote has been cast on a proposal"
      }
    },
    "kind": "user",
    "methods": {
      "BALLOT_TYPEHASH()": {
        "notice": "The EIP-712 typehash for the ballot struct used by the contract"
      },
      "DOMAIN_TYPEHASH()": {
        "notice": "The EIP-712 typehash for the contract's domain"
      },
      "guardian()": {
        "notice": "The address of the veGovernor Guardian"
      },
      "latestProposalIds(uint256)": {
        "notice": "The latest proposal for each proposer"
      },
      "name()": {
        "notice": "The name of this contract"
      },
      "proposalCount()": {
        "notice": "The total number of proposals"
      },
      "proposalMaxOperations()": {
        "notice": "The maximum number of actions that can be included in a proposal"
      },
      "proposalThreshold()": {
        "notice": "The number of votes required in order for a voter to become a proposer"
      },
      "proposals(uint256)": {
        "notice": "The official record of all proposals ever proposed"
      },
      "quorumVotes()": {
        "notice": "The number of votes in support of a proposal required in order for a quorum to be reached and for a vote to succeed"
      },
      "timelock()": {
        "notice": "The address of the APHRA Protocol Timelock"
      },
      "ve()": {
        "notice": "The address of the veAPHRA token"
      },
      "votingDelay()": {
        "notice": "The delay before voting on a proposal may take place, once proposed"
      },
      "votingPeriod()": {
        "notice": "The duration of voting on a proposal, in blocks"
      }
    },
    "version": 1
  },
  "storageLayout": {
    "storage": [
      {
        "astId": 6955,
        "contract": "srcBuild/governance/veGovernor.sol:veGovernor",
        "label": "timelock",
        "offset": 0,
        "slot": "0",
        "type": "t_contract(Timelock)6895"
      },
      {
        "astId": 6959,
        "contract": "srcBuild/governance/veGovernor.sol:veGovernor",
        "label": "ve",
        "offset": 0,
        "slot": "1",
        "type": "t_contract(veAPHRA)15196"
      },
      {
        "astId": 6962,
        "contract": "srcBuild/governance/veGovernor.sol:veGovernor",
        "label": "guardian",
        "offset": 0,
        "slot": "2",
        "type": "t_address"
      },
      {
        "astId": 6965,
        "contract": "srcBuild/governance/veGovernor.sol:veGovernor",
        "label": "proposalCount",
        "offset": 0,
        "slot": "3",
        "type": "t_uint256"
      },
      {
        "astId": 7040,
        "contract": "srcBuild/governance/veGovernor.sol:veGovernor",
        "label": "proposals",
        "offset": 0,
        "slot": "4",
        "type": "t_mapping(t_uint256,t_struct(Proposal)7015_storage)"
      },
      {
        "astId": 7045,
        "contract": "srcBuild/governance/veGovernor.sol:veGovernor",
        "label": "latestProposalIds",
        "offset": 0,
        "slot": "5",
        "type": "t_mapping(t_uint256,t_uint256)"
      }
    ],
    "types": {
      "t_address": {
        "encoding": "inplace",
        "label": "address",
        "numberOfBytes": "20"
      },
      "t_array(t_address)dyn_storage": {
        "base": "t_address",
        "encoding": "dynamic_array",
        "label": "address[]",
        "numberOfBytes": "32"
      },
      "t_array(t_bytes_storage)dyn_storage": {
        "base": "t_bytes_storage",
        "encoding": "dynamic_array",
        "label": "bytes[]",
        "numberOfBytes": "32"
      },
      "t_array(t_string_storage)dyn_storage": {
        "base": "t_string_storage",
        "encoding": "dynamic_array",
        "label": "string[]",
        "numberOfBytes": "32"
      },
      "t_array(t_uint256)dyn_storage": {
        "base": "t_uint256",
        "encoding": "dynamic_array",
        "label": "uint256[]",
        "numberOfBytes": "32"
      },
      "t_bool": {
        "encoding": "inplace",
        "label": "bool",
        "numberOfBytes": "1"
      },
      "t_bytes_storage": {
        "encoding": "bytes",
        "label": "bytes",
        "numberOfBytes": "32"
      },
      "t_contract(Timelock)6895": {
        "encoding": "inplace",
        "label": "contract Timelock",
        "numberOfBytes": "20"
      },
      "t_contract(veAPHRA)15196": {
        "encoding": "inplace",
        "label": "contract veAPHRA",
        "numberOfBytes": "20"
      },
      "t_mapping(t_uint256,t_struct(Proposal)7015_storage)": {
        "encoding": "mapping",
        "key": "t_uint256",
        "label": "mapping(uint256 => struct veGovernor.Proposal)",
        "numberOfBytes": "32",
        "value": "t_struct(Proposal)7015_storage"
      },
      "t_mapping(t_uint256,t_struct(Receipt)7025_storage)": {
        "encoding": "mapping",
        "key": "t_uint256",
        "label": "mapping(uint256 => struct veGovernor.Receipt)",
        "numberOfBytes": "32",
        "value": "t_struct(Receipt)7025_storage"
      },
      "t_mapping(t_uint256,t_uint256)": {
        "encoding": "mapping",
        "key": "t_uint256",
        "label": "mapping(uint256 => uint256)",
        "numberOfBytes": "32",
        "value": "t_uint256"
      },
      "t_string_storage": {
        "encoding": "bytes",
        "label": "string",
        "numberOfBytes": "32"
      },
      "t_struct(Proposal)7015_storage": {
        "encoding": "inplace",
        "label": "struct veGovernor.Proposal",
        "members": [
          {
            "astId": 6968,
            "contract": "srcBuild/governance/veGovernor.sol:veGovernor",
            "label": "id",
            "offset": 0,
            "slot": "0",
            "type": "t_uint256"
          },
          {
            "astId": 6971,
            "contract": "srcBuild/governance/veGovernor.sol:veGovernor",
            "label": "badgeId",
            "offset": 0,
            "slot": "1",
            "type": "t_uint256"
          },
          {
            "astId": 6974,
            "contract": "srcBuild/governance/veGovernor.sol:veGovernor",
            "label": "eta",
            "offset": 0,
            "slot": "2",
            "type": "t_uint256"
          },
          {
            "astId": 6978,
            "contract": "srcBuild/governance/veGovernor.sol:veGovernor",
            "label": "targets",
            "offset": 0,
            "slot": "3",
            "type": "t_array(t_address)dyn_storage"
          },
          {
            "astId": 6982,
            "contract": "srcBuild/governance/veGovernor.sol:veGovernor",
            "label": "values",
            "offset": 0,
            "slot": "4",
            "type": "t_array(t_uint256)dyn_storage"
          },
          {
            "astId": 6986,
            "contract": "srcBuild/governance/veGovernor.sol:veGovernor",
            "label": "signatures",
            "offset": 0,
            "slot": "5",
            "type": "t_array(t_string_storage)dyn_storage"
          },
          {
            "astId": 6990,
            "contract": "srcBuild/governance/veGovernor.sol:veGovernor",
            "label": "calldatas",
            "offset": 0,
            "slot": "6",
            "type": "t_array(t_bytes_storage)dyn_storage"
          },
          {
            "astId": 6993,
            "contract": "srcBuild/governance/veGovernor.sol:veGovernor",
            "label": "startBlock",
            "offset": 0,
            "slot": "7",
            "type": "t_uint256"
          },
          {
            "astId": 6996,
            "contract": "srcBuild/governance/veGovernor.sol:veGovernor",
            "label": "endBlock",
            "offset": 0,
            "slot": "8",
            "type": "t_uint256"
          },
          {
            "astId": 6999,
            "contract": "srcBuild/governance/veGovernor.sol:veGovernor",
            "label": "forVotes",
            "offset": 0,
            "slot": "9",
            "type": "t_uint256"
          },
          {
            "astId": 7002,
            "contract": "srcBuild/governance/veGovernor.sol:veGovernor",
            "label": "againstVotes",
            "offset": 0,
            "slot": "10",
            "type": "t_uint256"
          },
          {
            "astId": 7005,
            "contract": "srcBuild/governance/veGovernor.sol:veGovernor",
            "label": "canceled",
            "offset": 0,
            "slot": "11",
            "type": "t_bool"
          },
          {
            "astId": 7008,
            "contract": "srcBuild/governance/veGovernor.sol:veGovernor",
            "label": "executed",
            "offset": 1,
            "slot": "11",
            "type": "t_bool"
          },
          {
            "astId": 7014,
            "contract": "srcBuild/governance/veGovernor.sol:veGovernor",
            "label": "receipts",
            "offset": 0,
            "slot": "12",
            "type": "t_mapping(t_uint256,t_struct(Receipt)7025_storage)"
          }
        ],
        "numberOfBytes": "416"
      },
      "t_struct(Receipt)7025_storage": {
        "encoding": "inplace",
        "label": "struct veGovernor.Receipt",
        "members": [
          {
            "astId": 7018,
            "contract": "srcBuild/governance/veGovernor.sol:veGovernor",
            "label": "hasVoted",
            "offset": 0,
            "slot": "0",
            "type": "t_bool"
          },
          {
            "astId": 7021,
            "contract": "srcBuild/governance/veGovernor.sol:veGovernor",
            "label": "support",
            "offset": 1,
            "slot": "0",
            "type": "t_bool"
          },
          {
            "astId": 7024,
            "contract": "srcBuild/governance/veGovernor.sol:veGovernor",
            "label": "votes",
            "offset": 0,
            "slot": "1",
            "type": "t_uint256"
          }
        ],
        "numberOfBytes": "64"
      },
      "t_uint256": {
        "encoding": "inplace",
        "label": "uint256",
        "numberOfBytes": "32"
      }
    }
  }
}