{
  "address": "0x88B2A71b0035BE30f01306B1D4caED7d14Bc9708",
  "abi": [
    {
      "inputs": [
        {
          "internalType": "address",
          "name": "_guardian",
          "type": "address"
        },
        {
          "internalType": "address",
          "name": "_authority",
          "type": "address"
        },
        {
          "internalType": "address",
          "name": "__ve",
          "type": "address"
        },
        {
          "internalType": "address",
          "name": "_gauges",
          "type": "address"
        },
        {
          "internalType": "address",
          "name": "_bribes",
          "type": "address"
        }
      ],
      "stateMutability": "nonpayable",
      "type": "constructor"
    },
    {
      "anonymous": false,
      "inputs": [
        {
          "indexed": false,
          "internalType": "uint256",
          "name": "tokenId",
          "type": "uint256"
        },
        {
          "indexed": false,
          "internalType": "int256",
          "name": "weight",
          "type": "int256"
        }
      ],
      "name": "Abstained",
      "type": "event"
    },
    {
      "anonymous": false,
      "inputs": [
        {
          "indexed": true,
          "internalType": "address",
          "name": "owner",
          "type": "address"
        },
        {
          "indexed": true,
          "internalType": "address",
          "name": "gauge",
          "type": "address"
        },
        {
          "indexed": false,
          "internalType": "uint256",
          "name": "tokenId",
          "type": "uint256"
        }
      ],
      "name": "Attach",
      "type": "event"
    },
    {
      "anonymous": false,
      "inputs": [
        {
          "indexed": true,
          "internalType": "address",
          "name": "user",
          "type": "address"
        },
        {
          "indexed": true,
          "internalType": "contract Authority",
          "name": "newAuthority",
          "type": "address"
        }
      ],
      "name": "AuthorityUpdated",
      "type": "event"
    },
    {
      "anonymous": false,
      "inputs": [
        {
          "indexed": true,
          "internalType": "address",
          "name": "delister",
          "type": "address"
        },
        {
          "indexed": true,
          "internalType": "address",
          "name": "token",
          "type": "address"
        }
      ],
      "name": "DeListed",
      "type": "event"
    },
    {
      "anonymous": false,
      "inputs": [
        {
          "indexed": true,
          "internalType": "address",
          "name": "lp",
          "type": "address"
        },
        {
          "indexed": true,
          "internalType": "address",
          "name": "gauge",
          "type": "address"
        },
        {
          "indexed": false,
          "internalType": "uint256",
          "name": "tokenId",
          "type": "uint256"
        },
        {
          "indexed": false,
          "internalType": "uint256",
          "name": "amount",
          "type": "uint256"
        }
      ],
      "name": "Deposit",
      "type": "event"
    },
    {
      "anonymous": false,
      "inputs": [
        {
          "indexed": true,
          "internalType": "address",
          "name": "owner",
          "type": "address"
        },
        {
          "indexed": true,
          "internalType": "address",
          "name": "gauge",
          "type": "address"
        },
        {
          "indexed": false,
          "internalType": "uint256",
          "name": "tokenId",
          "type": "uint256"
        }
      ],
      "name": "Detach",
      "type": "event"
    },
    {
      "anonymous": false,
      "inputs": [
        {
          "indexed": true,
          "internalType": "address",
          "name": "sender",
          "type": "address"
        },
        {
          "indexed": true,
          "internalType": "address",
          "name": "gauge",
          "type": "address"
        },
        {
          "indexed": false,
          "internalType": "uint256",
          "name": "amount",
          "type": "uint256"
        }
      ],
      "name": "DistributeReward",
      "type": "event"
    },
    {
      "anonymous": false,
      "inputs": [
        {
          "indexed": true,
          "internalType": "address",
          "name": "gauge",
          "type": "address"
        },
        {
          "indexed": false,
          "internalType": "address",
          "name": "creator",
          "type": "address"
        },
        {
          "indexed": true,
          "internalType": "address",
          "name": "bribe",
          "type": "address"
        },
        {
          "indexed": true,
          "internalType": "address",
          "name": "pool",
          "type": "address"
        }
      ],
      "name": "GaugeCreated",
      "type": "event"
    },
    {
      "anonymous": false,
      "inputs": [
        {
          "indexed": true,
          "internalType": "address",
          "name": "sender",
          "type": "address"
        },
        {
          "indexed": true,
          "internalType": "address",
          "name": "reward",
          "type": "address"
        },
        {
          "indexed": false,
          "internalType": "uint256",
          "name": "amount",
          "type": "uint256"
        }
      ],
      "name": "NotifyReward",
      "type": "event"
    },
    {
      "anonymous": false,
      "inputs": [
        {
          "indexed": true,
          "internalType": "address",
          "name": "user",
          "type": "address"
        },
        {
          "indexed": true,
          "internalType": "address",
          "name": "newOwner",
          "type": "address"
        }
      ],
      "name": "OwnerUpdated",
      "type": "event"
    },
    {
      "anonymous": false,
      "inputs": [
        {
          "indexed": true,
          "internalType": "address",
          "name": "voter",
          "type": "address"
        },
        {
          "indexed": false,
          "internalType": "uint256",
          "name": "tokenId",
          "type": "uint256"
        },
        {
          "indexed": false,
          "internalType": "int256",
          "name": "weight",
          "type": "int256"
        }
      ],
      "name": "Voted",
      "type": "event"
    },
    {
      "anonymous": false,
      "inputs": [
        {
          "indexed": true,
          "internalType": "address",
          "name": "whitelister",
          "type": "address"
        },
        {
          "indexed": true,
          "internalType": "address",
          "name": "token",
          "type": "address"
        }
      ],
      "name": "Whitelisted",
      "type": "event"
    },
    {
      "anonymous": false,
      "inputs": [
        {
          "indexed": true,
          "internalType": "address",
          "name": "lp",
          "type": "address"
        },
        {
          "indexed": true,
          "internalType": "address",
          "name": "gauge",
          "type": "address"
        },
        {
          "indexed": false,
          "internalType": "uint256",
          "name": "tokenId",
          "type": "uint256"
        },
        {
          "indexed": false,
          "internalType": "uint256",
          "name": "amount",
          "type": "uint256"
        }
      ],
      "name": "Withdraw",
      "type": "event"
    },
    {
      "inputs": [],
      "name": "_ve",
      "outputs": [
        {
          "internalType": "address",
          "name": "",
          "type": "address"
        }
      ],
      "stateMutability": "view",
      "type": "function"
    },
    {
      "inputs": [
        {
          "internalType": "address",
          "name": "",
          "type": "address"
        }
      ],
      "name": "assetForGauge",
      "outputs": [
        {
          "internalType": "address",
          "name": "",
          "type": "address"
        }
      ],
      "stateMutability": "view",
      "type": "function"
    },
    {
      "inputs": [
        {
          "internalType": "uint256",
          "name": "",
          "type": "uint256"
        },
        {
          "internalType": "uint256",
          "name": "",
          "type": "uint256"
        }
      ],
      "name": "assetVote",
      "outputs": [
        {
          "internalType": "address",
          "name": "",
          "type": "address"
        }
      ],
      "stateMutability": "view",
      "type": "function"
    },
    {
      "inputs": [
        {
          "internalType": "uint256",
          "name": "",
          "type": "uint256"
        }
      ],
      "name": "assets",
      "outputs": [
        {
          "internalType": "address",
          "name": "",
          "type": "address"
        }
      ],
      "stateMutability": "view",
      "type": "function"
    },
    {
      "inputs": [
        {
          "internalType": "uint256",
          "name": "tokenId",
          "type": "uint256"
        },
        {
          "internalType": "address",
          "name": "account",
          "type": "address"
        }
      ],
      "name": "attachTokenToGauge",
      "outputs": [],
      "stateMutability": "nonpayable",
      "type": "function"
    },
    {
      "inputs": [],
      "name": "authority",
      "outputs": [
        {
          "internalType": "contract Authority",
          "name": "",
          "type": "address"
        }
      ],
      "stateMutability": "view",
      "type": "function"
    },
    {
      "inputs": [],
      "name": "bribefactory",
      "outputs": [
        {
          "internalType": "address",
          "name": "",
          "type": "address"
        }
      ],
      "stateMutability": "view",
      "type": "function"
    },
    {
      "inputs": [
        {
          "internalType": "address",
          "name": "",
          "type": "address"
        }
      ],
      "name": "bribes",
      "outputs": [
        {
          "internalType": "address",
          "name": "",
          "type": "address"
        }
      ],
      "stateMutability": "view",
      "type": "function"
    },
    {
      "inputs": [
        {
          "internalType": "address[]",
          "name": "_bribes",
          "type": "address[]"
        },
        {
          "internalType": "address[][]",
          "name": "_tokens",
          "type": "address[][]"
        },
        {
          "internalType": "uint256",
          "name": "_tokenId",
          "type": "uint256"
        }
      ],
      "name": "claimBribes",
      "outputs": [],
      "stateMutability": "nonpayable",
      "type": "function"
    },
    {
      "inputs": [
        {
          "internalType": "address[]",
          "name": "_gauges",
          "type": "address[]"
        },
        {
          "internalType": "address[][]",
          "name": "_tokens",
          "type": "address[][]"
        }
      ],
      "name": "claimRewards",
      "outputs": [],
      "stateMutability": "nonpayable",
      "type": "function"
    },
    {
      "inputs": [
        {
          "internalType": "address",
          "name": "",
          "type": "address"
        }
      ],
      "name": "claimable",
      "outputs": [
        {
          "internalType": "uint256",
          "name": "",
          "type": "uint256"
        }
      ],
      "stateMutability": "view",
      "type": "function"
    },
    {
      "inputs": [
        {
          "internalType": "address",
          "name": "_asset",
          "type": "address"
        }
      ],
      "name": "createGauge",
      "outputs": [
        {
          "internalType": "address",
          "name": "",
          "type": "address"
        }
      ],
      "stateMutability": "nonpayable",
      "type": "function"
    },
    {
      "inputs": [
        {
          "internalType": "uint256",
          "name": "tokenId",
          "type": "uint256"
        },
        {
          "internalType": "address",
          "name": "account",
          "type": "address"
        }
      ],
      "name": "detachTokenFromGauge",
      "outputs": [],
      "stateMutability": "nonpayable",
      "type": "function"
    },
    {
      "inputs": [],
      "name": "disableOpenListing",
      "outputs": [],
      "stateMutability": "nonpayable",
      "type": "function"
    },
    {
      "inputs": [
        {
          "internalType": "address[]",
          "name": "_gauges",
          "type": "address[]"
        }
      ],
      "name": "distribute",
      "outputs": [],
      "stateMutability": "nonpayable",
      "type": "function"
    },
    {
      "inputs": [
        {
          "internalType": "address",
          "name": "_gauge",
          "type": "address"
        }
      ],
      "name": "distribute",
      "outputs": [],
      "stateMutability": "nonpayable",
      "type": "function"
    },
    {
      "inputs": [
        {
          "internalType": "uint256",
          "name": "start",
          "type": "uint256"
        },
        {
          "internalType": "uint256",
          "name": "finish",
          "type": "uint256"
        }
      ],
      "name": "distribute",
      "outputs": [],
      "stateMutability": "nonpayable",
      "type": "function"
    },
    {
      "inputs": [],
      "name": "distribute",
      "outputs": [],
      "stateMutability": "nonpayable",
      "type": "function"
    },
    {
      "inputs": [],
      "name": "distro",
      "outputs": [],
      "stateMutability": "nonpayable",
      "type": "function"
    },
    {
      "inputs": [
        {
          "internalType": "uint256",
          "name": "tokenId",
          "type": "uint256"
        },
        {
          "internalType": "address",
          "name": "account",
          "type": "address"
        },
        {
          "internalType": "uint256",
          "name": "amount",
          "type": "uint256"
        }
      ],
      "name": "emitDeposit",
      "outputs": [],
      "stateMutability": "nonpayable",
      "type": "function"
    },
    {
      "inputs": [
        {
          "internalType": "uint256",
          "name": "tokenId",
          "type": "uint256"
        },
        {
          "internalType": "address",
          "name": "account",
          "type": "address"
        },
        {
          "internalType": "uint256",
          "name": "amount",
          "type": "uint256"
        }
      ],
      "name": "emitWithdraw",
      "outputs": [],
      "stateMutability": "nonpayable",
      "type": "function"
    },
    {
      "inputs": [],
      "name": "enableOpenListing",
      "outputs": [],
      "stateMutability": "nonpayable",
      "type": "function"
    },
    {
      "inputs": [
        {
          "internalType": "address",
          "name": "_gauge",
          "type": "address"
        }
      ],
      "name": "gaugeOpenDeposits",
      "outputs": [],
      "stateMutability": "nonpayable",
      "type": "function"
    },
    {
      "inputs": [
        {
          "internalType": "address",
          "name": "_gauge",
          "type": "address"
        }
      ],
      "name": "gaugeStopDeposits",
      "outputs": [],
      "stateMutability": "nonpayable",
      "type": "function"
    },
    {
      "inputs": [],
      "name": "gaugefactory",
      "outputs": [
        {
          "internalType": "address",
          "name": "",
          "type": "address"
        }
      ],
      "stateMutability": "view",
      "type": "function"
    },
    {
      "inputs": [
        {
          "internalType": "address",
          "name": "",
          "type": "address"
        }
      ],
      "name": "gauges",
      "outputs": [
        {
          "internalType": "address",
          "name": "",
          "type": "address"
        }
      ],
      "stateMutability": "view",
      "type": "function"
    },
    {
      "inputs": [
        {
          "internalType": "address[]",
          "name": "_tokens",
          "type": "address[]"
        },
        {
          "internalType": "address",
          "name": "_minter",
          "type": "address"
        }
      ],
      "name": "initialize",
      "outputs": [],
      "stateMutability": "nonpayable",
      "type": "function"
    },
    {
      "inputs": [
        {
          "internalType": "address",
          "name": "",
          "type": "address"
        }
      ],
      "name": "isGauge",
      "outputs": [
        {
          "internalType": "bool",
          "name": "",
          "type": "bool"
        }
      ],
      "stateMutability": "view",
      "type": "function"
    },
    {
      "inputs": [
        {
          "internalType": "address",
          "name": "",
          "type": "address"
        }
      ],
      "name": "isWhitelisted",
      "outputs": [
        {
          "internalType": "bool",
          "name": "",
          "type": "bool"
        }
      ],
      "stateMutability": "view",
      "type": "function"
    },
    {
      "inputs": [],
      "name": "length",
      "outputs": [
        {
          "internalType": "uint256",
          "name": "",
          "type": "uint256"
        }
      ],
      "stateMutability": "view",
      "type": "function"
    },
    {
      "inputs": [],
      "name": "listing_fee",
      "outputs": [
        {
          "internalType": "uint256",
          "name": "",
          "type": "uint256"
        }
      ],
      "stateMutability": "view",
      "type": "function"
    },
    {
      "inputs": [],
      "name": "minter",
      "outputs": [
        {
          "internalType": "address",
          "name": "",
          "type": "address"
        }
      ],
      "stateMutability": "view",
      "type": "function"
    },
    {
      "inputs": [
        {
          "internalType": "uint256",
          "name": "amount",
          "type": "uint256"
        }
      ],
      "name": "notifyRewardAmount",
      "outputs": [],
      "stateMutability": "nonpayable",
      "type": "function"
    },
    {
      "inputs": [],
      "name": "openListing",
      "outputs": [
        {
          "internalType": "bool",
          "name": "",
          "type": "bool"
        }
      ],
      "stateMutability": "view",
      "type": "function"
    },
    {
      "inputs": [],
      "name": "owner",
      "outputs": [
        {
          "internalType": "address",
          "name": "",
          "type": "address"
        }
      ],
      "stateMutability": "view",
      "type": "function"
    },
    {
      "inputs": [
        {
          "internalType": "uint256",
          "name": "_tokenId",
          "type": "uint256"
        }
      ],
      "name": "poke",
      "outputs": [],
      "stateMutability": "nonpayable",
      "type": "function"
    },
    {
      "inputs": [
        {
          "internalType": "address",
          "name": "_token",
          "type": "address"
        }
      ],
      "name": "removeListing",
      "outputs": [],
      "stateMutability": "nonpayable",
      "type": "function"
    },
    {
      "inputs": [
        {
          "internalType": "uint256",
          "name": "_tokenId",
          "type": "uint256"
        }
      ],
      "name": "reset",
      "outputs": [],
      "stateMutability": "nonpayable",
      "type": "function"
    },
    {
      "inputs": [
        {
          "internalType": "contract Authority",
          "name": "newAuthority",
          "type": "address"
        }
      ],
      "name": "setAuthority",
      "outputs": [],
      "stateMutability": "nonpayable",
      "type": "function"
    },
    {
      "inputs": [
        {
          "internalType": "address",
          "name": "listingFeeAddress_",
          "type": "address"
        }
      ],
      "name": "setListingFeeAddress",
      "outputs": [],
      "stateMutability": "nonpayable",
      "type": "function"
    },
    {
      "inputs": [
        {
          "internalType": "address",
          "name": "newOwner",
          "type": "address"
        }
      ],
      "name": "setOwner",
      "outputs": [],
      "stateMutability": "nonpayable",
      "type": "function"
    },
    {
      "inputs": [],
      "name": "totalWeight",
      "outputs": [
        {
          "internalType": "uint256",
          "name": "",
          "type": "uint256"
        }
      ],
      "stateMutability": "view",
      "type": "function"
    },
    {
      "inputs": [],
      "name": "updateAll",
      "outputs": [],
      "stateMutability": "nonpayable",
      "type": "function"
    },
    {
      "inputs": [
        {
          "internalType": "address[]",
          "name": "_gauges",
          "type": "address[]"
        }
      ],
      "name": "updateFor",
      "outputs": [],
      "stateMutability": "nonpayable",
      "type": "function"
    },
    {
      "inputs": [
        {
          "internalType": "uint256",
          "name": "start",
          "type": "uint256"
        },
        {
          "internalType": "uint256",
          "name": "end",
          "type": "uint256"
        }
      ],
      "name": "updateForRange",
      "outputs": [],
      "stateMutability": "nonpayable",
      "type": "function"
    },
    {
      "inputs": [
        {
          "internalType": "address",
          "name": "_gauge",
          "type": "address"
        }
      ],
      "name": "updateGauge",
      "outputs": [],
      "stateMutability": "nonpayable",
      "type": "function"
    },
    {
      "inputs": [
        {
          "internalType": "uint256",
          "name": "",
          "type": "uint256"
        }
      ],
      "name": "usedWeights",
      "outputs": [
        {
          "internalType": "uint256",
          "name": "",
          "type": "uint256"
        }
      ],
      "stateMutability": "view",
      "type": "function"
    },
    {
      "inputs": [
        {
          "internalType": "uint256",
          "name": "tokenId",
          "type": "uint256"
        },
        {
          "internalType": "address[]",
          "name": "_assetVote",
          "type": "address[]"
        },
        {
          "internalType": "int256[]",
          "name": "_weights",
          "type": "int256[]"
        }
      ],
      "name": "vote",
      "outputs": [],
      "stateMutability": "nonpayable",
      "type": "function"
    },
    {
      "inputs": [
        {
          "internalType": "uint256",
          "name": "",
          "type": "uint256"
        },
        {
          "internalType": "address",
          "name": "",
          "type": "address"
        }
      ],
      "name": "votes",
      "outputs": [
        {
          "internalType": "int256",
          "name": "",
          "type": "int256"
        }
      ],
      "stateMutability": "view",
      "type": "function"
    },
    {
      "inputs": [
        {
          "internalType": "address",
          "name": "",
          "type": "address"
        }
      ],
      "name": "weights",
      "outputs": [
        {
          "internalType": "int256",
          "name": "",
          "type": "int256"
        }
      ],
      "stateMutability": "view",
      "type": "function"
    },
    {
      "inputs": [
        {
          "internalType": "address",
          "name": "_token",
          "type": "address"
        }
      ],
      "name": "whitelist",
      "outputs": [],
      "stateMutability": "nonpayable",
      "type": "function"
    },
    {
      "inputs": [
        {
          "internalType": "address",
          "name": "_token",
          "type": "address"
        }
      ],
      "name": "whitelistAsAuth",
      "outputs": [],
      "stateMutability": "nonpayable",
      "type": "function"
    }
  ],
  "transactionHash": "0xa174386332929c1cea199c172e29eb5d259a73796061c8c3d18568641a07be31",
  "args": [
    "0x2101a22A8A6f2b60eF36013eFFCef56893cea983",
    "0x76cD80b20dAa099683DcE3B90fB0C745156cB770",
    "0xafd941c536bc1f253d3a90B9E63f3E666B627e33",
    "0x645b3DDA4bA7c7E70Bc07B6384BA17a721e0fC87",
    "0xf509EE2211037BEBc6a75275F1173a0FB42c1388"
  ],
  "numDeployments": 1,
  "bytecode": "0x61010060405260016010553480156200001757600080fd5b506040516200328d3803806200328d8339810160408190526200003a9162000195565b600080546001600160a01b03199081166001600160a01b0388811691821784556001805490931690881617909155604051879287929133917f8292fce18fa69edf4db7b94ea2e58241df0ae57f97e0a6c9b29067028bf92d7691a36040516001600160a01b0382169033907fa3396fd7f6e0a21b50e5089d2da70d5ac0a3bbbd1f617a93f134b7638998019890600090a350506001600160a01b038316608081905260408051637e062a3560e11b8152905163fc0c546a916004808201926020929091908290030181865afa15801562000118573d6000803e3d6000fd5b505050506040513d601f19601f820116820180604052508101906200013e919062000205565b6001600160a01b0390811660a05291821660c0521660e0525050600480546001600160a81b0319163360ff60a01b1916179055506200022a565b80516001600160a01b03811681146200019057600080fd5b919050565b600080600080600060a08688031215620001ae57600080fd5b620001b98662000178565b9450620001c96020870162000178565b9350620001d96040870162000178565b9250620001e96060870162000178565b9150620001f96080870162000178565b90509295509295909350565b6000602082840312156200021857600080fd5b620002238262000178565b9392505050565b60805160a05160c05160e051612fc0620002cd600039600081816103c101526116780152600081816104bd015261174f015260008181610c1101528181610c8a01528181610f4d0152818161100901526117e601526000818161059c0152818161097c01528181610a1701528181610d17015281816110f5015281816112ca0152818161172101528181611c690152818161205401526124400152612fc06000f3fe608060405234801561001057600080fd5b506004361061030c5760003560e01c806379e938241161019d578063b980777a116100e9578063d6dcb0d0116100a2578063e64d64e91161007c578063e64d64e91461074e578063ea94ee4414610777578063f34e0b2c1461078a578063fecdad601461079257600080fd5b8063d6dcb0d014610728578063df8f35ac1461073b578063e4fc6b6d1461048257600080fd5b8063b980777a14610693578063b9a09fd51461069b578063bf7e214f146106c4578063cf35bdd0146106d7578063d23254b4146106ea578063d560b0d71461071557600080fd5b80639b6a9d7211610156578063a61c713a11610130578063a61c713a14610614578063a7cac84614610627578063a8c5d95a14610647578063aa79979b1461067057600080fd5b80639b6a9d72146105da578063a0281e27146105ed578063a5f4301e1461060157600080fd5b806379e93824146105515780637a9e5e4b146105715780638da5cb5b146105845780638dd598fb1461059757806396c82e57146105be5780639b19251a146105c757600080fd5b8063411b1f771161025c57806368c3acb3116102155780636ecbe38a116101ef5780636ecbe38a1461050557806370387a8f146105185780637625391a1461052b5780637715ee751461053e57600080fd5b806368c3acb3146104b8578063698473e3146104df5780636b91f314146104f257600080fd5b8063411b1f771461045c578063462d0b2e1461046f57806347b3c6ba1461048257806353d786931461048a5780636138889b1461049257806363453ae1146104a557600080fd5b8063310bd74b116102c95780633af32abf116102a35780633af32abf146103e35780633bdaf5de146104165780633c6b16ab14610429578063402914f51461043c57600080fd5b8063310bd74b1461039657806332145f90146103a957806338752a9d146103bc57600080fd5b8063024e125514610311578063075461721461031b57806313af40351461034b5780631f7b6d321461035e57806320b1cb6f146103705780632e85960314610383575b600080fd5b6103196107a5565b005b60045461032e906001600160a01b031681565b6040516001600160a01b0390911681526020015b60405180910390f35b6103196103593660046127db565b6107f5565b6006545b604051908152602001610342565b61031961037e36600461295e565b610872565b61032e6103913660046129c2565b610928565b6103196103a43660046129e4565b610960565b6103196103b73660046129e4565b610a7e565b61032e7f000000000000000000000000000000000000000000000000000000000000000081565b6104066103f13660046127db565b600f6020526000908152604090205460ff1681565b6040519015158152602001610342565b6103196104243660046127db565b610bce565b6103196104373660046129e4565b610c0c565b61036261044a3660046127db565b60136020526000908152604090205481565b61031961046a3660046129fd565b610cdf565b61031961047d366004612a2d565b610db9565b610319610e34565b610319610e45565b6103196104a0366004612a74565b610e54565b6103196104b33660046127db565b610e98565b61032e7f000000000000000000000000000000000000000000000000000000000000000081565b6103196104ed3660046129fd565b6110bd565b6103196105003660046127db565b611197565b6103196105133660046127db565b6111d2565b6103196105263660046127db565b6111db565b6103196105393660046129c2565b611248565b61031961054c366004612aa9565b6112ae565b61036261055f3660046129e4565b600d6020526000908152604090205481565b61031961057f3660046127db565b6113f7565b60005461032e906001600160a01b031681565b61032e7f000000000000000000000000000000000000000000000000000000000000000081565b61036260055481565b6103196105d53660046127db565b6114e1565b6103196105e83660046129c2565b611564565b60045461040690600160a01b900460ff1681565b61032e61060f3660046127db565b6115ca565b610319610622366004612b16565b6119a7565b6103626106353660046127db565b600a6020526000908152604090205481565b61032e6106553660046127db565b6009602052600090815260409020546001600160a01b031681565b61040661067e3660046127db565b600e6020526000908152604090205460ff1681565b610362611a0f565b61032e6106a93660046127db565b6007602052600090815260409020546001600160a01b031681565b60015461032e906001600160a01b031681565b61032e6106e53660046129e4565b611a82565b6103626106f83660046129fd565b600b60209081526000928352604080842090915290825290205481565b610319610723366004612a74565b611aac565b6103196107363660046127db565b611aec565b6103196107493660046127db565b611b40565b61032e61075c3660046127db565b6008602052600090815260409020546001600160a01b031681565b610319610785366004612b16565b611bad565b610319611c0c565b6103196107a0366004612b9a565b611c4d565b6107bb336000356001600160e01b031916611d5f565b6107e05760405162461bcd60e51b81526004016107d790612c14565b60405180910390fd5b6004805460ff60a01b1916600160a01b179055565b61080b336000356001600160e01b031916611d5f565b6108275760405162461bcd60e51b81526004016107d790612c14565b600080546001600160a01b0319166001600160a01b0383169081178255604051909133917f8292fce18fa69edf4db7b94ea2e58241df0ae57f97e0a6c9b29067028bf92d769190a350565b60005b82518110156109235782818151811061089057610890612c3a565b60200260200101516001600160a01b03166331279d3d338484815181106108b9576108b9612c3a565b60200260200101516040518363ffffffff1660e01b81526004016108de929190612c94565b600060405180830381600087803b1580156108f857600080fd5b505af115801561090c573d6000803e3d6000fd5b50505050808061091b90612cce565b915050610875565b505050565b600c602052816000526040600020818154811061094457600080fd5b6000918252602090912001546001600160a01b03169150829050565b60405163430c208160e01b8152336004820152602481018290527f00000000000000000000000000000000000000000000000000000000000000006001600160a01b03169063430c208190604401602060405180830381865afa1580156109cb573d6000803e3d6000fd5b505050506040513d601f19601f820116820180604052508101906109ef9190612ce9565b6109f857600080fd5b610a0181611e09565b60405163c1f0fb9f60e01b8152600481018290527f00000000000000000000000000000000000000000000000000000000000000006001600160a01b03169063c1f0fb9f90602401600060405180830381600087803b158015610a6357600080fd5b505af1158015610a77573d6000803e3d6000fd5b5050505050565b6000818152600c6020908152604080832080548251818502810185019093528083529192909190830182828015610ade57602002820191906000526020600020905b81546001600160a01b03168152600190910190602001808311610ac0575b5050505050905060008151905060008167ffffffffffffffff811115610b0657610b066127ff565b604051908082528060200260200182016040528015610b2f578160200160208202803683370190505b50905060005b82811015610bbc57600b60008681526020019081526020016000206000858381518110610b6457610b64612c3a565b60200260200101516001600160a01b03166001600160a01b0316815260200190815260200160002054828281518110610b9f57610b9f612c3a565b602090810291909101015280610bb481612cce565b915050610b35565b50610bc8848483612030565b50505050565b610be4336000356001600160e01b031916611d5f565b610c005760405162461bcd60e51b81526004016107d790612c14565b610c09816124d7565b50565b610c387f0000000000000000000000000000000000000000000000000000000000000000333084612546565b600554600090610c5083670de0b6b3a7640000612d0b565b610c5a9190612d40565b90508015610c7a578060116000828254610c749190612d54565b90915550505b6040518281526001600160a01b037f0000000000000000000000000000000000000000000000000000000000000000169033907ff70d5c697de7ea828df48e5c4573cb2194c659f1901f70110c52b066dcf50826906020015b60405180910390a35050565b336000908152600e602052604090205460ff16610cfb57600080fd5b8115610d7c57604051634c35bec560e11b8152600481018390527f00000000000000000000000000000000000000000000000000000000000000006001600160a01b03169063986b7d8a90602401600060405180830381600087803b158015610d6357600080fd5b505af1158015610d77573d6000803e3d6000fd5b505050505b60405182815233906001600160a01b038316907fae268d9aab12f3605f58efd74fd3801fa812b03fdb44317eb70f46dff0e19e2290602001610cd3565b6004546001600160a01b03163314610dd057600080fd5b60005b8251811015610e1057610dfe838281518110610df157610df1612c3a565b602002602001015161263e565b80610e0881612cce565b915050610dd3565b50600480546001600160a01b0319166001600160a01b039290921691909117905550565b600654610e4390600090611248565b565b600654610e4390600090611564565b60005b8151811015610e9457610e82828281518110610e7557610e75612c3a565b6020026020010151610e98565b80610e8c81612cce565b915050610e57565b5050565b601054600114610ea757600080fd5b6002601055600480546040805163ed29fc1160e01b815290516001600160a01b039092169263ed29fc1192828201926020929082900301816000875af1158015610ef5573d6000803e3d6000fd5b505050506040513d601f19601f82011682018060405250810190610f199190612d6c565b50610f23816126b1565b6001600160a01b0381811660008181526013602052604090819020549051634cde602960e11b81527f00000000000000000000000000000000000000000000000000000000000000009093166004840152916399bcc05290602401602060405180830381865afa158015610f9b573d6000803e3d6000fd5b505050506040513d601f19601f82011682018060405250810190610fbf9190612d6c565b81118015610fd957506000610fd762093a8083612d40565b115b156110b4576001600160a01b03828116600081815260136020526040808220919091555163b66503cf60e01b81527f00000000000000000000000000000000000000000000000000000000000000009092166004830152602482018390529063b66503cf90604401600060405180830381600087803b15801561105b57600080fd5b505af115801561106f573d6000803e3d6000fd5b50506040518381526001600160a01b03851692503391507f4fa9693cae526341d334e2862ca2413b2e503f1266255f9e0869fb36e6d89b179060200160405180910390a35b50506001601055565b336000908152600e602052604090205460ff166110d957600080fd5b811561115a5760405163fbd3a29d60e01b8152600481018390527f00000000000000000000000000000000000000000000000000000000000000006001600160a01b03169063fbd3a29d90602401600060405180830381600087803b15801561114157600080fd5b505af1158015611155573d6000803e3d6000fd5b505050505b60405182815233906001600160a01b038316907f60940192810a6fb3bce3fd3e2e3a13fd6ccc7605e963fb87ee971aba829989bd90602001610cd3565b6111ad336000356001600160e01b031916611d5f565b6111c95760405162461bcd60e51b81526004016107d790612c14565b610c098161263e565b610c09816126b1565b6111f1336000356001600160e01b031916611d5f565b61120d5760405162461bcd60e51b81526004016107d790612c14565b806001600160a01b0316635cbe86bc6040518163ffffffff1660e01b8152600401600060405180830381600087803b158015610a6357600080fd5b815b818110156109235761129c600760006006848154811061126c5761126c612c3a565b60009182526020808320909101546001600160a01b03908116845290830193909352604090910190205416610e98565b806112a681612cce565b91505061124a565b60405163430c208160e01b8152336004820152602481018290527f00000000000000000000000000000000000000000000000000000000000000006001600160a01b03169063430c208190604401602060405180830381865afa158015611319573d6000803e3d6000fd5b505050506040513d601f19601f8201168201806040525081019061133d9190612ce9565b61134657600080fd5b60005b8351811015610bc85783818151811061136457611364612c3a565b60200260200101516001600160a01b031663a7852afa8385848151811061138d5761138d612c3a565b60200260200101516040518363ffffffff1660e01b81526004016113b2929190612d85565b600060405180830381600087803b1580156113cc57600080fd5b505af11580156113e0573d6000803e3d6000fd5b5050505080806113ef90612cce565b915050611349565b6000546001600160a01b031633148061148c575060015460405163b700961360e01b81526001600160a01b039091169063b70096139061144b90339030906001600160e01b03196000351690600401612d9e565b602060405180830381865afa158015611468573d6000803e3d6000fd5b505050506040513d601f19601f8201168201806040525081019061148c9190612ce9565b61149557600080fd5b600180546001600160a01b0319166001600160a01b03831690811790915560405133907fa3396fd7f6e0a21b50e5089d2da70d5ac0a3bbbd1f617a93f134b7638998019890600090a350565b600454600160a01b900460ff1661153a5760405162461bcd60e51b815260206004820152601c60248201527f6e6f74206f70656e20666f722067656e6572616c206c697374696e670000000060448201526064016107d7565b6002546000546004546111c9926001600160a01b03908116928116911661155f611a0f565b612546565b815b81811015610923576115b8600760006006848154811061158857611588612c3a565b60009182526020808320909101546001600160a01b039081168452908301939093526040909101902054166126b1565b806115c281612cce565b915050611566565b6001600160a01b038181166000908152600760205260408120549091161561161d5760405162461bcd60e51b815260206004820152600660248201526565786973747360d01b60448201526064016107d7565b6001600160a01b0382166000908152600f602052604090205460ff166116745760405162461bcd60e51b815260206004820152600c60248201526b085dda1a5d195b1a5cdd195960a21b60448201526064016107d7565b60007f00000000000000000000000000000000000000000000000000000000000000006001600160a01b031663d27b9a786040518163ffffffff1660e01b81526004016020604051808303816000875af11580156116d6573d6000803e3d6000fd5b505050506040513d601f19601f820116820180604052508101906116fa9190612dcb565b604051630e24707d60e11b81526001600160a01b03858116600483015280831660248301527f0000000000000000000000000000000000000000000000000000000000000000811660448301529192506000917f00000000000000000000000000000000000000000000000000000000000000001690631c48e0fa906064016020604051808303816000875af1158015611798573d6000803e3d6000fd5b505050506040513d601f19601f820116820180604052508101906117bc9190612dcb565b60405163095ea7b360e01b81526001600160a01b03808316600483015260001960248301529192507f00000000000000000000000000000000000000000000000000000000000000009091169063095ea7b3906044016020604051808303816000875af1158015611831573d6000803e3d6000fd5b505050506040513d601f19601f820116820180604052508101906118559190612ce9565b506001600160a01b03808216600081815260096020908152604080832080548689166001600160a01b03199182161790915594891680845260078352818420805487168617905584845260088352818420805490961617909455600e9052828120805460ff19166001179055825163c3f81cc560e01b81529251919263c3f81cc5926004808301939282900301818387803b1580156118f357600080fd5b505af1158015611907573d6000803e3d6000fd5b50505050611914816126b1565b600680546001810182556000919091527ff652222313e28459528d920b65115c16c04f3efc82aaedc97be59f3f377c0d3f0180546001600160a01b0319166001600160a01b03868116918217909255604051338152909184811691908416907f48d3c521fd0d5541640f58c6d6381eed7cb2e8c9df421ae165a4f4c2d221ee0d9060200160405180910390a49392505050565b336000908152600e602052604090205460ff166119c357600080fd5b604080518481526020810183905233916001600160a01b038516917fdcbc1c05240f31ff3ad067ef1ee35ce4997762752e3a095284754544f4c709d791015b60405180910390a3505050565b60035460408051635cc03bbd60e11b815290516000926001600160a01b03169163b980777a9160048083019260209291908290030181865afa158015611a59573d6000803e3d6000fd5b505050506040513d601f19601f82011682018060405250810190611a7d9190612d6c565b905090565b60068181548110611a9257600080fd5b6000918252602090912001546001600160a01b0316905081565b60005b8151811015610e9457611ada828281518110611acd57611acd612c3a565b60200260200101516126b1565b80611ae481612cce565b915050611aaf565b611b02336000356001600160e01b031916611d5f565b611b1e5760405162461bcd60e51b81526004016107d790612c14565b600380546001600160a01b0319166001600160a01b0392909216919091179055565b611b56336000356001600160e01b031916611d5f565b611b725760405162461bcd60e51b81526004016107d790612c14565b806001600160a01b031663c3f81cc56040518163ffffffff1660e01b8152600401600060405180830381600087803b158015610a6357600080fd5b336000908152600e602052604090205460ff16611bc957600080fd5b604080518481526020810183905233916001600160a01b038516917ff341246adaac6f497bc2a656f546ab9e182111d630394f0c57c710a59a2cb5679101611a02565b611c22336000356001600160e01b031916611d5f565b611c3e5760405162461bcd60e51b81526004016107d790612c14565b6004805460ff60a01b19169055565b60405163430c208160e01b8152336004820152602481018690527f00000000000000000000000000000000000000000000000000000000000000006001600160a01b03169063430c208190604401602060405180830381865afa158015611cb8573d6000803e3d6000fd5b505050506040513d601f19601f82011682018060405250810190611cdc9190612ce9565b611ce557600080fd5b828114611cf157600080fd5b610a77858585808060200260200160405190810160405280939291908181526020018383602002808284376000920191909152505060408051602080890282810182019093528882529093508892508791829185019084908082843760009201919091525061203092505050565b6001546000906001600160a01b03168015801590611de9575060405163b700961360e01b81526001600160a01b0382169063b700961390611da890879030908890600401612d9e565b602060405180830381865afa158015611dc5573d6000803e3d6000fd5b505050506040513d601f19601f82011682018060405250810190611de99190612ce9565b80611e0157506000546001600160a01b038581169116145b949350505050565b6000818152600c6020526040812080549091805b82811015611ff4576000848281548110611e3957611e39612c3a565b6000918252602080832090910154888352600b825260408084206001600160a01b03909216808552919092529120549091508015611fdf576001600160a01b03808316600090815260076020526040902054611e9591166126b1565b6001600160a01b0382166000908152600a602052604081208054839290611ebd908490612de8565b90915550506000878152600b602090815260408083206001600160a01b038616845290915281208054839290611ef4908490612de8565b90915550506000811315611f98576001600160a01b038281166000908152600760209081526040808320548416835260099091529081902054905163278afc8b60e21b815260048101849052602481018a9052911690639e2bf22c90604401600060405180830381600087803b158015611f6d57600080fd5b505af1158015611f81573d6000803e3d6000fd5b505050508084611f919190612e27565b9350611fa5565b611fa28185612de8565b93505b60408051888152602081018390527f6b3894ce60b9bbe9d93f1a4e6fc25b6b93cd8222e73ab6348d79c596f5b51de9910160405180910390a15b50508080611fec90612cce565b915050611e1d565b5080600560008282546120079190612e68565b90915550506000848152600d60209081526040808320839055600c9091528120610bc891612794565b61203983611e09565b81516040516339f890b560e21b8152600481018590526000907f00000000000000000000000000000000000000000000000000000000000000006001600160a01b03169063e7e242d490602401602060405180830381865afa1580156120a3573d6000803e3d6000fd5b505050506040513d601f19601f820116820180604052508101906120c79190612d6c565b90506000806000805b8581101561215a5760008782815181106120ec576120ec612c3a565b6020026020010151136121215786818151811061210b5761210b612c3a565b602002602001015161211c90612e7f565b61213c565b86818151811061213357612133612c3a565b60200260200101515b6121469085612e27565b93508061215281612cce565b9150506120d0565b5060005b8581101561242057600088828151811061217a5761217a612c3a565b6020908102919091018101516001600160a01b03808216600090815260078452604080822054909216808252600e909452205490925060ff16801561221c5750806001600160a01b031663a09eebd86040518163ffffffff1660e01b8152600401602060405180830381865afa1580156121f8573d6000803e3d6000fd5b505050506040513d601f19601f8201168201806040525081019061221c9190612ce9565b1561240b57600086888b868151811061223757612237612c3a565b60200260200101516122499190612e9c565b6122539190612f21565b60008d8152600b602090815260408083206001600160a01b03881684529091529020549091501561228357600080fd5b8061228d57600080fd5b612296826126b1565b60008c8152600c6020908152604080832080546001810182559084528284200180546001600160a01b0319166001600160a01b0388169081179091558352600a909152812080548392906122eb908490612e27565b909155505060008c8152600b602090815260408083206001600160a01b038716845290915281208054839290612322908490612e27565b909155505060008113156123a9576001600160a01b038083166000908152600960205260409081902054905163f320772360e01b815260048101849052602481018f905291169063f320772390604401600060405180830381600087803b15801561238c57600080fd5b505af11580156123a0573d6000803e3d6000fd5b505050506123b5565b6123b281612e7f565b90505b6123bf8186612e27565b94506123cb8187612e27565b604080518e81526020810184905291975033917f1263a2295e53acd6ef8f655b8afc11fa0f2cf11925be7aa1757d741ef32a926c910160405180910390a2505b5050808061241890612cce565b91505061215e565b5060008113156124a55760405163fd4a77f160e01b8152600481018990527f00000000000000000000000000000000000000000000000000000000000000006001600160a01b03169063fd4a77f190602401600060405180830381600087803b15801561248c57600080fd5b505af11580156124a0573d6000803e3d6000fd5b505050505b81600560008282546124b79190612d54565b90915550506000978852600d602052604090972096909655505050505050565b6001600160a01b0381166000908152600f602052604090205460ff166124fc57600080fd5b6001600160a01b0381166000818152600f6020526040808220805460ff191690555133917fba65191411de39ff8bcbbe8768e1920cf15711d2c953637e979c7a008ff386fa91a350565b6000846001600160a01b03163b1161255d57600080fd5b604080516001600160a01b0385811660248301528481166044830152606480830185905283518084039091018152608490920183526020820180516001600160e01b03166323b872dd60e01b17905291516000928392908816916125c19190612f4f565b6000604051808303816000865af19150503d80600081146125fe576040519150601f19603f3d011682016040523d82523d6000602084013e612603565b606091505b509150915081801561262d57508051158061262d57508080602001905181019061262d9190612ce9565b61263657600080fd5b505050505050565b6001600160a01b0381166000908152600f602052604090205460ff161561266457600080fd5b6001600160a01b0381166000818152600f6020526040808220805460ff191660011790555133917f6661a7108aecd07864384529117d96c319c1163e3010c01390f6b704726e07de91a350565b6001600160a01b03808216600090815260086020908152604080832054909316808352600a9091529181205490811315612773576001600160a01b0383166000908152601260205260408120805460115491829055916127118383612e68565b90508015612636576000670de0b6b3a764000061272e8387612d0b565b6127389190612d40565b6001600160a01b038816600090815260136020526040812080549293508392909190612765908490612d54565b909155505050505050505050565b6011546001600160a01b038416600090815260126020526040902055505050565b5080546000825590600052602060002090810190610c0991905b808211156127c257600081556001016127ae565b5090565b6001600160a01b0381168114610c0957600080fd5b6000602082840312156127ed57600080fd5b81356127f8816127c6565b9392505050565b634e487b7160e01b600052604160045260246000fd5b604051601f8201601f1916810167ffffffffffffffff8111828210171561283e5761283e6127ff565b604052919050565b600067ffffffffffffffff821115612860576128606127ff565b5060051b60200190565b600082601f83011261287b57600080fd5b8135602061289061288b83612846565b612815565b82815260059290921b840181019181810190868411156128af57600080fd5b8286015b848110156128d35780356128c6816127c6565b83529183019183016128b3565b509695505050505050565b600082601f8301126128ef57600080fd5b813560206128ff61288b83612846565b82815260059290921b8401810191818101908684111561291e57600080fd5b8286015b848110156128d357803567ffffffffffffffff8111156129425760008081fd5b6129508986838b010161286a565b845250918301918301612922565b6000806040838503121561297157600080fd5b823567ffffffffffffffff8082111561298957600080fd5b6129958683870161286a565b935060208501359150808211156129ab57600080fd5b506129b8858286016128de565b9150509250929050565b600080604083850312156129d557600080fd5b50508035926020909101359150565b6000602082840312156129f657600080fd5b5035919050565b60008060408385031215612a1057600080fd5b823591506020830135612a22816127c6565b809150509250929050565b60008060408385031215612a4057600080fd5b823567ffffffffffffffff811115612a5757600080fd5b612a638582860161286a565b9250506020830135612a22816127c6565b600060208284031215612a8657600080fd5b813567ffffffffffffffff811115612a9d57600080fd5b611e018482850161286a565b600080600060608486031215612abe57600080fd5b833567ffffffffffffffff80821115612ad657600080fd5b612ae28783880161286a565b94506020860135915080821115612af857600080fd5b50612b05868287016128de565b925050604084013590509250925092565b600080600060608486031215612b2b57600080fd5b833592506020840135612b3d816127c6565b929592945050506040919091013590565b60008083601f840112612b6057600080fd5b50813567ffffffffffffffff811115612b7857600080fd5b6020830191508360208260051b8501011115612b9357600080fd5b9250929050565b600080600080600060608688031215612bb257600080fd5b85359450602086013567ffffffffffffffff80821115612bd157600080fd5b612bdd89838a01612b4e565b90965094506040880135915080821115612bf657600080fd5b50612c0388828901612b4e565b969995985093965092949392505050565b6020808252600c908201526b15539055551213d49256915160a21b604082015260600190565b634e487b7160e01b600052603260045260246000fd5b600081518084526020808501945080840160005b83811015612c895781516001600160a01b031687529582019590820190600101612c64565b509495945050505050565b6001600160a01b0383168152604060208201819052600090611e0190830184612c50565b634e487b7160e01b600052601160045260246000fd5b6000600019821415612ce257612ce2612cb8565b5060010190565b600060208284031215612cfb57600080fd5b815180151581146127f857600080fd5b6000816000190483118215151615612d2557612d25612cb8565b500290565b634e487b7160e01b600052601260045260246000fd5b600082612d4f57612d4f612d2a565b500490565b60008219821115612d6757612d67612cb8565b500190565b600060208284031215612d7e57600080fd5b5051919050565b828152604060208201526000611e016040830184612c50565b6001600160a01b0393841681529190921660208201526001600160e01b0319909116604082015260600190565b600060208284031215612ddd57600080fd5b81516127f8816127c6565b60008083128015600160ff1b850184121615612e0657612e06612cb8565b6001600160ff1b0384018313811615612e2157612e21612cb8565b50500390565b600080821280156001600160ff1b0384900385131615612e4957612e49612cb8565b600160ff1b8390038412811615612e6257612e62612cb8565b50500190565b600082821015612e7a57612e7a612cb8565b500390565b6000600160ff1b821415612e9557612e95612cb8565b5060000390565b60006001600160ff1b0381841382841380821686840486111615612ec257612ec2612cb8565b600160ff1b6000871282811687830589121615612ee157612ee1612cb8565b60008712925087820587128484161615612efd57612efd612cb8565b87850587128184161615612f1357612f13612cb8565b505050929093029392505050565b600082612f3057612f30612d2a565b600160ff1b821460001984141615612f4a57612f4a612cb8565b500590565b6000825160005b81811015612f705760208186018101518583015201612f56565b81811115612f7f576000828501525b50919091019291505056fea2646970667358221220574b6bb949f2d2ac3ee4d863ce0ebe9fe693bfeaaac8d18b76b57b835275807364736f6c634300080b0033"
}