{
  "address": "0xc94684d498923F4e66e34616E9507B94A46120b3",
  "abi": [
    {
      "inputs": [
        {
          "internalType": "address",
          "name": "_asset",
          "type": "address"
        },
        {
          "internalType": "address",
          "name": "_bribe",
          "type": "address"
        },
        {
          "internalType": "address",
          "name": "_ve",
          "type": "address"
        }
      ],
      "name": "createGauge",
      "outputs": [
        {
          "internalType": "address",
          "name": "",
          "type": "address"
        }
      ],
      "stateMutability": "nonpayable",
      "type": "function"
    },
    {
      "inputs": [
        {
          "internalType": "address",
          "name": "_asset",
          "type": "address"
        },
        {
          "internalType": "address",
          "name": "_bribe",
          "type": "address"
        },
        {
          "internalType": "address",
          "name": "_ve",
          "type": "address"
        },
        {
          "internalType": "address",
          "name": "_voter",
          "type": "address"
        }
      ],
      "name": "createGaugeSingle",
      "outputs": [
        {
          "internalType": "address",
          "name": "",
          "type": "address"
        }
      ],
      "stateMutability": "nonpayable",
      "type": "function"
    },
    {
      "inputs": [],
      "name": "last_gauge",
      "outputs": [
        {
          "internalType": "address",
          "name": "",
          "type": "address"
        }
      ],
      "stateMutability": "view",
      "type": "function"
    }
  ],
  "transactionHash": "0x7aa93154cb6e78e9255d56aa1a29d7d3b4eb8a8ca48035f277ace35b10f04304",
  "args": [],
  "numDeployments": 1,
  "bytecode": "0x608060405234801561001057600080fd5b50613486806100206000396000f3fe608060405234801561001057600080fd5b50600436106100415760003560e01c80631c48e0fa14610046578063730a8bdb14610075578063af4db2ec14610088575b600080fd5b6100596100543660046101c1565b61009b565b6040516001600160a01b03909116815260200160405180910390f35b600054610059906001600160a01b031681565b610059610096366004610204565b610119565b6000838383336040516100ad90610198565b6001600160a01b039485168152928416602084015290831660408301529091166060820152608001604051809103906000f0801580156100f1573d6000803e3d6000fd5b50600080546001600160a01b0319166001600160a01b03929092169182179055949350505050565b60008484848460405161012b90610198565b6001600160a01b039485168152928416602084015290831660408301529091166060820152608001604051809103906000f08015801561016f573d6000803e3d6000fd5b50600080546001600160a01b0319166001600160a01b0392909216918217905595945050505050565b6131f88061025983390190565b80356001600160a01b03811681146101bc57600080fd5b919050565b6000806000606084860312156101d657600080fd5b6101df846101a5565b92506101ed602085016101a5565b91506101fb604085016101a5565b90509250925092565b6000806000806080858703121561021a57600080fd5b610223856101a5565b9350610231602086016101a5565b925061023f604086016101a5565b915061024d606086016101a5565b90509295919450925056fe61010060405260016014553480156200001757600080fd5b50604051620031f8380380620031f88339810160408190526200003a9162000087565b6001600160a01b0393841660805291831660c052821660a0521660e0526000805460ff19166001179055620000e4565b80516001600160a01b03811681146200008257600080fd5b919050565b600080600080608085870312156200009e57600080fd5b620000a9856200006a565b9350620000b9602086016200006a565b9250620000c9604086016200006a565b9150620000d9606086016200006a565b905092959194509250565b60805160a05160c05160e05161304e620001aa6000396000818161042701528181610b5b01528181610ba00152818161113e0152818161172601528181611c4f01528181611e150152818161229f01526123b70152600061039601526000818161052a01528181610de301528181610ecb01528181610f720152818161186f01528181611908015281816119b601528181611b850152611d070152600081816103d5015281816113ac015281816117b001528181611afd0152612220015261304e6000f3fe608060405234801561001057600080fd5b50600436106102695760003560e01c8063853828b611610151578063d7da4bb0116100c3578063f122977711610087578063f122977714610663578063f301af4214610676578063f7412baf14610689578063fc97a303146106b0578063fd314098146106d0578063fdb483c7146106e357600080fd5b8063d7da4bb014610616578063da09d19d1461061f578063e2bbb1581461063f578063e688639614610652578063e8111a121461065a57600080fd5b8063a495e5b511610115578063a495e5b51461058a578063aa479652146105b5578063b66503cf146105d5578063c3f81cc5146105e8578063c6f678bd146105f0578063d35e25441461060357600080fd5b8063853828b61461051d5780638dd598fb1461052557806399bcc0521461054c5780639ce43f901461055f578063a09eebd81461057f57600080fd5b80633a4b66f1116101ea5780635cbe86bc116101ae5780635cbe86bc1461048f578063638634ee1461049757806363fb415b146104aa5780636fcfff45146104ca57806370a08231146104ea57806376f4be361461050a57600080fd5b80633a4b66f1146103d05780633ca068b6146103f757806346c96aac146104225780634d5ce038146104495780635a45d0521461047c57600080fd5b8063221ca18c11610231578063221ca18c146103295780632ce9aead146103495780632e1a7d4d1461036957806331279d3d1461037e57806337d0208c1461039157600080fd5b806301316ddf1461026e5780630cdfebfa146102ba578063115c6f39146102ec57806318160ddd1461030d578063211dc32d14610316575b600080fd5b6102a061027c366004612d21565b60126020908152600092835260408084209091529082529020805460019091015482565b604080519283526020830191909152015b60405180910390f35b6102a06102c8366004612d21565b600e6020908152600092835260408084209091529082529020805460019091015482565b6102ff6102fa366004612d21565b6106f6565b6040519081526020016102b1565b6102ff600a5481565b6102ff610324366004612d4d565b610863565b6102ff610337366004612d86565b60036020526000908152604090205481565b6102ff610357366004612d86565b60056020526000908152604090205481565b61037c610377366004612da3565b610af3565b005b61037c61038c366004612dd2565b610b2a565b6103b87f000000000000000000000000000000000000000000000000000000000000000081565b6040516001600160a01b0390911681526020016102b1565b6103b87f000000000000000000000000000000000000000000000000000000000000000081565b6102ff610405366004612d4d565b600860209081526000928352604080842090915290825290205481565b6103b87f000000000000000000000000000000000000000000000000000000000000000081565b61046c610457366004612d86565b600d6020526000908152604090205460ff1681565b60405190151581526020016102b1565b61037c61048a366004612d21565b6110fb565b61037c611133565b6102ff6104a5366004612d86565b6111b1565b6102ff6104b8366004612d86565b60026020526000908152604090205481565b6102ff6104d8366004612d86565b600f6020526000908152604090205481565b6102ff6104f8366004612d86565b600b6020526000908152604090205481565b6102ff610518366004612da3565b6111d5565b61037c611307565b6103b87f000000000000000000000000000000000000000000000000000000000000000081565b6102ff61055a366004612d86565b611322565b6102ff61056d366004612d86565b60066020526000908152604090205481565b60005460ff1661046c565b6102ff610598366004612d4d565b600760209081526000928352604080842090915290825290205481565b6102ff6105c3366004612d86565b60136020526000908152604090205481565b61037c6105e3366004612d21565b611393565b61037c61171b565b61037c6105fe366004612da3565b611797565b6102ff610611366004612d86565b61182c565b6102ff60015481565b6102ff61062d366004612d86565b60046020526000908152604090205481565b61037c61064d366004612eac565b611a7c565b600c546102ff565b6102ff60115481565b6102ff610671366004612d86565b611ebf565b6103b8610684366004612da3565b611f7f565b6102a0610697366004612da3565b6010602052600090815260409020805460019091015482565b6102ff6106be366004612d86565b60096020526000908152604090205481565b6102a06106de366004612d21565b611fa9565b61037c6106f1366004612eac565b6121c8565b6001600160a01b0382166000908152600f60205260408120548061071e57600091505061085d565b6001600160a01b0384166000908152600e602052604081208491610743600185612ee4565b8152602001908152602001600020600001541161076d57610765600182612ee4565b91505061085d565b6001600160a01b0384166000908152600e602090815260408083208380529091529020548310156107a257600091505061085d565b6000806107b0600184612ee4565b90505b8181111561085857600060026107c98484612ee4565b6107d39190612efb565b6107dd9083612ee4565b6001600160a01b0388166000908152600e602090815260408083208484528252918290208251808401909352805480845260019091015491830191909152919250908714156108325750935061085d92505050565b805187111561084357819350610851565b61084e600183612ee4565b92505b50506107b3565b509150505b92915050565b6001600160a01b0380831660008181526007602090815260408083209486168352938152838220549282526012815283822082805290529182205482916108a991612453565b6001600160a01b0384166000908152600f60205260409020549091506108d357600091505061085d565b60006108df84836106f6565b6001600160a01b0385166000908152600f60205260408120549192509061090890600190612ee4565b9050600060016109188484612ee4565b1115610a2757825b61092b600184612ee4565b811015610a25576001600160a01b0387166000818152600e602081815260408084208685528083528185208251808401909352805483526001908101548385015295855292909152928290610981908690612f1d565b815260200190815260200160002060405180604001604052908160008201548152602001600182015481525050905060006109c08b8460000151611fa9565b50905060006109d38c8460000151611fa9565b509050670de0b6b3a76400006109e98383612ee4565b85602001516109f89190612f35565b610a029190612efb565b610a0c9087612f1d565b9550505050508080610a1d90612f54565b915050610920565b505b6001600160a01b0386166000908152600e60209081526040808320858452825280832081518083019092528054808352600190910154928201929092529190610a71908a90611fa9565b506001600160a01b03808b166000908152600860209081526040808320938d1683529290522054909150670de0b6b3a764000090610ab0908390612453565b610ab98b611ebf565b610ac39190612ee4565b8360200151610ad29190612f35565b610adc9190612efb565b610ae69084612f1d565b9998505050505050505050565b336000908152600b6020526040812054821415610b1c5750336000908152600960205260409020545b610b2682826121c8565b5050565b601454600114610b3957600080fd5b6002601455336001600160a01b0383161480610b7d5750336001600160a01b037f000000000000000000000000000000000000000000000000000000000000000016145b610b8657600080fd5b60016014556040516363453ae160e01b81523060048201527f00000000000000000000000000000000000000000000000000000000000000006001600160a01b0316906363453ae190602401600060405180830381600087803b158015610bec57600080fd5b505af1158015610c00573d6000803e3d6000fd5b5050600260145550600090505b815181101561105257610c38828281518110610c2b57610c2b612f6f565b602002602001015161246a565b60066000858581518110610c4e57610c4e612f6f565b60200260200101516001600160a01b03166001600160a01b03168152602001908152602001600020600060056000878781518110610c8e57610c8e612f6f565b60200260200101516001600160a01b03166001600160a01b0316815260200190815260200160002060008491905055839190505550506000610ce9838381518110610cdb57610cdb612f6f565b602002602001015185610863565b90504260076000858581518110610d0257610d02612f6f565b60200260200101516001600160a01b03166001600160a01b031681526020019081526020016000206000866001600160a01b03166001600160a01b031681526020019081526020016000208190555060066000848481518110610d6757610d67612f6f565b60200260200101516001600160a01b03166001600160a01b031681526020019081526020016000205460086000858581518110610da657610da6612f6f565b6020908102919091018101516001600160a01b039081168352828201939093526040918201600090812093891681529290529020558015610fd9577f00000000000000000000000000000000000000000000000000000000000000006001600160a01b0316638380edb76040518163ffffffff1660e01b8152600401602060405180830381865afa158015610e3f573d6000803e3d6000fd5b505050506040513d601f19601f82011682018060405250810190610e639190612f85565b15610e9157610e8c838381518110610e7d57610e7d612f6f565b6020026020010151858361264d565b610fd9565b3360009081526009602052604090205480610f555760405163d4e54c3b60e01b81526004810183905262093a8060248201523360448201527f00000000000000000000000000000000000000000000000000000000000000006001600160a01b03169063d4e54c3b906064016020604051808303816000875af1158015610f1c573d6000803e3d6000fd5b505050506040513d601f19601f82011682018060405250810190610f409190612fa7565b33600090815260096020526040902055610fd7565b604051631dd33fc560e31b815260048101829052602481018390527f00000000000000000000000000000000000000000000000000000000000000006001600160a01b03169063ee99fe2890604401600060405180830381600087803b158015610fbe57600080fd5b505af1158015610fd2573d6000803e3d6000fd5b505050505b505b828281518110610feb57610feb612f6f565b60200260200101516001600160a01b0316336001600160a01b03167f9aa05b3d70a9e3e2f004f039648839560576334fb45c81f91b6db03ad9e2efc98360405161103791815260200190565b60405180910390a3508061104a81612f54565b915050610c0d565b506001600160a01b038216600090815260026020526040812054600180549192839261107f908490612ee4565b9091555061108e90508361182c565b6001600160a01b03841660009081526002602052604081208290556001805492935083929091906110c0908490612f1d565b90915550506001600160a01b0383166000908152600260205260409020546110e990849061273c565b6110f1612847565b5050600160145550565b61110582826128ec565b6001600160a01b03909316600090815260066020908152604080832060059092529091209390935590915550565b336001600160a01b037f000000000000000000000000000000000000000000000000000000000000000016146111a55760405162461bcd60e51b815260206004820152601260248201527136bab9ba10313290333937b6903b37ba32b960711b60448201526064015b60405180910390fd5b6000805460ff19169055565b6001600160a01b03811660009081526004602052604081205461085d904290612a4b565b601154600090806111e95750600092915050565b82601060006111f9600185612ee4565b815260200190815260200160002060000154116112225761121b600182612ee4565b9392505050565b6000805260106020527f6e0956cda88cad152e89927e53611735b61a5c762d1428573c6931b0a5efcb015483101561125d5750600092915050565b60008061126b600184612ee4565b90505b818111156112ff57600060026112848484612ee4565b61128e9190612efb565b6112989083612ee4565b6000818152601060209081526040918290208251808401909352805480845260019091015491830191909152919250908714156112d9575095945050505050565b80518711156112ea578193506112f8565b6112f5600183612ee4565b92505b505061126e565b509392505050565b336000908152600b602052604090205461132090610af3565b565b6001600160a01b038116600090815260046020526040812054421061134957506000919050565b6001600160a01b03821660009081526004602052604081205461136d904290612ee4565b6001600160a01b03841660009081526003602052604090205490915061121b9082612f35565b6014546001146113a257600080fd5b60026014819055507f00000000000000000000000000000000000000000000000000000000000000006001600160a01b0316826001600160a01b031614156113e957600080fd5b600081116113f657600080fd5b6001600160a01b03821660009081526003602052604090205461141f5761141f82600042612a5a565b6114288261246a565b6001600160a01b03841660009081526006602090815260408083206005835281842094909455939092556004909152205442106114965761146b82333084612b49565b61147862093a8082612efb565b6001600160a01b03831660009081526003602052604090205561152f565b6001600160a01b0382166000908152600460205260408120546114ba904290612ee4565b6001600160a01b038416600090815260036020526040812054919250906114e19083612f35565b90508083116114ef57600080fd5b6114fb84333086612b49565b62093a806115098285612f1d565b6115139190612efb565b6001600160a01b03851660009081526003602052604090205550505b6001600160a01b03821660009081526003602052604090205461155157600080fd5b6040516370a0823160e01b81523060048201526000906001600160a01b038416906370a0823190602401602060405180830381865afa158015611598573d6000803e3d6000fd5b505050506040513d601f19601f820116820180604052508101906115bc9190612fa7565b90506115cb62093a8082612efb565b6001600160a01b03841660009081526003602052604090205411156116325760405162461bcd60e51b815260206004820152601860248201527f50726f76696465642072657761726420746f6f20686967680000000000000000604482015260640161119c565b61163f62093a8042612f1d565b6001600160a01b038416600090815260046020908152604080832093909355600d9052205460ff166116d1576001600160a01b0383166000818152600d60205260408120805460ff19166001908117909155600c805491820181559091527fdf6966c971051c3d54ec59162606531493a51404a002842f56009d7e5cf4a8c70180546001600160a01b03191690911790555b6040518281526001600160a01b0384169033907ff70d5c697de7ea828df48e5c4573cb2194c659f1901f70110c52b066dcf508269060200160405180910390a35050600160145550565b336001600160a01b037f000000000000000000000000000000000000000000000000000000000000000016146117885760405162461bcd60e51b815260206004820152601260248201527136bab9ba10313290333937b6903b37ba32b960711b604482015260640161119c565b6000805460ff19166001179055565b6040516370a0823160e01b8152336004820152611829907f00000000000000000000000000000000000000000000000000000000000000006001600160a01b0316906370a0823190602401602060405180830381865afa1580156117ff573d6000803e3d6000fd5b505050506040513d601f19601f820116820180604052508101906118239190612fa7565b82611a7c565b50565b6001600160a01b038116600090815260096020908152604080832054600b90925282205482606461185e836028612f35565b6118689190612efb565b90506000807f00000000000000000000000000000000000000000000000000000000000000006001600160a01b03166318160ddd6040518163ffffffff1660e01b8152600401602060405180830381865afa1580156118cb573d6000803e3d6000fd5b505050506040513d601f19601f820116820180604052508101906118ef9190612fa7565b6040516331a9108f60e11b8152600481018790529091507f00000000000000000000000000000000000000000000000000000000000000006001600160a01b031690636352211e90602401602060405180830381865afa158015611957573d6000803e3d6000fd5b505050506040513d601f19601f8201168201806040525081019061197b9190612fc0565b6001600160a01b0316876001600160a01b031614801561199b5750600081115b15611a5e576040516339f890b560e21b8152600481018690527f00000000000000000000000000000000000000000000000000000000000000006001600160a01b03169063e7e242d490602401602060405180830381865afa158015611a05573d6000803e3d6000fd5b505050506040513d601f19601f82011682018060405250810190611a299190612fa7565b915060648183600a54611a3c9190612f35565b611a469190612efb565b611a5190603c612f35565b611a5b9190612efb565b91505b611a71611a6b8385612f1d565b85612a4b565b979650505050505050565b60005460ff16611ada5760405162461bcd60e51b815260206004820152602360248201527f54686973206761756765206973206e6f74206f70656e20666f72206465706f7360448201526269747360e81b606482015260840161119c565b601454600114611ae957600080fd5b600260145581611af857600080fd5b611b247f0000000000000000000000000000000000000000000000000000000000000000333085612b49565b81600a6000828254611b369190612f1d565b9091555050336000908152600b602052604081208054849290611b5a908490612f1d565b90915550508015611ccc576040516331a9108f60e11b81526004810182905233906001600160a01b037f00000000000000000000000000000000000000000000000000000000000000001690636352211e90602401602060405180830381865afa158015611bcc573d6000803e3d6000fd5b505050506040513d601f19601f82011682018060405250810190611bf09190612fc0565b6001600160a01b031614611c0357600080fd5b33600090815260096020526040902054611cac5733600081815260096020526040908190208390555163698473e360e01b81526004810183905260248101919091526001600160a01b037f0000000000000000000000000000000000000000000000000000000000000000169063698473e390604401600060405180830381600087803b158015611c9357600080fd5b505af1158015611ca7573d6000803e3d6000fd5b505050505b336000908152600960205260409020548114611cc757600080fd5b611d7f565b503360009081526009602052604090205480611d7f5760405163d4e54c3b60e01b81526000600482015262093a8060248201523360448201527f00000000000000000000000000000000000000000000000000000000000000006001600160a01b03169063d4e54c3b906064016020604051808303816000875af1158015611d58573d6000803e3d6000fd5b505050506040513d601f19601f82011682018060405250810190611d7c9190612fa7565b90505b336000908152600260205260408120546001805491928392611da2908490612ee4565b90915550611db190503361182c565b336000908152600260205260408120829055600180549293508392909190611dda908490612f1d565b90915550611dea9050338261273c565b611df2612847565b60405163530e389d60e11b815260048101839052336024820152604481018490527f00000000000000000000000000000000000000000000000000000000000000006001600160a01b03169063a61c713a90606401600060405180830381600087803b158015611e6157600080fd5b505af1158015611e75573d6000803e3d6000fd5b505060408051858152602081018790523393507f90890809c654f11d6e72a28fa60149770a0d11ec6c92319d6ceb2bb0a4ea1a159250015b60405180910390a25050600160145550565b600060015460001415611ee857506001600160a01b031660009081526006602052604090205490565b6001546001600160a01b03831660009081526003602090815260408083205460058352818420546004909352922054670de0b6b3a76400009291611f2b91612a4b565b611f34866111b1565b611f3e9190612ee4565b611f489190612f35565b611f529190612f35565b611f5c9190612efb565b6001600160a01b03831660009081526006602052604090205461085d9190612f1d565b600c8181548110611f8f57600080fd5b6000918252602090912001546001600160a01b0316905081565b6001600160a01b038216600090815260136020526040812054819080611fd65760008092509250506121c1565b6001600160a01b03851660009081526012602052604081208591611ffb600185612ee4565b81526020019081526020016000206000015411612098576001600160a01b038516600090815260126020526040812090612036600184612ee4565b81526020019081526020016000206001015460126000876001600160a01b03166001600160a01b03168152602001908152602001600020600060018461207c9190612ee4565b81526020019081526020016000206000015492509250506121c1565b6001600160a01b03851660009081526012602090815260408083208380529091529020548410156120d05760008092509250506121c1565b6000806120de600184612ee4565b90505b8181111561219057600060026120f78484612ee4565b6121019190612efb565b61210b9083612ee4565b6001600160a01b038916600090815260126020908152604080832084845282529182902082518084019093528054808452600190910154918301919091529192509088141561216a576020810151905190965094506121c19350505050565b805188111561217b57819350612189565b612186600183612ee4565b92505b50506120e1565b506001600160a01b038616600090815260126020908152604080832093835292905220600181015490549093509150505b9250929050565b6014546001146121d757600080fd5b600260148190555081600a60008282546121f19190612ee4565b9091555050336000908152600b602052604081208054849290612215908490612ee4565b9091555061224690507f0000000000000000000000000000000000000000000000000000000000000000338461264d565b80156123005733600090815260096020526040902054811461226757600080fd5b33600081815260096020526040808220919091555163411b1f7760e01b81526004810183905260248101919091526001600160a01b037f0000000000000000000000000000000000000000000000000000000000000000169063411b1f7790604401600060405180830381600087803b1580156122e357600080fd5b505af11580156122f7573d6000803e3d6000fd5b50505050612312565b50336000908152600960205260409020545b336000908152600260205260408120546001805491928392612335908490612ee4565b9091555061234490503361182c565b33600090815260026020526040812082905560018054929350839290919061236d908490612f1d565b90915550503360008181526002602052604090205461238c919061273c565b612394612847565b604051633aa53b9160e21b815260048101839052336024820152604481018490527f00000000000000000000000000000000000000000000000000000000000000006001600160a01b03169063ea94ee4490606401600060405180830381600087803b15801561240357600080fd5b505af1158015612417573d6000803e3d6000fd5b505060408051858152602081018790523393507ff279e6a1f5e320cca91135676d9cb6e44ca8a08c0b88342bcdb1144f6511b568925001611ead565b600081831015612463578161121b565b5090919050565b6001600160a01b0381166000908152600560209081526040808320546006909252822054601154839291906124a25794909350915050565b6001600160a01b0385166000908152600360205260409020546124c9579442945092505050565b60006124d4836111d5565b9050600060016011546124e79190612ee4565b905060016124f58383612ee4565b11156125cd57815b612508600183612ee4565b8110156125cb5760008181526010602090815260409182902082518084019093528054835260010154908201819052156125b857600060108161254c856001612f1d565b81526020019081526020016000206040518060400160405290816000820154815260200160018201548152505090506000806125978c8460000151866000015187602001518d612c41565b90925090506125a68289612f1d565b97506125b38c8983612a5a565b975050505b50806125c381612f54565b9150506124fd565b505b600081815260106020908152604091829020825180840190935280548352600101549082018190521561263f576000612620896126098b6111b1565b8451612615908a612453565b85602001518a612c41565b50905061262d8186612f1d565b945061263a898642612a5a565b429550505b509196929550919350505050565b6000836001600160a01b03163b1161266457600080fd5b604080516001600160a01b038481166024830152604480830185905283518084039091018152606490920183526020820180516001600160e01b031663a9059cbb60e01b17905291516000928392908716916126c09190612fdd565b6000604051808303816000865af19150503d80600081146126fd576040519150601f19603f3d011682016040523d82523d6000602084013e612702565b606091505b509150915081801561272c57508051158061272c57508080602001905181019061272c9190612f85565b61273557600080fd5b5050505050565b6001600160a01b0382166000908152600f60205260409020544290801580159061279a57506001600160a01b0384166000908152600e602052604081208391612786600185612ee4565b815260200190815260200160002060000154145b156127dd576001600160a01b0384166000908152600e6020526040812084916127c4600185612ee4565b8152602081019190915260400160002060010155612841565b60408051808201825283815260208082018681526001600160a01b0388166000908152600e8352848120868252909252929020905181559051600191820155612827908290612f1d565b6001600160a01b0385166000908152600f60205260409020555b50505050565b60115442811580159061287957508060106000612865600186612ee4565b815260200190815260200160002060000154145b156128aa57600154601060006001856128929190612ee4565b81526020810191909152604001600020600101555050565b6040805180820182528281526001805460208084019182526000878152601090915293909320915182559151908201556128e5908390612f1d565b6011555050565b6001600160a01b03821660009081526005602090815260408083205460069092528220546011548392919061292457925090506121c1565b6001600160a01b03861660009081526003602052604090205461294d5792504291506121c19050565b6000612958836111d5565b90506000612974600160115461296e9190612ee4565b88612a4b565b9050815b81811015612a3c576000818152601060209081526040918290208251808401909352805483526001015490820181905215612a295760006010816129bd856001612f1d565b8152602001908152602001600020604051806040016040529081600082015481526020016001820154815250509050600080612a088d8460000151866000015187602001518d612c41565b9092509050612a178289612f1d565b9750612a248d8983612a5a565b975050505b5080612a3481612f54565b915050612978565b50919792965091945050505050565b6000818310612463578161121b565b6001600160a01b0383166000908152601360205260409020548015801590612ab657506001600160a01b03841660009081526012602052604081208391612aa2600185612ee4565b815260200190815260200160002060000154145b15612ae0576001600160a01b038416600090815260126020526040812084916127c4600185612ee4565b60408051808201825283815260208082018681526001600160a01b038816600090815260128352848120868252909252929020905181559051600191820155612b2a908290612f1d565b6001600160a01b03851660009081526013602052604090205550505050565b6000846001600160a01b03163b11612b6057600080fd5b604080516001600160a01b0385811660248301528481166044830152606480830185905283518084039091018152608490920183526020820180516001600160e01b03166323b872dd60e01b1790529151600092839290881691612bc49190612fdd565b6000604051808303816000865af19150503d8060008114612c01576040519150601f19603f3d011682016040523d82523d6000602084013e612c06565b606091505b5091509150818015612c30575080511580612c30575080806020019051810190612c309190612f85565b612c3957600080fd5b505050505050565b6000806000612c508785612453565b6001600160a01b0389166000908152600360205260409020549091508590670de0b6b3a764000090612ca3612c858a89612453565b6001600160a01b038d16600090815260046020526040902054612a4b565b6001600160a01b038c16600090815260046020526040902054612cc7908690612a4b565b612cd19190612ee4565b612cdb9190612f35565b612ce59190612f35565b612cef9190612efb565b9890975095505050505050565b6001600160a01b038116811461182957600080fd5b8035612d1c81612cfc565b919050565b60008060408385031215612d3457600080fd5b8235612d3f81612cfc565b946020939093013593505050565b60008060408385031215612d6057600080fd5b8235612d6b81612cfc565b91506020830135612d7b81612cfc565b809150509250929050565b600060208284031215612d9857600080fd5b813561121b81612cfc565b600060208284031215612db557600080fd5b5035919050565b634e487b7160e01b600052604160045260246000fd5b60008060408385031215612de557600080fd5b8235612df081612cfc565b915060208381013567ffffffffffffffff80821115612e0e57600080fd5b818601915086601f830112612e2257600080fd5b813581811115612e3457612e34612dbc565b8060051b604051601f19603f83011681018181108582111715612e5957612e59612dbc565b604052918252848201925083810185019189831115612e7757600080fd5b938501935b82851015612e9c57612e8d85612d11565b84529385019392850192612e7c565b8096505050505050509250929050565b60008060408385031215612ebf57600080fd5b50508035926020909101359150565b634e487b7160e01b600052601160045260246000fd5b600082821015612ef657612ef6612ece565b500390565b600082612f1857634e487b7160e01b600052601260045260246000fd5b500490565b60008219821115612f3057612f30612ece565b500190565b6000816000190483118215151615612f4f57612f4f612ece565b500290565b6000600019821415612f6857612f68612ece565b5060010190565b634e487b7160e01b600052603260045260246000fd5b600060208284031215612f9757600080fd5b8151801515811461121b57600080fd5b600060208284031215612fb957600080fd5b5051919050565b600060208284031215612fd257600080fd5b815161121b81612cfc565b6000825160005b81811015612ffe5760208186018101518583015201612fe4565b8181111561300d576000828501525b50919091019291505056fea26469706673582212202badd627659bbc2fa4741d5ff868452650221853008d897baec2679df9beda6d64736f6c634300080b0033a264697066735822122099bd09519dcd166ca1d9d4ce8dcb36b47b504d9209475e78694265bc6f721bf864736f6c634300080b0033"
}