{
  "address": "0x2E03D5E33c564Da4bFbcc4d1A47cBb3492ce6D87",
  "abi": [
    {
      "inputs": [
        {
          "internalType": "address",
          "name": "GOVERNANCE_",
          "type": "address"
        },
        {
          "internalType": "address",
          "name": "AUTHORITY_",
          "type": "address"
        },
        {
          "internalType": "address",
          "name": "__voter",
          "type": "address"
        },
        {
          "internalType": "address",
          "name": "__ve",
          "type": "address"
        },
        {
          "internalType": "address",
          "name": "__ve_dist",
          "type": "address"
        }
      ],
      "stateMutability": "nonpayable",
      "type": "constructor"
    },
    {
      "anonymous": false,
      "inputs": [
        {
          "indexed": true,
          "internalType": "address",
          "name": "user",
          "type": "address"
        },
        {
          "indexed": true,
          "internalType": "contract Authority",
          "name": "newAuthority",
          "type": "address"
        }
      ],
      "name": "AuthorityUpdated",
      "type": "event"
    },
    {
      "anonymous": false,
      "inputs": [
        {
          "indexed": true,
          "internalType": "address",
          "name": "sender",
          "type": "address"
        },
        {
          "indexed": false,
          "internalType": "uint256",
          "name": "weekly",
          "type": "uint256"
        },
        {
          "indexed": false,
          "internalType": "uint256",
          "name": "circulating_supply",
          "type": "uint256"
        },
        {
          "indexed": false,
          "internalType": "uint256",
          "name": "circulating_emission",
          "type": "uint256"
        }
      ],
      "name": "Mint",
      "type": "event"
    },
    {
      "anonymous": false,
      "inputs": [
        {
          "indexed": true,
          "internalType": "address",
          "name": "user",
          "type": "address"
        },
        {
          "indexed": true,
          "internalType": "address",
          "name": "newOwner",
          "type": "address"
        }
      ],
      "name": "OwnerUpdated",
      "type": "event"
    },
    {
      "inputs": [],
      "name": "_token",
      "outputs": [
        {
          "internalType": "contract underlying",
          "name": "",
          "type": "address"
        }
      ],
      "stateMutability": "view",
      "type": "function"
    },
    {
      "inputs": [],
      "name": "_ve",
      "outputs": [
        {
          "internalType": "contract ve",
          "name": "",
          "type": "address"
        }
      ],
      "stateMutability": "view",
      "type": "function"
    },
    {
      "inputs": [],
      "name": "_ve_dist",
      "outputs": [
        {
          "internalType": "contract ve_dist",
          "name": "",
          "type": "address"
        }
      ],
      "stateMutability": "view",
      "type": "function"
    },
    {
      "inputs": [],
      "name": "_voter",
      "outputs": [
        {
          "internalType": "contract voter",
          "name": "",
          "type": "address"
        }
      ],
      "stateMutability": "view",
      "type": "function"
    },
    {
      "inputs": [],
      "name": "active_period",
      "outputs": [
        {
          "internalType": "uint256",
          "name": "",
          "type": "uint256"
        }
      ],
      "stateMutability": "view",
      "type": "function"
    },
    {
      "inputs": [],
      "name": "authority",
      "outputs": [
        {
          "internalType": "contract Authority",
          "name": "",
          "type": "address"
        }
      ],
      "stateMutability": "view",
      "type": "function"
    },
    {
      "inputs": [],
      "name": "calculate_emission",
      "outputs": [
        {
          "internalType": "uint256",
          "name": "",
          "type": "uint256"
        }
      ],
      "stateMutability": "view",
      "type": "function"
    },
    {
      "inputs": [
        {
          "internalType": "uint256",
          "name": "_minted",
          "type": "uint256"
        }
      ],
      "name": "calculate_growth",
      "outputs": [
        {
          "internalType": "uint256",
          "name": "",
          "type": "uint256"
        }
      ],
      "stateMutability": "view",
      "type": "function"
    },
    {
      "inputs": [],
      "name": "circulating_emission",
      "outputs": [
        {
          "internalType": "uint256",
          "name": "",
          "type": "uint256"
        }
      ],
      "stateMutability": "view",
      "type": "function"
    },
    {
      "inputs": [],
      "name": "circulating_supply",
      "outputs": [
        {
          "internalType": "uint256",
          "name": "",
          "type": "uint256"
        }
      ],
      "stateMutability": "view",
      "type": "function"
    },
    {
      "inputs": [
        {
          "internalType": "address[]",
          "name": "initVeLocks",
          "type": "address[]"
        },
        {
          "internalType": "uint256[]",
          "name": "initVeAmounts",
          "type": "uint256[]"
        },
        {
          "internalType": "address[]",
          "name": "initToken",
          "type": "address[]"
        },
        {
          "internalType": "uint256[]",
          "name": "initTokenAmounts",
          "type": "uint256[]"
        },
        {
          "internalType": "uint256",
          "name": "max",
          "type": "uint256"
        }
      ],
      "name": "initialize",
      "outputs": [],
      "stateMutability": "nonpayable",
      "type": "function"
    },
    {
      "inputs": [
        {
          "internalType": "address",
          "name": "newMinter_",
          "type": "address"
        }
      ],
      "name": "migrateMinter",
      "outputs": [],
      "stateMutability": "nonpayable",
      "type": "function"
    },
    {
      "inputs": [],
      "name": "owner",
      "outputs": [
        {
          "internalType": "address",
          "name": "",
          "type": "address"
        }
      ],
      "stateMutability": "view",
      "type": "function"
    },
    {
      "inputs": [
        {
          "internalType": "contract Authority",
          "name": "newAuthority",
          "type": "address"
        }
      ],
      "name": "setAuthority",
      "outputs": [],
      "stateMutability": "nonpayable",
      "type": "function"
    },
    {
      "inputs": [
        {
          "internalType": "address",
          "name": "newOwner",
          "type": "address"
        }
      ],
      "name": "setOwner",
      "outputs": [],
      "stateMutability": "nonpayable",
      "type": "function"
    },
    {
      "inputs": [],
      "name": "update_period",
      "outputs": [
        {
          "internalType": "uint256",
          "name": "",
          "type": "uint256"
        }
      ],
      "stateMutability": "nonpayable",
      "type": "function"
    },
    {
      "inputs": [],
      "name": "weekly",
      "outputs": [
        {
          "internalType": "uint256",
          "name": "",
          "type": "uint256"
        }
      ],
      "stateMutability": "view",
      "type": "function"
    },
    {
      "inputs": [],
      "name": "weekly_emission",
      "outputs": [
        {
          "internalType": "uint256",
          "name": "",
          "type": "uint256"
        }
      ],
      "stateMutability": "view",
      "type": "function"
    }
  ],
  "transactionHash": "0xa615b40ba9c3bedf42863d6d794c16352a2ec5bcb2ba40b82153ee4e8c6c0143",
  "args": [
    "0x2101a22A8A6f2b60eF36013eFFCef56893cea983",
    "0x79a9Df694027a527A5ae221958eBf60610B33563",
    "0xD16bFE14b776dB98CcD190C315f35A4eFb3fCC20",
    "0x2209895d2303685048DAFa60fa13C8e9587b5F6B",
    "0x3b1DA1fa6495746ca2Fa29ed6B48B676B199d6A4"
  ],
  "numDeployments": 1,
  "solcInputHash": "edd68036c391002ae2af5111886505d2",
  "bytecode": "0x6101006040526984595161401484a000006002553480156200002057600080fd5b50604051620019bd380380620019bd8339810160408190526200004391620001d3565b600080546001600160a01b03199081166001600160a01b0388811691821784556001805490931690881617909155604051879287929133917f8292fce18fa69edf4db7b94ea2e58241df0ae57f97e0a6c9b29067028bf92d7691a36040516001600160a01b0382169033907fa3396fd7f6e0a21b50e5089d2da70d5ac0a3bbbd1f617a93f134b7638998019890600090a35050600480546001600160a01b0319163317815560408051637e062a3560e11b815290516001600160a01b0385169263fc0c546a928082019260209290918290030181865afa1580156200012c573d6000803e3d6000fd5b505050506040513d601f19601f8201168201806040525081019062000152919062000243565b6001600160a01b0390811660805283811660a05282811660c052811660e05262093a8080620001838160026200027e565b6200018f9042620002a0565b6200019b9190620002bb565b620001a791906200027e565b60035550620002de9350505050565b80516001600160a01b0381168114620001ce57600080fd5b919050565b600080600080600060a08688031215620001ec57600080fd5b620001f786620001b6565b94506200020760208701620001b6565b93506200021760408701620001b6565b92506200022760608701620001b6565b91506200023760808701620001b6565b90509295509295909350565b6000602082840312156200025657600080fd5b6200026182620001b6565b9392505050565b634e487b7160e01b600052601160045260246000fd5b60008160001904831182151516156200029b576200029b62000268565b500290565b60008219821115620002b657620002b662000268565b500190565b600082620002d957634e487b7160e01b600052601260045260246000fd5b500490565b60805160a05160c05160e05161160b620003b26000396000818161016c01528181610e8101528181610f280152610f9b0152600081816102130152818161034f015281816103fd0152818161095d01528181610a6e01528181610b0c0152610bb30152600081816101b30152818161105301526110ed015260008181610279015281816102d60152818161037f01528181610500015281816106f3015281816108fa015281816109eb01528181610c3501528181610d5c01528181610ddb01528181610eb00152611024015261160b6000f3fe608060405234801561001057600080fd5b50600436106101165760003560e01c80638da5cb5b116100a2578063cfc6c8ff11610071578063cfc6c8ff1461025b578063d139960814610263578063e038c75a1461026c578063ecd0c0c314610274578063ed29fc111461029b57600080fd5b80638da5cb5b146101fb5780638dd598fb1461020e5780638e01fbfa14610235578063bf7e214f1461024857600080fd5b80632c6b2f0c116100e95780632c6b2f0c1461016757806336d96faf146101a65780633db9b42a146101ae5780637a9e5e4b146101d557806389ebbd25146101e857600080fd5b806304d9757f1461011b57806313af4035146101305780631eebae801461014357806326cfc17b1461015e575b600080fd5b61012e6101293660046113cb565b6102a3565b005b61012e61013e366004611480565b610626565b61014b6106c7565b6040519081526020015b60405180910390f35b61014b60025481565b61018e7f000000000000000000000000000000000000000000000000000000000000000081565b6040516001600160a01b039091168152602001610155565b61014b6106ef565b61018e7f000000000000000000000000000000000000000000000000000000000000000081565b61012e6101e3366004611480565b6107a0565b61012e6101f6366004611480565b61088a565b60005461018e906001600160a01b031681565b61018e7f000000000000000000000000000000000000000000000000000000000000000081565b61014b61024336600461149d565b610959565b60015461018e906001600160a01b031681565b61014b610b08565b61014b60035481565b61014b610baf565b61018e7f000000000000000000000000000000000000000000000000000000000000000081565b61014b610cbf565b6004546001600160a01b031633146102ba57600080fd5b6040516340c10f1960e01b8152306004820152602481018290527f00000000000000000000000000000000000000000000000000000000000000006001600160a01b0316906340c10f1990604401600060405180830381600087803b15801561032257600080fd5b505af1158015610336573d6000803e3d6000fd5b505060405163095ea7b360e01b81526001600160a01b037f00000000000000000000000000000000000000000000000000000000000000008116600483015260001960248301527f000000000000000000000000000000000000000000000000000000000000000016925063095ea7b391506044016020604051808303816000875af11580156103ca573d6000803e3d6000fd5b505050506040513d601f19601f820116820180604052508101906103ee91906114b6565b5060005b85518110156104f1577f00000000000000000000000000000000000000000000000000000000000000006001600160a01b031663d4e54c3b86838151811061043c5761043c6114d8565b60200260200101516303bfc40089858151811061045b5761045b6114d8565b60200260200101516040518463ffffffff1660e01b815260040161049b9392919092835260208301919091526001600160a01b0316604082015260600190565b6020604051808303816000875af11580156104ba573d6000803e3d6000fd5b505050506040513d601f19601f820116820180604052508101906104de91906114ee565b50806104e98161151d565b9150506103f2565b5060005b83518110156105e8577f00000000000000000000000000000000000000000000000000000000000000006001600160a01b031663a9059cbb85838151811061053f5761053f6114d8565b6020026020010151858481518110610559576105596114d8565b60200260200101516040518363ffffffff1660e01b81526004016105929291906001600160a01b03929092168252602082015260400190565b6020604051808303816000875af11580156105b1573d6000803e3d6000fd5b505050506040513d601f19601f820116820180604052508101906105d591906114b6565b50806105e08161151d565b9150506104f5565b50600480546001600160a01b031916905562093a80806106088142611538565b6106129190611550565b61061c9190611572565b6003555050505050565b61063c336000356001600160e01b0319166111b6565b61067c5760405162461bcd60e51b815260206004820152600c60248201526b15539055551213d49256915160a21b60448201526064015b60405180910390fd5b600080546001600160a01b0319166001600160a01b0383169081178255604051909133917f8292fce18fa69edf4db7b94ea2e58241df0ae57f97e0a6c9b29067028bf92d769190a350565b60006103e860026106d6610baf565b6106e09190611572565b6106ea9190611550565b905090565b60007f00000000000000000000000000000000000000000000000000000000000000006001600160a01b03166318160ddd6040518163ffffffff1660e01b8152600401602060405180830381865afa15801561074f573d6000803e3d6000fd5b505050506040513d601f19601f8201168201806040525081019061077391906114ee565b606461077d610baf565b606260025461078c9190611572565b6107969190611572565b6106e09190611550565b6000546001600160a01b0316331480610835575060015460405163b700961360e01b81526001600160a01b039091169063b7009613906107f490339030906001600160e01b03196000351690600401611591565b602060405180830381865afa158015610811573d6000803e3d6000fd5b505050506040513d601f19601f8201168201806040525081019061083591906114b6565b61083e57600080fd5b600180546001600160a01b0319166001600160a01b03831690811790915560405133907fa3396fd7f6e0a21b50e5089d2da70d5ac0a3bbbd1f617a93f134b7638998019890600090a350565b6108a0336000356001600160e01b0319166111b6565b6108db5760405162461bcd60e51b815260206004820152600c60248201526b15539055551213d49256915160a21b6044820152606401610673565b604051637e51dad560e11b81526001600160a01b0382811660048301527f0000000000000000000000000000000000000000000000000000000000000000169063fca3b5aa90602401600060405180830381600087803b15801561093e57600080fd5b505af1158015610952573d6000803e3d6000fd5b5050505050565b60007f00000000000000000000000000000000000000000000000000000000000000006001600160a01b0316638380edb76040518163ffffffff1660e01b8152600401602060405180830381865afa1580156109b9573d6000803e3d6000fd5b505050506040513d601f19601f820116820180604052508101906109dd91906114b6565b6109e957506000919050565b7f00000000000000000000000000000000000000000000000000000000000000006001600160a01b03166318160ddd6040518163ffffffff1660e01b8152600401602060405180830381865afa158015610a47573d6000803e3d6000fd5b505050506040513d601f19601f82011682018060405250810190610a6b91906114ee565b827f00000000000000000000000000000000000000000000000000000000000000006001600160a01b03166318160ddd6040518163ffffffff1660e01b8152600401602060405180830381865afa158015610aca573d6000803e3d6000fd5b505050506040513d601f19601f82011682018060405250810190610aee91906114ee565b610af89190611572565b610b029190611550565b92915050565b60007f00000000000000000000000000000000000000000000000000000000000000006001600160a01b0316638380edb76040518163ffffffff1660e01b8152600401602060405180830381865afa158015610b68573d6000803e3d6000fd5b505050506040513d601f19601f82011682018060405250810190610b8c91906114b6565b610b97575060025490565b6106ea610ba26106ef565b610baa6106c7565b611260565b60007f00000000000000000000000000000000000000000000000000000000000000006001600160a01b03166318160ddd6040518163ffffffff1660e01b8152600401602060405180830381865afa158015610c0f573d6000803e3d6000fd5b505050506040513d601f19601f82011682018060405250810190610c3391906114ee565b7f00000000000000000000000000000000000000000000000000000000000000006001600160a01b03166318160ddd6040518163ffffffff1660e01b8152600401602060405180830381865afa158015610c91573d6000803e3d6000fd5b505050506040513d601f19601f82011682018060405250810190610cb591906114ee565b6106ea91906115be565b600354600090610cd262093a8082611538565b4210158015610cea57506004546001600160a01b0316155b156111b15762093a80610cfd8142611550565b610d079190611572565b60038190559050610d16610b08565b6002819055600090610d2790610959565b9050600060025482610d399190611538565b6040516370a0823160e01b81523060048201529091506000906001600160a01b037f000000000000000000000000000000000000000000000000000000000000000016906370a0823190602401602060405180830381865afa158015610da3573d6000803e3d6000fd5b505050506040513d601f19601f82011682018060405250810190610dc791906114ee565b905081811015610e6a576001600160a01b037f0000000000000000000000000000000000000000000000000000000000000000166340c10f1930610e0b84866115be565b6040516001600160e01b031960e085901b1681526001600160a01b0390921660048301526024820152604401600060405180830381600087803b158015610e5157600080fd5b505af1158015610e65573d6000803e3d6000fd5b505050505b60405163a9059cbb60e01b81526001600160a01b037f000000000000000000000000000000000000000000000000000000000000000081166004830152602482018590527f0000000000000000000000000000000000000000000000000000000000000000169063a9059cbb906044016020604051808303816000875af1158015610ef9573d6000803e3d6000fd5b505050506040513d601f19601f82011682018060405250810190610f1d91906114b6565b610f2657600080fd5b7f00000000000000000000000000000000000000000000000000000000000000006001600160a01b031663811a40fe6040518163ffffffff1660e01b8152600401600060405180830381600087803b158015610f8157600080fd5b505af1158015610f95573d6000803e3d6000fd5b505050507f00000000000000000000000000000000000000000000000000000000000000006001600160a01b031663b21ed5026040518163ffffffff1660e01b8152600401600060405180830381600087803b158015610ff457600080fd5b505af1158015611008573d6000803e3d6000fd5b505060025460405163095ea7b360e01b81526001600160a01b037f000000000000000000000000000000000000000000000000000000000000000016935063095ea7b3925061108f917f0000000000000000000000000000000000000000000000000000000000000000916004016001600160a01b03929092168252602082015260400190565b6020604051808303816000875af11580156110ae573d6000803e3d6000fd5b505050506040513d601f19601f820116820180604052508101906110d291906114b6565b50600254604051633c6b16ab60e01b815260048101919091527f00000000000000000000000000000000000000000000000000000000000000006001600160a01b031690633c6b16ab90602401600060405180830381600087803b15801561113957600080fd5b505af115801561114d573d6000803e3d6000fd5b50505050336001600160a01b03167fb4c03061fb5b7fed76389d5af8f2e0ddb09f8c70d1333abbb62582835e10accb600254611187610baf565b61118f6106c7565b6040805193845260208401929092529082015260600160405180910390a25050505b919050565b6001546000906001600160a01b03168015801590611240575060405163b700961360e01b81526001600160a01b0382169063b7009613906111ff90879030908890600401611591565b602060405180830381865afa15801561121c573d6000803e3d6000fd5b505050506040513d601f19601f8201168201806040525081019061124091906114b6565b8061125857506000546001600160a01b038581169116145b949350505050565b6000818310156112705781611272565b825b9392505050565b634e487b7160e01b600052604160045260246000fd5b604051601f8201601f1916810167ffffffffffffffff811182821017156112b8576112b8611279565b604052919050565b600067ffffffffffffffff8211156112da576112da611279565b5060051b60200190565b6001600160a01b03811681146112f957600080fd5b50565b600082601f83011261130d57600080fd5b8135602061132261131d836112c0565b61128f565b82815260059290921b8401810191818101908684111561134157600080fd5b8286015b84811015611365578035611358816112e4565b8352918301918301611345565b509695505050505050565b600082601f83011261138157600080fd5b8135602061139161131d836112c0565b82815260059290921b840181019181810190868411156113b057600080fd5b8286015b8481101561136557803583529183019183016113b4565b600080600080600060a086880312156113e357600080fd5b853567ffffffffffffffff808211156113fb57600080fd5b61140789838a016112fc565b9650602088013591508082111561141d57600080fd5b61142989838a01611370565b9550604088013591508082111561143f57600080fd5b61144b89838a016112fc565b9450606088013591508082111561146157600080fd5b5061146e88828901611370565b95989497509295608001359392505050565b60006020828403121561149257600080fd5b8135611272816112e4565b6000602082840312156114af57600080fd5b5035919050565b6000602082840312156114c857600080fd5b8151801515811461127257600080fd5b634e487b7160e01b600052603260045260246000fd5b60006020828403121561150057600080fd5b5051919050565b634e487b7160e01b600052601160045260246000fd5b600060001982141561153157611531611507565b5060010190565b6000821982111561154b5761154b611507565b500190565b60008261156d57634e487b7160e01b600052601260045260246000fd5b500490565b600081600019048311821515161561158c5761158c611507565b500290565b6001600160a01b0393841681529190921660208201526001600160e01b0319909116604082015260600190565b6000828210156115d0576115d0611507565b50039056fea26469706673582212208061d59d55cdd485ef496f933abdc97b8f84cb9505c9da0787ec666d021cdc8164736f6c634300080b0033",
  "devdoc": {
    "kind": "dev",
    "methods": {},
    "version": 1
  },
  "userdoc": {
    "kind": "user",
    "methods": {},
    "version": 1
  },
  "storageLayout": {
    "storage": [
      {
        "astId": 17,
        "contract": "srcBuild/Minter.sol:Minter",
        "label": "owner",
        "offset": 0,
        "slot": "0",
        "type": "t_address"
      },
      {
        "astId": 20,
        "contract": "srcBuild/Minter.sol:Minter",
        "label": "authority",
        "offset": 0,
        "slot": "1",
        "type": "t_contract(Authority)171"
      },
      {
        "astId": 1604,
        "contract": "srcBuild/Minter.sol:Minter",
        "label": "weekly",
        "offset": 0,
        "slot": "2",
        "type": "t_uint256"
      },
      {
        "astId": 1606,
        "contract": "srcBuild/Minter.sol:Minter",
        "label": "active_period",
        "offset": 0,
        "slot": "3",
        "type": "t_uint256"
      },
      {
        "astId": 1617,
        "contract": "srcBuild/Minter.sol:Minter",
        "label": "initializer",
        "offset": 0,
        "slot": "4",
        "type": "t_address"
      }
    ],
    "types": {
      "t_address": {
        "encoding": "inplace",
        "label": "address",
        "numberOfBytes": "20"
      },
      "t_contract(Authority)171": {
        "encoding": "inplace",
        "label": "contract Authority",
        "numberOfBytes": "20"
      },
      "t_uint256": {
        "encoding": "inplace",
        "label": "uint256",
        "numberOfBytes": "32"
      }
    }
  }
}