{
  "address": "0x2209895d2303685048DAFa60fa13C8e9587b5F6B",
  "abi": [
    {
      "inputs": [
        {
          "internalType": "address",
          "name": "TOKEN_ADDR_",
          "type": "address"
        },
        {
          "internalType": "address",
          "name": "GOVERNANCE_",
          "type": "address"
        },
        {
          "internalType": "address",
          "name": "AUTHORITY_",
          "type": "address"
        }
      ],
      "stateMutability": "nonpayable",
      "type": "constructor"
    },
    {
      "anonymous": false,
      "inputs": [
        {
          "indexed": true,
          "internalType": "address",
          "name": "owner",
          "type": "address"
        },
        {
          "indexed": true,
          "internalType": "address",
          "name": "approved",
          "type": "address"
        },
        {
          "indexed": true,
          "internalType": "uint256",
          "name": "tokenId",
          "type": "uint256"
        }
      ],
      "name": "Approval",
      "type": "event"
    },
    {
      "anonymous": false,
      "inputs": [
        {
          "indexed": true,
          "internalType": "address",
          "name": "owner",
          "type": "address"
        },
        {
          "indexed": true,
          "internalType": "address",
          "name": "operator",
          "type": "address"
        },
        {
          "indexed": false,
          "internalType": "bool",
          "name": "approved",
          "type": "bool"
        }
      ],
      "name": "ApprovalForAll",
      "type": "event"
    },
    {
      "anonymous": false,
      "inputs": [
        {
          "indexed": true,
          "internalType": "address",
          "name": "user",
          "type": "address"
        },
        {
          "indexed": true,
          "internalType": "contract Authority",
          "name": "newAuthority",
          "type": "address"
        }
      ],
      "name": "AuthorityUpdated",
      "type": "event"
    },
    {
      "anonymous": false,
      "inputs": [
        {
          "indexed": true,
          "internalType": "address",
          "name": "provider",
          "type": "address"
        },
        {
          "indexed": false,
          "internalType": "uint256",
          "name": "tokenId",
          "type": "uint256"
        },
        {
          "indexed": false,
          "internalType": "uint256",
          "name": "value",
          "type": "uint256"
        },
        {
          "indexed": true,
          "internalType": "uint256",
          "name": "locktime",
          "type": "uint256"
        },
        {
          "indexed": false,
          "internalType": "enum veAPHRA.DepositType",
          "name": "deposit_type",
          "type": "uint8"
        },
        {
          "indexed": false,
          "internalType": "uint256",
          "name": "ts",
          "type": "uint256"
        }
      ],
      "name": "Deposit",
      "type": "event"
    },
    {
      "anonymous": false,
      "inputs": [
        {
          "indexed": true,
          "internalType": "address",
          "name": "user",
          "type": "address"
        },
        {
          "indexed": true,
          "internalType": "address",
          "name": "newOwner",
          "type": "address"
        }
      ],
      "name": "OwnerUpdated",
      "type": "event"
    },
    {
      "anonymous": false,
      "inputs": [
        {
          "indexed": false,
          "internalType": "uint256",
          "name": "prevSupply",
          "type": "uint256"
        },
        {
          "indexed": false,
          "internalType": "uint256",
          "name": "supply",
          "type": "uint256"
        }
      ],
      "name": "Supply",
      "type": "event"
    },
    {
      "anonymous": false,
      "inputs": [
        {
          "indexed": true,
          "internalType": "address",
          "name": "from",
          "type": "address"
        },
        {
          "indexed": true,
          "internalType": "address",
          "name": "to",
          "type": "address"
        },
        {
          "indexed": true,
          "internalType": "uint256",
          "name": "tokenId",
          "type": "uint256"
        }
      ],
      "name": "Transfer",
      "type": "event"
    },
    {
      "anonymous": false,
      "inputs": [
        {
          "indexed": true,
          "internalType": "address",
          "name": "provider",
          "type": "address"
        },
        {
          "indexed": false,
          "internalType": "uint256",
          "name": "tokenId",
          "type": "uint256"
        },
        {
          "indexed": false,
          "internalType": "uint256",
          "name": "value",
          "type": "uint256"
        },
        {
          "indexed": false,
          "internalType": "uint256",
          "name": "ts",
          "type": "uint256"
        }
      ],
      "name": "Withdraw",
      "type": "event"
    },
    {
      "inputs": [
        {
          "internalType": "uint256",
          "name": "_tokenId",
          "type": "uint256"
        }
      ],
      "name": "abstain",
      "outputs": [],
      "stateMutability": "nonpayable",
      "type": "function"
    },
    {
      "inputs": [
        {
          "internalType": "address",
          "name": "_approved",
          "type": "address"
        },
        {
          "internalType": "uint256",
          "name": "_tokenId",
          "type": "uint256"
        }
      ],
      "name": "approve",
      "outputs": [],
      "stateMutability": "nonpayable",
      "type": "function"
    },
    {
      "inputs": [
        {
          "internalType": "uint256",
          "name": "_tokenId",
          "type": "uint256"
        }
      ],
      "name": "attach",
      "outputs": [],
      "stateMutability": "nonpayable",
      "type": "function"
    },
    {
      "inputs": [
        {
          "internalType": "uint256",
          "name": "",
          "type": "uint256"
        }
      ],
      "name": "attachments",
      "outputs": [
        {
          "internalType": "uint256",
          "name": "",
          "type": "uint256"
        }
      ],
      "stateMutability": "view",
      "type": "function"
    },
    {
      "inputs": [],
      "name": "authority",
      "outputs": [
        {
          "internalType": "contract Authority",
          "name": "",
          "type": "address"
        }
      ],
      "stateMutability": "view",
      "type": "function"
    },
    {
      "inputs": [
        {
          "internalType": "address",
          "name": "_owner",
          "type": "address"
        }
      ],
      "name": "balanceOf",
      "outputs": [
        {
          "internalType": "uint256",
          "name": "",
          "type": "uint256"
        }
      ],
      "stateMutability": "view",
      "type": "function"
    },
    {
      "inputs": [
        {
          "internalType": "uint256",
          "name": "_tokenId",
          "type": "uint256"
        },
        {
          "internalType": "uint256",
          "name": "_block",
          "type": "uint256"
        }
      ],
      "name": "balanceOfAtNFT",
      "outputs": [
        {
          "internalType": "uint256",
          "name": "",
          "type": "uint256"
        }
      ],
      "stateMutability": "view",
      "type": "function"
    },
    {
      "inputs": [
        {
          "internalType": "uint256",
          "name": "_tokenId",
          "type": "uint256"
        }
      ],
      "name": "balanceOfNFT",
      "outputs": [
        {
          "internalType": "uint256",
          "name": "",
          "type": "uint256"
        }
      ],
      "stateMutability": "view",
      "type": "function"
    },
    {
      "inputs": [
        {
          "internalType": "uint256",
          "name": "_tokenId",
          "type": "uint256"
        },
        {
          "internalType": "uint256",
          "name": "_t",
          "type": "uint256"
        }
      ],
      "name": "balanceOfNFTAt",
      "outputs": [
        {
          "internalType": "uint256",
          "name": "",
          "type": "uint256"
        }
      ],
      "stateMutability": "view",
      "type": "function"
    },
    {
      "inputs": [],
      "name": "block_number",
      "outputs": [
        {
          "internalType": "uint256",
          "name": "",
          "type": "uint256"
        }
      ],
      "stateMutability": "view",
      "type": "function"
    },
    {
      "inputs": [],
      "name": "checkpoint",
      "outputs": [],
      "stateMutability": "nonpayable",
      "type": "function"
    },
    {
      "inputs": [
        {
          "internalType": "uint256",
          "name": "_value",
          "type": "uint256"
        },
        {
          "internalType": "uint256",
          "name": "_lock_duration",
          "type": "uint256"
        }
      ],
      "name": "create_lock",
      "outputs": [
        {
          "internalType": "uint256",
          "name": "",
          "type": "uint256"
        }
      ],
      "stateMutability": "nonpayable",
      "type": "function"
    },
    {
      "inputs": [
        {
          "internalType": "uint256",
          "name": "_value",
          "type": "uint256"
        },
        {
          "internalType": "uint256",
          "name": "_lock_duration",
          "type": "uint256"
        },
        {
          "internalType": "address",
          "name": "_to",
          "type": "address"
        }
      ],
      "name": "create_lock_for",
      "outputs": [
        {
          "internalType": "uint256",
          "name": "",
          "type": "uint256"
        }
      ],
      "stateMutability": "nonpayable",
      "type": "function"
    },
    {
      "inputs": [],
      "name": "decimals",
      "outputs": [
        {
          "internalType": "uint8",
          "name": "",
          "type": "uint8"
        }
      ],
      "stateMutability": "view",
      "type": "function"
    },
    {
      "inputs": [
        {
          "internalType": "uint256",
          "name": "_tokenId",
          "type": "uint256"
        },
        {
          "internalType": "uint256",
          "name": "_value",
          "type": "uint256"
        }
      ],
      "name": "deposit_for",
      "outputs": [],
      "stateMutability": "nonpayable",
      "type": "function"
    },
    {
      "inputs": [
        {
          "internalType": "uint256",
          "name": "_tokenId",
          "type": "uint256"
        }
      ],
      "name": "detach",
      "outputs": [],
      "stateMutability": "nonpayable",
      "type": "function"
    },
    {
      "inputs": [],
      "name": "epoch",
      "outputs": [
        {
          "internalType": "uint256",
          "name": "",
          "type": "uint256"
        }
      ],
      "stateMutability": "view",
      "type": "function"
    },
    {
      "inputs": [
        {
          "internalType": "uint256",
          "name": "_tokenId",
          "type": "uint256"
        }
      ],
      "name": "getApproved",
      "outputs": [
        {
          "internalType": "address",
          "name": "",
          "type": "address"
        }
      ],
      "stateMutability": "view",
      "type": "function"
    },
    {
      "inputs": [
        {
          "internalType": "uint256",
          "name": "_tokenId",
          "type": "uint256"
        }
      ],
      "name": "get_last_user_slope",
      "outputs": [
        {
          "internalType": "int128",
          "name": "",
          "type": "int128"
        }
      ],
      "stateMutability": "view",
      "type": "function"
    },
    {
      "inputs": [
        {
          "internalType": "uint256",
          "name": "_tokenId",
          "type": "uint256"
        },
        {
          "internalType": "uint256",
          "name": "_value",
          "type": "uint256"
        }
      ],
      "name": "increase_amount",
      "outputs": [],
      "stateMutability": "nonpayable",
      "type": "function"
    },
    {
      "inputs": [
        {
          "internalType": "uint256",
          "name": "_tokenId",
          "type": "uint256"
        },
        {
          "internalType": "uint256",
          "name": "_lock_duration",
          "type": "uint256"
        }
      ],
      "name": "increase_unlock_time",
      "outputs": [],
      "stateMutability": "nonpayable",
      "type": "function"
    },
    {
      "inputs": [
        {
          "internalType": "address",
          "name": "_owner",
          "type": "address"
        },
        {
          "internalType": "address",
          "name": "_operator",
          "type": "address"
        }
      ],
      "name": "isApprovedForAll",
      "outputs": [
        {
          "internalType": "bool",
          "name": "",
          "type": "bool"
        }
      ],
      "stateMutability": "view",
      "type": "function"
    },
    {
      "inputs": [
        {
          "internalType": "address",
          "name": "_spender",
          "type": "address"
        },
        {
          "internalType": "uint256",
          "name": "_tokenId",
          "type": "uint256"
        }
      ],
      "name": "isApprovedOrOwner",
      "outputs": [
        {
          "internalType": "bool",
          "name": "",
          "type": "bool"
        }
      ],
      "stateMutability": "view",
      "type": "function"
    },
    {
      "inputs": [
        {
          "internalType": "uint256",
          "name": "",
          "type": "uint256"
        }
      ],
      "name": "locked",
      "outputs": [
        {
          "internalType": "int128",
          "name": "amount",
          "type": "int128"
        },
        {
          "internalType": "uint256",
          "name": "end",
          "type": "uint256"
        }
      ],
      "stateMutability": "view",
      "type": "function"
    },
    {
      "inputs": [
        {
          "internalType": "uint256",
          "name": "_tokenId",
          "type": "uint256"
        }
      ],
      "name": "locked__end",
      "outputs": [
        {
          "internalType": "uint256",
          "name": "",
          "type": "uint256"
        }
      ],
      "stateMutability": "view",
      "type": "function"
    },
    {
      "inputs": [
        {
          "internalType": "uint256",
          "name": "_from",
          "type": "uint256"
        },
        {
          "internalType": "uint256",
          "name": "_to",
          "type": "uint256"
        }
      ],
      "name": "merge",
      "outputs": [],
      "stateMutability": "nonpayable",
      "type": "function"
    },
    {
      "inputs": [],
      "name": "name",
      "outputs": [
        {
          "internalType": "string",
          "name": "",
          "type": "string"
        }
      ],
      "stateMutability": "view",
      "type": "function"
    },
    {
      "inputs": [],
      "name": "owner",
      "outputs": [
        {
          "internalType": "address",
          "name": "",
          "type": "address"
        }
      ],
      "stateMutability": "view",
      "type": "function"
    },
    {
      "inputs": [
        {
          "internalType": "uint256",
          "name": "_tokenId",
          "type": "uint256"
        }
      ],
      "name": "ownerOf",
      "outputs": [
        {
          "internalType": "address",
          "name": "",
          "type": "address"
        }
      ],
      "stateMutability": "view",
      "type": "function"
    },
    {
      "inputs": [
        {
          "internalType": "uint256",
          "name": "",
          "type": "uint256"
        }
      ],
      "name": "ownership_change",
      "outputs": [
        {
          "internalType": "uint256",
          "name": "",
          "type": "uint256"
        }
      ],
      "stateMutability": "view",
      "type": "function"
    },
    {
      "inputs": [
        {
          "internalType": "uint256",
          "name": "",
          "type": "uint256"
        }
      ],
      "name": "point_history",
      "outputs": [
        {
          "internalType": "int128",
          "name": "bias",
          "type": "int128"
        },
        {
          "internalType": "int128",
          "name": "slope",
          "type": "int128"
        },
        {
          "internalType": "uint256",
          "name": "ts",
          "type": "uint256"
        },
        {
          "internalType": "uint256",
          "name": "blk",
          "type": "uint256"
        }
      ],
      "stateMutability": "view",
      "type": "function"
    },
    {
      "inputs": [
        {
          "internalType": "address",
          "name": "_from",
          "type": "address"
        },
        {
          "internalType": "address",
          "name": "_to",
          "type": "address"
        },
        {
          "internalType": "uint256",
          "name": "_tokenId",
          "type": "uint256"
        }
      ],
      "name": "safeTransferFrom",
      "outputs": [],
      "stateMutability": "nonpayable",
      "type": "function"
    },
    {
      "inputs": [
        {
          "internalType": "address",
          "name": "_from",
          "type": "address"
        },
        {
          "internalType": "address",
          "name": "_to",
          "type": "address"
        },
        {
          "internalType": "uint256",
          "name": "_tokenId",
          "type": "uint256"
        },
        {
          "internalType": "bytes",
          "name": "_data",
          "type": "bytes"
        }
      ],
      "name": "safeTransferFrom",
      "outputs": [],
      "stateMutability": "nonpayable",
      "type": "function"
    },
    {
      "inputs": [
        {
          "internalType": "address",
          "name": "_operator",
          "type": "address"
        },
        {
          "internalType": "bool",
          "name": "_approved",
          "type": "bool"
        }
      ],
      "name": "setApprovalForAll",
      "outputs": [],
      "stateMutability": "nonpayable",
      "type": "function"
    },
    {
      "inputs": [
        {
          "internalType": "contract Authority",
          "name": "newAuthority",
          "type": "address"
        }
      ],
      "name": "setAuthority",
      "outputs": [],
      "stateMutability": "nonpayable",
      "type": "function"
    },
    {
      "inputs": [
        {
          "internalType": "string",
          "name": "_newDescription",
          "type": "string"
        }
      ],
      "name": "setBadgeDescription",
      "outputs": [],
      "stateMutability": "nonpayable",
      "type": "function"
    },
    {
      "inputs": [
        {
          "internalType": "address",
          "name": "newOwner",
          "type": "address"
        }
      ],
      "name": "setOwner",
      "outputs": [],
      "stateMutability": "nonpayable",
      "type": "function"
    },
    {
      "inputs": [
        {
          "internalType": "address",
          "name": "_voter",
          "type": "address"
        }
      ],
      "name": "setVoter",
      "outputs": [],
      "stateMutability": "nonpayable",
      "type": "function"
    },
    {
      "inputs": [
        {
          "internalType": "uint256",
          "name": "",
          "type": "uint256"
        }
      ],
      "name": "slope_changes",
      "outputs": [
        {
          "internalType": "int128",
          "name": "",
          "type": "int128"
        }
      ],
      "stateMutability": "view",
      "type": "function"
    },
    {
      "inputs": [],
      "name": "supply",
      "outputs": [
        {
          "internalType": "uint256",
          "name": "",
          "type": "uint256"
        }
      ],
      "stateMutability": "view",
      "type": "function"
    },
    {
      "inputs": [
        {
          "internalType": "bytes4",
          "name": "_interfaceID",
          "type": "bytes4"
        }
      ],
      "name": "supportsInterface",
      "outputs": [
        {
          "internalType": "bool",
          "name": "",
          "type": "bool"
        }
      ],
      "stateMutability": "view",
      "type": "function"
    },
    {
      "inputs": [],
      "name": "symbol",
      "outputs": [
        {
          "internalType": "string",
          "name": "",
          "type": "string"
        }
      ],
      "stateMutability": "view",
      "type": "function"
    },
    {
      "inputs": [],
      "name": "token",
      "outputs": [
        {
          "internalType": "address",
          "name": "",
          "type": "address"
        }
      ],
      "stateMutability": "view",
      "type": "function"
    },
    {
      "inputs": [
        {
          "internalType": "address",
          "name": "_owner",
          "type": "address"
        },
        {
          "internalType": "uint256",
          "name": "_tokenIndex",
          "type": "uint256"
        }
      ],
      "name": "tokenOfOwnerByIndex",
      "outputs": [
        {
          "internalType": "uint256",
          "name": "",
          "type": "uint256"
        }
      ],
      "stateMutability": "view",
      "type": "function"
    },
    {
      "inputs": [
        {
          "internalType": "uint256",
          "name": "_tokenId",
          "type": "uint256"
        }
      ],
      "name": "tokenURI",
      "outputs": [
        {
          "internalType": "string",
          "name": "",
          "type": "string"
        }
      ],
      "stateMutability": "view",
      "type": "function"
    },
    {
      "inputs": [],
      "name": "totalSupply",
      "outputs": [
        {
          "internalType": "uint256",
          "name": "",
          "type": "uint256"
        }
      ],
      "stateMutability": "view",
      "type": "function"
    },
    {
      "inputs": [
        {
          "internalType": "uint256",
          "name": "_block",
          "type": "uint256"
        }
      ],
      "name": "totalSupplyAt",
      "outputs": [
        {
          "internalType": "uint256",
          "name": "",
          "type": "uint256"
        }
      ],
      "stateMutability": "view",
      "type": "function"
    },
    {
      "inputs": [
        {
          "internalType": "uint256",
          "name": "t",
          "type": "uint256"
        }
      ],
      "name": "totalSupplyAtT",
      "outputs": [
        {
          "internalType": "uint256",
          "name": "",
          "type": "uint256"
        }
      ],
      "stateMutability": "view",
      "type": "function"
    },
    {
      "inputs": [
        {
          "internalType": "address",
          "name": "_from",
          "type": "address"
        },
        {
          "internalType": "address",
          "name": "_to",
          "type": "address"
        },
        {
          "internalType": "uint256",
          "name": "_tokenId",
          "type": "uint256"
        }
      ],
      "name": "transferFrom",
      "outputs": [],
      "stateMutability": "nonpayable",
      "type": "function"
    },
    {
      "inputs": [],
      "name": "unlock",
      "outputs": [],
      "stateMutability": "nonpayable",
      "type": "function"
    },
    {
      "inputs": [
        {
          "internalType": "uint256",
          "name": "",
          "type": "uint256"
        }
      ],
      "name": "user_point_epoch",
      "outputs": [
        {
          "internalType": "uint256",
          "name": "",
          "type": "uint256"
        }
      ],
      "stateMutability": "view",
      "type": "function"
    },
    {
      "inputs": [
        {
          "internalType": "uint256",
          "name": "",
          "type": "uint256"
        },
        {
          "internalType": "uint256",
          "name": "",
          "type": "uint256"
        }
      ],
      "name": "user_point_history",
      "outputs": [
        {
          "internalType": "int128",
          "name": "bias",
          "type": "int128"
        },
        {
          "internalType": "int128",
          "name": "slope",
          "type": "int128"
        },
        {
          "internalType": "uint256",
          "name": "ts",
          "type": "uint256"
        },
        {
          "internalType": "uint256",
          "name": "blk",
          "type": "uint256"
        }
      ],
      "stateMutability": "view",
      "type": "function"
    },
    {
      "inputs": [
        {
          "internalType": "uint256",
          "name": "_tokenId",
          "type": "uint256"
        },
        {
          "internalType": "uint256",
          "name": "_idx",
          "type": "uint256"
        }
      ],
      "name": "user_point_history__ts",
      "outputs": [
        {
          "internalType": "uint256",
          "name": "",
          "type": "uint256"
        }
      ],
      "stateMutability": "view",
      "type": "function"
    },
    {
      "inputs": [],
      "name": "version",
      "outputs": [
        {
          "internalType": "string",
          "name": "",
          "type": "string"
        }
      ],
      "stateMutability": "view",
      "type": "function"
    },
    {
      "inputs": [
        {
          "internalType": "uint256",
          "name": "",
          "type": "uint256"
        }
      ],
      "name": "voted",
      "outputs": [
        {
          "internalType": "bool",
          "name": "",
          "type": "bool"
        }
      ],
      "stateMutability": "view",
      "type": "function"
    },
    {
      "inputs": [],
      "name": "voter",
      "outputs": [
        {
          "internalType": "address",
          "name": "",
          "type": "address"
        }
      ],
      "stateMutability": "view",
      "type": "function"
    },
    {
      "inputs": [
        {
          "internalType": "uint256",
          "name": "_tokenId",
          "type": "uint256"
        }
      ],
      "name": "voting",
      "outputs": [],
      "stateMutability": "nonpayable",
      "type": "function"
    },
    {
      "inputs": [
        {
          "internalType": "uint256",
          "name": "_tokenId",
          "type": "uint256"
        }
      ],
      "name": "withdraw",
      "outputs": [],
      "stateMutability": "nonpayable",
      "type": "function"
    }
  ],
  "transactionHash": "0xc42f4e9d25583944dd27473e70b69d83f2d008b966a0a61dec033125b0a97562",
  "args": [
    "0xD0Adf687f4a49f532B28b3550E25Ba590Df02b07",
    "0x2101a22A8A6f2b60eF36013eFFCef56893cea983",
    "0x79a9Df694027a527A5ae221958eBf60610B33563"
  ],
  "numDeployments": 1,
  "solcInputHash": "edd68036c391002ae2af5111886505d2",
  "bytecode": "0x60a06040526016805461ff0019166101001790553480156200002057600080fd5b50604051620045423803806200454283398101604081905262000043916200023f565b600080546001600160a01b03199081166001600160a01b0385811691821784556001805490931690851617909155604051849284929133917f8292fce18fa69edf4db7b94ea2e58241df0ae57f97e0a6c9b29067028bf92d7691a36040516001600160a01b0382169033907fa3396fd7f6e0a21b50e5089d2da70d5ac0a3bbbd1f617a93f134b7638998019890600090a350506001600160a01b038316608052600c80546001600160a01b03191633179055437f54cdd369e4e8a8515e52ca72ec816c2101831ad1f18bf44102ed171459c9b4fa55427f54cdd369e4e8a8515e52ca72ec816c2101831ad1f18bf44102ed171459c9b4f9556016805460ff1990811690915560156020527f6d41d7311dcf06e9efee8fb0d881f048bb31170f670666b54beaa0a5d5c3d3e18054821660019081179091557f7c5380ac03aab70890fa83320849084ec294a4b2992171b171b58ecee9fd28868054831682179055635b5e139f60e01b60009081527f57deef6d7eb0781ed7c6a908946a1ec625e2f9c98c7ba2b9a5beae2409ad58378054909316909117909155600e546040519091309160008051602062004522833981519152908290a4600e54604051600090309060008051602062004522833981519152908390a450505062000289565b80516001600160a01b03811681146200023a57600080fd5b919050565b6000806000606084860312156200025557600080fd5b620002608462000222565b9250620002706020850162000222565b9150620002806040850162000222565b90509250925092565b60805161426f620002b36000396000818161096401528181610d9a0152612d55015261426f6000f3fe608060405234801561001057600080fd5b506004361061038e5760003560e01c80638da5cb5b116101de578063c2c4c5c11161010f578063e441135c116100ad578063f8a057631161007c578063f8a0576314610929578063fbd3a29d1461094c578063fc0c546a1461095f578063fd4a77f11461098657600080fd5b8063e441135c146108a7578063e7e242d4146108c7578063e985e9c5146108da578063ee99fe281461091657600080fd5b8063d1c2babb116100e9578063d1c2babb14610830578063d1febfb914610843578063d4e54c3b14610881578063e0514aba1461089457600080fd5b8063c2c4c5c114610802578063c87b56dd1461080a578063ccd1fe881461081d57600080fd5b8063a22cb4651161017c578063b45a3c0e11610156578063b45a3c0e14610781578063b88d4fde146107c9578063bf7e214f146107dc578063c1f0fb9f146107ef57600080fd5b8063a22cb46514610753578063a4d855df14610766578063a69df4b51461077957600080fd5b806395d89b41116101b857806395d89b41146103ec578063981b24d01461071a578063986b7d8a1461072d578063a183af521461074057600080fd5b80638da5cb5b146106db5780638fbb38ff146106ee578063900cf0cf1461071157600080fd5b8063313ce567116102c35780636352211e116102615780637116c60c116102305780637116c60c1461067f57806371197484146106925780637a9e5e4b146106b55780638c2c9baf146106c857600080fd5b80636352211e1461061057806365fc3873146106395780636f5488371461064c57806370a082311461066c57600080fd5b8063461f711c1161029d578063461f711c146105a057806346c96aac146105c65780634bc2a657146105d957806354fd4d50146105ec57600080fd5b8063313ce5671461056057806342842e0e1461057a578063430c20811461058d57600080fd5b806313af40351161033057806323b872dd1161030a57806323b872dd146104fe57806325a58b56146105115780632e1a7d4d146105175780632f745c591461052a57600080fd5b806313af4035146104d057806318160ddd146104e35780631c984bc3146104eb57600080fd5b8063081812fc1161036c578063081812fc1461041f578063095ea7b3146104605780630d6a2033146104755780631376f3da1461049557600080fd5b806301ffc9a714610393578063047fc9aa146103d557806306fdde03146103ec575b600080fd5b6103c06103a136600461362a565b6001600160e01b03191660009081526015602052604090205460ff1690565b60405190151581526020015b60405180910390f35b6103de60025481565b6040519081526020016103cc565b610412604051806040016040528060078152602001667665415048524160c81b81525081565b6040516103cc919061369f565b61044861042d3660046136b2565b6000908152601060205260409020546001600160a01b031690565b6040516001600160a01b0390911681526020016103cc565b61047361046e3660046136e0565b610999565b005b6103de6104833660046136b2565b600a6020526000908152604090205481565b6104a86104a336600461370c565b610aad565b60408051600f95860b81529390940b60208401529282015260608101919091526080016103cc565b6104736104de36600461372e565b610af4565b6103de610b71565b6103de6104f936600461370c565b610b81565b61047361050c36600461374b565b610bb4565b436103de565b6104736105253660046136b2565b610be7565b6103de6105383660046136e0565b6001600160a01b03919091166000908152601260209081526040808320938352929052205490565b610568601281565b60405160ff90911681526020016103cc565b61047361058836600461374b565b610ebf565b6103c061059b3660046136e0565b610efc565b6105b36105ae3660046136b2565b610f0f565b604051600f9190910b81526020016103cc565b600c54610448906001600160a01b031681565b6104736105e736600461372e565b610f52565b610412604051806040016040528060058152602001640312e302e360dc1b81525081565b61044861061e3660046136b2565b6000908152600f60205260409020546001600160a01b031690565b6103de61064736600461370c565b610f8b565b6103de61065a3660046136b2565b60046020526000908152604090205481565b6103de61067a36600461372e565b610fd6565b6103de61068d3660046136b2565b610ff4565b6105b36106a03660046136b2565b600960205260009081526040902054600f0b81565b6104736106c336600461372e565b611054565b6103de6106d636600461370c565b61113e565b600054610448906001600160a01b031681565b6103c06106fc3660046136b2565b600b6020526000908152604090205460ff1681565b6103de60055481565b6103de6107283660046136b2565b61114a565b61047361073b3660046136b2565b6112ec565b61047361074e36600461370c565b611330565b61047361076136600461379a565b611438565b61047361077436600461370c565b6114df565b6104736116cd565b6107af61078f3660046136b2565b60036020526000908152604090208054600190910154600f9190910b9082565b60408051600f9390930b83526020830191909152016103cc565b6104736107d736600461385f565b611761565b600154610448906001600160a01b031681565b6104736107fd3660046136b2565b6118b0565b6104736118df565b6104126108183660046136b2565b61191f565b61047361082b3660046138df565b611a5a565b61047361083e36600461370c565b611aa3565b6104a86108513660046136b2565b600660205260009081526040902080546001820154600290920154600f82810b93600160801b909304900b919084565b6103de61088f366004613928565b611c33565b6103de6108a236600461370c565b611c7f565b6103de6108b53660046136b2565b60086020526000908152604090205481565b6103de6108d53660046136b2565b611c8b565b6103c06108e8366004613961565b6001600160a01b03918216600090815260146020908152604080832093909416825291909152205460ff1690565b61047361092436600461370c565b611cb3565b6103de6109373660046136b2565b60009081526003602052604090206001015490565b61047361095a3660046136b2565b611d8e565b6104487f000000000000000000000000000000000000000000000000000000000000000081565b6104736109943660046136b2565b611dbf565b60165460ff166109c45760405162461bcd60e51b81526004016109bb9061398f565b60405180910390fd5b6000818152600f60205260409020546001600160a01b0316806109e657600080fd5b806001600160a01b0316836001600160a01b03161415610a0557600080fd5b6000828152600f60209081526040808320546001600160a01b0385811685526014845282852033808752945291909320549216149060ff168180610a465750805b610a4f57600080fd5b60008481526010602052604080822080546001600160a01b0319166001600160a01b0389811691821790925591518793918716917f8c5be1e5ebec7d5bd14f71427d1e84f3dd0314c0f7b2291e5b200ac8c7c3b92591a45050505050565b600760205281600052604060002081633b9aca008110610acc57600080fd5b6003020180546001820154600290920154600f82810b9550600160801b90920490910b925084565b610b0a336000356001600160e01b031916611df1565b610b265760405162461bcd60e51b81526004016109bb906139c6565b600080546001600160a01b0319166001600160a01b0383169081178255604051909133917f8292fce18fa69edf4db7b94ea2e58241df0ae57f97e0a6c9b29067028bf92d769190a350565b6000610b7c42610ff4565b905090565b600082815260076020526040812082633b9aca008110610ba357610ba36139ec565b600302016001015490505b92915050565b60165460ff16610bd65760405162461bcd60e51b81526004016109bb9061398f565b610be283838333611e9a565b505050565b60165460ff16610c095760405162461bcd60e51b81526004016109bb9061398f565b601654610100900460ff16600114610c2057600080fd5b6016805461ff001916610200179055610c393382611f60565b610c4557610c45613a02565b6000818152600a6020526040902054158015610c7057506000818152600b602052604090205460ff16155b610c8c5760405162461bcd60e51b81526004016109bb90613a18565b60008181526003602090815260409182902082518084019093528054600f0b835260010154908201819052421015610cff5760405162461bcd60e51b8152602060048201526016602482015275546865206c6f636b206469646e27742065787069726560501b60448201526064016109bb565b8051604080518082018252600080825260208083018281528783526003909152929020905181546001600160801b0319166001600160801b039091161781559051600190910155600254600f9190910b90610d5a8282613a50565b6002556040805180820190915260008082526020820152610d7e9085908590611fc6565b60405163a9059cbb60e01b8152336004820152602481018390527f00000000000000000000000000000000000000000000000000000000000000006001600160a01b03169063a9059cbb906044016020604051808303816000875af1158015610deb573d6000803e3d6000fd5b505050506040513d601f19601f82011682018060405250810190610e0f9190613a67565b610e1b57610e1b613a02565b610e24846125e5565b60408051858152602081018490524281830152905133917f02f25270a4d87bea75db541cdfe559334a275b4a233520ed6c0a2429667cca94919081900360600190a27f5e2aa66efd74cce82b21852e317e5490d9ecc9e6bb953ae24d90851258cc2f5c81610e928482613a50565b6040805192835260208301919091520160405180910390a150506016805461ff0019166101001790555050565b60165460ff16610ee15760405162461bcd60e51b81526004016109bb9061398f565b610be283838360405180602001604052806000815250611761565b6000610f088383611f60565b9392505050565b6000818152600860209081526040808320546007909252822081633b9aca008110610f3c57610f3c6139ec565b6003020154600160801b9004600f0b9392505050565b600c546001600160a01b03163314610f6957600080fd5b600c80546001600160a01b0319166001600160a01b0392909216919091179055565b601654600090610100900460ff16600114610fa557600080fd5b6016805461ff001916610200179055610fbf8383336126a4565b90506016805461ff00191661010017905592915050565b6001600160a01b038116600090815260116020526040812054610bae565b600554600081815260066020908152604080832081516080810183528154600f81810b8352600160801b909104900b9381019390935260018101549183019190915260020154606082015290919061104c81856127fb565b949350505050565b6000546001600160a01b03163314806110e9575060015460405163b700961360e01b81526001600160a01b039091169063b7009613906110a890339030906001600160e01b03196000351690600401613a84565b602060405180830381865afa1580156110c5573d6000803e3d6000fd5b505050506040513d601f19601f820116820180604052508101906110e99190613a67565b6110f257600080fd5b600180546001600160a01b0319166001600160a01b03831690811790915560405133907fa3396fd7f6e0a21b50e5089d2da70d5ac0a3bbbd1f617a93f134b7638998019890600090a350565b6000610f0883836128fd565b60004382111561115c5761115c613a02565b600554600061116b8483612bda565b600081815260066020908152604080832081516080810183528154600f81810b8352600160801b909104900b938101939093526001810154918301919091526002015460608201529192508383101561127a5760006006816111ce866001613ab1565b8152602080820192909252604090810160002081516080810183528154600f81810b8352600160801b909104900b9381019390935260018101549183019190915260020154606080830182905285015191925014611274578260600151816060015161123a9190613a50565b8360400151826040015161124e9190613a50565b606085015161125d908a613a50565b6112679190613ac9565b6112719190613afe565b91505b506112c9565b438260600151146112c95760608201516112949043613a50565b60408301516112a39042613a50565b60608401516112b29089613a50565b6112bc9190613ac9565b6112c69190613afe565b90505b6112e2828284604001516112dd9190613ab1565b6127fb565b9695505050505050565b600c546001600160a01b0316331461130357600080fd5b6000818152600a602052604090205461131e90600190613a50565b6000918252600a602052604090912055565b601654610100900460ff1660011461134757600080fd5b6016805461ff0019166102001790556113603383611f60565b61136c5761136c613a02565b60008281526003602090815260409182902082518084019093528054600f0b83526001015490820152816113a2576113a2613a02565b60008160000151600f0b136113f25760405162461bcd60e51b8152602060048201526016602482015275139bc8195e1a5cdd1a5b99c81b1bd8dac8199bdd5b9960521b60448201526064016109bb565b428160200151116114155760405162461bcd60e51b81526004016109bb90613b12565b61142483836000846002612c64565b50506016805461ff00191661010017905550565b60165460ff1661145a5760405162461bcd60e51b81526004016109bb9061398f565b6001600160a01b03821633141561147357611473613a02565b3360008181526014602090815260408083206001600160a01b03871680855290835292819020805460ff191686151590811790915590519081529192917f17307eab39ab6107e8899845ad3d59bd9653f200f220920489ca2b5937696c31910160405180910390a35050565b601654610100900460ff166001146114f657600080fd5b6016805461ff00191661020017905561150f3383611f60565b61151b5761151b613a02565b600082815260036020908152604080832081518083019092528054600f0b825260010154918101919091529062093a80806115568542613ab1565b6115609190613afe565b61156a9190613ac9565b9050428260200151116115ae5760405162461bcd60e51b815260206004820152600c60248201526b131bd8dac8195e1c1a5c995960a21b60448201526064016109bb565b60008260000151600f0b136115f95760405162461bcd60e51b8152602060048201526011602482015270139bdd1a1a5b99c81a5cc81b1bd8dad959607a1b60448201526064016109bb565b8160200151811161164c5760405162461bcd60e51b815260206004820152601f60248201527f43616e206f6e6c7920696e637265617365206c6f636b206475726174696f6e0060448201526064016109bb565b61165a6303c2670042613ab1565b8111156116a95760405162461bcd60e51b815260206004820152601e60248201527f566f74696e67206c6f636b2063616e2062652034207965617273206d6178000060448201526064016109bb565b6116b884600083856003612c64565b50506016805461ff0019166101001790555050565b6116e3336000356001600160e01b031916611df1565b6116ff5760405162461bcd60e51b81526004016109bb906139c6565b60165460ff16156117525760405162461bcd60e51b815260206004820152601760248201527f756e6c6f636b20616c72656164792068617070656e656400000000000000000060448201526064016109bb565b6016805460ff19166001179055565b60165460ff166117835760405162461bcd60e51b81526004016109bb9061398f565b61178f84848433611e9a565b823b156118aa57604051630a85bd0160e11b81526001600160a01b0384169063150b7a02906117c8903390889087908790600401613b56565b6020604051808303816000875af1925050508015611803575060408051601f3d908101601f1916820190925261180091810190613b89565b60015b6118a8573d808015611831576040519150601f19603f3d011682016040523d82523d6000602084013e611836565b606091505b5080516118a05760405162461bcd60e51b815260206004820152603260248201527f4552433732313a207472616e7366657220746f206e6f6e20455243373231526560448201527131b2b4bb32b91034b6b83632b6b2b73a32b960711b60648201526084016109bb565b805181602001fd5b505b50505050565b600c546001600160a01b031633146118c757600080fd5b6000908152600b60205260409020805460ff19169055565b61191d600060405180604001604052806000600f0b8152602001600081525060405180604001604052806000600f0b81526020016000815250611fc6565b565b6000818152600f60205260409020546060906001600160a01b03166119865760405162461bcd60e51b815260206004820152601b60248201527f517565727920666f72206e6f6e6578697374656e7420746f6b656e000000000060448201526064016109bb565b60008281526003602090815260409182902082518084019093528054600f0b83526001015490820152610f08836119bd8142612e69565b83602001518460000151600f0b600d80546119d790613ba6565b80601f0160208091040260200160405190810160405280929190818152602001828054611a0390613ba6565b8015611a505780601f10611a2557610100808354040283529160200191611a50565b820191906000526020600020905b815481529060010190602001808311611a3357829003601f168201915b5050505050612f3b565b611a70336000356001600160e01b031916611df1565b611a8c5760405162461bcd60e51b81526004016109bb906139c6565b8051611a9f90600d906020840190613578565b5050565b60165460ff16611ac55760405162461bcd60e51b81526004016109bb9061398f565b6000828152600a6020526040902054158015611af057506000828152600b602052604090205460ff16155b611b0c5760405162461bcd60e51b81526004016109bb90613a18565b80821415611b1957600080fd5b611b233383611f60565b611b2c57600080fd5b611b363382611f60565b611b3f57600080fd5b6000828152600360208181526040808420815180830183528154600f90810b825260019283015482860190815288885295855283872084518086019095528054820b855290920154938301849052805194519095929490910b921115611ba9578260200151611baf565b83602001515b604080518082018252600080825260208083018281528b835260038252848320935184546001600160801b0319166001600160801b0390911617845551600190930192909255825180840190935280835290820152909150611c149087908690611fc6565b611c1d866125e5565b611c2b858383866004612c64565b505050505050565b601654600090610100900460ff16600114611c4d57600080fd5b6016805461ff001916610200179055611c678484846126a4565b90506016805461ff0019166101001790559392505050565b6000610f088383612e69565b600081815260046020526040812054431415611ca957506000919050565b610bae8242612e69565b601654610100900460ff16600114611cca57600080fd5b6016805461ff00191661020017905560008281526003602090815260409182902082518084019093528054600f0b8352600101549082015281611d0c57600080fd5b60008160000151600f0b13611d5c5760405162461bcd60e51b8152602060048201526016602482015275139bc8195e1a5cdd1a5b99c81b1bd8dac8199bdd5b9960521b60448201526064016109bb565b42816020015111611d7f5760405162461bcd60e51b81526004016109bb90613b12565b61142483836000846000612c64565b600c546001600160a01b03163314611da557600080fd5b6000818152600a602052604090205461131e906001613ab1565b600c546001600160a01b03163314611dd657600080fd5b6000908152600b60205260409020805460ff19166001179055565b6001546000906001600160a01b03168015801590611e7b575060405163b700961360e01b81526001600160a01b0382169063b700961390611e3a90879030908890600401613a84565b602060405180830381865afa158015611e57573d6000803e3d6000fd5b505050506040513d601f19601f82011682018060405250810190611e7b9190613a67565b8061104c57506000546001600160a01b03858116911614949350505050565b6000828152600a6020526040902054158015611ec557506000828152600b602052604090205460ff16155b611ee15760405162461bcd60e51b81526004016109bb90613a18565b611eeb8183611f60565b611ef457600080fd5b611efe8483613075565b611f0884836130da565b611f12838361315b565b6000828152600460205260408082204390555183916001600160a01b0380871692908816917fddf252ad1be2c89b69c2b068fc378daa952ba7f163c4a11628f55a4df523b3ef91a450505050565b6000818152600f602090815260408083205460108352818420546001600160a01b039182168086526014855283862088841680885295529285205492938085149392909116149060ff168280611fb35750815b80611fbb5750805b979650505050505050565b6040805160808101825260008082526020820181905291810182905260608101919091526040805160808101825260008082526020820181905291810182905260608101919091526005546000908190871561213257428760200151118015612036575060008760000151600f0b135b1561207b57865161204c906303c2670090613be1565b600f0b602080870191909152870151612066904290613a50565b85602001516120759190613c1f565b600f0b85525b428660200151118015612095575060008660000151600f0b135b156120da5785516120ab906303c2670090613be1565b600f0b6020808601919091528601516120c5904290613a50565b84602001516120d49190613c1f565b600f0b84525b602080880151600090815260098252604090205490870151600f9190910b9350156121325786602001518660200151141561211757829150612132565b602080870151600090815260099091526040902054600f0b91505b6040805160808101825260008082526020820152429181019190915243606082015281156121a7575060008181526006602090815260409182902082516080810184528154600f81810b8352600160801b909104900b9281019290925260018101549282019290925260029091015460608201525b6040810151816000428310156121f45760408401516121c69042613a50565b60608501516121d59043613a50565b6121e790670de0b6b3a7640000613ac9565b6121f19190613afe565b90505b600062093a806122048186613afe565b61220e9190613ac9565b905060005b60ff8110156123895761222962093a8083613ab1565b915060004283111561223d57429250612251565b50600082815260096020526040902054600f0b5b61225b8684613a50565b876020015161226a9190613c1f565b87518890612279908390613cb4565b600f0b905250602087018051829190612293908390613d04565b600f90810b90915288516000910b121590506122ae57600087525b60008760200151600f0b12156122c657600060208801525b60408088018490528501519295508592670de0b6b3a7640000906122ea9085613a50565b6122f49086613ac9565b6122fe9190613afe565b856060015161230d9190613ab1565b606088015261231d600189613ab1565b9750428314156123335750436060870152612389565b6000888152600660209081526040918290208951918a01516001600160801b03908116600160801b02921691909117815590880151600182015560608801516002909101555061238281613d53565b9050612213565b505060058590558b1561241457886020015188602001516123aa9190613cb4565b846020018181516123bb9190613d04565b600f0b905250885188516123cf9190613cb4565b845185906123de908390613d04565b600f90810b90915260208601516000910b121590506123ff57600060208501525b60008460000151600f0b121561241457600084525b6000858152600660209081526040918290208651918701516001600160801b03908116600160801b02921691909117815590850151600182015560608501516002909101558b156125d757428b6020015111156124cc57602089015161247a9088613d04565b96508a602001518a60200151141561249e57602088015161249b9088613cb4565b96505b60208b810151600090815260099091526040902080546001600160801b0319166001600160801b0389161790555b428a602001511115612527578a602001518a6020015111156125275760208801516124f79087613cb4565b60208b810151600090815260099091526040902080546001600160801b0319166001600160801b03831617905595505b60008c815260086020526040812054612541906001613ab1565b905080600860008f815260200190815260200160002081905550428960400181815250504389606001818152505088600760008f815260200190815260200160002082633b9aca008110612597576125976139ec565b825160208401516001600160801b03908116600160801b029116176003919091029190910190815560408201516001820155606090910151600290910155505b505050505050505050505050565b6125ef3382611f60565b61263b5760405162461bcd60e51b815260206004820181905260248201527f63616c6c6572206973206e6f74206f776e6572206e6f7220617070726f76656460448201526064016109bb565b6000818152600f60205260408120546001600160a01b03169061265e9083610999565b61266833836130da565b60405182906000906001600160a01b038416907fddf252ad1be2c89b69c2b068fc378daa952ba7f163c4a11628f55a4df523b3ef908390a45050565b60008062093a80806126b68642613ab1565b6126c09190613afe565b6126ca9190613ac9565b9050600085116126d957600080fd5b4281116127375760405162461bcd60e51b815260206004820152602660248201527f43616e206f6e6c79206c6f636b20756e74696c2074696d6520696e207468652060448201526566757475726560d01b60648201526084016109bb565b6127456303c2670042613ab1565b8111156127945760405162461bcd60e51b815260206004820152601e60248201527f566f74696e67206c6f636b2063616e2062652032207965617273206d6178000060448201526064016109bb565b600e600081546127a390613d53565b90915550600e546127b484826131f1565b5060008181526003602090815260409182902082518084019093528054600f0b8352600190810154918301919091526127f291839189918691612c64565b95945050505050565b600080839050600062093a808083604001516128179190613afe565b6128219190613ac9565b905060005b60ff8110156128d55761283c62093a8083613ab1565b915060008583111561285057859250612864565b50600082815260096020526040902054600f0b5b60408401516128739084613a50565b84602001516128829190613c1f565b84518590612891908390613cb4565b600f0b905250828614156128a557506128d5565b80846020018181516128b79190613d04565b600f0b90525050604083018290526128ce81613d53565b9050612826565b5060008260000151600f0b12156128eb57600082525b50516001600160801b03169392505050565b60004382111561290f5761290f613a02565b600083815260086020526040812054815b60808110156129b357818310612935576129b3565b600060026129438486613ab1565b61294e906001613ab1565b6129589190613afe565b6000888152600760205260409020909150869082633b9aca00811061297f5761297f6139ec565b600302016002015411612994578093506129a2565b61299f600182613a50565b92505b506129ac81613d53565b9050612920565b50600085815260076020526040812083633b9aca0081106129d6576129d66139ec565b60408051608081018252600392909202929092018054600f81810b8452600160801b909104900b602083015260018101549282019290925260029091015460608201526005549091506000612a2b8783612bda565b600081815260066020908152604080832081516080810183528154600f81810b8352600160801b909104900b938101939093526001810154918301919091526002015460608201529192508084841015612b0a576000600681612a8f876001613ab1565b8152602080820192909252604090810160002081516080810183528154600f81810b8352600160801b909104900b93810193909352600181015491830191909152600201546060808301829052860151919250612aec9190613a50565b925083604001518160400151612b029190613a50565b915050612b2e565b6060830151612b199043613a50565b9150826040015142612b2b9190613a50565b90505b60408301518215612b6b578284606001518c612b4a9190613a50565b612b549084613ac9565b612b5e9190613afe565b612b689082613ab1565b90505b6040870151612b7a9082613a50565b8760200151612b899190613c1f565b87518890612b98908390613cb4565b600f90810b90915288516000910b129050612bc857505093516001600160801b03169650610bae95505050505050565b60009950505050505050505050610bae565b60008082815b6080811015612c5a57818310612bf557612c5a565b60006002612c038486613ab1565b612c0e906001613ab1565b612c189190613afe565b6000818152600660205260409020600201549091508710612c3b57809350612c49565b612c46600182613a50565b92505b50612c5381613d53565b9050612be0565b5090949350505050565b6002548290612c738682613ab1565b6002556040805180820190915260008082526020820152825160208085015190830152600f0b8152825187908490612cac908390613d04565b600f0b9052508515612cc057602083018690525b6000888152600360209081526040909120845181546001600160801b0319166001600160801b0390911617815590840151600190910155612d02888285611fc6565b338715801590612d2457506004856004811115612d2157612d21613d6e565b14155b15612dce576040516323b872dd60e01b81526001600160a01b038281166004830152306024830152604482018a90527f000000000000000000000000000000000000000000000000000000000000000016906323b872dd906064016020604051808303816000875af1158015612d9e573d6000803e3d6000fd5b505050506040513d601f19601f82011682018060405250810190612dc29190613a67565b612dce57612dce613a02565b8360200151816001600160a01b03167fff04ccafc360e16b67d682d17bd9503c4c6b9a131f6be6325762dc9ffc7de6248b8b8942604051612e129493929190613d84565b60405180910390a37f5e2aa66efd74cce82b21852e317e5490d9ecc9e6bb953ae24d90851258cc2f5c83612e468a82613ab1565b6040805192835260208301919091520160405180910390a1505050505050505050565b60008281526008602052604081205480612e87576000915050610bae565b600084815260076020526040812082633b9aca008110612ea957612ea96139ec565b60408051608081018252600392909202929092018054600f81810b8452600160801b909104900b602083015260018101549282018390526002015460608201529150612ef59085613dc2565b8160200151612f049190613c1f565b81518290612f13908390613cb4565b600f90810b90915282516000910b12159050612f2e57600081525b51600f0b9150610bae9050565b606060405180610120016040528060fd81526020016140fd60fd9139905080612f6387613254565b604051602001612f74929190613e01565b604051602081830303815290604052905080612f8f86613254565b604051602001612fa0929190613e7d565b604051602081830303815290604052905080612fbb85613254565b604051602001612fcc929190613efd565b604051602081830303815290604052905080612fe784613254565b604051602001612ff8929190613f7e565b6040516020818303038152906040529050600061304761301788613254565b8461302185613352565b60405160200161303393929190613fd9565b604051602081830303815290604052613352565b90508060405160200161305a91906140a3565b60405160208183030381529060405291505095945050505050565b6000818152600f60205260409020546001600160a01b0383811691161461309e5761309e613a02565b6000818152601060205260409020546001600160a01b031615611a9f57600090815260106020526040902080546001600160a01b031916905550565b6000818152600f60205260409020546001600160a01b0383811691161461310357613103613a02565b6000818152600f6020526040902080546001600160a01b031916905561312982826134b8565b6001600160a01b0382166000908152601160205260408120805460019290613152908490613a50565b90915550505050565b6000818152600f60205260409020546001600160a01b03161561318057613180613a02565b6000818152600f6020908152604080832080546001600160a01b0319166001600160a01b038716908117909155808452601180845282852080546012865284872081885286528487208890558787526013865293862093909355908452909152805460019290613152908490613ab1565b60006001600160a01b03831661320957613209613a02565b613213838361315b565b60405182906001600160a01b038516906000907fddf252ad1be2c89b69c2b068fc378daa952ba7f163c4a11628f55a4df523b3ef908290a450600192915050565b6060816132785750506040805180820190915260018152600360fc1b602082015290565b8160005b81156132a2578061328c81613d53565b915061329b9050600a83613afe565b915061327c565b60008167ffffffffffffffff8111156132bd576132bd6137d3565b6040519080825280601f01601f1916602001820160405280156132e7576020820181803683370190505b5090505b841561104c576132fc600183613a50565b9150613309600a866140e8565b613314906030613ab1565b60f81b818381518110613329576133296139ec565b60200101906001600160f81b031916908160001a90535061334b600a86613afe565b94506132eb565b805160609080613372575050604080516020810190915260008152919050565b60006003613381836002613ab1565b61338b9190613afe565b613396906004613ac9565b905060006133a5826020613ab1565b67ffffffffffffffff8111156133bd576133bd6137d3565b6040519080825280601f01601f1916602001820160405280156133e7576020820181803683370190505b50905060006040518060600160405280604081526020016141fa604091399050600181016020830160005b86811015613473576003818a01810151603f601282901c8116860151600c83901c8216870151600684901c831688015192909316870151600891821b60ff94851601821b92841692909201901b91160160e01b835260049092019101613412565b50600386066001811461348d576002811461349e576134aa565b613d3d60f01b6001198301526134aa565b603d60f81b6000198301525b505050918152949350505050565b6001600160a01b0382166000908152601160205260408120546134dd90600190613a50565b6000838152601360205260409020549091508082141561352d576001600160a01b0384166000908152601260209081526040808320858452825280832083905585835260139091528120556118aa565b6001600160a01b039390931660009081526012602090815260408083209383529281528282208054868452848420819055835260139091528282209490945592839055908252812055565b82805461358490613ba6565b90600052602060002090601f0160209004810192826135a657600085556135ec565b82601f106135bf57805160ff19168380011785556135ec565b828001600101855582156135ec579182015b828111156135ec5782518255916020019190600101906135d1565b506135f89291506135fc565b5090565b5b808211156135f857600081556001016135fd565b6001600160e01b03198116811461362757600080fd5b50565b60006020828403121561363c57600080fd5b8135610f0881613611565b60005b8381101561366257818101518382015260200161364a565b838111156118aa5750506000910152565b6000815180845261368b816020860160208601613647565b601f01601f19169290920160200192915050565b602081526000610f086020830184613673565b6000602082840312156136c457600080fd5b5035919050565b6001600160a01b038116811461362757600080fd5b600080604083850312156136f357600080fd5b82356136fe816136cb565b946020939093013593505050565b6000806040838503121561371f57600080fd5b50508035926020909101359150565b60006020828403121561374057600080fd5b8135610f08816136cb565b60008060006060848603121561376057600080fd5b833561376b816136cb565b9250602084013561377b816136cb565b929592945050506040919091013590565b801515811461362757600080fd5b600080604083850312156137ad57600080fd5b82356137b8816136cb565b915060208301356137c88161378c565b809150509250929050565b634e487b7160e01b600052604160045260246000fd5b600067ffffffffffffffff80841115613804576138046137d3565b604051601f8501601f19908116603f0116810190828211818310171561382c5761382c6137d3565b8160405280935085815286868601111561384557600080fd5b858560208301376000602087830101525050509392505050565b6000806000806080858703121561387557600080fd5b8435613880816136cb565b93506020850135613890816136cb565b925060408501359150606085013567ffffffffffffffff8111156138b357600080fd5b8501601f810187136138c457600080fd5b6138d3878235602084016137e9565b91505092959194509250565b6000602082840312156138f157600080fd5b813567ffffffffffffffff81111561390857600080fd5b8201601f8101841361391957600080fd5b61104c848235602084016137e9565b60008060006060848603121561393d57600080fd5b83359250602084013591506040840135613956816136cb565b809150509250925092565b6000806040838503121561397457600080fd5b823561397f816136cb565b915060208301356137c8816136cb565b60208082526019908201527f636f6e7472616374206d75737420626520756e6c6f636b656400000000000000604082015260600190565b6020808252600c908201526b15539055551213d49256915160a21b604082015260600190565b634e487b7160e01b600052603260045260246000fd5b634e487b7160e01b600052600160045260246000fd5b602080825260089082015267185d1d1858da195960c21b604082015260600190565b634e487b7160e01b600052601160045260246000fd5b600082821015613a6257613a62613a3a565b500390565b600060208284031215613a7957600080fd5b8151610f088161378c565b6001600160a01b0393841681529190921660208201526001600160e01b0319909116604082015260600190565b60008219821115613ac457613ac4613a3a565b500190565b6000816000190483118215151615613ae357613ae3613a3a565b500290565b634e487b7160e01b600052601260045260246000fd5b600082613b0d57613b0d613ae8565b500490565b60208082526024908201527f43616e6e6f742061646420746f2065787069726564206c6f636b2e20576974686040820152636472617760e01b606082015260800190565b6001600160a01b03858116825284166020820152604081018390526080606082018190526000906112e290830184613673565b600060208284031215613b9b57600080fd5b8151610f0881613611565b600181811c90821680613bba57607f821691505b60208210811415613bdb57634e487b7160e01b600052602260045260246000fd5b50919050565b600081600f0b83600f0b80613bf857613bf8613ae8565b60016001607f1b0319821460001982141615613c1657613c16613a3a565b90059392505050565b600081600f0b83600f0b60016001607f1b03600082136000841383830485118282161615613c4f57613c4f613a3a565b60016001607f1b03196000851282811687830587121615613c7257613c72613a3a565b60008712925085820587128484161615613c8e57613c8e613a3a565b85850587128184161615613ca457613ca4613a3a565b5050509290910295945050505050565b600081600f0b83600f0b600081128160016001607f1b031901831281151615613cdf57613cdf613a3a565b8160016001607f1b03018313811615613cfa57613cfa613a3a565b5090039392505050565b600081600f0b83600f0b600082128260016001607f1b0303821381151615613d2e57613d2e613a3a565b8260016001607f1b0319038212811615613d4a57613d4a613a3a565b50019392505050565b6000600019821415613d6757613d67613a3a565b5060010190565b634e487b7160e01b600052602160045260246000fd5b848152602081018490526080810160058410613db057634e487b7160e01b600052602160045260246000fd5b60408201939093526060015292915050565b60008083128015600160ff1b850184121615613de057613de0613a3a565b6001600160ff1b0384018313811615613dfb57613dfb613a3a565b50500390565b60008351613e13818460208801613647565b6503a37b5b2b7160d51b9083019081528351613e36816006840160208801613647565b7f3c2f746578743e3c7465787420783d2231302220793d2234302220636c61737360069290910191820152671e913130b9b2911f60c11b6026820152602e01949350505050565b60008351613e8f818460208801613647565b6903130b630b731b2a7b3160b51b9083019081528351613eb681600a840160208801613647565b7f3c2f746578743e3c7465787420783d2231302220793d2236302220636c617373600a9290910191820152671e913130b9b2911f60c11b602a820152603201949350505050565b60008351613f0f818460208801613647565b6a03637b1b5b2b22fb2b732160ad1b9083019081528351613f3781600b840160208801613647565b7f3c2f746578743e3c7465787420783d2231302220793d2238302220636c617373600b9290910191820152671e913130b9b2911f60c11b602b820152603301949350505050565b60008351613f90818460208801613647565b6503b30b63ab2960d51b9083019081528351613fb3816006840160208801613647565b6c1e17ba32bc3a1f1e17b9bb339f60991b60069290910191820152601301949350505050565b707b226e616d65223a20224261646765202360781b81528351600090614006816011850160208901613647565b72111610113232b9b1b934b83a34b7b7111d101160691b6011918401918201528451614039816024840160208901613647565b7f222c2022696d616765223a2022646174613a696d6167652f7376672b786d6c3b602492909101918201526618985cd94d8d0b60ca1b6044820152835161408781604b840160208801613647565b61227d60f01b604b9290910191820152604d0195945050505050565b7f646174613a6170706c69636174696f6e2f6a736f6e3b6261736536342c0000008152600082516140db81601d850160208701613647565b91909101601d0192915050565b6000826140f7576140f7613ae8565b50069056fe3c73766720786d6c6e733d22687474703a2f2f7777772e77332e6f72672f323030302f73766722207072657365727665417370656374526174696f3d22784d696e594d696e206d656574222076696577426f783d223020302033353020333530223e3c7374796c653e2e62617365207b2066696c6c3a2077686974653b20666f6e742d66616d696c793a2073657269663b20666f6e742d73697a653a20313470783b207d3c2f7374796c653e3c726563742077696474683d223130302522206865696768743d2231303025222066696c6c3d22626c61636b22202f3e3c7465787420783d2231302220793d2232302220636c6173733d2262617365223e4142434445464748494a4b4c4d4e4f505152535455565758595a6162636465666768696a6b6c6d6e6f707172737475767778797a303132333435363738392b2fa26469706673582212203b1197f2e50c0056be68097f89594e67d71fa52bb168f6efde350e7ef7db3a3f64736f6c634300080b0033ddf252ad1be2c89b69c2b068fc378daa952ba7f163c4a11628f55a4df523b3ef",
  "devdoc": {
    "kind": "dev",
    "methods": {
      "approve(address,uint256)": {
        "details": "Set or reaffirm the approved address for an NFT. The zero address indicates there is no approved address.      Throws unless `msg.sender` is the current NFT owner, or an authorized operator of the current owner.      Throws if `_tokenId` is not a valid NFT. (NOTE: This is not written the EIP)      Throws if `_approved` is the current owner. (NOTE: This is not written the EIP)",
        "params": {
          "_approved": "Address to be approved for the given NFT ID.",
          "_tokenId": "ID of the token to be approved."
        }
      },
      "balanceOf(address)": {
        "details": "Returns the number of NFTs owned by `_owner`.      Throws if `_owner` is the zero address. NFTs assigned to the zero address are considered invalid.",
        "params": {
          "_owner": "Address for whom to query the balance."
        }
      },
      "constructor": {
        "params": {
          "AUTHORITY_": "`Authority`  address",
          "GOVERNANCE_": "`GOVERNANCE`  address",
          "TOKEN_ADDR_": "`ERC20APHRA` token address"
        }
      },
      "create_lock(uint256,uint256)": {
        "params": {
          "_lock_duration": "Number of seconds to lock tokens for (rounded down to nearest week)",
          "_value": "Amount to deposit"
        }
      },
      "create_lock_for(uint256,uint256,address)": {
        "params": {
          "_lock_duration": "Number of seconds to lock tokens for (rounded down to nearest week)",
          "_to": "Address to deposit",
          "_value": "Amount to deposit"
        }
      },
      "deposit_for(uint256,uint256)": {
        "details": "Anyone (even a smart contract) can deposit for someone else, but      cannot extend their locktime and deposit for a brand new user",
        "params": {
          "_tokenId": "lock NFT",
          "_value": "Amount to add to user's lock"
        }
      },
      "getApproved(uint256)": {
        "details": "Get the approved address for a single NFT.",
        "params": {
          "_tokenId": "ID of the NFT to query the approval of."
        }
      },
      "get_last_user_slope(uint256)": {
        "params": {
          "_tokenId": "token of the NFT"
        },
        "returns": {
          "_0": "Value of the slope"
        }
      },
      "increase_amount(uint256,uint256)": {
        "params": {
          "_value": "Amount of tokens to deposit and add to the lock"
        }
      },
      "increase_unlock_time(uint256,uint256)": {
        "params": {
          "_lock_duration": "New number of seconds until tokens unlock"
        }
      },
      "isApprovedForAll(address,address)": {
        "details": "Checks if `_operator` is an approved operator for `_owner`.",
        "params": {
          "_operator": "The address that acts on behalf of the owner.",
          "_owner": "The address that owns the NFTs."
        }
      },
      "locked__end(uint256)": {
        "params": {
          "_tokenId": "User NFT"
        },
        "returns": {
          "_0": "Epoch time of the lock end"
        }
      },
      "ownerOf(uint256)": {
        "details": "Returns the address of the owner of the NFT.",
        "params": {
          "_tokenId": "The identifier for an NFT."
        }
      },
      "safeTransferFrom(address,address,uint256)": {
        "details": "Transfers the ownership of an NFT from one address to another address.      Throws unless `msg.sender` is the current owner, an authorized operator, or the      approved address for this NFT.      Throws if `_from` is not the current owner.      Throws if `_to` is the zero address.      Throws if `_tokenId` is not a valid NFT.      If `_to` is a smart contract, it calls `onERC721Received` on `_to` and throws if      the return value is not `bytes4(keccak256(\"onERC721Received(address,address,uint,bytes)\"))`.",
        "params": {
          "_from": "The current owner of the NFT.",
          "_to": "The new owner.",
          "_tokenId": "The NFT to transfer."
        }
      },
      "safeTransferFrom(address,address,uint256,bytes)": {
        "details": "Transfers the ownership of an NFT from one address to another address.      Throws unless `msg.sender` is the current owner, an authorized operator, or the      approved address for this NFT.      Throws if `_from` is not the current owner.      Throws if `_to` is the zero address.      Throws if `_tokenId` is not a valid NFT.      If `_to` is a smart contract, it calls `onERC721Received` on `_to` and throws if      the return value is not `bytes4(keccak256(\"onERC721Received(address,address,uint,bytes)\"))`.",
        "params": {
          "_data": "Additional data with no specified format, sent in call to `_to`.",
          "_from": "The current owner of the NFT.",
          "_to": "The new owner.",
          "_tokenId": "The NFT to transfer."
        }
      },
      "setApprovalForAll(address,bool)": {
        "details": "Enables or disables approval for a third party (\"operator\") to manage all of      `msg.sender`'s assets. It also emits the ApprovalForAll event.      Throws if `_operator` is the `msg.sender`. (NOTE: This is not written the EIP)",
        "params": {
          "_approved": "True if the operators is approved, false to revoke approval.",
          "_operator": "Address to add to the set of authorized operators."
        }
      },
      "supportsInterface(bytes4)": {
        "details": "Interface identification is specified in ERC-165.",
        "params": {
          "_interfaceID": "Id of the interface"
        }
      },
      "tokenOfOwnerByIndex(address,uint256)": {
        "details": "Get token by index"
      },
      "tokenURI(uint256)": {
        "details": "Returns current token URI metadata",
        "params": {
          "_tokenId": "Token ID to fetch URI for."
        }
      },
      "totalSupplyAt(uint256)": {
        "params": {
          "_block": "Block to calculate the total voting power at"
        },
        "returns": {
          "_0": "Total voting power at `_block`"
        }
      },
      "totalSupplyAtT(uint256)": {
        "details": "Adheres to the ERC20 `totalSupply` interface for Aragon compatibility",
        "returns": {
          "_0": "Total voting power"
        }
      },
      "transferFrom(address,address,uint256)": {
        "details": "Throws unless `msg.sender` is the current owner, an authorized operator, or the approved address for this NFT.      Throws if `_from` is not the current owner.      Throws if `_to` is the zero address.      Throws if `_tokenId` is not a valid NFT.",
        "params": {
          "_from": "The current owner of the NFT.",
          "_to": "The new owner.",
          "_tokenId": "The NFT to transfer."
        }
      },
      "user_point_history__ts(uint256,uint256)": {
        "params": {
          "_idx": "User epoch number",
          "_tokenId": "token of the NFT"
        },
        "returns": {
          "_0": "Epoch time of the checkpoint"
        }
      },
      "withdraw(uint256)": {
        "details": "Only possible if the lock has expired"
      }
    },
    "stateVariables": {
      "ERC165_INTERFACE_ID": {
        "details": "ERC165 interface ID of ERC165"
      },
      "ERC721_INTERFACE_ID": {
        "details": "ERC165 interface ID of ERC721"
      },
      "ERC721_METADATA_INTERFACE_ID": {
        "details": "ERC165 interface ID of ERC721Metadata"
      },
      "_not_entered": {
        "details": "reentrancy guard"
      },
      "idToApprovals": {
        "details": "Mapping from NFT ID to approved address."
      },
      "idToOwner": {
        "details": "Mapping from NFT ID to the address that owns it."
      },
      "name": {
        "details": "Returns the token collection name."
      },
      "ownerToNFTokenCount": {
        "details": "Mapping from owner address to count of his tokens."
      },
      "ownerToNFTokenIdList": {
        "details": "Mapping from owner address to mapping of index to tokenIds"
      },
      "ownerToOperators": {
        "details": "Mapping from owner address to mapping of operator addresses."
      },
      "supportedInterfaces": {
        "details": "Mapping of interface id to bool about whether or not it's supported"
      },
      "symbol": {
        "details": "Returns the token collection symbol."
      },
      "tokenId": {
        "details": "Current count of token"
      },
      "tokenToOwnerIndex": {
        "details": "Mapping from NFT ID to index of owner"
      }
    },
    "version": 1
  },
  "userdoc": {
    "kind": "user",
    "methods": {
      "checkpoint()": {
        "notice": "Record global data to checkpoint"
      },
      "constructor": {
        "notice": "Contract constructor"
      },
      "create_lock(uint256,uint256)": {
        "notice": "Deposit `_value` tokens for `msg.sender` and lock for `_lock_duration`"
      },
      "create_lock_for(uint256,uint256,address)": {
        "notice": "Deposit `_value` tokens for `_to` and lock for `_lock_duration`"
      },
      "deposit_for(uint256,uint256)": {
        "notice": "Deposit `_value` tokens for `_tokenId` and add to the lock"
      },
      "get_last_user_slope(uint256)": {
        "notice": "Get the most recently recorded rate of voting power decrease for `_tokenId`"
      },
      "increase_amount(uint256,uint256)": {
        "notice": "Deposit `_value` additional tokens for `_tokenId` without modifying the unlock time"
      },
      "increase_unlock_time(uint256,uint256)": {
        "notice": "Extend the unlock time for `_tokenId`"
      },
      "locked__end(uint256)": {
        "notice": "Get timestamp when `_tokenId`'s lock finishes"
      },
      "setApprovalForAll(address,bool)": {
        "notice": "This works even if sender doesn't own any tokens at the time."
      },
      "totalSupplyAt(uint256)": {
        "notice": "Calculate total voting power at some point in the past"
      },
      "totalSupplyAtT(uint256)": {
        "notice": "Calculate total voting power"
      },
      "transferFrom(address,address,uint256)": {
        "notice": "The caller is responsible to confirm that `_to` is capable of receiving NFTs or else        they maybe be permanently lost."
      },
      "user_point_history__ts(uint256,uint256)": {
        "notice": "Get the timestamp for checkpoint `_idx` for `_tokenId`"
      },
      "withdraw(uint256)": {
        "notice": "Withdraw all tokens for `_tokenId`"
      }
    },
    "version": 1
  },
  "storageLayout": {
    "storage": [
      {
        "astId": 17,
        "contract": "srcBuild/veAPHRA.sol:veAPHRA",
        "label": "owner",
        "offset": 0,
        "slot": "0",
        "type": "t_address"
      },
      {
        "astId": 20,
        "contract": "srcBuild/veAPHRA.sol:veAPHRA",
        "label": "authority",
        "offset": 0,
        "slot": "1",
        "type": "t_contract(Authority)171"
      },
      {
        "astId": 10705,
        "contract": "srcBuild/veAPHRA.sol:veAPHRA",
        "label": "supply",
        "offset": 0,
        "slot": "2",
        "type": "t_uint256"
      },
      {
        "astId": 10710,
        "contract": "srcBuild/veAPHRA.sol:veAPHRA",
        "label": "locked",
        "offset": 0,
        "slot": "3",
        "type": "t_mapping(t_uint256,t_struct(LockedBalance)10638_storage)"
      },
      {
        "astId": 10714,
        "contract": "srcBuild/veAPHRA.sol:veAPHRA",
        "label": "ownership_change",
        "offset": 0,
        "slot": "4",
        "type": "t_mapping(t_uint256,t_uint256)"
      },
      {
        "astId": 10716,
        "contract": "srcBuild/veAPHRA.sol:veAPHRA",
        "label": "epoch",
        "offset": 0,
        "slot": "5",
        "type": "t_uint256"
      },
      {
        "astId": 10721,
        "contract": "srcBuild/veAPHRA.sol:veAPHRA",
        "label": "point_history",
        "offset": 0,
        "slot": "6",
        "type": "t_mapping(t_uint256,t_struct(Point)10633_storage)"
      },
      {
        "astId": 10728,
        "contract": "srcBuild/veAPHRA.sol:veAPHRA",
        "label": "user_point_history",
        "offset": 0,
        "slot": "7",
        "type": "t_mapping(t_uint256,t_array(t_struct(Point)10633_storage)1000000000_storage)"
      },
      {
        "astId": 10732,
        "contract": "srcBuild/veAPHRA.sol:veAPHRA",
        "label": "user_point_epoch",
        "offset": 0,
        "slot": "8",
        "type": "t_mapping(t_uint256,t_uint256)"
      },
      {
        "astId": 10736,
        "contract": "srcBuild/veAPHRA.sol:veAPHRA",
        "label": "slope_changes",
        "offset": 0,
        "slot": "9",
        "type": "t_mapping(t_uint256,t_int128)"
      },
      {
        "astId": 10740,
        "contract": "srcBuild/veAPHRA.sol:veAPHRA",
        "label": "attachments",
        "offset": 0,
        "slot": "10",
        "type": "t_mapping(t_uint256,t_uint256)"
      },
      {
        "astId": 10744,
        "contract": "srcBuild/veAPHRA.sol:veAPHRA",
        "label": "voted",
        "offset": 0,
        "slot": "11",
        "type": "t_mapping(t_uint256,t_bool)"
      },
      {
        "astId": 10746,
        "contract": "srcBuild/veAPHRA.sol:veAPHRA",
        "label": "voter",
        "offset": 0,
        "slot": "12",
        "type": "t_address"
      },
      {
        "astId": 10760,
        "contract": "srcBuild/veAPHRA.sol:veAPHRA",
        "label": "badgeDescription",
        "offset": 0,
        "slot": "13",
        "type": "t_string_storage"
      },
      {
        "astId": 10763,
        "contract": "srcBuild/veAPHRA.sol:veAPHRA",
        "label": "tokenId",
        "offset": 0,
        "slot": "14",
        "type": "t_uint256"
      },
      {
        "astId": 10768,
        "contract": "srcBuild/veAPHRA.sol:veAPHRA",
        "label": "idToOwner",
        "offset": 0,
        "slot": "15",
        "type": "t_mapping(t_uint256,t_address)"
      },
      {
        "astId": 10773,
        "contract": "srcBuild/veAPHRA.sol:veAPHRA",
        "label": "idToApprovals",
        "offset": 0,
        "slot": "16",
        "type": "t_mapping(t_uint256,t_address)"
      },
      {
        "astId": 10778,
        "contract": "srcBuild/veAPHRA.sol:veAPHRA",
        "label": "ownerToNFTokenCount",
        "offset": 0,
        "slot": "17",
        "type": "t_mapping(t_address,t_uint256)"
      },
      {
        "astId": 10785,
        "contract": "srcBuild/veAPHRA.sol:veAPHRA",
        "label": "ownerToNFTokenIdList",
        "offset": 0,
        "slot": "18",
        "type": "t_mapping(t_address,t_mapping(t_uint256,t_uint256))"
      },
      {
        "astId": 10790,
        "contract": "srcBuild/veAPHRA.sol:veAPHRA",
        "label": "tokenToOwnerIndex",
        "offset": 0,
        "slot": "19",
        "type": "t_mapping(t_uint256,t_uint256)"
      },
      {
        "astId": 10797,
        "contract": "srcBuild/veAPHRA.sol:veAPHRA",
        "label": "ownerToOperators",
        "offset": 0,
        "slot": "20",
        "type": "t_mapping(t_address,t_mapping(t_address,t_bool))"
      },
      {
        "astId": 10802,
        "contract": "srcBuild/veAPHRA.sol:veAPHRA",
        "label": "supportedInterfaces",
        "offset": 0,
        "slot": "21",
        "type": "t_mapping(t_bytes4,t_bool)"
      },
      {
        "astId": 10816,
        "contract": "srcBuild/veAPHRA.sol:veAPHRA",
        "label": "unlocked",
        "offset": 0,
        "slot": "22",
        "type": "t_bool"
      },
      {
        "astId": 10826,
        "contract": "srcBuild/veAPHRA.sol:veAPHRA",
        "label": "_entered_state",
        "offset": 1,
        "slot": "22",
        "type": "t_uint8"
      }
    ],
    "types": {
      "t_address": {
        "encoding": "inplace",
        "label": "address",
        "numberOfBytes": "20"
      },
      "t_array(t_struct(Point)10633_storage)1000000000_storage": {
        "base": "t_struct(Point)10633_storage",
        "encoding": "inplace",
        "label": "struct Point[1000000000]",
        "numberOfBytes": "96000000000"
      },
      "t_bool": {
        "encoding": "inplace",
        "label": "bool",
        "numberOfBytes": "1"
      },
      "t_bytes4": {
        "encoding": "inplace",
        "label": "bytes4",
        "numberOfBytes": "4"
      },
      "t_contract(Authority)171": {
        "encoding": "inplace",
        "label": "contract Authority",
        "numberOfBytes": "20"
      },
      "t_int128": {
        "encoding": "inplace",
        "label": "int128",
        "numberOfBytes": "16"
      },
      "t_mapping(t_address,t_bool)": {
        "encoding": "mapping",
        "key": "t_address",
        "label": "mapping(address => bool)",
        "numberOfBytes": "32",
        "value": "t_bool"
      },
      "t_mapping(t_address,t_mapping(t_address,t_bool))": {
        "encoding": "mapping",
        "key": "t_address",
        "label": "mapping(address => mapping(address => bool))",
        "numberOfBytes": "32",
        "value": "t_mapping(t_address,t_bool)"
      },
      "t_mapping(t_address,t_mapping(t_uint256,t_uint256))": {
        "encoding": "mapping",
        "key": "t_address",
        "label": "mapping(address => mapping(uint256 => uint256))",
        "numberOfBytes": "32",
        "value": "t_mapping(t_uint256,t_uint256)"
      },
      "t_mapping(t_address,t_uint256)": {
        "encoding": "mapping",
        "key": "t_address",
        "label": "mapping(address => uint256)",
        "numberOfBytes": "32",
        "value": "t_uint256"
      },
      "t_mapping(t_bytes4,t_bool)": {
        "encoding": "mapping",
        "key": "t_bytes4",
        "label": "mapping(bytes4 => bool)",
        "numberOfBytes": "32",
        "value": "t_bool"
      },
      "t_mapping(t_uint256,t_address)": {
        "encoding": "mapping",
        "key": "t_uint256",
        "label": "mapping(uint256 => address)",
        "numberOfBytes": "32",
        "value": "t_address"
      },
      "t_mapping(t_uint256,t_array(t_struct(Point)10633_storage)1000000000_storage)": {
        "encoding": "mapping",
        "key": "t_uint256",
        "label": "mapping(uint256 => struct Point[1000000000])",
        "numberOfBytes": "32",
        "value": "t_array(t_struct(Point)10633_storage)1000000000_storage"
      },
      "t_mapping(t_uint256,t_bool)": {
        "encoding": "mapping",
        "key": "t_uint256",
        "label": "mapping(uint256 => bool)",
        "numberOfBytes": "32",
        "value": "t_bool"
      },
      "t_mapping(t_uint256,t_int128)": {
        "encoding": "mapping",
        "key": "t_uint256",
        "label": "mapping(uint256 => int128)",
        "numberOfBytes": "32",
        "value": "t_int128"
      },
      "t_mapping(t_uint256,t_struct(LockedBalance)10638_storage)": {
        "encoding": "mapping",
        "key": "t_uint256",
        "label": "mapping(uint256 => struct LockedBalance)",
        "numberOfBytes": "32",
        "value": "t_struct(LockedBalance)10638_storage"
      },
      "t_mapping(t_uint256,t_struct(Point)10633_storage)": {
        "encoding": "mapping",
        "key": "t_uint256",
        "label": "mapping(uint256 => struct Point)",
        "numberOfBytes": "32",
        "value": "t_struct(Point)10633_storage"
      },
      "t_mapping(t_uint256,t_uint256)": {
        "encoding": "mapping",
        "key": "t_uint256",
        "label": "mapping(uint256 => uint256)",
        "numberOfBytes": "32",
        "value": "t_uint256"
      },
      "t_string_storage": {
        "encoding": "bytes",
        "label": "string",
        "numberOfBytes": "32"
      },
      "t_struct(LockedBalance)10638_storage": {
        "encoding": "inplace",
        "label": "struct LockedBalance",
        "members": [
          {
            "astId": 10635,
            "contract": "srcBuild/veAPHRA.sol:veAPHRA",
            "label": "amount",
            "offset": 0,
            "slot": "0",
            "type": "t_int128"
          },
          {
            "astId": 10637,
            "contract": "srcBuild/veAPHRA.sol:veAPHRA",
            "label": "end",
            "offset": 0,
            "slot": "1",
            "type": "t_uint256"
          }
        ],
        "numberOfBytes": "64"
      },
      "t_struct(Point)10633_storage": {
        "encoding": "inplace",
        "label": "struct Point",
        "members": [
          {
            "astId": 10626,
            "contract": "srcBuild/veAPHRA.sol:veAPHRA",
            "label": "bias",
            "offset": 0,
            "slot": "0",
            "type": "t_int128"
          },
          {
            "astId": 10628,
            "contract": "srcBuild/veAPHRA.sol:veAPHRA",
            "label": "slope",
            "offset": 16,
            "slot": "0",
            "type": "t_int128"
          },
          {
            "astId": 10630,
            "contract": "srcBuild/veAPHRA.sol:veAPHRA",
            "label": "ts",
            "offset": 0,
            "slot": "1",
            "type": "t_uint256"
          },
          {
            "astId": 10632,
            "contract": "srcBuild/veAPHRA.sol:veAPHRA",
            "label": "blk",
            "offset": 0,
            "slot": "2",
            "type": "t_uint256"
          }
        ],
        "numberOfBytes": "96"
      },
      "t_uint256": {
        "encoding": "inplace",
        "label": "uint256",
        "numberOfBytes": "32"
      },
      "t_uint8": {
        "encoding": "inplace",
        "label": "uint8",
        "numberOfBytes": "1"
      }
    }
  }
}