{
  "address": "0xE7D2180f8C4Ca8e011173bb260C7E08679AFeEA1",
  "abi": [
    {
      "inputs": [
        {
          "internalType": "address",
          "name": "_asset",
          "type": "address"
        },
        {
          "internalType": "address",
          "name": "_bribe",
          "type": "address"
        },
        {
          "internalType": "address",
          "name": "_ve",
          "type": "address"
        }
      ],
      "name": "createGauge",
      "outputs": [
        {
          "internalType": "address",
          "name": "",
          "type": "address"
        }
      ],
      "stateMutability": "nonpayable",
      "type": "function"
    },
    {
      "inputs": [
        {
          "internalType": "address",
          "name": "_asset",
          "type": "address"
        },
        {
          "internalType": "address",
          "name": "_bribe",
          "type": "address"
        },
        {
          "internalType": "address",
          "name": "_ve",
          "type": "address"
        },
        {
          "internalType": "address",
          "name": "_voter",
          "type": "address"
        }
      ],
      "name": "createGaugeSingle",
      "outputs": [
        {
          "internalType": "address",
          "name": "",
          "type": "address"
        }
      ],
      "stateMutability": "nonpayable",
      "type": "function"
    },
    {
      "inputs": [],
      "name": "last_gauge",
      "outputs": [
        {
          "internalType": "address",
          "name": "",
          "type": "address"
        }
      ],
      "stateMutability": "view",
      "type": "function"
    }
  ],
  "transactionHash": "0x49a191f96bdea82010b951c2efcf0d8276c969e99628c3a8ce67d15a771f0f92",
  "args": [],
  "numDeployments": 1,
  "bytecode": "0x608060405234801561001057600080fd5b50613714806100206000396000f3fe608060405234801561001057600080fd5b50600436106100415760003560e01c80631c48e0fa14610046578063730a8bdb14610075578063af4db2ec14610088575b600080fd5b6100596100543660046101c1565b61009b565b6040516001600160a01b03909116815260200160405180910390f35b600054610059906001600160a01b031681565b610059610096366004610204565b610119565b6000838383336040516100ad90610198565b6001600160a01b039485168152928416602084015290831660408301529091166060820152608001604051809103906000f0801580156100f1573d6000803e3d6000fd5b50600080546001600160a01b0319166001600160a01b03929092169182179055949350505050565b60008484848460405161012b90610198565b6001600160a01b039485168152928416602084015290831660408301529091166060820152608001604051809103906000f08015801561016f573d6000803e3d6000fd5b50600080546001600160a01b0319166001600160a01b0392909216918217905595945050505050565b6134868061025983390190565b80356001600160a01b03811681146101bc57600080fd5b919050565b6000806000606084860312156101d657600080fd5b6101df846101a5565b92506101ed602085016101a5565b91506101fb604085016101a5565b90509250925092565b6000806000806080858703121561021a57600080fd5b610223856101a5565b9350610231602086016101a5565b925061023f604086016101a5565b915061024d606086016101a5565b90509295919450925056fe61010060405260016014553480156200001757600080fd5b5060405162003486380380620034868339810160408190526200003a91620001fa565b6001600160a01b0380851660805283811660c05282811660a081905290821660e0526000805460ff1916600117905560408051637e062a3560e11b81529051620000da929163fc0c546a9160048083019260209291908290030181865afa158015620000aa573d6000803e3d6000fd5b505050506040513d601f19601f82011682018060405250810190620000d0919062000257565b83600019620000e4565b50505050620002de565b6000836001600160a01b03163b11620000fc57600080fd5b604080516001600160a01b038481166024830152604480830185905283518084039091018152606490920183526020820180516001600160e01b031663095ea7b360e01b17905291516000928392908716916200015a91906200027c565b6000604051808303816000865af19150503d806000811462000199576040519150601f19603f3d011682016040523d82523d6000602084013e6200019e565b606091505b5091509150818015620001cc575080511580620001cc575080806020019051810190620001cc9190620002ba565b620001d657600080fd5b5050505050565b80516001600160a01b0381168114620001f557600080fd5b919050565b600080600080608085870312156200021157600080fd5b6200021c85620001dd565b93506200022c60208601620001dd565b92506200023c60408601620001dd565b91506200024c60608601620001dd565b905092959194509250565b6000602082840312156200026a57600080fd5b6200027582620001dd565b9392505050565b6000825160005b818110156200029f576020818601810151858301520162000283565b81811115620002af576000828501525b509190910192915050565b600060208284031215620002cd57600080fd5b815180151581146200027557600080fd5b60805160a05160c05160e0516130db620003ab6000396000818161042701528181610b5b01528181610ba0015281816111e3015281816117cb01528181611d7d01528181611ea20152818161232c01526124440152600061039601526000818161052a01528181610de301528181610ebf01528181610f440152818161101701528181611914015281816119ad01528181611a4901528181611ae40152611cb30152600081816103d5015281816114510152818161185501528181611c2b01526122ad01526130db6000f3fe608060405234801561001057600080fd5b50600436106102695760003560e01c8063853828b611610151578063d7da4bb0116100c3578063f122977711610087578063f122977714610663578063f301af4214610676578063f7412baf14610689578063fc97a303146106b0578063fd314098146106d0578063fdb483c7146106e357600080fd5b8063d7da4bb014610616578063da09d19d1461061f578063e2bbb1581461063f578063e688639614610652578063e8111a121461065a57600080fd5b8063a495e5b511610115578063a495e5b51461058a578063aa479652146105b5578063b66503cf146105d5578063c3f81cc5146105e8578063c6f678bd146105f0578063d35e25441461060357600080fd5b8063853828b61461051d5780638dd598fb1461052557806399bcc0521461054c5780639ce43f901461055f578063a09eebd81461057f57600080fd5b80633a4b66f1116101ea5780635cbe86bc116101ae5780635cbe86bc1461048f578063638634ee1461049757806363fb415b146104aa5780636fcfff45146104ca57806370a08231146104ea57806376f4be361461050a57600080fd5b80633a4b66f1146103d05780633ca068b6146103f757806346c96aac146104225780634d5ce038146104495780635a45d0521461047c57600080fd5b8063221ca18c11610231578063221ca18c146103295780632ce9aead146103495780632e1a7d4d1461036957806331279d3d1461037e57806337d0208c1461039157600080fd5b806301316ddf1461026e5780630cdfebfa146102ba578063115c6f39146102ec57806318160ddd1461030d578063211dc32d14610316575b600080fd5b6102a061027c366004612dae565b60126020908152600092835260408084209091529082529020805460019091015482565b604080519283526020830191909152015b60405180910390f35b6102a06102c8366004612dae565b600e6020908152600092835260408084209091529082529020805460019091015482565b6102ff6102fa366004612dae565b6106f6565b6040519081526020016102b1565b6102ff600a5481565b6102ff610324366004612dda565b610863565b6102ff610337366004612e13565b60036020526000908152604090205481565b6102ff610357366004612e13565b60056020526000908152604090205481565b61037c610377366004612e30565b610af3565b005b61037c61038c366004612e5f565b610b2a565b6103b87f000000000000000000000000000000000000000000000000000000000000000081565b6040516001600160a01b0390911681526020016102b1565b6103b87f000000000000000000000000000000000000000000000000000000000000000081565b6102ff610405366004612dda565b600860209081526000928352604080842090915290825290205481565b6103b87f000000000000000000000000000000000000000000000000000000000000000081565b61046c610457366004612e13565b600d6020526000908152604090205460ff1681565b60405190151581526020016102b1565b61037c61048a366004612dae565b6111a0565b61037c6111d8565b6102ff6104a5366004612e13565b611256565b6102ff6104b8366004612e13565b60026020526000908152604090205481565b6102ff6104d8366004612e13565b600f6020526000908152604090205481565b6102ff6104f8366004612e13565b600b6020526000908152604090205481565b6102ff610518366004612e30565b61127a565b61037c6113ac565b6103b87f000000000000000000000000000000000000000000000000000000000000000081565b6102ff61055a366004612e13565b6113c7565b6102ff61056d366004612e13565b60066020526000908152604090205481565b60005460ff1661046c565b6102ff610598366004612dda565b600760209081526000928352604080842090915290825290205481565b6102ff6105c3366004612e13565b60136020526000908152604090205481565b61037c6105e3366004612dae565b611438565b61037c6117c0565b61037c6105fe366004612e30565b61183c565b6102ff610611366004612e13565b6118d1565b6102ff60015481565b6102ff61062d366004612e13565b60046020526000908152604090205481565b61037c61064d366004612f39565b611baa565b600c546102ff565b6102ff60115481565b6102ff610671366004612e13565b611f4c565b6103b8610684366004612e30565b61200c565b6102a0610697366004612e30565b6010602052600090815260409020805460019091015482565b6102ff6106be366004612e13565b60096020526000908152604090205481565b6102a06106de366004612dae565b612036565b61037c6106f1366004612f39565b612255565b6001600160a01b0382166000908152600f60205260408120548061071e57600091505061085d565b6001600160a01b0384166000908152600e602052604081208491610743600185612f71565b8152602001908152602001600020600001541161076d57610765600182612f71565b91505061085d565b6001600160a01b0384166000908152600e602090815260408083208380529091529020548310156107a257600091505061085d565b6000806107b0600184612f71565b90505b8181111561085857600060026107c98484612f71565b6107d39190612f88565b6107dd9083612f71565b6001600160a01b0388166000908152600e602090815260408083208484528252918290208251808401909352805480845260019091015491830191909152919250908714156108325750935061085d92505050565b805187111561084357819350610851565b61084e600183612f71565b92505b50506107b3565b509150505b92915050565b6001600160a01b0380831660008181526007602090815260408083209486168352938152838220549282526012815283822082805290529182205482916108a9916124e0565b6001600160a01b0384166000908152600f60205260409020549091506108d357600091505061085d565b60006108df84836106f6565b6001600160a01b0385166000908152600f60205260408120549192509061090890600190612f71565b9050600060016109188484612f71565b1115610a2757825b61092b600184612f71565b811015610a25576001600160a01b0387166000818152600e602081815260408084208685528083528185208251808401909352805483526001908101548385015295855292909152928290610981908690612faa565b815260200190815260200160002060405180604001604052908160008201548152602001600182015481525050905060006109c08b8460000151612036565b50905060006109d38c8460000151612036565b509050670de0b6b3a76400006109e98383612f71565b85602001516109f89190612fc2565b610a029190612f88565b610a0c9087612faa565b9550505050508080610a1d90612fe1565b915050610920565b505b6001600160a01b0386166000908152600e60209081526040808320858452825280832081518083019092528054808352600190910154928201929092529190610a71908a90612036565b506001600160a01b03808b166000908152600860209081526040808320938d1683529290522054909150670de0b6b3a764000090610ab09083906124e0565b610ab98b611f4c565b610ac39190612f71565b8360200151610ad29190612fc2565b610adc9190612f88565b610ae69084612faa565b9998505050505050505050565b336000908152600b6020526040812054821415610b1c5750336000908152600960205260409020545b610b268282612255565b5050565b601454600114610b3957600080fd5b6002601455336001600160a01b0383161480610b7d5750336001600160a01b037f000000000000000000000000000000000000000000000000000000000000000016145b610b8657600080fd5b60016014556040516363453ae160e01b81523060048201527f00000000000000000000000000000000000000000000000000000000000000006001600160a01b0316906363453ae190602401600060405180830381600087803b158015610bec57600080fd5b505af1158015610c00573d6000803e3d6000fd5b5050600260145550600090505b81518110156110f757610c38828281518110610c2b57610c2b612ffc565b60200260200101516124f7565b60066000858581518110610c4e57610c4e612ffc565b60200260200101516001600160a01b03166001600160a01b03168152602001908152602001600020600060056000878781518110610c8e57610c8e612ffc565b60200260200101516001600160a01b03166001600160a01b0316815260200190815260200160002060008491905055839190505550506000610ce9838381518110610cdb57610cdb612ffc565b602002602001015185610863565b90504260076000858581518110610d0257610d02612ffc565b60200260200101516001600160a01b03166001600160a01b031681526020019081526020016000206000866001600160a01b03166001600160a01b031681526020019081526020016000208190555060066000848481518110610d6757610d67612ffc565b60200260200101516001600160a01b03166001600160a01b031681526020019081526020016000205460086000858581518110610da657610da6612ffc565b6020908102919091018101516001600160a01b03908116835282820193909352604091820160009081209389168152929052902055801561107e577f00000000000000000000000000000000000000000000000000000000000000006001600160a01b0316638380edb76040518163ffffffff1660e01b8152600401602060405180830381865afa158015610e3f573d6000803e3d6000fd5b505050506040513d601f19601f82011682018060405250810190610e639190613012565b15610e9157610e8c838381518110610e7d57610e7d612ffc565b602002602001015185836126da565b61107e565b33600090815260096020526040902054801580610f35575060405163f8a0576360e01b8152600481018290527f00000000000000000000000000000000000000000000000000000000000000006001600160a01b03169063f8a0576390602401602060405180830381865afa158015610f0e573d6000803e3d6000fd5b505050506040513d601f19601f82011682018060405250810190610f329190613034565b42115b15610ffa576001600160a01b037f00000000000000000000000000000000000000000000000000000000000000001663d4e54c3b83610f7862093a806008612fc2565b6040516001600160e01b031960e085901b168152600481019290925260248201523360448201526064016020604051808303816000875af1158015610fc1573d6000803e3d6000fd5b505050506040513d601f19601f82011682018060405250810190610fe59190613034565b3360009081526009602052604090205561107c565b604051631dd33fc560e31b815260048101829052602481018390527f00000000000000000000000000000000000000000000000000000000000000006001600160a01b03169063ee99fe2890604401600060405180830381600087803b15801561106357600080fd5b505af1158015611077573d6000803e3d6000fd5b505050505b505b82828151811061109057611090612ffc565b60200260200101516001600160a01b0316336001600160a01b03167f9aa05b3d70a9e3e2f004f039648839560576334fb45c81f91b6db03ad9e2efc9836040516110dc91815260200190565b60405180910390a350806110ef81612fe1565b915050610c0d565b506001600160a01b0382166000908152600260205260408120546001805491928392611124908490612f71565b909155506111339050836118d1565b6001600160a01b0384166000908152600260205260408120829055600180549293508392909190611165908490612faa565b90915550506001600160a01b03831660009081526002602052604090205461118e9084906127c9565b6111966128d4565b5050600160145550565b6111aa8282612979565b6001600160a01b03909316600090815260066020908152604080832060059092529091209390935590915550565b336001600160a01b037f0000000000000000000000000000000000000000000000000000000000000000161461124a5760405162461bcd60e51b815260206004820152601260248201527136bab9ba10313290333937b6903b37ba32b960711b60448201526064015b60405180910390fd5b6000805460ff19169055565b6001600160a01b03811660009081526004602052604081205461085d904290612ad8565b6011546000908061128e5750600092915050565b826010600061129e600185612f71565b815260200190815260200160002060000154116112c7576112c0600182612f71565b9392505050565b6000805260106020527f6e0956cda88cad152e89927e53611735b61a5c762d1428573c6931b0a5efcb01548310156113025750600092915050565b600080611310600184612f71565b90505b818111156113a457600060026113298484612f71565b6113339190612f88565b61133d9083612f71565b60008181526010602090815260409182902082518084019093528054808452600190910154918301919091529192509087141561137e575095945050505050565b805187111561138f5781935061139d565b61139a600183612f71565b92505b5050611313565b509392505050565b336000908152600b60205260409020546113c590610af3565b565b6001600160a01b03811660009081526004602052604081205442106113ee57506000919050565b6001600160a01b038216600090815260046020526040812054611412904290612f71565b6001600160a01b0384166000908152600360205260409020549091506112c09082612fc2565b60145460011461144757600080fd5b60026014819055507f00000000000000000000000000000000000000000000000000000000000000006001600160a01b0316826001600160a01b0316141561148e57600080fd5b6000811161149b57600080fd5b6001600160a01b0382166000908152600360205260409020546114c4576114c482600042612ae7565b6114cd826124f7565b6001600160a01b038416600090815260066020908152604080832060058352818420949094559390925560049091522054421061153b5761151082333084612bd6565b61151d62093a8082612f88565b6001600160a01b0383166000908152600360205260409020556115d4565b6001600160a01b03821660009081526004602052604081205461155f904290612f71565b6001600160a01b038416600090815260036020526040812054919250906115869083612fc2565b905080831161159457600080fd5b6115a084333086612bd6565b62093a806115ae8285612faa565b6115b89190612f88565b6001600160a01b03851660009081526003602052604090205550505b6001600160a01b0382166000908152600360205260409020546115f657600080fd5b6040516370a0823160e01b81523060048201526000906001600160a01b038416906370a0823190602401602060405180830381865afa15801561163d573d6000803e3d6000fd5b505050506040513d601f19601f820116820180604052508101906116619190613034565b905061167062093a8082612f88565b6001600160a01b03841660009081526003602052604090205411156116d75760405162461bcd60e51b815260206004820152601860248201527f50726f76696465642072657761726420746f6f206869676800000000000000006044820152606401611241565b6116e462093a8042612faa565b6001600160a01b038416600090815260046020908152604080832093909355600d9052205460ff16611776576001600160a01b0383166000818152600d60205260408120805460ff19166001908117909155600c805491820181559091527fdf6966c971051c3d54ec59162606531493a51404a002842f56009d7e5cf4a8c70180546001600160a01b03191690911790555b6040518281526001600160a01b0384169033907ff70d5c697de7ea828df48e5c4573cb2194c659f1901f70110c52b066dcf508269060200160405180910390a35050600160145550565b336001600160a01b037f0000000000000000000000000000000000000000000000000000000000000000161461182d5760405162461bcd60e51b815260206004820152601260248201527136bab9ba10313290333937b6903b37ba32b960711b6044820152606401611241565b6000805460ff19166001179055565b6040516370a0823160e01b81523360048201526118ce907f00000000000000000000000000000000000000000000000000000000000000006001600160a01b0316906370a0823190602401602060405180830381865afa1580156118a4573d6000803e3d6000fd5b505050506040513d601f19601f820116820180604052508101906118c89190613034565b82611baa565b50565b6001600160a01b038116600090815260096020908152604080832054600b909252822054826064611903836028612fc2565b61190d9190612f88565b90506000807f00000000000000000000000000000000000000000000000000000000000000006001600160a01b03166318160ddd6040518163ffffffff1660e01b8152600401602060405180830381865afa158015611970573d6000803e3d6000fd5b505050506040513d601f19601f820116820180604052508101906119949190613034565b6040516331a9108f60e11b8152600481018790529091507f00000000000000000000000000000000000000000000000000000000000000006001600160a01b031690636352211e90602401602060405180830381865afa1580156119fc573d6000803e3d6000fd5b505050506040513d601f19601f82011682018060405250810190611a20919061304d565b6001600160a01b0316876001600160a01b0316148015611a405750600081115b8015611ac957507f00000000000000000000000000000000000000000000000000000000000000006001600160a01b0316638380edb76040518163ffffffff1660e01b8152600401602060405180830381865afa158015611aa5573d6000803e3d6000fd5b505050506040513d601f19601f82011682018060405250810190611ac99190613012565b15611b8c576040516339f890b560e21b8152600481018690527f00000000000000000000000000000000000000000000000000000000000000006001600160a01b03169063e7e242d490602401602060405180830381865afa158015611b33573d6000803e3d6000fd5b505050506040513d601f19601f82011682018060405250810190611b579190613034565b915060648183600a54611b6a9190612fc2565b611b749190612f88565b611b7f90603c612fc2565b611b899190612f88565b91505b611b9f611b998385612faa565b85612ad8565b979650505050505050565b60005460ff16611c085760405162461bcd60e51b815260206004820152602360248201527f54686973206761756765206973206e6f74206f70656e20666f72206465706f7360448201526269747360e81b6064820152608401611241565b601454600114611c1757600080fd5b600260145581611c2657600080fd5b611c527f0000000000000000000000000000000000000000000000000000000000000000333085612bd6565b81600a6000828254611c649190612faa565b9091555050336000908152600b602052604081208054849290611c88908490612faa565b90915550508015611dfa576040516331a9108f60e11b81526004810182905233906001600160a01b037f00000000000000000000000000000000000000000000000000000000000000001690636352211e90602401602060405180830381865afa158015611cfa573d6000803e3d6000fd5b505050506040513d601f19601f82011682018060405250810190611d1e919061304d565b6001600160a01b031614611d3157600080fd5b33600090815260096020526040902054611dda5733600081815260096020526040908190208390555163698473e360e01b81526004810183905260248101919091526001600160a01b037f0000000000000000000000000000000000000000000000000000000000000000169063698473e390604401600060405180830381600087803b158015611dc157600080fd5b505af1158015611dd5573d6000803e3d6000fd5b505050505b336000908152600960205260409020548114611df557600080fd5b611e0c565b50336000908152600960205260409020545b336000908152600260205260408120546001805491928392611e2f908490612f71565b90915550611e3e9050336118d1565b336000908152600260205260408120829055600180549293508392909190611e67908490612faa565b90915550611e77905033826127c9565b611e7f6128d4565b60405163530e389d60e11b815260048101839052336024820152604481018490527f00000000000000000000000000000000000000000000000000000000000000006001600160a01b03169063a61c713a90606401600060405180830381600087803b158015611eee57600080fd5b505af1158015611f02573d6000803e3d6000fd5b505060408051858152602081018790523393507f90890809c654f11d6e72a28fa60149770a0d11ec6c92319d6ceb2bb0a4ea1a159250015b60405180910390a25050600160145550565b600060015460001415611f7557506001600160a01b031660009081526006602052604090205490565b6001546001600160a01b03831660009081526003602090815260408083205460058352818420546004909352922054670de0b6b3a76400009291611fb891612ad8565b611fc186611256565b611fcb9190612f71565b611fd59190612fc2565b611fdf9190612fc2565b611fe99190612f88565b6001600160a01b03831660009081526006602052604090205461085d9190612faa565b600c818154811061201c57600080fd5b6000918252602090912001546001600160a01b0316905081565b6001600160a01b03821660009081526013602052604081205481908061206357600080925092505061224e565b6001600160a01b03851660009081526012602052604081208591612088600185612f71565b81526020019081526020016000206000015411612125576001600160a01b0385166000908152601260205260408120906120c3600184612f71565b81526020019081526020016000206001015460126000876001600160a01b03166001600160a01b0316815260200190815260200160002060006001846121099190612f71565b815260200190815260200160002060000154925092505061224e565b6001600160a01b038516600090815260126020908152604080832083805290915290205484101561215d57600080925092505061224e565b60008061216b600184612f71565b90505b8181111561221d57600060026121848484612f71565b61218e9190612f88565b6121989083612f71565b6001600160a01b03891660009081526012602090815260408083208484528252918290208251808401909352805480845260019091015491830191909152919250908814156121f75760208101519051909650945061224e9350505050565b805188111561220857819350612216565b612213600183612f71565b92505b505061216e565b506001600160a01b038616600090815260126020908152604080832093835292905220600181015490549093509150505b9250929050565b60145460011461226457600080fd5b600260148190555081600a600082825461227e9190612f71565b9091555050336000908152600b6020526040812080548492906122a2908490612f71565b909155506122d390507f000000000000000000000000000000000000000000000000000000000000000033846126da565b801561238d573360009081526009602052604090205481146122f457600080fd5b33600081815260096020526040808220919091555163411b1f7760e01b81526004810183905260248101919091526001600160a01b037f0000000000000000000000000000000000000000000000000000000000000000169063411b1f7790604401600060405180830381600087803b15801561237057600080fd5b505af1158015612384573d6000803e3d6000fd5b5050505061239f565b50336000908152600960205260409020545b3360009081526002602052604081205460018054919283926123c2908490612f71565b909155506123d19050336118d1565b3360009081526002602052604081208290556001805492935083929091906123fa908490612faa565b90915550503360008181526002602052604090205461241991906127c9565b6124216128d4565b604051633aa53b9160e21b815260048101839052336024820152604481018490527f00000000000000000000000000000000000000000000000000000000000000006001600160a01b03169063ea94ee4490606401600060405180830381600087803b15801561249057600080fd5b505af11580156124a4573d6000803e3d6000fd5b505060408051858152602081018790523393507ff279e6a1f5e320cca91135676d9cb6e44ca8a08c0b88342bcdb1144f6511b568925001611f3a565b6000818310156124f057816112c0565b5090919050565b6001600160a01b03811660009081526005602090815260408083205460069092528220546011548392919061252f5794909350915050565b6001600160a01b038516600090815260036020526040902054612556579442945092505050565b60006125618361127a565b9050600060016011546125749190612f71565b905060016125828383612f71565b111561265a57815b612595600183612f71565b8110156126585760008181526010602090815260409182902082518084019093528054835260010154908201819052156126455760006010816125d9856001612faa565b81526020019081526020016000206040518060400160405290816000820154815260200160018201548152505090506000806126248c8460000151866000015187602001518d612cce565b90925090506126338289612faa565b97506126408c8983612ae7565b975050505b508061265081612fe1565b91505061258a565b505b60008181526010602090815260409182902082518084019093528054835260010154908201819052156126cc5760006126ad896126968b611256565b84516126a2908a6124e0565b85602001518a612cce565b5090506126ba8186612faa565b94506126c7898642612ae7565b429550505b509196929550919350505050565b6000836001600160a01b03163b116126f157600080fd5b604080516001600160a01b038481166024830152604480830185905283518084039091018152606490920183526020820180516001600160e01b031663a9059cbb60e01b179052915160009283929087169161274d919061306a565b6000604051808303816000865af19150503d806000811461278a576040519150601f19603f3d011682016040523d82523d6000602084013e61278f565b606091505b50915091508180156127b95750805115806127b95750808060200190518101906127b99190613012565b6127c257600080fd5b5050505050565b6001600160a01b0382166000908152600f60205260409020544290801580159061282757506001600160a01b0384166000908152600e602052604081208391612813600185612f71565b815260200190815260200160002060000154145b1561286a576001600160a01b0384166000908152600e602052604081208491612851600185612f71565b81526020810191909152604001600020600101556128ce565b60408051808201825283815260208082018681526001600160a01b0388166000908152600e83528481208682529092529290209051815590516001918201556128b4908290612faa565b6001600160a01b0385166000908152600f60205260409020555b50505050565b601154428115801590612906575080601060006128f2600186612f71565b815260200190815260200160002060000154145b15612937576001546010600060018561291f9190612f71565b81526020810191909152604001600020600101555050565b604080518082018252828152600180546020808401918252600087815260109091529390932091518255915190820155612972908390612faa565b6011555050565b6001600160a01b0382166000908152600560209081526040808320546006909252822054601154839291906129b1579250905061224e565b6001600160a01b0386166000908152600360205260409020546129da57925042915061224e9050565b60006129e58361127a565b90506000612a0160016011546129fb9190612f71565b88612ad8565b9050815b81811015612ac9576000818152601060209081526040918290208251808401909352805483526001015490820181905215612ab6576000601081612a4a856001612faa565b8152602001908152602001600020604051806040016040529081600082015481526020016001820154815250509050600080612a958d8460000151866000015187602001518d612cce565b9092509050612aa48289612faa565b9750612ab18d8983612ae7565b975050505b5080612ac181612fe1565b915050612a05565b50919792965091945050505050565b60008183106124f057816112c0565b6001600160a01b0383166000908152601360205260409020548015801590612b4357506001600160a01b03841660009081526012602052604081208391612b2f600185612f71565b815260200190815260200160002060000154145b15612b6d576001600160a01b03841660009081526012602052604081208491612851600185612f71565b60408051808201825283815260208082018681526001600160a01b038816600090815260128352848120868252909252929020905181559051600191820155612bb7908290612faa565b6001600160a01b03851660009081526013602052604090205550505050565b6000846001600160a01b03163b11612bed57600080fd5b604080516001600160a01b0385811660248301528481166044830152606480830185905283518084039091018152608490920183526020820180516001600160e01b03166323b872dd60e01b1790529151600092839290881691612c51919061306a565b6000604051808303816000865af19150503d8060008114612c8e576040519150601f19603f3d011682016040523d82523d6000602084013e612c93565b606091505b5091509150818015612cbd575080511580612cbd575080806020019051810190612cbd9190613012565b612cc657600080fd5b505050505050565b6000806000612cdd87856124e0565b6001600160a01b0389166000908152600360205260409020549091508590670de0b6b3a764000090612d30612d128a896124e0565b6001600160a01b038d16600090815260046020526040902054612ad8565b6001600160a01b038c16600090815260046020526040902054612d54908690612ad8565b612d5e9190612f71565b612d689190612fc2565b612d729190612fc2565b612d7c9190612f88565b9890975095505050505050565b6001600160a01b03811681146118ce57600080fd5b8035612da981612d89565b919050565b60008060408385031215612dc157600080fd5b8235612dcc81612d89565b946020939093013593505050565b60008060408385031215612ded57600080fd5b8235612df881612d89565b91506020830135612e0881612d89565b809150509250929050565b600060208284031215612e2557600080fd5b81356112c081612d89565b600060208284031215612e4257600080fd5b5035919050565b634e487b7160e01b600052604160045260246000fd5b60008060408385031215612e7257600080fd5b8235612e7d81612d89565b915060208381013567ffffffffffffffff80821115612e9b57600080fd5b818601915086601f830112612eaf57600080fd5b813581811115612ec157612ec1612e49565b8060051b604051601f19603f83011681018181108582111715612ee657612ee6612e49565b604052918252848201925083810185019189831115612f0457600080fd5b938501935b82851015612f2957612f1a85612d9e565b84529385019392850192612f09565b8096505050505050509250929050565b60008060408385031215612f4c57600080fd5b50508035926020909101359150565b634e487b7160e01b600052601160045260246000fd5b600082821015612f8357612f83612f5b565b500390565b600082612fa557634e487b7160e01b600052601260045260246000fd5b500490565b60008219821115612fbd57612fbd612f5b565b500190565b6000816000190483118215151615612fdc57612fdc612f5b565b500290565b6000600019821415612ff557612ff5612f5b565b5060010190565b634e487b7160e01b600052603260045260246000fd5b60006020828403121561302457600080fd5b815180151581146112c057600080fd5b60006020828403121561304657600080fd5b5051919050565b60006020828403121561305f57600080fd5b81516112c081612d89565b6000825160005b8181101561308b5760208186018101518583015201613071565b8181111561309a576000828501525b50919091019291505056fea2646970667358221220c9dcef713f48dff7240004c45662d3386670b2b56439f644083cb991c5c5cdbd64736f6c634300080b0033a2646970667358221220ee127f2ba0e1d1312ba3385c134a3ada8964ffe0a964689c5d0e57a07c56c0fd64736f6c634300080b0033"
}