{
  "address": "0x27443475123dAfD7d1875a58A46bEc2E385340b1",
  "abi": [
    {
      "inputs": [
        {
          "internalType": "address",
          "name": "GOVERNANCE_",
          "type": "address"
        },
        {
          "internalType": "address",
          "name": "AUTHORITY_",
          "type": "address"
        },
        {
          "internalType": "address",
          "name": "__voter",
          "type": "address"
        },
        {
          "internalType": "address",
          "name": "__ve",
          "type": "address"
        },
        {
          "internalType": "address",
          "name": "__ve_dist",
          "type": "address"
        }
      ],
      "stateMutability": "nonpayable",
      "type": "constructor"
    },
    {
      "anonymous": false,
      "inputs": [
        {
          "indexed": true,
          "internalType": "address",
          "name": "user",
          "type": "address"
        },
        {
          "indexed": true,
          "internalType": "contract Authority",
          "name": "newAuthority",
          "type": "address"
        }
      ],
      "name": "AuthorityUpdated",
      "type": "event"
    },
    {
      "anonymous": false,
      "inputs": [
        {
          "indexed": true,
          "internalType": "address",
          "name": "sender",
          "type": "address"
        },
        {
          "indexed": false,
          "internalType": "uint256",
          "name": "weekly",
          "type": "uint256"
        },
        {
          "indexed": false,
          "internalType": "uint256",
          "name": "circulating_supply",
          "type": "uint256"
        },
        {
          "indexed": false,
          "internalType": "uint256",
          "name": "circulating_emission",
          "type": "uint256"
        }
      ],
      "name": "Mint",
      "type": "event"
    },
    {
      "anonymous": false,
      "inputs": [
        {
          "indexed": true,
          "internalType": "address",
          "name": "user",
          "type": "address"
        },
        {
          "indexed": true,
          "internalType": "address",
          "name": "newOwner",
          "type": "address"
        }
      ],
      "name": "OwnerUpdated",
      "type": "event"
    },
    {
      "inputs": [],
      "name": "_token",
      "outputs": [
        {
          "internalType": "contract underlying",
          "name": "",
          "type": "address"
        }
      ],
      "stateMutability": "view",
      "type": "function"
    },
    {
      "inputs": [],
      "name": "_ve",
      "outputs": [
        {
          "internalType": "contract ve",
          "name": "",
          "type": "address"
        }
      ],
      "stateMutability": "view",
      "type": "function"
    },
    {
      "inputs": [],
      "name": "_ve_dist",
      "outputs": [
        {
          "internalType": "contract ve_dist",
          "name": "",
          "type": "address"
        }
      ],
      "stateMutability": "view",
      "type": "function"
    },
    {
      "inputs": [],
      "name": "_voter",
      "outputs": [
        {
          "internalType": "contract voter",
          "name": "",
          "type": "address"
        }
      ],
      "stateMutability": "view",
      "type": "function"
    },
    {
      "inputs": [],
      "name": "active_period",
      "outputs": [
        {
          "internalType": "uint256",
          "name": "",
          "type": "uint256"
        }
      ],
      "stateMutability": "view",
      "type": "function"
    },
    {
      "inputs": [],
      "name": "authority",
      "outputs": [
        {
          "internalType": "contract Authority",
          "name": "",
          "type": "address"
        }
      ],
      "stateMutability": "view",
      "type": "function"
    },
    {
      "inputs": [],
      "name": "calculate_emission",
      "outputs": [
        {
          "internalType": "uint256",
          "name": "",
          "type": "uint256"
        }
      ],
      "stateMutability": "view",
      "type": "function"
    },
    {
      "inputs": [
        {
          "internalType": "uint256",
          "name": "_minted",
          "type": "uint256"
        }
      ],
      "name": "calculate_growth",
      "outputs": [
        {
          "internalType": "uint256",
          "name": "",
          "type": "uint256"
        }
      ],
      "stateMutability": "view",
      "type": "function"
    },
    {
      "inputs": [],
      "name": "circulating_emission",
      "outputs": [
        {
          "internalType": "uint256",
          "name": "",
          "type": "uint256"
        }
      ],
      "stateMutability": "view",
      "type": "function"
    },
    {
      "inputs": [],
      "name": "circulating_supply",
      "outputs": [
        {
          "internalType": "uint256",
          "name": "",
          "type": "uint256"
        }
      ],
      "stateMutability": "view",
      "type": "function"
    },
    {
      "inputs": [
        {
          "internalType": "address[]",
          "name": "initVeLocks",
          "type": "address[]"
        },
        {
          "internalType": "uint256[]",
          "name": "initVeAmounts",
          "type": "uint256[]"
        },
        {
          "internalType": "address[]",
          "name": "initToken",
          "type": "address[]"
        },
        {
          "internalType": "uint256[]",
          "name": "initTokenAmounts",
          "type": "uint256[]"
        },
        {
          "internalType": "uint256",
          "name": "max",
          "type": "uint256"
        }
      ],
      "name": "initialize",
      "outputs": [],
      "stateMutability": "nonpayable",
      "type": "function"
    },
    {
      "inputs": [
        {
          "internalType": "address",
          "name": "newMinter_",
          "type": "address"
        }
      ],
      "name": "migrateMinter",
      "outputs": [],
      "stateMutability": "nonpayable",
      "type": "function"
    },
    {
      "inputs": [],
      "name": "owner",
      "outputs": [
        {
          "internalType": "address",
          "name": "",
          "type": "address"
        }
      ],
      "stateMutability": "view",
      "type": "function"
    },
    {
      "inputs": [
        {
          "internalType": "contract Authority",
          "name": "newAuthority",
          "type": "address"
        }
      ],
      "name": "setAuthority",
      "outputs": [],
      "stateMutability": "nonpayable",
      "type": "function"
    },
    {
      "inputs": [
        {
          "internalType": "uint256",
          "name": "newEmission_",
          "type": "uint256"
        }
      ],
      "name": "setEmission",
      "outputs": [],
      "stateMutability": "nonpayable",
      "type": "function"
    },
    {
      "inputs": [
        {
          "internalType": "address",
          "name": "newOwner",
          "type": "address"
        }
      ],
      "name": "setOwner",
      "outputs": [],
      "stateMutability": "nonpayable",
      "type": "function"
    },
    {
      "inputs": [
        {
          "internalType": "uint256",
          "name": "newTailEmission_",
          "type": "uint256"
        }
      ],
      "name": "setTailEmission",
      "outputs": [],
      "stateMutability": "nonpayable",
      "type": "function"
    },
    {
      "inputs": [
        {
          "internalType": "uint256",
          "name": "newWeeklyRate_",
          "type": "uint256"
        }
      ],
      "name": "setWeeklyRate",
      "outputs": [],
      "stateMutability": "nonpayable",
      "type": "function"
    },
    {
      "inputs": [],
      "name": "update_period",
      "outputs": [
        {
          "internalType": "uint256",
          "name": "",
          "type": "uint256"
        }
      ],
      "stateMutability": "nonpayable",
      "type": "function"
    },
    {
      "inputs": [],
      "name": "weekly",
      "outputs": [
        {
          "internalType": "uint256",
          "name": "",
          "type": "uint256"
        }
      ],
      "stateMutability": "view",
      "type": "function"
    },
    {
      "inputs": [],
      "name": "weekly_emission",
      "outputs": [
        {
          "internalType": "uint256",
          "name": "",
          "type": "uint256"
        }
      ],
      "stateMutability": "view",
      "type": "function"
    }
  ],
  "transactionHash": "0x472a0f63d4a655040a3aa45be63f0de34248a9914c6ecea290c4623cf6679884",
  "args": [
    "0x2101a22A8A6f2b60eF36013eFFCef56893cea983",
    "0xcbb46b017e8d785C107e97c56135894b3eAD599C",
    "0xc226820477D8aAe987d235c4B425A13061A2aA0d",
    "0xf8fBff4918a9D96925Ef8695978fbA347df57276",
    "0xCd320C689352F8A8e6848bEd59199EAA24B7EbBB"
  ],
  "numDeployments": 1,
  "solcInputHash": "cef1625aef0f9721a6daca916ae4d020",
  "bytecode": "0x610100604052606260025560026003556984595161401484a000006004553480156200002a57600080fd5b5060405162001c3338038062001c338339810160408190526200004d91620001df565b600080546001600160a01b03199081166001600160a01b0388811691821784556001805490931690881617909155604051879287929133917f8292fce18fa69edf4db7b94ea2e58241df0ae57f97e0a6c9b29067028bf92d7691a36040516001600160a01b0382169033907fa3396fd7f6e0a21b50e5089d2da70d5ac0a3bbbd1f617a93f134b7638998019890600090a35050600680546001600160a01b0319163317905560408051637e062a3560e11b815290516001600160a01b0384169163fc0c546a9160048083019260209291908290030181865afa15801562000138573d6000803e3d6000fd5b505050506040513d601f19601f820116820180604052508101906200015e91906200024f565b6001600160a01b0390811660805283811660a05282811660c052811660e05262093a80806200018f8160016200028a565b6200019b9042620002ac565b620001a79190620002c7565b620001b391906200028a565b60055550620002ea9350505050565b80516001600160a01b0381168114620001da57600080fd5b919050565b600080600080600060a08688031215620001f857600080fd5b6200020386620001c2565b94506200021360208701620001c2565b93506200022360408701620001c2565b92506200023360608701620001c2565b91506200024360808701620001c2565b90509295509295909350565b6000602082840312156200026257600080fd5b6200026d82620001c2565b9392505050565b634e487b7160e01b600052601160045260246000fd5b6000816000190483118215151615620002a757620002a762000274565b500290565b60008219821115620002c257620002c262000274565b500190565b600082620002e557634e487b7160e01b600052601260045260246000fd5b500490565b60805160a05160c05160e051611867620003cc6000396000818161018d015281816110ba0152818161116101526111d4015260008181610247015281816103a901528181610457015281816109f701528181610b0801528181610bdd0152610dd80152600081816101d40152818161128d01526113230152600081816102d301528181610330015281816103d90152818161055a015281816107740152818161095d01528181610a8501528181610cda01528181610d6901528181610e5a01528181610f9501528181611014015281816110e9015261125e01526118676000f3fe608060405234801561001057600080fd5b50600436106101375760003560e01c80638da5cb5b116100b8578063cfc6c8ff1161007c578063cfc6c8ff146102a2578063d1399608146102aa578063ddce102f146102b3578063e038c75a146102c6578063ecd0c0c3146102ce578063ed29fc11146102f557600080fd5b80638da5cb5b1461022f5780638dd598fb146102425780638e01fbfa14610269578063bf7e214f1461027c578063cbb597381461028f57600080fd5b806336d96faf116100ff57806336d96faf146101c75780633db9b42a146101cf5780637a9e5e4b146101f657806389ebbd25146102095780638c4f598b1461021c57600080fd5b806304d9757f1461013c57806313af4035146101515780631eebae801461016457806326cfc17b1461017f5780632c6b2f0c14610188575b600080fd5b61014f61014a366004611601565b6102fd565b005b61014f61015f3660046116b6565b6106c1565b61016c610747565b6040519081526020015b60405180910390f35b61016c60045481565b6101af7f000000000000000000000000000000000000000000000000000000000000000081565b6040516001600160a01b039091168152602001610176565b61016c610770565b6101af7f000000000000000000000000000000000000000000000000000000000000000081565b61014f6102043660046116b6565b610822565b61014f6102173660046116b6565b61090c565b61014f61022a3660046116d3565b6109bc565b6000546101af906001600160a01b031681565b6101af7f000000000000000000000000000000000000000000000000000000000000000081565b61016c6102773660046116d3565b6109f3565b6001546101af906001600160a01b031681565b61014f61029d3660046116d3565b610ba2565b61016c610bd9565b61016c60055481565b61014f6102c13660046116d3565b610c80565b61016c610cb7565b6101af7f000000000000000000000000000000000000000000000000000000000000000081565b61016c610ef8565b6006546001600160a01b0316331461031457600080fd5b6040516340c10f1960e01b8152306004820152602481018290527f00000000000000000000000000000000000000000000000000000000000000006001600160a01b0316906340c10f1990604401600060405180830381600087803b15801561037c57600080fd5b505af1158015610390573d6000803e3d6000fd5b505060405163095ea7b360e01b81526001600160a01b037f00000000000000000000000000000000000000000000000000000000000000008116600483015260001960248301527f000000000000000000000000000000000000000000000000000000000000000016925063095ea7b391506044016020604051808303816000875af1158015610424573d6000803e3d6000fd5b505050506040513d601f19601f8201168201806040525081019061044891906116ec565b5060005b855181101561054b577f00000000000000000000000000000000000000000000000000000000000000006001600160a01b031663d4e54c3b8683815181106104965761049661170e565b60200260200101516303bfc4008985815181106104b5576104b561170e565b60200260200101516040518463ffffffff1660e01b81526004016104f59392919092835260208301919091526001600160a01b0316604082015260600190565b6020604051808303816000875af1158015610514573d6000803e3d6000fd5b505050506040513d601f19601f820116820180604052508101906105389190611724565b508061054381611753565b91505061044c565b5060005b8351811015610642577f00000000000000000000000000000000000000000000000000000000000000006001600160a01b031663a9059cbb8583815181106105995761059961170e565b60200260200101518584815181106105b3576105b361170e565b60200260200101516040518363ffffffff1660e01b81526004016105ec9291906001600160a01b03929092168252602082015260400190565b6020604051808303816000875af115801561060b573d6000803e3d6000fd5b505050506040513d601f19601f8201168201806040525081019061062f91906116ec565b508061063a81611753565b91505061054f565b508260018451610652919061176e565b815181106106625761066261170e565b6020908102919091010151600780546001600160a01b039092166001600160a01b031992831617905560068054909116905562093a80806106a38142611785565b6106ad919061179d565b6106b791906117bf565b6005555050505050565b6106d7336000356001600160e01b0319166113ec565b6106fc5760405162461bcd60e51b81526004016106f3906117de565b60405180910390fd5b600080546001600160a01b0319166001600160a01b0383169081178255604051909133917f8292fce18fa69edf4db7b94ea2e58241df0ae57f97e0a6c9b29067028bf92d769190a350565b60006103e8600354610757610cb7565b61076191906117bf565b61076b919061179d565b905090565b60007f00000000000000000000000000000000000000000000000000000000000000006001600160a01b03166318160ddd6040518163ffffffff1660e01b8152600401602060405180830381865afa1580156107d0573d6000803e3d6000fd5b505050506040513d601f19601f820116820180604052508101906107f49190611724565b60646107fe610cb7565b60025460045461080e91906117bf565b61081891906117bf565b610761919061179d565b6000546001600160a01b03163314806108b7575060015460405163b700961360e01b81526001600160a01b039091169063b70096139061087690339030906001600160e01b03196000351690600401611804565b602060405180830381865afa158015610893573d6000803e3d6000fd5b505050506040513d601f19601f820116820180604052508101906108b791906116ec565b6108c057600080fd5b600180546001600160a01b0319166001600160a01b03831690811790915560405133907fa3396fd7f6e0a21b50e5089d2da70d5ac0a3bbbd1f617a93f134b7638998019890600090a350565b610922336000356001600160e01b0319166113ec565b61093e5760405162461bcd60e51b81526004016106f3906117de565b604051637e51dad560e11b81526001600160a01b0382811660048301527f0000000000000000000000000000000000000000000000000000000000000000169063fca3b5aa90602401600060405180830381600087803b1580156109a157600080fd5b505af11580156109b5573d6000803e3d6000fd5b5050505050565b6109d2336000356001600160e01b0319166113ec565b6109ee5760405162461bcd60e51b81526004016106f3906117de565b600355565b60007f00000000000000000000000000000000000000000000000000000000000000006001600160a01b0316638380edb76040518163ffffffff1660e01b8152600401602060405180830381865afa158015610a53573d6000803e3d6000fd5b505050506040513d601f19601f82011682018060405250810190610a7791906116ec565b610a8357506000919050565b7f00000000000000000000000000000000000000000000000000000000000000006001600160a01b03166318160ddd6040518163ffffffff1660e01b8152600401602060405180830381865afa158015610ae1573d6000803e3d6000fd5b505050506040513d601f19601f82011682018060405250810190610b059190611724565b827f00000000000000000000000000000000000000000000000000000000000000006001600160a01b03166318160ddd6040518163ffffffff1660e01b8152600401602060405180830381865afa158015610b64573d6000803e3d6000fd5b505050506040513d601f19601f82011682018060405250810190610b889190611724565b610b9291906117bf565b610b9c919061179d565b92915050565b610bb8336000356001600160e01b0319166113ec565b610bd45760405162461bcd60e51b81526004016106f3906117de565b600455565b60007f00000000000000000000000000000000000000000000000000000000000000006001600160a01b0316638380edb76040518163ffffffff1660e01b8152600401602060405180830381865afa158015610c39573d6000803e3d6000fd5b505050506040513d601f19601f82011682018060405250810190610c5d91906116ec565b610c68575060045490565b61076b610c73610770565b610c7b610747565b611496565b610c96336000356001600160e01b0319166113ec565b610cb25760405162461bcd60e51b81526004016106f3906117de565b600255565b600080546040516370a0823160e01b81526001600160a01b0391821660048201527f0000000000000000000000000000000000000000000000000000000000000000909116906370a0823190602401602060405180830381865afa158015610d23573d6000803e3d6000fd5b505050506040513d601f19601f82011682018060405250810190610d479190611724565b6007546040516370a0823160e01b81526001600160a01b0391821660048201527f0000000000000000000000000000000000000000000000000000000000000000909116906370a0823190602401602060405180830381865afa158015610db2573d6000803e3d6000fd5b505050506040513d601f19601f82011682018060405250810190610dd69190611724565b7f00000000000000000000000000000000000000000000000000000000000000006001600160a01b03166318160ddd6040518163ffffffff1660e01b8152600401602060405180830381865afa158015610e34573d6000803e3d6000fd5b505050506040513d601f19601f82011682018060405250810190610e589190611724565b7f00000000000000000000000000000000000000000000000000000000000000006001600160a01b03166318160ddd6040518163ffffffff1660e01b8152600401602060405180830381865afa158015610eb6573d6000803e3d6000fd5b505050506040513d601f19601f82011682018060405250810190610eda9190611724565b610ee4919061176e565b610eee919061176e565b61076b919061176e565b600554600090610f0b62093a8082611785565b4210158015610f2357506006546001600160a01b0316155b156113e75762093a80610f36814261179d565b610f4091906117bf565b60058190559050610f4f610bd9565b6004819055600090610f60906109f3565b9050600060045482610f729190611785565b6040516370a0823160e01b81523060048201529091506000906001600160a01b037f000000000000000000000000000000000000000000000000000000000000000016906370a0823190602401602060405180830381865afa158015610fdc573d6000803e3d6000fd5b505050506040513d601f19601f820116820180604052508101906110009190611724565b9050818110156110a3576001600160a01b037f0000000000000000000000000000000000000000000000000000000000000000166340c10f1930611044848661176e565b6040516001600160e01b031960e085901b1681526001600160a01b0390921660048301526024820152604401600060405180830381600087803b15801561108a57600080fd5b505af115801561109e573d6000803e3d6000fd5b505050505b60405163a9059cbb60e01b81526001600160a01b037f000000000000000000000000000000000000000000000000000000000000000081166004830152602482018590527f0000000000000000000000000000000000000000000000000000000000000000169063a9059cbb906044016020604051808303816000875af1158015611132573d6000803e3d6000fd5b505050506040513d601f19601f8201168201806040525081019061115691906116ec565b61115f57600080fd5b7f00000000000000000000000000000000000000000000000000000000000000006001600160a01b031663811a40fe6040518163ffffffff1660e01b8152600401600060405180830381600087803b1580156111ba57600080fd5b505af11580156111ce573d6000803e3d6000fd5b505050507f00000000000000000000000000000000000000000000000000000000000000006001600160a01b031663b21ed5026040518163ffffffff1660e01b8152600401600060405180830381600087803b15801561122d57600080fd5b505af1158015611241573d6000803e3d6000fd5b50506004805460405163095ea7b360e01b81526001600160a01b037f000000000000000000000000000000000000000000000000000000000000000016945063095ea7b393506112c8927f00000000000000000000000000000000000000000000000000000000000000009291016001600160a01b03929092168252602082015260400190565b6020604051808303816000875af11580156112e7573d6000803e3d6000fd5b505050506040513d601f19601f8201168201806040525081019061130b91906116ec565b5060048054604051633c6b16ab60e01b8152918201527f00000000000000000000000000000000000000000000000000000000000000006001600160a01b031690633c6b16ab90602401600060405180830381600087803b15801561136f57600080fd5b505af1158015611383573d6000803e3d6000fd5b50505050336001600160a01b03167fb4c03061fb5b7fed76389d5af8f2e0ddb09f8c70d1333abbb62582835e10accb6004546113bd610cb7565b6113c5610747565b6040805193845260208401929092529082015260600160405180910390a25050505b919050565b6001546000906001600160a01b03168015801590611476575060405163b700961360e01b81526001600160a01b0382169063b70096139061143590879030908890600401611804565b602060405180830381865afa158015611452573d6000803e3d6000fd5b505050506040513d601f19601f8201168201806040525081019061147691906116ec565b8061148e57506000546001600160a01b038581169116145b949350505050565b6000818310156114a657816114a8565b825b9392505050565b634e487b7160e01b600052604160045260246000fd5b604051601f8201601f1916810167ffffffffffffffff811182821017156114ee576114ee6114af565b604052919050565b600067ffffffffffffffff821115611510576115106114af565b5060051b60200190565b6001600160a01b038116811461152f57600080fd5b50565b600082601f83011261154357600080fd5b81356020611558611553836114f6565b6114c5565b82815260059290921b8401810191818101908684111561157757600080fd5b8286015b8481101561159b57803561158e8161151a565b835291830191830161157b565b509695505050505050565b600082601f8301126115b757600080fd5b813560206115c7611553836114f6565b82815260059290921b840181019181810190868411156115e657600080fd5b8286015b8481101561159b57803583529183019183016115ea565b600080600080600060a0868803121561161957600080fd5b853567ffffffffffffffff8082111561163157600080fd5b61163d89838a01611532565b9650602088013591508082111561165357600080fd5b61165f89838a016115a6565b9550604088013591508082111561167557600080fd5b61168189838a01611532565b9450606088013591508082111561169757600080fd5b506116a4888289016115a6565b95989497509295608001359392505050565b6000602082840312156116c857600080fd5b81356114a88161151a565b6000602082840312156116e557600080fd5b5035919050565b6000602082840312156116fe57600080fd5b815180151581146114a857600080fd5b634e487b7160e01b600052603260045260246000fd5b60006020828403121561173657600080fd5b5051919050565b634e487b7160e01b600052601160045260246000fd5b60006000198214156117675761176761173d565b5060010190565b6000828210156117805761178061173d565b500390565b600082198211156117985761179861173d565b500190565b6000826117ba57634e487b7160e01b600052601260045260246000fd5b500490565b60008160001904831182151516156117d9576117d961173d565b500290565b6020808252600c908201526b15539055551213d49256915160a21b604082015260600190565b6001600160a01b0393841681529190921660208201526001600160e01b031990911660408201526060019056fea2646970667358221220e6e151fe7c2988972462e917cc37072101710c4f7bcee6f8f1d4beffec4838ef64736f6c634300080b0033",
  "devdoc": {
    "kind": "dev",
    "methods": {},
    "version": 1
  },
  "userdoc": {
    "kind": "user",
    "methods": {},
    "version": 1
  },
  "storageLayout": {
    "storage": [
      {
        "astId": 17,
        "contract": "srcBuild/Minter.sol:Minter",
        "label": "owner",
        "offset": 0,
        "slot": "0",
        "type": "t_address"
      },
      {
        "astId": 20,
        "contract": "srcBuild/Minter.sol:Minter",
        "label": "authority",
        "offset": 0,
        "slot": "1",
        "type": "t_contract(Authority)171"
      },
      {
        "astId": 1647,
        "contract": "srcBuild/Minter.sol:Minter",
        "label": "emission",
        "offset": 0,
        "slot": "2",
        "type": "t_uint256"
      },
      {
        "astId": 1650,
        "contract": "srcBuild/Minter.sol:Minter",
        "label": "tail_emission",
        "offset": 0,
        "slot": "3",
        "type": "t_uint256"
      },
      {
        "astId": 1671,
        "contract": "srcBuild/Minter.sol:Minter",
        "label": "weekly",
        "offset": 0,
        "slot": "4",
        "type": "t_uint256"
      },
      {
        "astId": 1673,
        "contract": "srcBuild/Minter.sol:Minter",
        "label": "active_period",
        "offset": 0,
        "slot": "5",
        "type": "t_uint256"
      },
      {
        "astId": 1684,
        "contract": "srcBuild/Minter.sol:Minter",
        "label": "initializer",
        "offset": 0,
        "slot": "6",
        "type": "t_address"
      },
      {
        "astId": 1686,
        "contract": "srcBuild/Minter.sol:Minter",
        "label": "airdrop",
        "offset": 0,
        "slot": "7",
        "type": "t_address"
      }
    ],
    "types": {
      "t_address": {
        "encoding": "inplace",
        "label": "address",
        "numberOfBytes": "20"
      },
      "t_contract(Authority)171": {
        "encoding": "inplace",
        "label": "contract Authority",
        "numberOfBytes": "20"
      },
      "t_uint256": {
        "encoding": "inplace",
        "label": "uint256",
        "numberOfBytes": "32"
      }
    }
  }
}