{
  "address": "0x30E017077C32F881F2dcDAE87031E7B6b3e676c7",
  "abi": [
    {
      "inputs": [
        {
          "internalType": "address",
          "name": "GOVERNANCE_",
          "type": "address"
        },
        {
          "internalType": "address",
          "name": "AUTHORITY_",
          "type": "address"
        },
        {
          "internalType": "address",
          "name": "__voter",
          "type": "address"
        },
        {
          "internalType": "address",
          "name": "__ve",
          "type": "address"
        },
        {
          "internalType": "address",
          "name": "__ve_dist",
          "type": "address"
        }
      ],
      "stateMutability": "nonpayable",
      "type": "constructor"
    },
    {
      "anonymous": false,
      "inputs": [
        {
          "indexed": true,
          "internalType": "address",
          "name": "user",
          "type": "address"
        },
        {
          "indexed": true,
          "internalType": "contract Authority",
          "name": "newAuthority",
          "type": "address"
        }
      ],
      "name": "AuthorityUpdated",
      "type": "event"
    },
    {
      "anonymous": false,
      "inputs": [
        {
          "indexed": true,
          "internalType": "address",
          "name": "sender",
          "type": "address"
        },
        {
          "indexed": false,
          "internalType": "uint256",
          "name": "weekly",
          "type": "uint256"
        },
        {
          "indexed": false,
          "internalType": "uint256",
          "name": "circulating_supply",
          "type": "uint256"
        },
        {
          "indexed": false,
          "internalType": "uint256",
          "name": "circulating_emission",
          "type": "uint256"
        }
      ],
      "name": "Mint",
      "type": "event"
    },
    {
      "anonymous": false,
      "inputs": [
        {
          "indexed": true,
          "internalType": "address",
          "name": "user",
          "type": "address"
        },
        {
          "indexed": true,
          "internalType": "address",
          "name": "newOwner",
          "type": "address"
        }
      ],
      "name": "OwnerUpdated",
      "type": "event"
    },
    {
      "inputs": [],
      "name": "_token",
      "outputs": [
        {
          "internalType": "contract underlying",
          "name": "",
          "type": "address"
        }
      ],
      "stateMutability": "view",
      "type": "function"
    },
    {
      "inputs": [],
      "name": "_ve",
      "outputs": [
        {
          "internalType": "contract ve",
          "name": "",
          "type": "address"
        }
      ],
      "stateMutability": "view",
      "type": "function"
    },
    {
      "inputs": [],
      "name": "_ve_dist",
      "outputs": [
        {
          "internalType": "contract ve_dist",
          "name": "",
          "type": "address"
        }
      ],
      "stateMutability": "view",
      "type": "function"
    },
    {
      "inputs": [],
      "name": "_voter",
      "outputs": [
        {
          "internalType": "contract voter",
          "name": "",
          "type": "address"
        }
      ],
      "stateMutability": "view",
      "type": "function"
    },
    {
      "inputs": [],
      "name": "active_period",
      "outputs": [
        {
          "internalType": "uint256",
          "name": "",
          "type": "uint256"
        }
      ],
      "stateMutability": "view",
      "type": "function"
    },
    {
      "inputs": [],
      "name": "authority",
      "outputs": [
        {
          "internalType": "contract Authority",
          "name": "",
          "type": "address"
        }
      ],
      "stateMutability": "view",
      "type": "function"
    },
    {
      "inputs": [],
      "name": "calculate_emission",
      "outputs": [
        {
          "internalType": "uint256",
          "name": "",
          "type": "uint256"
        }
      ],
      "stateMutability": "view",
      "type": "function"
    },
    {
      "inputs": [
        {
          "internalType": "uint256",
          "name": "_minted",
          "type": "uint256"
        }
      ],
      "name": "calculate_growth",
      "outputs": [
        {
          "internalType": "uint256",
          "name": "",
          "type": "uint256"
        }
      ],
      "stateMutability": "view",
      "type": "function"
    },
    {
      "inputs": [],
      "name": "circulating_emission",
      "outputs": [
        {
          "internalType": "uint256",
          "name": "",
          "type": "uint256"
        }
      ],
      "stateMutability": "view",
      "type": "function"
    },
    {
      "inputs": [],
      "name": "circulating_supply",
      "outputs": [
        {
          "internalType": "uint256",
          "name": "",
          "type": "uint256"
        }
      ],
      "stateMutability": "view",
      "type": "function"
    },
    {
      "inputs": [
        {
          "internalType": "address[]",
          "name": "initVeLocks",
          "type": "address[]"
        },
        {
          "internalType": "uint256[]",
          "name": "initVeAmounts",
          "type": "uint256[]"
        },
        {
          "internalType": "address[]",
          "name": "initToken",
          "type": "address[]"
        },
        {
          "internalType": "uint256[]",
          "name": "initTokenAmounts",
          "type": "uint256[]"
        },
        {
          "internalType": "uint256",
          "name": "max",
          "type": "uint256"
        }
      ],
      "name": "initialize",
      "outputs": [],
      "stateMutability": "nonpayable",
      "type": "function"
    },
    {
      "inputs": [],
      "name": "owner",
      "outputs": [
        {
          "internalType": "address",
          "name": "",
          "type": "address"
        }
      ],
      "stateMutability": "view",
      "type": "function"
    },
    {
      "inputs": [
        {
          "internalType": "contract Authority",
          "name": "newAuthority",
          "type": "address"
        }
      ],
      "name": "setAuthority",
      "outputs": [],
      "stateMutability": "nonpayable",
      "type": "function"
    },
    {
      "inputs": [
        {
          "internalType": "uint256",
          "name": "newEmission_",
          "type": "uint256"
        }
      ],
      "name": "setEmission",
      "outputs": [],
      "stateMutability": "nonpayable",
      "type": "function"
    },
    {
      "inputs": [
        {
          "internalType": "address",
          "name": "newOwner",
          "type": "address"
        }
      ],
      "name": "setOwner",
      "outputs": [],
      "stateMutability": "nonpayable",
      "type": "function"
    },
    {
      "inputs": [
        {
          "internalType": "uint256",
          "name": "newTailEmission_",
          "type": "uint256"
        }
      ],
      "name": "setTailEmission",
      "outputs": [],
      "stateMutability": "nonpayable",
      "type": "function"
    },
    {
      "inputs": [
        {
          "internalType": "address",
          "name": "newVoter_",
          "type": "address"
        }
      ],
      "name": "setVoter",
      "outputs": [],
      "stateMutability": "nonpayable",
      "type": "function"
    },
    {
      "inputs": [
        {
          "internalType": "uint256",
          "name": "newWeeklyRate_",
          "type": "uint256"
        }
      ],
      "name": "setWeeklyRate",
      "outputs": [],
      "stateMutability": "nonpayable",
      "type": "function"
    },
    {
      "inputs": [
        {
          "internalType": "address",
          "name": "newMinter_",
          "type": "address"
        }
      ],
      "name": "tokenMigrateMinter",
      "outputs": [],
      "stateMutability": "nonpayable",
      "type": "function"
    },
    {
      "inputs": [],
      "name": "update_period",
      "outputs": [
        {
          "internalType": "uint256",
          "name": "",
          "type": "uint256"
        }
      ],
      "stateMutability": "nonpayable",
      "type": "function"
    },
    {
      "inputs": [
        {
          "internalType": "address",
          "name": "newMinter_",
          "type": "address"
        }
      ],
      "name": "ve_distMigrateDepositor",
      "outputs": [],
      "stateMutability": "nonpayable",
      "type": "function"
    },
    {
      "inputs": [
        {
          "internalType": "address",
          "name": "newMinter_",
          "type": "address"
        }
      ],
      "name": "voterMigrateMinter",
      "outputs": [],
      "stateMutability": "nonpayable",
      "type": "function"
    },
    {
      "inputs": [],
      "name": "weekly",
      "outputs": [
        {
          "internalType": "uint256",
          "name": "",
          "type": "uint256"
        }
      ],
      "stateMutability": "view",
      "type": "function"
    },
    {
      "inputs": [],
      "name": "weekly_emission",
      "outputs": [
        {
          "internalType": "uint256",
          "name": "",
          "type": "uint256"
        }
      ],
      "stateMutability": "view",
      "type": "function"
    }
  ],
  "transactionHash": "0xec32d10ba29feac57d0a41c11f029fa9f0c9f67966268f7aa7b55d7bbbb282a1",
  "args": [
    "0x4d03Fb78BdA67a04f1bD6fDE5024759D8Ce8D866",
    "0xcbb46b017e8d785C107e97c56135894b3eAD599C",
    "0x89549e232AAcC4579F93B65735A9349038a47775",
    "0xf2feC13CDB46760E065DDC1DF9dA16Cb87AFD61f",
    "0x0b788AcE4C2680FaD13167cC1ADB7fA57eB52A67"
  ],
  "numDeployments": 1,
  "solcInputHash": "96c161a6ede853ab53f3892f6e3ca4d4",
  "bytecode": "0x60e0604052606260025560026003556984595161401484a000006005553480156200002957600080fd5b5060405162001d7138038062001d718339810160408190526200004c91620001ec565b600080546001600160a01b03199081166001600160a01b0388811691821784556001805490931690881617909155604051879287929133917f8292fce18fa69edf4db7b94ea2e58241df0ae57f97e0a6c9b29067028bf92d7691a36040516001600160a01b0382169033907fa3396fd7f6e0a21b50e5089d2da70d5ac0a3bbbd1f617a93f134b7638998019890600090a35050600780546001600160a01b0319163317905560408051637e062a3560e11b815290516001600160a01b0384169163fc0c546a9160048083019260209291908290030181865afa15801562000137573d6000803e3d6000fd5b505050506040513d601f19601f820116820180604052508101906200015d91906200025c565b6001600160a01b03908116608052600480546001600160a01b03191685831617905582811660a052811660c05262093a80806200019c81600162000297565b620001a89042620002b9565b620001b49190620002d4565b620001c0919062000297565b60065550620002f79350505050565b80516001600160a01b0381168114620001e757600080fd5b919050565b600080600080600060a086880312156200020557600080fd5b6200021086620001cf565b94506200022060208701620001cf565b93506200023060408701620001cf565b92506200024060608701620001cf565b91506200025060808701620001cf565b90509295509295909350565b6000602082840312156200026f57600080fd5b6200027a82620001cf565b9392505050565b634e487b7160e01b600052601160045260246000fd5b6000816000190483118215151615620002b457620002b462000281565b500290565b60008219821115620002cf57620002cf62000281565b500190565b600082620002f257634e487b7160e01b600052601260045260246000fd5b500490565b60805160a05160c0516119a9620003c8600039600081816101ae01528181610a2f01528181611246015281816112ed015261136001526000818161028d015281816103ef0152818161049d01528181610b8301528181610c9401528181610d690152610f64015260008181610319015281816103760152818161041f015281816105a0015281816107c5015281816109af01528181610c1101528181610e6601528181610ef501528181610fe601528181611121015281816111a00152818161127501526113fc01526119a96000f3fe608060405234801561001057600080fd5b50600436106101585760003560e01c80638c4f598b116100c3578063cfc6c8ff1161007c578063cfc6c8ff146102e8578063d1399608146102f0578063ddce102f146102f9578063e038c75a1461030c578063ecd0c0c314610314578063ed29fc111461033b57600080fd5b80638c4f598b146102625780638da5cb5b146102755780638dd598fb146102885780638e01fbfa146102af578063bf7e214f146102c2578063cbb59738146102d557600080fd5b80633db9b42a116101155780633db9b42a146101f05780634bc2a6571461020357806361e11cc7146102165780637313d71614610229578063795e64411461023c5780637a9e5e4b1461024f57600080fd5b806304d9757f1461015d57806313af4035146101725780631eebae801461018557806326cfc17b146101a05780632c6b2f0c146101a957806336d96faf146101e8575b600080fd5b61017061016b366004611743565b610343565b005b6101706101803660046117f8565b610712565b61018d610798565b6040519081526020015b60405180910390f35b61018d60055481565b6101d07f000000000000000000000000000000000000000000000000000000000000000081565b6040516001600160a01b039091168152602001610197565b61018d6107c1565b6004546101d0906001600160a01b031681565b6101706102113660046117f8565b610873565b6101706102243660046117f8565b6108c7565b6101706102373660046117f8565b61095e565b61017061024a3660046117f8565b6109de565b61017061025d3660046117f8565b610a5e565b610170610270366004611815565b610b48565b6000546101d0906001600160a01b031681565b6101d07f000000000000000000000000000000000000000000000000000000000000000081565b61018d6102bd366004611815565b610b7f565b6001546101d0906001600160a01b031681565b6101706102e3366004611815565b610d2e565b61018d610d65565b61018d60065481565b610170610307366004611815565b610e0c565b61018d610e43565b6101d07f000000000000000000000000000000000000000000000000000000000000000081565b61018d611084565b6007546001600160a01b0316331461035a57600080fd5b6040516340c10f1960e01b8152306004820152602481018290527f00000000000000000000000000000000000000000000000000000000000000006001600160a01b0316906340c10f1990604401600060405180830381600087803b1580156103c257600080fd5b505af11580156103d6573d6000803e3d6000fd5b505060405163095ea7b360e01b81526001600160a01b037f00000000000000000000000000000000000000000000000000000000000000008116600483015260001960248301527f000000000000000000000000000000000000000000000000000000000000000016925063095ea7b391506044016020604051808303816000875af115801561046a573d6000803e3d6000fd5b505050506040513d601f19601f8201168201806040525081019061048e919061182e565b5060005b8551811015610591577f00000000000000000000000000000000000000000000000000000000000000006001600160a01b031663d4e54c3b8683815181106104dc576104dc611850565b60200260200101516303bfc4008985815181106104fb576104fb611850565b60200260200101516040518463ffffffff1660e01b815260040161053b9392919092835260208301919091526001600160a01b0316604082015260600190565b6020604051808303816000875af115801561055a573d6000803e3d6000fd5b505050506040513d601f19601f8201168201806040525081019061057e9190611866565b508061058981611895565b915050610492565b5060005b8351811015610688577f00000000000000000000000000000000000000000000000000000000000000006001600160a01b031663a9059cbb8583815181106105df576105df611850565b60200260200101518584815181106105f9576105f9611850565b60200260200101516040518363ffffffff1660e01b81526004016106329291906001600160a01b03929092168252602082015260400190565b6020604051808303816000875af1158015610651573d6000803e3d6000fd5b505050506040513d601f19601f82011682018060405250810190610675919061182e565b508061068081611895565b915050610595565b50826001845161069891906118b0565b815181106106a8576106a8611850565b6020908102919091010151600880546001600160a01b039092166001600160a01b031992831617905560078054909116905562093a80806106ea8160016118c7565b6106f490426118e6565b6106fe91906118fe565b61070891906118c7565b6006555050505050565b610728336000356001600160e01b03191661152e565b61074d5760405162461bcd60e51b815260040161074490611920565b60405180910390fd5b600080546001600160a01b0319166001600160a01b0383169081178255604051909133917f8292fce18fa69edf4db7b94ea2e58241df0ae57f97e0a6c9b29067028bf92d769190a350565b60006103e86003546107a8610e43565b6107b291906118c7565b6107bc91906118fe565b905090565b60007f00000000000000000000000000000000000000000000000000000000000000006001600160a01b03166318160ddd6040518163ffffffff1660e01b8152600401602060405180830381865afa158015610821573d6000803e3d6000fd5b505050506040513d601f19601f820116820180604052508101906108459190611866565b606461084f610e43565b60025460055461085f91906118c7565b61086991906118c7565b6107b291906118fe565b610889336000356001600160e01b03191661152e565b6108a55760405162461bcd60e51b815260040161074490611920565b600480546001600160a01b0319166001600160a01b0392909216919091179055565b6108dd336000356001600160e01b03191661152e565b6108f95760405162461bcd60e51b815260040161074490611920565b600480546040516389ebbd2560e01b81526001600160a01b03848116938201939093529116906389ebbd25906024015b600060405180830381600087803b15801561094357600080fd5b505af1158015610957573d6000803e3d6000fd5b5050505050565b610974336000356001600160e01b03191661152e565b6109905760405162461bcd60e51b815260040161074490611920565b604051637e51dad560e11b81526001600160a01b0382811660048301527f0000000000000000000000000000000000000000000000000000000000000000169063fca3b5aa90602401610929565b6109f4336000356001600160e01b03191661152e565b610a105760405162461bcd60e51b815260040161074490611920565b60405163f2c098b760e01b81526001600160a01b0382811660048301527f0000000000000000000000000000000000000000000000000000000000000000169063f2c098b790602401610929565b6000546001600160a01b0316331480610af3575060015460405163b700961360e01b81526001600160a01b039091169063b700961390610ab290339030906001600160e01b03196000351690600401611946565b602060405180830381865afa158015610acf573d6000803e3d6000fd5b505050506040513d601f19601f82011682018060405250810190610af3919061182e565b610afc57600080fd5b600180546001600160a01b0319166001600160a01b03831690811790915560405133907fa3396fd7f6e0a21b50e5089d2da70d5ac0a3bbbd1f617a93f134b7638998019890600090a350565b610b5e336000356001600160e01b03191661152e565b610b7a5760405162461bcd60e51b815260040161074490611920565b600355565b60007f00000000000000000000000000000000000000000000000000000000000000006001600160a01b0316638380edb76040518163ffffffff1660e01b8152600401602060405180830381865afa158015610bdf573d6000803e3d6000fd5b505050506040513d601f19601f82011682018060405250810190610c03919061182e565b610c0f57506000919050565b7f00000000000000000000000000000000000000000000000000000000000000006001600160a01b03166318160ddd6040518163ffffffff1660e01b8152600401602060405180830381865afa158015610c6d573d6000803e3d6000fd5b505050506040513d601f19601f82011682018060405250810190610c919190611866565b827f00000000000000000000000000000000000000000000000000000000000000006001600160a01b03166318160ddd6040518163ffffffff1660e01b8152600401602060405180830381865afa158015610cf0573d6000803e3d6000fd5b505050506040513d601f19601f82011682018060405250810190610d149190611866565b610d1e91906118c7565b610d2891906118fe565b92915050565b610d44336000356001600160e01b03191661152e565b610d605760405162461bcd60e51b815260040161074490611920565b600555565b60007f00000000000000000000000000000000000000000000000000000000000000006001600160a01b0316638380edb76040518163ffffffff1660e01b8152600401602060405180830381865afa158015610dc5573d6000803e3d6000fd5b505050506040513d601f19601f82011682018060405250810190610de9919061182e565b610df4575060055490565b6107bc610dff6107c1565b610e07610798565b6115d8565b610e22336000356001600160e01b03191661152e565b610e3e5760405162461bcd60e51b815260040161074490611920565b600255565b600080546040516370a0823160e01b81526001600160a01b0391821660048201527f0000000000000000000000000000000000000000000000000000000000000000909116906370a0823190602401602060405180830381865afa158015610eaf573d6000803e3d6000fd5b505050506040513d601f19601f82011682018060405250810190610ed39190611866565b6008546040516370a0823160e01b81526001600160a01b0391821660048201527f0000000000000000000000000000000000000000000000000000000000000000909116906370a0823190602401602060405180830381865afa158015610f3e573d6000803e3d6000fd5b505050506040513d601f19601f82011682018060405250810190610f629190611866565b7f00000000000000000000000000000000000000000000000000000000000000006001600160a01b03166318160ddd6040518163ffffffff1660e01b8152600401602060405180830381865afa158015610fc0573d6000803e3d6000fd5b505050506040513d601f19601f82011682018060405250810190610fe49190611866565b7f00000000000000000000000000000000000000000000000000000000000000006001600160a01b03166318160ddd6040518163ffffffff1660e01b8152600401602060405180830381865afa158015611042573d6000803e3d6000fd5b505050506040513d601f19601f820116820180604052508101906110669190611866565b61107091906118b0565b61107a91906118b0565b6107bc91906118b0565b60065460009061109762093a80826118e6565b42101580156110af57506007546001600160a01b0316155b156115295762093a806110c281426118fe565b6110cc91906118c7565b600681905590506110db610d65565b60058190556000906110ec90610b7f565b90506000600554826110fe91906118e6565b6040516370a0823160e01b81523060048201529091506000906001600160a01b037f000000000000000000000000000000000000000000000000000000000000000016906370a0823190602401602060405180830381865afa158015611168573d6000803e3d6000fd5b505050506040513d601f19601f8201168201806040525081019061118c9190611866565b90508181101561122f576001600160a01b037f0000000000000000000000000000000000000000000000000000000000000000166340c10f19306111d084866118b0565b6040516001600160e01b031960e085901b1681526001600160a01b0390921660048301526024820152604401600060405180830381600087803b15801561121657600080fd5b505af115801561122a573d6000803e3d6000fd5b505050505b60405163a9059cbb60e01b81526001600160a01b037f000000000000000000000000000000000000000000000000000000000000000081166004830152602482018590527f0000000000000000000000000000000000000000000000000000000000000000169063a9059cbb906044016020604051808303816000875af11580156112be573d6000803e3d6000fd5b505050506040513d601f19601f820116820180604052508101906112e2919061182e565b6112eb57600080fd5b7f00000000000000000000000000000000000000000000000000000000000000006001600160a01b031663811a40fe6040518163ffffffff1660e01b8152600401600060405180830381600087803b15801561134657600080fd5b505af115801561135a573d6000803e3d6000fd5b505050507f00000000000000000000000000000000000000000000000000000000000000006001600160a01b031663b21ed5026040518163ffffffff1660e01b8152600401600060405180830381600087803b1580156113b957600080fd5b505af11580156113cd573d6000803e3d6000fd5b50506004805460055460405163095ea7b360e01b81526001600160a01b039283169381019390935260248301527f000000000000000000000000000000000000000000000000000000000000000016925063095ea7b391506044016020604051808303816000875af1158015611447573d6000803e3d6000fd5b505050506040513d601f19601f8201168201806040525081019061146b919061182e565b5060048054600554604051633c6b16ab60e01b8152928301526001600160a01b031690633c6b16ab90602401600060405180830381600087803b1580156114b157600080fd5b505af11580156114c5573d6000803e3d6000fd5b50505050336001600160a01b03167fb4c03061fb5b7fed76389d5af8f2e0ddb09f8c70d1333abbb62582835e10accb6005546114ff610e43565b611507610798565b6040805193845260208401929092529082015260600160405180910390a25050505b919050565b6001546000906001600160a01b031680158015906115b8575060405163b700961360e01b81526001600160a01b0382169063b70096139061157790879030908890600401611946565b602060405180830381865afa158015611594573d6000803e3d6000fd5b505050506040513d601f19601f820116820180604052508101906115b8919061182e565b806115d057506000546001600160a01b038581169116145b949350505050565b6000818310156115e857816115ea565b825b9392505050565b634e487b7160e01b600052604160045260246000fd5b604051601f8201601f1916810167ffffffffffffffff81118282101715611630576116306115f1565b604052919050565b600067ffffffffffffffff821115611652576116526115f1565b5060051b60200190565b6001600160a01b038116811461167157600080fd5b50565b600082601f83011261168557600080fd5b8135602061169a61169583611638565b611607565b82815260059290921b840181019181810190868411156116b957600080fd5b8286015b848110156116dd5780356116d08161165c565b83529183019183016116bd565b509695505050505050565b600082601f8301126116f957600080fd5b8135602061170961169583611638565b82815260059290921b8401810191818101908684111561172857600080fd5b8286015b848110156116dd578035835291830191830161172c565b600080600080600060a0868803121561175b57600080fd5b853567ffffffffffffffff8082111561177357600080fd5b61177f89838a01611674565b9650602088013591508082111561179557600080fd5b6117a189838a016116e8565b955060408801359150808211156117b757600080fd5b6117c389838a01611674565b945060608801359150808211156117d957600080fd5b506117e6888289016116e8565b95989497509295608001359392505050565b60006020828403121561180a57600080fd5b81356115ea8161165c565b60006020828403121561182757600080fd5b5035919050565b60006020828403121561184057600080fd5b815180151581146115ea57600080fd5b634e487b7160e01b600052603260045260246000fd5b60006020828403121561187857600080fd5b5051919050565b634e487b7160e01b600052601160045260246000fd5b60006000198214156118a9576118a961187f565b5060010190565b6000828210156118c2576118c261187f565b500390565b60008160001904831182151516156118e1576118e161187f565b500290565b600082198211156118f9576118f961187f565b500190565b60008261191b57634e487b7160e01b600052601260045260246000fd5b500490565b6020808252600c908201526b15539055551213d49256915160a21b604082015260600190565b6001600160a01b0393841681529190921660208201526001600160e01b031990911660408201526060019056fea2646970667358221220b20da9df2b390267f5a8f90521e841ed60fccc5a83235c9d3e04b5df43a9bfba64736f6c634300080b0033",
  "devdoc": {
    "kind": "dev",
    "methods": {},
    "version": 1
  },
  "userdoc": {
    "kind": "user",
    "methods": {},
    "version": 1
  },
  "storageLayout": {
    "storage": [
      {
        "astId": 17,
        "contract": "srcBuild/Minter.sol:Minter",
        "label": "owner",
        "offset": 0,
        "slot": "0",
        "type": "t_address"
      },
      {
        "astId": 20,
        "contract": "srcBuild/Minter.sol:Minter",
        "label": "authority",
        "offset": 0,
        "slot": "1",
        "type": "t_contract(Authority)171"
      },
      {
        "astId": 6463,
        "contract": "srcBuild/Minter.sol:Minter",
        "label": "emission",
        "offset": 0,
        "slot": "2",
        "type": "t_uint256"
      },
      {
        "astId": 6466,
        "contract": "srcBuild/Minter.sol:Minter",
        "label": "tail_emission",
        "offset": 0,
        "slot": "3",
        "type": "t_uint256"
      },
      {
        "astId": 6478,
        "contract": "srcBuild/Minter.sol:Minter",
        "label": "_voter",
        "offset": 0,
        "slot": "4",
        "type": "t_contract(voter)6441"
      },
      {
        "astId": 6487,
        "contract": "srcBuild/Minter.sol:Minter",
        "label": "weekly",
        "offset": 0,
        "slot": "5",
        "type": "t_uint256"
      },
      {
        "astId": 6489,
        "contract": "srcBuild/Minter.sol:Minter",
        "label": "active_period",
        "offset": 0,
        "slot": "6",
        "type": "t_uint256"
      },
      {
        "astId": 6500,
        "contract": "srcBuild/Minter.sol:Minter",
        "label": "initializer",
        "offset": 0,
        "slot": "7",
        "type": "t_address"
      },
      {
        "astId": 6502,
        "contract": "srcBuild/Minter.sol:Minter",
        "label": "airdrop",
        "offset": 0,
        "slot": "8",
        "type": "t_address"
      }
    ],
    "types": {
      "t_address": {
        "encoding": "inplace",
        "label": "address",
        "numberOfBytes": "20"
      },
      "t_contract(Authority)171": {
        "encoding": "inplace",
        "label": "contract Authority",
        "numberOfBytes": "20"
      },
      "t_contract(voter)6441": {
        "encoding": "inplace",
        "label": "contract voter",
        "numberOfBytes": "20"
      },
      "t_uint256": {
        "encoding": "inplace",
        "label": "uint256",
        "numberOfBytes": "32"
      }
    }
  }
}