{
  "address": "0x8510428264BBe8cA512099425427e8E31Bf56B9A",
  "abi": [
    {
      "inputs": [
        {
          "internalType": "contract ERC20",
          "name": "UNDERLYING_",
          "type": "address"
        },
        {
          "internalType": "address",
          "name": "GOVERNANCE_",
          "type": "address"
        },
        {
          "internalType": "contract Authority",
          "name": "AUTHORITY_",
          "type": "address"
        },
        {
          "internalType": "address",
          "name": "POOL_",
          "type": "address"
        },
        {
          "internalType": "address",
          "name": "XVADER_",
          "type": "address"
        },
        {
          "internalType": "address",
          "name": "VADERGATEWAY_",
          "type": "address"
        },
        {
          "internalType": "address",
          "name": "UNIROUTER_",
          "type": "address"
        },
        {
          "internalType": "address",
          "name": "WETH_",
          "type": "address"
        }
      ],
      "stateMutability": "nonpayable",
      "type": "constructor"
    },
    {
      "anonymous": false,
      "inputs": [
        {
          "indexed": true,
          "internalType": "address",
          "name": "owner",
          "type": "address"
        },
        {
          "indexed": true,
          "internalType": "address",
          "name": "spender",
          "type": "address"
        },
        {
          "indexed": false,
          "internalType": "uint256",
          "name": "amount",
          "type": "uint256"
        }
      ],
      "name": "Approval",
      "type": "event"
    },
    {
      "anonymous": false,
      "inputs": [
        {
          "indexed": true,
          "internalType": "address",
          "name": "user",
          "type": "address"
        },
        {
          "indexed": true,
          "internalType": "contract Authority",
          "name": "newAuthority",
          "type": "address"
        }
      ],
      "name": "AuthorityUpdated",
      "type": "event"
    },
    {
      "anonymous": false,
      "inputs": [
        {
          "indexed": true,
          "internalType": "address",
          "name": "user",
          "type": "address"
        },
        {
          "indexed": true,
          "internalType": "address",
          "name": "newOwner",
          "type": "address"
        }
      ],
      "name": "OwnerUpdated",
      "type": "event"
    },
    {
      "anonymous": false,
      "inputs": [
        {
          "indexed": true,
          "internalType": "address",
          "name": "from",
          "type": "address"
        },
        {
          "indexed": true,
          "internalType": "address",
          "name": "to",
          "type": "address"
        },
        {
          "indexed": false,
          "internalType": "uint256",
          "name": "amount",
          "type": "uint256"
        }
      ],
      "name": "Transfer",
      "type": "event"
    },
    {
      "inputs": [],
      "name": "DAI",
      "outputs": [
        {
          "internalType": "contract ERC20",
          "name": "",
          "type": "address"
        }
      ],
      "stateMutability": "view",
      "type": "function"
    },
    {
      "inputs": [],
      "name": "DOMAIN_SEPARATOR",
      "outputs": [
        {
          "internalType": "bytes32",
          "name": "",
          "type": "bytes32"
        }
      ],
      "stateMutability": "view",
      "type": "function"
    },
    {
      "inputs": [],
      "name": "PERMIT_TYPEHASH",
      "outputs": [
        {
          "internalType": "bytes32",
          "name": "",
          "type": "bytes32"
        }
      ],
      "stateMutability": "view",
      "type": "function"
    },
    {
      "inputs": [],
      "name": "POOL",
      "outputs": [
        {
          "internalType": "contract ICurve",
          "name": "",
          "type": "address"
        }
      ],
      "stateMutability": "view",
      "type": "function"
    },
    {
      "inputs": [],
      "name": "UNISWAP",
      "outputs": [
        {
          "internalType": "contract IUniswap",
          "name": "",
          "type": "address"
        }
      ],
      "stateMutability": "view",
      "type": "function"
    },
    {
      "inputs": [],
      "name": "USDC",
      "outputs": [
        {
          "internalType": "contract ERC20",
          "name": "",
          "type": "address"
        }
      ],
      "stateMutability": "view",
      "type": "function"
    },
    {
      "inputs": [],
      "name": "USDT",
      "outputs": [
        {
          "internalType": "contract ERC20",
          "name": "",
          "type": "address"
        }
      ],
      "stateMutability": "view",
      "type": "function"
    },
    {
      "inputs": [],
      "name": "USDV",
      "outputs": [
        {
          "internalType": "contract ERC20",
          "name": "",
          "type": "address"
        }
      ],
      "stateMutability": "view",
      "type": "function"
    },
    {
      "inputs": [],
      "name": "VADERGATEWAY",
      "outputs": [
        {
          "internalType": "contract IVaderMinter",
          "name": "",
          "type": "address"
        }
      ],
      "stateMutability": "view",
      "type": "function"
    },
    {
      "inputs": [],
      "name": "WETH",
      "outputs": [
        {
          "internalType": "contract ERC20",
          "name": "",
          "type": "address"
        }
      ],
      "stateMutability": "view",
      "type": "function"
    },
    {
      "inputs": [],
      "name": "XVADER",
      "outputs": [
        {
          "internalType": "contract IXVader",
          "name": "",
          "type": "address"
        }
      ],
      "stateMutability": "view",
      "type": "function"
    },
    {
      "inputs": [
        {
          "internalType": "address",
          "name": "",
          "type": "address"
        },
        {
          "internalType": "address",
          "name": "",
          "type": "address"
        }
      ],
      "name": "allowance",
      "outputs": [
        {
          "internalType": "uint256",
          "name": "",
          "type": "uint256"
        }
      ],
      "stateMutability": "view",
      "type": "function"
    },
    {
      "inputs": [
        {
          "internalType": "address",
          "name": "spender",
          "type": "address"
        },
        {
          "internalType": "uint256",
          "name": "amount",
          "type": "uint256"
        }
      ],
      "name": "approve",
      "outputs": [
        {
          "internalType": "bool",
          "name": "",
          "type": "bool"
        }
      ],
      "stateMutability": "nonpayable",
      "type": "function"
    },
    {
      "inputs": [],
      "name": "authority",
      "outputs": [
        {
          "internalType": "contract Authority",
          "name": "",
          "type": "address"
        }
      ],
      "stateMutability": "view",
      "type": "function"
    },
    {
      "inputs": [
        {
          "internalType": "address",
          "name": "",
          "type": "address"
        }
      ],
      "name": "balanceOf",
      "outputs": [
        {
          "internalType": "uint256",
          "name": "",
          "type": "uint256"
        }
      ],
      "stateMutability": "view",
      "type": "function"
    },
    {
      "inputs": [
        {
          "internalType": "address",
          "name": "user",
          "type": "address"
        }
      ],
      "name": "balanceOfUnderlying",
      "outputs": [
        {
          "internalType": "uint256",
          "name": "",
          "type": "uint256"
        }
      ],
      "stateMutability": "view",
      "type": "function"
    },
    {
      "inputs": [],
      "name": "decimals",
      "outputs": [
        {
          "internalType": "uint8",
          "name": "",
          "type": "uint8"
        }
      ],
      "stateMutability": "view",
      "type": "function"
    },
    {
      "inputs": [
        {
          "internalType": "uint256",
          "name": "ethAmount_",
          "type": "uint256"
        }
      ],
      "name": "ethToUnderlying",
      "outputs": [
        {
          "internalType": "uint256",
          "name": "",
          "type": "uint256"
        }
      ],
      "stateMutability": "view",
      "type": "function"
    },
    {
      "inputs": [
        {
          "internalType": "uint256",
          "name": "vAmount_",
          "type": "uint256"
        },
        {
          "internalType": "int128",
          "name": "exitCoin_",
          "type": "int128"
        },
        {
          "internalType": "address[]",
          "name": "pathToVader_",
          "type": "address[]"
        }
      ],
      "name": "hit",
      "outputs": [],
      "stateMutability": "nonpayable",
      "type": "function"
    },
    {
      "inputs": [],
      "name": "isCEther",
      "outputs": [
        {
          "internalType": "bool",
          "name": "",
          "type": "bool"
        }
      ],
      "stateMutability": "pure",
      "type": "function"
    },
    {
      "inputs": [
        {
          "internalType": "uint256",
          "name": "amount",
          "type": "uint256"
        }
      ],
      "name": "mint",
      "outputs": [
        {
          "internalType": "uint256",
          "name": "",
          "type": "uint256"
        }
      ],
      "stateMutability": "nonpayable",
      "type": "function"
    },
    {
      "inputs": [],
      "name": "name",
      "outputs": [
        {
          "internalType": "string",
          "name": "",
          "type": "string"
        }
      ],
      "stateMutability": "view",
      "type": "function"
    },
    {
      "inputs": [
        {
          "internalType": "address",
          "name": "",
          "type": "address"
        }
      ],
      "name": "nonces",
      "outputs": [
        {
          "internalType": "uint256",
          "name": "",
          "type": "uint256"
        }
      ],
      "stateMutability": "view",
      "type": "function"
    },
    {
      "inputs": [],
      "name": "owner",
      "outputs": [
        {
          "internalType": "address",
          "name": "",
          "type": "address"
        }
      ],
      "stateMutability": "view",
      "type": "function"
    },
    {
      "inputs": [
        {
          "internalType": "address",
          "name": "owner",
          "type": "address"
        },
        {
          "internalType": "address",
          "name": "spender",
          "type": "address"
        },
        {
          "internalType": "uint256",
          "name": "value",
          "type": "uint256"
        },
        {
          "internalType": "uint256",
          "name": "deadline",
          "type": "uint256"
        },
        {
          "internalType": "uint8",
          "name": "v",
          "type": "uint8"
        },
        {
          "internalType": "bytes32",
          "name": "r",
          "type": "bytes32"
        },
        {
          "internalType": "bytes32",
          "name": "s",
          "type": "bytes32"
        }
      ],
      "name": "permit",
      "outputs": [],
      "stateMutability": "nonpayable",
      "type": "function"
    },
    {
      "inputs": [
        {
          "internalType": "uint256",
          "name": "amount",
          "type": "uint256"
        }
      ],
      "name": "redeemUnderlying",
      "outputs": [
        {
          "internalType": "uint256",
          "name": "",
          "type": "uint256"
        }
      ],
      "stateMutability": "nonpayable",
      "type": "function"
    },
    {
      "inputs": [
        {
          "internalType": "contract Authority",
          "name": "newAuthority",
          "type": "address"
        }
      ],
      "name": "setAuthority",
      "outputs": [],
      "stateMutability": "nonpayable",
      "type": "function"
    },
    {
      "inputs": [
        {
          "internalType": "address",
          "name": "newOwner",
          "type": "address"
        }
      ],
      "name": "setOwner",
      "outputs": [],
      "stateMutability": "nonpayable",
      "type": "function"
    },
    {
      "inputs": [],
      "name": "symbol",
      "outputs": [
        {
          "internalType": "string",
          "name": "",
          "type": "string"
        }
      ],
      "stateMutability": "view",
      "type": "function"
    },
    {
      "inputs": [],
      "name": "totalSupply",
      "outputs": [
        {
          "internalType": "uint256",
          "name": "",
          "type": "uint256"
        }
      ],
      "stateMutability": "view",
      "type": "function"
    },
    {
      "inputs": [
        {
          "internalType": "address",
          "name": "to",
          "type": "address"
        },
        {
          "internalType": "uint256",
          "name": "amount",
          "type": "uint256"
        }
      ],
      "name": "transfer",
      "outputs": [
        {
          "internalType": "bool",
          "name": "",
          "type": "bool"
        }
      ],
      "stateMutability": "nonpayable",
      "type": "function"
    },
    {
      "inputs": [
        {
          "internalType": "address",
          "name": "from",
          "type": "address"
        },
        {
          "internalType": "address",
          "name": "to",
          "type": "address"
        },
        {
          "internalType": "uint256",
          "name": "amount",
          "type": "uint256"
        }
      ],
      "name": "transferFrom",
      "outputs": [
        {
          "internalType": "bool",
          "name": "",
          "type": "bool"
        }
      ],
      "stateMutability": "nonpayable",
      "type": "function"
    },
    {
      "inputs": [],
      "name": "underlying",
      "outputs": [
        {
          "internalType": "contract ERC20",
          "name": "",
          "type": "address"
        }
      ],
      "stateMutability": "view",
      "type": "function"
    }
  ],
  "transactionHash": "0x85112a7f2b353ae576bc4185e91f7a5c9967755a0ab3e0739873a9c2a3dfe041",
  "args": [
    "0x2602278EE1882889B946eb11DC0E810075650983",
    "0x1594B6Fd7C346376E51C4Cf46525a9c57c5ea916",
    "0xcbb46b017e8d785C107e97c56135894b3eAD599C",
    "0x7abD51BbA7f9F6Ae87aC77e1eA1C5783adA56e5c",
    "0x665ff8fAA06986Bd6f1802fA6C1D2e7d780a7369",
    "0x7EDc3d43f4A0E30223226841BE67eFaEdDEF4342",
    "0x7a250d5630B4cF539739dF2C5dAcb4c659F2488D",
    "0xC02aaA39b223FE8D0A0e5C4F27eAD9083C756Cc2"
  ],
  "numDeployments": 1,
  "solcInputHash": "7c0aafb7de7b13789bc1ffce13bbe605",
  "bytecode": "0x6101c06040523480156200001257600080fd5b5060405162002f6e38038062002f6e83398101604081905262000035916200052f565b604080518082018252601381527f555344564f76657250656753747261746567790000000000000000000000000060208083019190915282518084018452601481527f61555344564f766572506567537472617465677900000000000000000000000091810191909152600080546001600160a01b03199081166001600160a01b038d8116918217845560018054909316908d16179091559351929391926012928c928c9233917f8292fce18fa69edf4db7b94ea2e58241df0ae57f97e0a6c9b29067028bf92d7691a36040516001600160a01b0382169033907fa3396fd7f6e0a21b50e5089d2da70d5ac0a3bbbd1f617a93f134b7638998019890600090a3505082516200014c90600290602086019062000470565b5081516200016290600390602085019062000470565b5060ff81166080524660a0526200017862000302565b60c0525050506001600160a01b0388811661018052678ac7230489e800006101a05285811661010052848116610140528381166101605282811661012052811660e052620001ea73ea3fb6f331735252e7bfb0b24b3b761301293dbe866000196200039e602090811b620013d017901c565b62000219736b175474e89094c44da98b954eedeac495271d0f836000196200039e602090811b620013d017901c565b6200024873a0b86991c6218b36c1d19d4a2e9eb0ce3606eb48836000196200039e602090811b620013d017901c565b6200027773dac17f958d2ee523a2206206994597c13d831ec7836000196200039e602090811b620013d017901c565b620002a08260001960e0516001600160a01b03166200039e60201b620013d0179092919060201c565b620002ca84600019610180516001600160a01b03166200039e60201b620013d0179092919060201c565b620002f483600019610180516001600160a01b03166200039e60201b620013d0179092919060201c565b5050505050505050620006d1565b60007f8b73c3c69bb8fe3d512ecc4cf759cc79239f7b179b0ffacaa9a75d522b39400f60026040516200033691906200062d565b6040805191829003822060208301939093528101919091527fc89efdaa54c0f20c7adf612882df0950f5a951637e0307cdcb4c672f298b8bc660608201524660808201523060a082015260c00160405160208183030381529060405280519060200120905090565b600060405163095ea7b360e01b81526001600160a01b03841660048201528260248201526000806044836000895af19150620003dc90508162000424565b6200041e5760405162461bcd60e51b815260206004820152600e60248201526d1054141493d59157d1905253115160921b604482015260640160405180910390fd5b50505050565b60003d826200043757806000803e806000fd5b80602081146200045257801562000464576000925062000469565b816000803e6000511515925062000469565b600192505b5050919050565b8280546200047e90620005f0565b90600052602060002090601f016020900481019282620004a25760008555620004ed565b82601f10620004bd57805160ff1916838001178555620004ed565b82800160010185558215620004ed579182015b82811115620004ed578251825591602001919060010190620004d0565b50620004fb929150620004ff565b5090565b5b80821115620004fb576000815560010162000500565b6001600160a01b03811681146200052c57600080fd5b50565b600080600080600080600080610100898b0312156200054d57600080fd5b88516200055a8162000516565b60208a01519098506200056d8162000516565b60408a0151909750620005808162000516565b60608a0151909650620005938162000516565b60808a0151909550620005a68162000516565b60a08a0151909450620005b98162000516565b60c08a0151909350620005cc8162000516565b60e08a0151909250620005df8162000516565b809150509295985092959890939650565b600181811c908216806200060557607f821691505b602082108114156200062757634e487b7160e01b600052602260045260246000fd5b50919050565b600080835481600182811c9150808316806200064a57607f831692505b60208084108214156200066b57634e487b7160e01b86526022600452602486fd5b8180156200068257600181146200069457620006c3565b60ff19861689528489019650620006c3565b60008a81526020902060005b86811015620006bb5781548b820152908501908301620006a0565b505084890196505b509498975050505050505050565b60805160a05160c05160e05161010051610120516101405161016051610180516101a05161274f6200081f600039600081816109ff01528181610e670152818161159f0152611666015260008181610362015281816108ce01528181610aae01528181610ea701528181610f3801528181610fcf01528181611060015281816110a1015281816115f1015281816118e501528181611e770152611fc00152600081816102720152610a84015260008181610461015281816116d101528181611b2901528181611db801528181611e4f01528181611ef701528181611f95015261202f0152600081816104f701528181610928015281816119b00152611a6e0152600081816103ab01528181610c0501528181610c8e01526117ca0152600081816104a20152818161087a015261189101526000610826015260006107f1015260006102eb015261274f6000f3fe608060405234801561001057600080fd5b50600436106101fb5760003560e01c80637ecebe001161011a578063ac784ddc116100ad578063c745d9e71161007c578063c745d9e7146104f2578063d505accf14610519578063dd62ed3e1461052c578063e0bab4c414610557578063e2c3b0461461057257600080fd5b8063ac784ddc14610496578063ad5c46481461049d578063bf7e214f146104c4578063c54e44eb146104d757600080fd5b806395d89b41116100e957806395d89b4114610441578063a0712d6814610449578063a4f553511461045c578063a9059cbb1461048357600080fd5b80637ecebe00146103e0578063852a12e31461040057806389a30271146104135780638da5cb5b1461042e57600080fd5b80633644e515116101925780636f307dc3116101615780636f307dc31461036057806370a08231146103865780637535d246146103a65780637a9e5e4b146103cd57600080fd5b80633644e5151461031f5780633aa3d431146103275780633af9e6691461033a5780635facc8c51461034d57600080fd5b80631b912f52116101ce5780631b912f521461026d57806323b872dd146102ac57806330adf81f146102bf578063313ce567146102e657600080fd5b806306fdde0314610200578063095ea7b31461021e57806313af40351461024157806318160ddd14610256575b600080fd5b61020861058d565b60405161021591906120c3565b60405180910390f35b61023161022c366004612130565b61061b565b6040519015158152602001610215565b61025461024f36600461215c565b610687565b005b61025f60045481565b604051908152602001610215565b6102947f000000000000000000000000000000000000000000000000000000000000000081565b6040516001600160a01b039091168152602001610215565b6102316102ba366004612180565b61070d565b61025f7f6e71edae12b1b97f4d1f60370fef10105fa2faae0126114a169c64845d6126c981565b61030d7f000000000000000000000000000000000000000000000000000000000000000081565b60405160ff9091168152602001610215565b61025f6107ed565b61025f6103353660046121c1565b610848565b61025f61034836600461215c565b6109d6565b61025461035b366004612245565b610a29565b7f0000000000000000000000000000000000000000000000000000000000000000610294565b61025f61039436600461215c565b60056020526000908152604090205481565b6102947f000000000000000000000000000000000000000000000000000000000000000081565b6102546103db36600461215c565b610d68565b61025f6103ee36600461215c565b60076020526000908152604090205481565b61025f61040e3660046121c1565b610e52565b61029473a0b86991c6218b36c1d19d4a2e9eb0ce3606eb4881565b600054610294906001600160a01b031681565b610208610ffe565b61025f6104573660046121c1565b61100b565b6102947f000000000000000000000000000000000000000000000000000000000000000081565b610231610491366004612130565b611119565b6000610231565b6102947f000000000000000000000000000000000000000000000000000000000000000081565b600154610294906001600160a01b031681565b61029473dac17f958d2ee523a2206206994597c13d831ec781565b6102947f000000000000000000000000000000000000000000000000000000000000000081565b610254610527366004612308565b61117f565b61025f61053a36600461237f565b600660209081526000928352604080842090915290825290205481565b610294736b175474e89094c44da98b954eedeac495271d0f81565b61029473ea3fb6f331735252e7bfb0b24b3b761301293dbe81565b6002805461059a906123b8565b80601f01602080910402602001604051908101604052809291908181526020018280546105c6906123b8565b80156106135780601f106105e857610100808354040283529160200191610613565b820191906000526020600020905b8154815290600101906020018083116105f657829003601f168201915b505050505081565b3360008181526006602090815260408083206001600160a01b038716808552925280832085905551919290917f8c5be1e5ebec7d5bd14f71427d1e84f3dd0314c0f7b2291e5b200ac8c7c3b925906106769086815260200190565b60405180910390a350600192915050565b61069d336000356001600160e01b03191661144e565b6106c25760405162461bcd60e51b81526004016106b9906123f3565b60405180910390fd5b600080546001600160a01b0319166001600160a01b0383169081178255604051909133917f8292fce18fa69edf4db7b94ea2e58241df0ae57f97e0a6c9b29067028bf92d769190a350565b6001600160a01b0383166000908152600660209081526040808320338452909152812054600019811461076957610744838261242f565b6001600160a01b03861660009081526006602090815260408083203384529091529020555b6001600160a01b0385166000908152600560205260408120805485929061079190849061242f565b90915550506001600160a01b03808516600081815260056020526040908190208054870190555190918716906000805160206126fa833981519152906107da9087815260200190565b60405180910390a3506001949350505050565b60007f000000000000000000000000000000000000000000000000000000000000000046146108235761081e6114f8565b905090565b507f000000000000000000000000000000000000000000000000000000000000000090565b60008161085757506000919050565b6040805160028082526060820183526000926020830190803683370190505090507f0000000000000000000000000000000000000000000000000000000000000000816000815181106108ac576108ac612446565b60200260200101906001600160a01b031690816001600160a01b0316815250507f00000000000000000000000000000000000000000000000000000000000000008160018151811061090057610900612446565b6001600160a01b03928316602091820292909201015260405163d06ca61f60e01b81526000917f0000000000000000000000000000000000000000000000000000000000000000169063d06ca61f9061095f90879086906004016124a0565b600060405180830381865afa15801561097c573d6000803e3d6000fd5b505050506040513d6000823e601f3d908101601f191682016040526109a491908101906124b9565b905080600182516109b5919061242f565b815181106109c5576109c5612446565b602002602001015192505050919050565b6000610a236109e3611592565b6001600160a01b038416600090815260056020526040902054907f0000000000000000000000000000000000000000000000000000000000000000611692565b92915050565b610a3f336000356001600160e01b03191661144e565b610a5b5760405162461bcd60e51b81526004016106b9906123f3565b610a64836116ad565b6040516370a0823160e01b81523060048201526000906001600160a01b037f000000000000000000000000000000000000000000000000000000000000000081169163bee0616d917f000000000000000000000000000000000000000000000000000000000000000016906370a0823190602401602060405180830381865afa158015610af5573d6000803e3d6000fd5b505050506040513d601f19601f82011682018060405250810190610b19919061254a565b6040516001600160e01b031960e084901b1681526004810191909152600160248201526044016020604051808303816000875af1158015610b5e573d6000803e3d6000fd5b505050506040513d601f19601f82011682018060405250810190610b82919061254a565b90506000610b91828585611739565b9050610b9c81611b13565b848111610beb5760405162461bcd60e51b815260206004820152601860248201527f4661696c656420746f2061726220666f722070726f666974000000000000000060448201526064016106b9565b604051634903b0d160e01b8152600060048201526103e8907f00000000000000000000000000000000000000000000000000000000000000006001600160a01b031690634903b0d190602401602060405180830381865afa158015610c54573d6000803e3d6000fd5b505050506040513d601f19601f82011682018060405250810190610c78919061254a565b604051634903b0d160e01b8152600160048201527f00000000000000000000000000000000000000000000000000000000000000006001600160a01b031690634903b0d190602401602060405180830381865afa158015610cdd573d6000803e3d6000fd5b505050506040513d601f19601f82011682018060405250810190610d01919061254a565b6103e80281610d1257610d12612563565b041015610d615760405162461bcd60e51b815260206004820152601960248201527f706567206d757374206265206174206f722061626f766520310000000000000060448201526064016106b9565b5050505050565b6000546001600160a01b0316331480610dfd575060015460405163b700961360e01b81526001600160a01b039091169063b700961390610dbc90339030906001600160e01b03196000351690600401612579565b602060405180830381865afa158015610dd9573d6000803e3d6000fd5b505050506040513d601f19601f82011682018060405250810190610dfd91906125a6565b610e0657600080fd5b600180546001600160a01b0319166001600160a01b03831690811790915560405133907fa3396fd7f6e0a21b50e5089d2da70d5ac0a3bbbd1f617a93f134b7638998019890600090a350565b6000610e9033610e8b610e63611592565b85907f0000000000000000000000000000000000000000000000000000000000000000611b89565b611bab565b6040516370a0823160e01b815230600482015282907f00000000000000000000000000000000000000000000000000000000000000006001600160a01b0316906370a0823190602401602060405180830381865afa158015610ef6573d6000803e3d6000fd5b505050506040513d601f19601f82011682018060405250810190610f1a919061254a565b1015610fc2576040516370a0823160e01b81523060048201526000907f00000000000000000000000000000000000000000000000000000000000000006001600160a01b0316906370a0823190602401602060405180830381865afa158015610f87573d6000803e3d6000fd5b505050506040513d601f19601f82011682018060405250810190610fab919061254a565b610fb5908461242f565b9050610fc0816116ad565b505b610ff66001600160a01b037f0000000000000000000000000000000000000000000000000000000000000000163384611c15565b506000919050565b6003805461059a906123b8565b6000611023336000356001600160e01b03191661144e565b61103f5760405162461bcd60e51b81526004016106b9906123f3565b6110533361104e610e63611592565b611c8e565b6110886001600160a01b037f000000000000000000000000000000000000000000000000000000000000000016333085611ce0565b6040516370a0823160e01b8152306004820152610ff6907f00000000000000000000000000000000000000000000000000000000000000006001600160a01b0316906370a0823190602401602060405180830381865afa1580156110f0573d6000803e3d6000fd5b505050506040513d601f19601f82011682018060405250810190611114919061254a565b611b13565b3360009081526005602052604081208054839190839061113a90849061242f565b90915550506001600160a01b038316600081815260056020526040908190208054850190555133906000805160206126fa833981519152906106769086815260200190565b428410156111cf5760405162461bcd60e51b815260206004820152601760248201527f5045524d49545f444541444c494e455f4558504952454400000000000000000060448201526064016106b9565b60006111d96107ed565b6001600160a01b0389811660008181526007602090815260409182902080546001810190915582517f6e71edae12b1b97f4d1f60370fef10105fa2faae0126114a169c64845d6126c98184015280840194909452938c166060840152608083018b905260a083019390935260c08083018a90528151808403909101815260e08301909152805192019190912061190160f01b6101008301526101028201929092526101228101919091526101420160408051601f198184030181528282528051602091820120600080855291840180845281905260ff88169284019290925260608301869052608083018590529092509060019060a0016020604051602081039080840390855afa1580156112f2573d6000803e3d6000fd5b5050604051601f1901519150506001600160a01b038116158015906113285750886001600160a01b0316816001600160a01b0316145b6113655760405162461bcd60e51b815260206004820152600e60248201526d24a72b20a624a22fa9a4a3a722a960911b60448201526064016106b9565b6001600160a01b0390811660009081526006602090815260408083208b8516808552908352928190208a905551898152919350918a16917f8c5be1e5ebec7d5bd14f71427d1e84f3dd0314c0f7b2291e5b200ac8c7c3b925910160405180910390a350505050505050565b600060405163095ea7b360e01b81526001600160a01b03841660048201528260248201526000806044836000895af191505061140b81611d6d565b6114485760405162461bcd60e51b815260206004820152600e60248201526d1054141493d59157d1905253115160921b60448201526064016106b9565b50505050565b6001546000906001600160a01b031680158015906114d8575060405163b700961360e01b81526001600160a01b0382169063b70096139061149790879030908890600401612579565b602060405180830381865afa1580156114b4573d6000803e3d6000fd5b505050506040513d601f19601f820116820180604052508101906114d891906125a6565b806114f057506000546001600160a01b038581169116145b949350505050565b60007f8b73c3c69bb8fe3d512ecc4cf759cc79239f7b179b0ffacaa9a75d522b39400f600260405161152a91906125c8565b6040805191829003822060208301939093528101919091527fc89efdaa54c0f20c7adf612882df0950f5a951637e0307cdcb4c672f298b8bc660608201524660808201523060a082015260c00160405160208183030381529060405280519060200120905090565b600454600090806115c4577f000000000000000000000000000000000000000000000000000000000000000091505090565b6000806115cf611db4565b6040516370a0823160e01b815230600482015290915081906001600160a01b037f000000000000000000000000000000000000000000000000000000000000000016906370a0823190602401602060405180830381865afa158015611638573d6000803e3d6000fd5b505050506040513d601f19601f8201168201806040525081019061165c919061254a565b01915061168a82847f0000000000000000000000000000000000000000000000000000000000000000611b89565b935050505090565b82820283158482048414176116a657600080fd5b0492915050565b60006116b882611f7e565b6040516367dfd4c960e01b8152600481018290529091507f00000000000000000000000000000000000000000000000000000000000000006001600160a01b0316906367dfd4c990602401600060405180830381600087803b15801561171d57600080fd5b505af1158015611731573d6000803e3d6000fd5b505050505050565b6000736b175474e89094c44da98b954eedeac495271d0f600f84900b60021415611778575073a0b86991c6218b36c1d19d4a2e9eb0ce3606eb4861179c565b600f84900b6003141561179c575073dac17f958d2ee523a2206206994597c13d831ec75b604051635320bf6b60e11b815260006004820152600f85900b602482015260448101869052600160648201527f00000000000000000000000000000000000000000000000000000000000000006001600160a01b03169063a6417ed690608401600060405180830381600087803b15801561181657600080fd5b505af115801561182a573d6000803e3d6000fd5b50505050606083516000141561193c57604080516003808252608082019092529060208201606080368337019050509050818160008151811061186f5761186f612446565b60200260200101906001600160a01b031690816001600160a01b0316815250507f0000000000000000000000000000000000000000000000000000000000000000816001815181106118c3576118c3612446565b60200260200101906001600160a01b031690816001600160a01b0316815250507f00000000000000000000000000000000000000000000000000000000000000008160028151811061191757611917612446565b60200260200101906001600160a01b031690816001600160a01b03168152505061193f565b50825b6040516370a0823160e01b81523060048201526000906001600160a01b038416906370a0823190602401602060405180830381865afa158015611986573d6000803e3d6000fd5b505050506040513d601f19601f820116820180604052508101906119aa919061254a565b905060007f00000000000000000000000000000000000000000000000000000000000000006001600160a01b031663d06ca61f83856040518363ffffffff1660e01b81526004016119fc9291906124a0565b600060405180830381865afa158015611a19573d6000803e3d6000fd5b505050506040513d6000823e601f3d908101601f19168201604052611a4191908101906124b9565b90508060018251611a52919061242f565b81518110611a6257611a62612446565b602002602001015194507f00000000000000000000000000000000000000000000000000000000000000006001600160a01b03166338ed173983878630426040518663ffffffff1660e01b8152600401611ac0959493929190612664565b6000604051808303816000875af1158015611adf573d6000803e3d6000fd5b505050506040513d6000823e601f3d908101601f19168201604052611b0791908101906124b9565b50505050509392505050565b604051632967cf8360e21b8152600481018290527f00000000000000000000000000000000000000000000000000000000000000006001600160a01b03169063a59f3e0c90602401600060405180830381600087803b158015611b7557600080fd5b505af1158015610d61573d6000803e3d6000fd5b828102821515841585830484141716611ba157600080fd5b9190910492915050565b6001600160a01b03821660009081526005602052604081208054839290611bd390849061242f565b90915550506004805482900390556040518181526000906001600160a01b038416906000805160206126fa833981519152906020015b60405180910390a35050565b600060405163a9059cbb60e01b81526001600160a01b03841660048201528260248201526000806044836000895af1915050611c5081611d6d565b6114485760405162461bcd60e51b815260206004820152600f60248201526e1514905394d1915497d19052531151608a1b60448201526064016106b9565b8060046000828254611ca091906126a0565b90915550506001600160a01b0382166000818152600560209081526040808320805486019055518481526000805160206126fa8339815191529101611c09565b60006040516323b872dd60e01b81526001600160a01b03851660048201526001600160a01b038416602482015282604482015260008060648360008a5af1915050611d2a81611d6d565b610d615760405162461bcd60e51b81526020600482015260146024820152731514905394d1915497d19493d357d1905253115160621b60448201526064016106b9565b60003d82611d7f57806000803e806000fd5b8060208114611d97578015611da85760009250611dad565b816000803e60005115159250611dad565b600192505b5050919050565b60007f00000000000000000000000000000000000000000000000000000000000000006001600160a01b03166318160ddd6040518163ffffffff1660e01b8152600401602060405180830381865afa158015611e14573d6000803e3d6000fd5b505050506040513d601f19601f82011682018060405250810190611e38919061254a565b6040516370a0823160e01b81526001600160a01b037f0000000000000000000000000000000000000000000000000000000000000000811660048301527f000000000000000000000000000000000000000000000000000000000000000016906370a0823190602401602060405180830381865afa158015611ebe573d6000803e3d6000fd5b505050506040513d601f19601f82011682018060405250810190611ee2919061254a565b6040516370a0823160e01b81523060048201527f00000000000000000000000000000000000000000000000000000000000000006001600160a01b0316906370a0823190602401602060405180830381865afa158015611f46573d6000803e3d6000fd5b505050506040513d601f19601f82011682018060405250810190611f6a919061254a565b611f7491906126b8565b61081e91906126d7565b6040516370a0823160e01b81526001600160a01b037f0000000000000000000000000000000000000000000000000000000000000000811660048301526000917f0000000000000000000000000000000000000000000000000000000000000000909116906370a0823190602401602060405180830381865afa158015612009573d6000803e3d6000fd5b505050506040513d601f19601f8201168201806040525081019061202d919061254a565b7f00000000000000000000000000000000000000000000000000000000000000006001600160a01b03166318160ddd6040518163ffffffff1660e01b8152600401602060405180830381865afa15801561208b573d6000803e3d6000fd5b505050506040513d601f19601f820116820180604052508101906120af919061254a565b6120b990846126b8565b610a2391906126d7565b600060208083528351808285015260005b818110156120f0578581018301518582016040015282016120d4565b81811115612102576000604083870101525b50601f01601f1916929092016040019392505050565b6001600160a01b038116811461212d57600080fd5b50565b6000806040838503121561214357600080fd5b823561214e81612118565b946020939093013593505050565b60006020828403121561216e57600080fd5b813561217981612118565b9392505050565b60008060006060848603121561219557600080fd5b83356121a081612118565b925060208401356121b081612118565b929592945050506040919091013590565b6000602082840312156121d357600080fd5b5035919050565b634e487b7160e01b600052604160045260246000fd5b604051601f8201601f1916810167ffffffffffffffff81118282101715612219576122196121da565b604052919050565b600067ffffffffffffffff82111561223b5761223b6121da565b5060051b60200190565b60008060006060848603121561225a57600080fd5b8335925060208085013580600f0b811461227357600080fd5b9250604085013567ffffffffffffffff81111561228f57600080fd5b8501601f810187136122a057600080fd5b80356122b36122ae82612221565b6121f0565b81815260059190911b820183019083810190898311156122d257600080fd5b928401925b828410156122f95783356122ea81612118565b825292840192908401906122d7565b80955050505050509250925092565b600080600080600080600060e0888a03121561232357600080fd5b873561232e81612118565b9650602088013561233e81612118565b95506040880135945060608801359350608088013560ff8116811461236257600080fd5b9699959850939692959460a0840135945060c09093013592915050565b6000806040838503121561239257600080fd5b823561239d81612118565b915060208301356123ad81612118565b809150509250929050565b600181811c908216806123cc57607f821691505b602082108114156123ed57634e487b7160e01b600052602260045260246000fd5b50919050565b6020808252600c908201526b15539055551213d49256915160a21b604082015260600190565b634e487b7160e01b600052601160045260246000fd5b60008282101561244157612441612419565b500390565b634e487b7160e01b600052603260045260246000fd5b600081518084526020808501945080840160005b838110156124955781516001600160a01b031687529582019590820190600101612470565b509495945050505050565b8281526040602082015260006114f0604083018461245c565b600060208083850312156124cc57600080fd5b825167ffffffffffffffff8111156124e357600080fd5b8301601f810185136124f457600080fd5b80516125026122ae82612221565b81815260059190911b8201830190838101908783111561252157600080fd5b928401925b8284101561253f57835182529284019290840190612526565b979650505050505050565b60006020828403121561255c57600080fd5b5051919050565b634e487b7160e01b600052601260045260246000fd5b6001600160a01b0393841681529190921660208201526001600160e01b0319909116604082015260600190565b6000602082840312156125b857600080fd5b8151801515811461217957600080fd5b600080835481600182811c9150808316806125e457607f831692505b602080841082141561260457634e487b7160e01b86526022600452602486fd5b818015612618576001811461262957612656565b60ff19861689528489019650612656565b60008a81526020902060005b8681101561264e5781548b820152908501908301612635565b505084890196505b509498975050505050505050565b85815284602082015260a06040820152600061268360a083018661245c565b6001600160a01b0394909416606083015250608001529392505050565b600082198211156126b3576126b3612419565b500190565b60008160001904831182151516156126d2576126d2612419565b500290565b6000826126f457634e487b7160e01b600052601260045260246000fd5b50049056feddf252ad1be2c89b69c2b068fc378daa952ba7f163c4a11628f55a4df523b3efa26469706673582212208a5405d20af0b0988beffa0ffef669f63383fb24c1b60511af08f486a80ebab364736f6c634300080b0033",
  "devdoc": {
    "kind": "dev",
    "methods": {
      "balanceOfUnderlying(address)": {
        "details": "May mutate the state of the strategy by accruing interest.",
        "params": {
          "user": "The user to get the underlying balance of."
        },
        "returns": {
          "_0": "The user's strategy balance in underlying tokens."
        }
      },
      "isCEther()": {
        "details": "Only present in Fuse cTokens, not Compound cTokens.",
        "returns": {
          "_0": "True if the strategy accepts ETH, false otherwise."
        }
      },
      "mint(uint256)": {
        "params": {
          "amount": "The amount of underlying tokens to deposit."
        },
        "returns": {
          "_0": "An error code, or 0 if the deposit was successful."
        }
      },
      "redeemUnderlying(uint256)": {
        "params": {
          "amount": "The amount of underlying tokens to withdraw."
        },
        "returns": {
          "_0": "An error code, or 0 if the withdrawal was successful."
        }
      },
      "underlying()": {
        "returns": {
          "_0": "The underlying ERC20 token the strategy accepts."
        }
      }
    },
    "version": 1
  },
  "userdoc": {
    "kind": "user",
    "methods": {
      "balanceOfUnderlying(address)": {
        "notice": "Returns a user's strategy balance in underlying tokens."
      },
      "isCEther()": {
        "notice": "Returns whether the strategy accepts ETH or an ERC20."
      },
      "mint(uint256)": {
        "notice": "Deposit a specific amount of underlying tokens into the strategy."
      },
      "redeemUnderlying(uint256)": {
        "notice": "Withdraws a specific amount of underlying tokens from the strategy."
      },
      "underlying()": {
        "notice": "Returns the underlying ERC20 token the strategy accepts."
      }
    },
    "version": 1
  },
  "storageLayout": {
    "storage": [
      {
        "astId": 17,
        "contract": "srcBuild/strategies/USDVOverPegStrategy.sol:USDVOverPegStrategy",
        "label": "owner",
        "offset": 0,
        "slot": "0",
        "type": "t_address"
      },
      {
        "astId": 20,
        "contract": "srcBuild/strategies/USDVOverPegStrategy.sol:USDVOverPegStrategy",
        "label": "authority",
        "offset": 0,
        "slot": "1",
        "type": "t_contract(Authority)171"
      },
      {
        "astId": 192,
        "contract": "srcBuild/strategies/USDVOverPegStrategy.sol:USDVOverPegStrategy",
        "label": "name",
        "offset": 0,
        "slot": "2",
        "type": "t_string_storage"
      },
      {
        "astId": 194,
        "contract": "srcBuild/strategies/USDVOverPegStrategy.sol:USDVOverPegStrategy",
        "label": "symbol",
        "offset": 0,
        "slot": "3",
        "type": "t_string_storage"
      },
      {
        "astId": 198,
        "contract": "srcBuild/strategies/USDVOverPegStrategy.sol:USDVOverPegStrategy",
        "label": "totalSupply",
        "offset": 0,
        "slot": "4",
        "type": "t_uint256"
      },
      {
        "astId": 202,
        "contract": "srcBuild/strategies/USDVOverPegStrategy.sol:USDVOverPegStrategy",
        "label": "balanceOf",
        "offset": 0,
        "slot": "5",
        "type": "t_mapping(t_address,t_uint256)"
      },
      {
        "astId": 208,
        "contract": "srcBuild/strategies/USDVOverPegStrategy.sol:USDVOverPegStrategy",
        "label": "allowance",
        "offset": 0,
        "slot": "6",
        "type": "t_mapping(t_address,t_mapping(t_address,t_uint256))"
      },
      {
        "astId": 221,
        "contract": "srcBuild/strategies/USDVOverPegStrategy.sol:USDVOverPegStrategy",
        "label": "nonces",
        "offset": 0,
        "slot": "7",
        "type": "t_mapping(t_address,t_uint256)"
      }
    ],
    "types": {
      "t_address": {
        "encoding": "inplace",
        "label": "address",
        "numberOfBytes": "20"
      },
      "t_contract(Authority)171": {
        "encoding": "inplace",
        "label": "contract Authority",
        "numberOfBytes": "20"
      },
      "t_mapping(t_address,t_mapping(t_address,t_uint256))": {
        "encoding": "mapping",
        "key": "t_address",
        "label": "mapping(address => mapping(address => uint256))",
        "numberOfBytes": "32",
        "value": "t_mapping(t_address,t_uint256)"
      },
      "t_mapping(t_address,t_uint256)": {
        "encoding": "mapping",
        "key": "t_address",
        "label": "mapping(address => uint256)",
        "numberOfBytes": "32",
        "value": "t_uint256"
      },
      "t_string_storage": {
        "encoding": "bytes",
        "label": "string",
        "numberOfBytes": "32"
      },
      "t_uint256": {
        "encoding": "inplace",
        "label": "uint256",
        "numberOfBytes": "32"
      }
    }
  }
}