{
  "address": "0x20AC64C9C6f38F9B2911f3E4668aD8A0A89D2965",
  "abi": [
    {
      "inputs": [
        {
          "internalType": "contract ERC20",
          "name": "UNDERLYING_",
          "type": "address"
        },
        {
          "internalType": "address",
          "name": "GOVERNANCE_",
          "type": "address"
        },
        {
          "internalType": "contract Authority",
          "name": "AUTHORITY_",
          "type": "address"
        },
        {
          "internalType": "contract IRewards",
          "name": "REWARDS_",
          "type": "address"
        },
        {
          "internalType": "contract Gauge",
          "name": "GAUGE_",
          "type": "address"
        },
        {
          "internalType": "contract Bribe",
          "name": "BRIBE_",
          "type": "address"
        }
      ],
      "stateMutability": "nonpayable",
      "type": "constructor"
    },
    {
      "anonymous": false,
      "inputs": [
        {
          "indexed": true,
          "internalType": "address",
          "name": "owner",
          "type": "address"
        },
        {
          "indexed": true,
          "internalType": "address",
          "name": "spender",
          "type": "address"
        },
        {
          "indexed": false,
          "internalType": "uint256",
          "name": "amount",
          "type": "uint256"
        }
      ],
      "name": "Approval",
      "type": "event"
    },
    {
      "anonymous": false,
      "inputs": [
        {
          "indexed": true,
          "internalType": "address",
          "name": "user",
          "type": "address"
        },
        {
          "indexed": true,
          "internalType": "contract Authority",
          "name": "newAuthority",
          "type": "address"
        }
      ],
      "name": "AuthorityUpdated",
      "type": "event"
    },
    {
      "anonymous": false,
      "inputs": [
        {
          "indexed": false,
          "internalType": "uint256",
          "name": "payment",
          "type": "uint256"
        }
      ],
      "name": "BribePaid",
      "type": "event"
    },
    {
      "anonymous": false,
      "inputs": [
        {
          "indexed": false,
          "internalType": "address",
          "name": "token",
          "type": "address"
        },
        {
          "indexed": false,
          "internalType": "address",
          "name": "to",
          "type": "address"
        }
      ],
      "name": "DevWithdraw",
      "type": "event"
    },
    {
      "anonymous": false,
      "inputs": [
        {
          "indexed": true,
          "internalType": "address",
          "name": "user",
          "type": "address"
        },
        {
          "indexed": true,
          "internalType": "address",
          "name": "newOwner",
          "type": "address"
        }
      ],
      "name": "OwnerUpdated",
      "type": "event"
    },
    {
      "anonymous": false,
      "inputs": [
        {
          "indexed": true,
          "internalType": "address",
          "name": "from",
          "type": "address"
        },
        {
          "indexed": true,
          "internalType": "address",
          "name": "to",
          "type": "address"
        },
        {
          "indexed": false,
          "internalType": "uint256",
          "name": "amount",
          "type": "uint256"
        }
      ],
      "name": "Transfer",
      "type": "event"
    },
    {
      "inputs": [],
      "name": "BRIBE",
      "outputs": [
        {
          "internalType": "contract Bribe",
          "name": "",
          "type": "address"
        }
      ],
      "stateMutability": "view",
      "type": "function"
    },
    {
      "inputs": [],
      "name": "DOMAIN_SEPARATOR",
      "outputs": [
        {
          "internalType": "bytes32",
          "name": "",
          "type": "bytes32"
        }
      ],
      "stateMutability": "view",
      "type": "function"
    },
    {
      "inputs": [],
      "name": "GAUGE",
      "outputs": [
        {
          "internalType": "contract Gauge",
          "name": "",
          "type": "address"
        }
      ],
      "stateMutability": "view",
      "type": "function"
    },
    {
      "inputs": [],
      "name": "PERMIT_TYPEHASH",
      "outputs": [
        {
          "internalType": "bytes32",
          "name": "",
          "type": "bytes32"
        }
      ],
      "stateMutability": "view",
      "type": "function"
    },
    {
      "inputs": [],
      "name": "REWARDS",
      "outputs": [
        {
          "internalType": "contract IRewards",
          "name": "",
          "type": "address"
        }
      ],
      "stateMutability": "view",
      "type": "function"
    },
    {
      "inputs": [],
      "name": "__emergencyExit",
      "outputs": [],
      "stateMutability": "nonpayable",
      "type": "function"
    },
    {
      "inputs": [
        {
          "internalType": "address",
          "name": "",
          "type": "address"
        },
        {
          "internalType": "address",
          "name": "",
          "type": "address"
        }
      ],
      "name": "allowance",
      "outputs": [
        {
          "internalType": "uint256",
          "name": "",
          "type": "uint256"
        }
      ],
      "stateMutability": "view",
      "type": "function"
    },
    {
      "inputs": [
        {
          "internalType": "address",
          "name": "spender",
          "type": "address"
        },
        {
          "internalType": "uint256",
          "name": "amount",
          "type": "uint256"
        }
      ],
      "name": "approve",
      "outputs": [
        {
          "internalType": "bool",
          "name": "",
          "type": "bool"
        }
      ],
      "stateMutability": "nonpayable",
      "type": "function"
    },
    {
      "inputs": [],
      "name": "authority",
      "outputs": [
        {
          "internalType": "contract Authority",
          "name": "",
          "type": "address"
        }
      ],
      "stateMutability": "view",
      "type": "function"
    },
    {
      "inputs": [
        {
          "internalType": "address",
          "name": "",
          "type": "address"
        }
      ],
      "name": "balanceOf",
      "outputs": [
        {
          "internalType": "uint256",
          "name": "",
          "type": "uint256"
        }
      ],
      "stateMutability": "view",
      "type": "function"
    },
    {
      "inputs": [
        {
          "internalType": "address",
          "name": "user",
          "type": "address"
        }
      ],
      "name": "balanceOfUnderlying",
      "outputs": [
        {
          "internalType": "uint256",
          "name": "",
          "type": "uint256"
        }
      ],
      "stateMutability": "view",
      "type": "function"
    },
    {
      "inputs": [],
      "name": "bribeRate",
      "outputs": [
        {
          "internalType": "uint256",
          "name": "",
          "type": "uint256"
        }
      ],
      "stateMutability": "view",
      "type": "function"
    },
    {
      "inputs": [],
      "name": "bribeRateBase",
      "outputs": [
        {
          "internalType": "uint256",
          "name": "",
          "type": "uint256"
        }
      ],
      "stateMutability": "view",
      "type": "function"
    },
    {
      "inputs": [],
      "name": "decimals",
      "outputs": [
        {
          "internalType": "uint8",
          "name": "",
          "type": "uint8"
        }
      ],
      "stateMutability": "view",
      "type": "function"
    },
    {
      "inputs": [
        {
          "internalType": "contract ERC20",
          "name": "token",
          "type": "address"
        }
      ],
      "name": "emergencyWithdrawalToken",
      "outputs": [],
      "stateMutability": "nonpayable",
      "type": "function"
    },
    {
      "inputs": [],
      "name": "gaugeRate",
      "outputs": [
        {
          "internalType": "uint256",
          "name": "",
          "type": "uint256"
        }
      ],
      "stateMutability": "view",
      "type": "function"
    },
    {
      "inputs": [],
      "name": "gaugeRateBase",
      "outputs": [
        {
          "internalType": "uint256",
          "name": "",
          "type": "uint256"
        }
      ],
      "stateMutability": "view",
      "type": "function"
    },
    {
      "inputs": [],
      "name": "hit",
      "outputs": [],
      "stateMutability": "nonpayable",
      "type": "function"
    },
    {
      "inputs": [],
      "name": "isCEther",
      "outputs": [
        {
          "internalType": "bool",
          "name": "",
          "type": "bool"
        }
      ],
      "stateMutability": "pure",
      "type": "function"
    },
    {
      "inputs": [
        {
          "internalType": "uint256",
          "name": "amount",
          "type": "uint256"
        }
      ],
      "name": "mint",
      "outputs": [
        {
          "internalType": "uint256",
          "name": "",
          "type": "uint256"
        }
      ],
      "stateMutability": "nonpayable",
      "type": "function"
    },
    {
      "inputs": [],
      "name": "name",
      "outputs": [
        {
          "internalType": "string",
          "name": "",
          "type": "string"
        }
      ],
      "stateMutability": "view",
      "type": "function"
    },
    {
      "inputs": [
        {
          "internalType": "address",
          "name": "",
          "type": "address"
        }
      ],
      "name": "nonces",
      "outputs": [
        {
          "internalType": "uint256",
          "name": "",
          "type": "uint256"
        }
      ],
      "stateMutability": "view",
      "type": "function"
    },
    {
      "inputs": [],
      "name": "owner",
      "outputs": [
        {
          "internalType": "address",
          "name": "",
          "type": "address"
        }
      ],
      "stateMutability": "view",
      "type": "function"
    },
    {
      "inputs": [
        {
          "internalType": "address",
          "name": "owner",
          "type": "address"
        },
        {
          "internalType": "address",
          "name": "spender",
          "type": "address"
        },
        {
          "internalType": "uint256",
          "name": "value",
          "type": "uint256"
        },
        {
          "internalType": "uint256",
          "name": "deadline",
          "type": "uint256"
        },
        {
          "internalType": "uint8",
          "name": "v",
          "type": "uint8"
        },
        {
          "internalType": "bytes32",
          "name": "r",
          "type": "bytes32"
        },
        {
          "internalType": "bytes32",
          "name": "s",
          "type": "bytes32"
        }
      ],
      "name": "permit",
      "outputs": [],
      "stateMutability": "nonpayable",
      "type": "function"
    },
    {
      "inputs": [
        {
          "internalType": "uint256",
          "name": "amount",
          "type": "uint256"
        }
      ],
      "name": "redeemUnderlying",
      "outputs": [
        {
          "internalType": "uint256",
          "name": "",
          "type": "uint256"
        }
      ],
      "stateMutability": "nonpayable",
      "type": "function"
    },
    {
      "inputs": [
        {
          "internalType": "contract Authority",
          "name": "newAuthority",
          "type": "address"
        }
      ],
      "name": "setAuthority",
      "outputs": [],
      "stateMutability": "nonpayable",
      "type": "function"
    },
    {
      "inputs": [
        {
          "internalType": "uint256",
          "name": "newGaugeRateBase_",
          "type": "uint256"
        },
        {
          "internalType": "uint256",
          "name": "newBribeRateBase_",
          "type": "uint256"
        }
      ],
      "name": "setBaseRates",
      "outputs": [],
      "stateMutability": "nonpayable",
      "type": "function"
    },
    {
      "inputs": [
        {
          "internalType": "contract Gauge",
          "name": "newGauge_",
          "type": "address"
        },
        {
          "internalType": "contract Bribe",
          "name": "newBribe_",
          "type": "address"
        }
      ],
      "name": "setGaugeBribe",
      "outputs": [],
      "stateMutability": "nonpayable",
      "type": "function"
    },
    {
      "inputs": [
        {
          "internalType": "address",
          "name": "newOwner",
          "type": "address"
        }
      ],
      "name": "setOwner",
      "outputs": [],
      "stateMutability": "nonpayable",
      "type": "function"
    },
    {
      "inputs": [
        {
          "internalType": "uint256",
          "name": "newGaugeRate_",
          "type": "uint256"
        },
        {
          "internalType": "uint256",
          "name": "newBribeRate_",
          "type": "uint256"
        }
      ],
      "name": "setRates",
      "outputs": [],
      "stateMutability": "nonpayable",
      "type": "function"
    },
    {
      "inputs": [],
      "name": "symbol",
      "outputs": [
        {
          "internalType": "string",
          "name": "",
          "type": "string"
        }
      ],
      "stateMutability": "view",
      "type": "function"
    },
    {
      "inputs": [],
      "name": "totalSupply",
      "outputs": [
        {
          "internalType": "uint256",
          "name": "",
          "type": "uint256"
        }
      ],
      "stateMutability": "view",
      "type": "function"
    },
    {
      "inputs": [
        {
          "internalType": "address",
          "name": "to",
          "type": "address"
        },
        {
          "internalType": "uint256",
          "name": "amount",
          "type": "uint256"
        }
      ],
      "name": "transfer",
      "outputs": [
        {
          "internalType": "bool",
          "name": "",
          "type": "bool"
        }
      ],
      "stateMutability": "nonpayable",
      "type": "function"
    },
    {
      "inputs": [
        {
          "internalType": "address",
          "name": "from",
          "type": "address"
        },
        {
          "internalType": "address",
          "name": "to",
          "type": "address"
        },
        {
          "internalType": "uint256",
          "name": "amount",
          "type": "uint256"
        }
      ],
      "name": "transferFrom",
      "outputs": [
        {
          "internalType": "bool",
          "name": "",
          "type": "bool"
        }
      ],
      "stateMutability": "nonpayable",
      "type": "function"
    },
    {
      "inputs": [],
      "name": "underlying",
      "outputs": [
        {
          "internalType": "contract ERC20",
          "name": "",
          "type": "address"
        }
      ],
      "stateMutability": "view",
      "type": "function"
    }
  ],
  "transactionHash": "0x9c426eb697ae0a6108a2d6f36be19d408323126ad591a6df458025854855655f",
  "args": [
    "0x7abD51BbA7f9F6Ae87aC77e1eA1C5783adA56e5c",
    "0x4d03Fb78BdA67a04f1bD6fDE5024759D8Ce8D866",
    "0xcbb46b017e8d785C107e97c56135894b3eAD599C",
    "0x2413e4594aadE7513AB6Dc43209D4C312cC35121",
    "0xEA7aD26d1B722518F7a9Af4E75eFAF8DfD042034",
    "0xA4d1aD4325eF52b76495d52B79402e91961931d5"
  ],
  "numDeployments": 1,
  "solcInputHash": "4d09adc899edeff0cfd6e0df664f4472",
  "bytecode": "0x6101406040526000600a556064600b556000600c556064600d553480156200002657600080fd5b50604051620025a5380380620025a583398101604081905262000049916200043b565b604080518082018252601681527f555344563343525652657761726453747261746567790000000000000000000060208083019190915282518084018452601781527f615553445633435256526577617264537472617465677900000000000000000091810191909152600080546001600160a01b03199081166001600160a01b038b8116918217845560018054909316908b16179091559351929391926012928a928a9233917f8292fce18fa69edf4db7b94ea2e58241df0ae57f97e0a6c9b29067028bf92d7691a36040516001600160a01b0382169033907fa3396fd7f6e0a21b50e5089d2da70d5ac0a3bbbd1f617a93f134b7638998019890600090a350508251620001609060029060208601906200037c565b508151620001769060039060208501906200037c565b5060ff81166080524660a0526200018c6200020e565b60c0525050506001600160a01b03868116610100819052678ac7230489e800006101205284821660e052600880546001600160a01b0319908116858516179091556009805490911692851692909217909155620001f99084600019620002aa602090811b6200133517901c565b5050600a808055600c5550620005b092505050565b60007f8b73c3c69bb8fe3d512ecc4cf759cc79239f7b179b0ffacaa9a75d522b39400f60026040516200024291906200050c565b6040805191829003822060208301939093528101919091527fc89efdaa54c0f20c7adf612882df0950f5a951637e0307cdcb4c672f298b8bc660608201524660808201523060a082015260c00160405160208183030381529060405280519060200120905090565b600060405163095ea7b360e01b81526001600160a01b03841660048201528260248201526000806044836000895af19150620002e890508162000330565b6200032a5760405162461bcd60e51b815260206004820152600e60248201526d1054141493d59157d1905253115160921b604482015260640160405180910390fd5b50505050565b60003d826200034357806000803e806000fd5b80602081146200035e57801562000370576000925062000375565b816000803e6000511515925062000375565b600192505b5050919050565b8280546200038a90620004cf565b90600052602060002090601f016020900481019282620003ae5760008555620003f9565b82601f10620003c957805160ff1916838001178555620003f9565b82800160010185558215620003f9579182015b82811115620003f9578251825591602001919060010190620003dc565b50620004079291506200040b565b5090565b5b808211156200040757600081556001016200040c565b6001600160a01b03811681146200043857600080fd5b50565b60008060008060008060c087890312156200045557600080fd5b8651620004628162000422565b6020880151909650620004758162000422565b6040880151909550620004888162000422565b60608801519094506200049b8162000422565b6080880151909350620004ae8162000422565b60a0880151909250620004c18162000422565b809150509295509295509295565b600181811c90821680620004e457607f821691505b602082108114156200050657634e487b7160e01b600052602260045260246000fd5b50919050565b600080835481600182811c9150808316806200052957607f831692505b60208084108214156200054a57634e487b7160e01b86526022600452602486fd5b8180156200056157600181146200057357620005a2565b60ff19861689528489019650620005a2565b60008a81526020902060005b868110156200059a5781548b8201529085019083016200057f565b505084890196505b509498975050505050505050565b60805160a05160c05160e0516101005161012051611f3c6200066960003960008181610bb501528181610cd8015281816116df01526117a601526000818161035d01528181610d1801528181610da901528181610e4001528181610f8801528181610fc9015261173101526000818161049b015281816108db0152818161095001528181610ea30152818161188f0152818161190f0152611a7701526000610b6a01526000610b35015260006102f00152611f3c6000f3fe608060405234801561001057600080fd5b50600436106102115760003560e01c80637a9e5e4b11610125578063ac6af280116100ad578063c0034e0c1161007c578063c0034e0c14610496578063d505accf146104bd578063dc9e9d0c146104d0578063dd62ed3e146104e3578063fb4db8f81461050e57600080fd5b8063ac6af28014610460578063ac784ddc14610473578063b4c4f89d1461047a578063bf7e214f1461048357600080fd5b80638da5cb5b116100f45780638da5cb5b14610417578063907434f61461042a57806395d89b4114610432578063a0712d681461043a578063a9059cbb1461044d57600080fd5b80637a9e5e4b146103c85780637ecebe00146103db578063852a12e3146103fb57806385fe43231461040e57600080fd5b806330adf81f116101a85780633af9e669116101775780633af9e6691461033f5780636b306520146103525780636f307dc31461035b57806370a08231146103955780637651b1e6146103b557600080fd5b806330adf81f146102c4578063313ce567146102eb57806334e0d14d146103245780633644e5151461033757600080fd5b806318160ddd116101e457806318160ddd1461027f5780631937daf31461029657806323b872dd146102a95780632ae3594a146102bc57600080fd5b8063019ae0751461021657806306fdde031461022b578063095ea7b31461024957806313af40351461026c575b600080fd5b610229610224366004611b0d565b610517565b005b610233610621565b6040516102409190611b31565b60405180910390f35b61025c610257366004611b86565b6106af565b6040519015158152602001610240565b61022961027a366004611b0d565b61071c565b61028860045481565b604051908152602001610240565b6102296102a4366004611bb2565b610799565b61025c6102b7366004611beb565b6107f9565b6102296108d9565b6102887f6e71edae12b1b97f4d1f60370fef10105fa2faae0126114a169c64845d6126c981565b6103127f000000000000000000000000000000000000000000000000000000000000000081565b60405160ff9091168152602001610240565b610229610332366004611c2c565b610af4565b610288610b31565b61028861034d366004611b0d565b610b8c565b610288600c5481565b7f00000000000000000000000000000000000000000000000000000000000000005b6040516001600160a01b039091168152602001610240565b6102886103a3366004611b0d565b60056020526000908152604090205481565b60095461037d906001600160a01b031681565b6102296103d6366004611b0d565b610bd9565b6102886103e9366004611b0d565b60076020526000908152604090205481565b610288610409366004611c4e565b610cc3565b610288600d5481565b60005461037d906001600160a01b031681565b610229610e6f565b610233610f26565b610288610448366004611c4e565b610f33565b61025c61045b366004611b86565b611041565b61022961046e366004611c2c565b6110a7565b600061025c565b610288600a5481565b60015461037d906001600160a01b031681565b61037d7f000000000000000000000000000000000000000000000000000000000000000081565b6102296104cb366004611c67565b6110e4565b60085461037d906001600160a01b031681565b6102886104f1366004611bb2565b600660209081526000928352604080842090915290825290205481565b610288600b5481565b61052d336000356001600160e01b0319166113b3565b6105525760405162461bcd60e51b815260040161054990611cde565b60405180910390fd5b6000546040516370a0823160e01b81523060048201526105d7916001600160a01b0390811691908416906370a0823190602401602060405180830381865afa1580156105a2573d6000803e3d6000fd5b505050506040513d601f19601f820116820180604052508101906105c69190611d04565b6001600160a01b038416919061145d565b600054604080516001600160a01b03808516825290921660208301527fdca40dd6e1f9a4a0c6d9da138be5e2ee4c39d27af85b9876ad34c8d5d8747954910160405180910390a150565b6002805461062e90611d1d565b80601f016020809104026020016040519081016040528092919081815260200182805461065a90611d1d565b80156106a75780601f1061067c576101008083540402835291602001916106a7565b820191906000526020600020905b81548152906001019060200180831161068a57829003601f168201915b505050505081565b3360008181526006602090815260408083206001600160a01b038716808552925280832085905551919290917f8c5be1e5ebec7d5bd14f71427d1e84f3dd0314c0f7b2291e5b200ac8c7c3b9259061070a9086815260200190565b60405180910390a35060015b92915050565b610732336000356001600160e01b0319166113b3565b61074e5760405162461bcd60e51b815260040161054990611cde565b600080546001600160a01b0319166001600160a01b0383169081178255604051909133917f8292fce18fa69edf4db7b94ea2e58241df0ae57f97e0a6c9b29067028bf92d769190a350565b6107af336000356001600160e01b0319166113b3565b6107cb5760405162461bcd60e51b815260040161054990611cde565b600980546001600160a01b039384166001600160a01b03199182161790915560088054929093169116179055565b6001600160a01b03831660009081526006602090815260408083203384529091528120546000198114610855576108308382611d6e565b6001600160a01b03861660009081526006602090815260408083203384529091529020555b6001600160a01b0385166000908152600560205260408120805485929061087d908490611d6e565b90915550506001600160a01b0380851660008181526005602052604090819020805487019055519091871690600080516020611ee7833981519152906108c69087815260200190565b60405180910390a3506001949350505050565b7f00000000000000000000000000000000000000000000000000000000000000006001600160a01b0316633d18b9126040518163ffffffff1660e01b8152600401600060405180830381600087803b15801561093457600080fd5b505af1158015610948573d6000803e3d6000fd5b5050505060007f00000000000000000000000000000000000000000000000000000000000000006001600160a01b031663d1af0c7d6040518163ffffffff1660e01b8152600401602060405180830381865afa1580156109ac573d6000803e3d6000fd5b505050506040513d601f19601f820116820180604052508101906109d09190611d85565b6040516370a0823160e01b81523060048201529091506000906001600160a01b038316906370a0823190602401602060405180830381865afa158015610a1a573d6000803e3d6000fd5b505050506040513d601f19601f82011682018060405250810190610a3e9190611d04565b90506000610a4c83836114d6565b90506000610a5a84846115a1565b9050600081610a698486611d6e565b610a739190611d6e565b60005460405163a9059cbb60e01b81526001600160a01b0391821660048201526024810183905291925086169063a9059cbb906044016020604051808303816000875af1158015610ac8573d6000803e3d6000fd5b505050506040513d601f19601f82011682018060405250810190610aec9190611da2565b505050505050565b610b0a336000356001600160e01b0319166113b3565b610b265760405162461bcd60e51b815260040161054990611cde565b600d91909155600b55565b60007f00000000000000000000000000000000000000000000000000000000000000004614610b6757610b62611638565b905090565b507f000000000000000000000000000000000000000000000000000000000000000090565b6000610716610b996116d2565b6001600160a01b038416600090815260056020526040902054907f00000000000000000000000000000000000000000000000000000000000000006117d2565b6000546001600160a01b0316331480610c6e575060015460405163b700961360e01b81526001600160a01b039091169063b700961390610c2d90339030906001600160e01b03196000351690600401611dc4565b602060405180830381865afa158015610c4a573d6000803e3d6000fd5b505050506040513d601f19601f82011682018060405250810190610c6e9190611da2565b610c7757600080fd5b600180546001600160a01b0319166001600160a01b03831690811790915560405133907fa3396fd7f6e0a21b50e5089d2da70d5ac0a3bbbd1f617a93f134b7638998019890600090a350565b6000610d0133610cfc610cd46116d2565b85907f00000000000000000000000000000000000000000000000000000000000000006117ed565b61180f565b6040516370a0823160e01b815230600482015282907f00000000000000000000000000000000000000000000000000000000000000006001600160a01b0316906370a0823190602401602060405180830381865afa158015610d67573d6000803e3d6000fd5b505050506040513d601f19601f82011682018060405250810190610d8b9190611d04565b1015610e33576040516370a0823160e01b81523060048201526000907f00000000000000000000000000000000000000000000000000000000000000006001600160a01b0316906370a0823190602401602060405180830381865afa158015610df8573d6000803e3d6000fd5b505050506040513d601f19601f82011682018060405250810190610e1c9190611d04565b610e269084611d6e565b9050610e3181611879565b505b610e676001600160a01b037f000000000000000000000000000000000000000000000000000000000000000016338461145d565b506000919050565b610e85336000356001600160e01b0319166113b3565b610ea15760405162461bcd60e51b815260040161054990611cde565b7f00000000000000000000000000000000000000000000000000000000000000006001600160a01b0316633d18b9126040518163ffffffff1660e01b8152600401600060405180830381600087803b158015610efc57600080fd5b505af1158015610f10573d6000803e3d6000fd5b50505050610f24610f1f6118f7565b611879565b565b6003805461062e90611d1d565b6000610f4b336000356001600160e01b0319166113b3565b610f675760405162461bcd60e51b815260040161054990611cde565b610f7b33610f76610cd46116d2565b611982565b610fb06001600160a01b037f0000000000000000000000000000000000000000000000000000000000000000163330856119d4565b6040516370a0823160e01b8152306004820152610e67907f00000000000000000000000000000000000000000000000000000000000000006001600160a01b0316906370a0823190602401602060405180830381865afa158015611018573d6000803e3d6000fd5b505050506040513d601f19601f8201168201806040525081019061103c9190611d04565b611a61565b33600090815260056020526040812080548391908390611062908490611d6e565b90915550506001600160a01b03831660008181526005602052604090819020805485019055513390600080516020611ee78339815191529061070a9086815260200190565b6110bd336000356001600160e01b0319166113b3565b6110d95760405162461bcd60e51b815260040161054990611cde565b600c91909155600a55565b428410156111345760405162461bcd60e51b815260206004820152601760248201527f5045524d49545f444541444c494e455f455850495245440000000000000000006044820152606401610549565b600061113e610b31565b6001600160a01b0389811660008181526007602090815260409182902080546001810190915582517f6e71edae12b1b97f4d1f60370fef10105fa2faae0126114a169c64845d6126c98184015280840194909452938c166060840152608083018b905260a083019390935260c08083018a90528151808403909101815260e08301909152805192019190912061190160f01b6101008301526101028201929092526101228101919091526101420160408051601f198184030181528282528051602091820120600080855291840180845281905260ff88169284019290925260608301869052608083018590529092509060019060a0016020604051602081039080840390855afa158015611257573d6000803e3d6000fd5b5050604051601f1901519150506001600160a01b0381161580159061128d5750886001600160a01b0316816001600160a01b0316145b6112ca5760405162461bcd60e51b815260206004820152600e60248201526d24a72b20a624a22fa9a4a3a722a960911b6044820152606401610549565b6001600160a01b0390811660009081526006602090815260408083208b8516808552908352928190208a905551898152919350918a16917f8c5be1e5ebec7d5bd14f71427d1e84f3dd0314c0f7b2291e5b200ac8c7c3b925910160405180910390a350505050505050565b600060405163095ea7b360e01b81526001600160a01b03841660048201528260248201526000806044836000895af191505061137081611aae565b6113ad5760405162461bcd60e51b815260206004820152600e60248201526d1054141493d59157d1905253115160921b6044820152606401610549565b50505050565b6001546000906001600160a01b0316801580159061143d575060405163b700961360e01b81526001600160a01b0382169063b7009613906113fc90879030908890600401611dc4565b602060405180830381865afa158015611419573d6000803e3d6000fd5b505050506040513d601f19601f8201168201806040525081019061143d9190611da2565b8061145557506000546001600160a01b038581169116145b949350505050565b600060405163a9059cbb60e01b81526001600160a01b03841660048201528260248201526000806044836000895af191505061149881611aae565b6113ad5760405162461bcd60e51b815260206004820152600f60248201526e1514905394d1915497d19052531151608a1b6044820152606401610549565b60008115806114e55750600b54155b806114f05750600a54155b156114fd57506000610716565b600b54600a5461150d9084611df1565b6115179190611e10565b600854909150611534906001600160a01b03858116911683611335565b60085460405163b66503cf60e01b81526001600160a01b038581166004830152602482018490529091169063b66503cf906044015b600060405180830381600087803b15801561158357600080fd5b505af1158015611597573d6000803e3d6000fd5b5050505092915050565b60008115806115b05750600d54155b806115bb5750600c54155b156115c857506000610716565b600d54600c546115d89084611df1565b6115e29190611e10565b6009549091506115ff906001600160a01b03858116911683611335565b60095460405163b66503cf60e01b81526001600160a01b038581166004830152602482018490529091169063b66503cf90604401611569565b60007f8b73c3c69bb8fe3d512ecc4cf759cc79239f7b179b0ffacaa9a75d522b39400f600260405161166a9190611e32565b6040805191829003822060208301939093528101919091527fc89efdaa54c0f20c7adf612882df0950f5a951637e0307cdcb4c672f298b8bc660608201524660808201523060a082015260c00160405160208183030381529060405280519060200120905090565b60045460009080611704577f000000000000000000000000000000000000000000000000000000000000000091505090565b60008061170f6118f7565b6040516370a0823160e01b815230600482015290915081906001600160a01b037f000000000000000000000000000000000000000000000000000000000000000016906370a0823190602401602060405180830381865afa158015611778573d6000803e3d6000fd5b505050506040513d601f19601f8201168201806040525081019061179c9190611d04565b0191506117ca82847f00000000000000000000000000000000000000000000000000000000000000006117ed565b935050505090565b82820283158482048414176117e657600080fd5b0492915050565b82810282151584158583048414171661180557600080fd5b9190910492915050565b6001600160a01b03821660009081526005602052604081208054839290611837908490611d6e565b90915550506004805482900390556040518181526000906001600160a01b03841690600080516020611ee7833981519152906020015b60405180910390a35050565b604051632e1a7d4d60e01b8152600481018290527f00000000000000000000000000000000000000000000000000000000000000006001600160a01b031690632e1a7d4d906024015b600060405180830381600087803b1580156118dc57600080fd5b505af11580156118f0573d6000803e3d6000fd5b5050505050565b6040516370a0823160e01b81523060048201526000907f00000000000000000000000000000000000000000000000000000000000000006001600160a01b0316906370a0823190602401602060405180830381865afa15801561195e573d6000803e3d6000fd5b505050506040513d601f19601f82011682018060405250810190610b629190611d04565b80600460008282546119949190611ece565b90915550506001600160a01b038216600081815260056020908152604080832080548601905551848152600080516020611ee7833981519152910161186d565b60006040516323b872dd60e01b81526001600160a01b03851660048201526001600160a01b038416602482015282604482015260008060648360008a5af1915050611a1e81611aae565b6118f05760405162461bcd60e51b81526020600482015260146024820152731514905394d1915497d19493d357d1905253115160621b6044820152606401610549565b60405163534a7e1d60e11b8152600481018290527f00000000000000000000000000000000000000000000000000000000000000006001600160a01b03169063a694fc3a906024016118c2565b60003d82611ac057806000803e806000fd5b8060208114611ad8578015611ae95760009250611aee565b816000803e60005115159250611aee565b600192505b5050919050565b6001600160a01b0381168114611b0a57600080fd5b50565b600060208284031215611b1f57600080fd5b8135611b2a81611af5565b9392505050565b600060208083528351808285015260005b81811015611b5e57858101830151858201604001528201611b42565b81811115611b70576000604083870101525b50601f01601f1916929092016040019392505050565b60008060408385031215611b9957600080fd5b8235611ba481611af5565b946020939093013593505050565b60008060408385031215611bc557600080fd5b8235611bd081611af5565b91506020830135611be081611af5565b809150509250929050565b600080600060608486031215611c0057600080fd5b8335611c0b81611af5565b92506020840135611c1b81611af5565b929592945050506040919091013590565b60008060408385031215611c3f57600080fd5b50508035926020909101359150565b600060208284031215611c6057600080fd5b5035919050565b600080600080600080600060e0888a031215611c8257600080fd5b8735611c8d81611af5565b96506020880135611c9d81611af5565b95506040880135945060608801359350608088013560ff81168114611cc157600080fd5b9699959850939692959460a0840135945060c09093013592915050565b6020808252600c908201526b15539055551213d49256915160a21b604082015260600190565b600060208284031215611d1657600080fd5b5051919050565b600181811c90821680611d3157607f821691505b60208210811415611d5257634e487b7160e01b600052602260045260246000fd5b50919050565b634e487b7160e01b600052601160045260246000fd5b600082821015611d8057611d80611d58565b500390565b600060208284031215611d9757600080fd5b8151611b2a81611af5565b600060208284031215611db457600080fd5b81518015158114611b2a57600080fd5b6001600160a01b0393841681529190921660208201526001600160e01b0319909116604082015260600190565b6000816000190483118215151615611e0b57611e0b611d58565b500290565b600082611e2d57634e487b7160e01b600052601260045260246000fd5b500490565b600080835481600182811c915080831680611e4e57607f831692505b6020808410821415611e6e57634e487b7160e01b86526022600452602486fd5b818015611e825760018114611e9357611ec0565b60ff19861689528489019650611ec0565b60008a81526020902060005b86811015611eb85781548b820152908501908301611e9f565b505084890196505b509498975050505050505050565b60008219821115611ee157611ee1611d58565b50019056feddf252ad1be2c89b69c2b068fc378daa952ba7f163c4a11628f55a4df523b3efa2646970667358221220b7532a753b94db7be081f974b1bd3acb3043802052b89fe6cda520947412654d64736f6c634300080b0033",
  "devdoc": {
    "kind": "dev",
    "methods": {
      "balanceOfUnderlying(address)": {
        "details": "May mutate the state of the strategy by accruing interest.",
        "params": {
          "user": "The user to get the underlying balance of."
        },
        "returns": {
          "_0": "The user's strategy balance in underlying tokens."
        }
      },
      "isCEther()": {
        "details": "Only present in Fuse cTokens, not Compound cTokens.",
        "returns": {
          "_0": "True if the strategy accepts ETH, false otherwise."
        }
      },
      "mint(uint256)": {
        "params": {
          "amount": "The amount of underlying tokens to deposit."
        },
        "returns": {
          "_0": "An error code, or 0 if the deposit was successful."
        }
      },
      "redeemUnderlying(uint256)": {
        "params": {
          "amount": "The amount of underlying tokens to withdraw."
        },
        "returns": {
          "_0": "An error code, or 0 if the withdrawal was successful."
        }
      },
      "underlying()": {
        "returns": {
          "_0": "The underlying ERC20 token the strategy accepts."
        }
      }
    },
    "version": 1
  },
  "userdoc": {
    "kind": "user",
    "methods": {
      "balanceOfUnderlying(address)": {
        "notice": "Returns a user's strategy balance in underlying tokens."
      },
      "isCEther()": {
        "notice": "Returns whether the strategy accepts ETH or an ERC20."
      },
      "mint(uint256)": {
        "notice": "Deposit a specific amount of underlying tokens into the strategy."
      },
      "redeemUnderlying(uint256)": {
        "notice": "Withdraws a specific amount of underlying tokens from the strategy."
      },
      "underlying()": {
        "notice": "Returns the underlying ERC20 token the strategy accepts."
      }
    },
    "version": 1
  },
  "storageLayout": {
    "storage": [
      {
        "astId": 17,
        "contract": "srcBuild/strategies/USDV3CRVRewardStrategy.sol:USDV3CRVRewardStrategy",
        "label": "owner",
        "offset": 0,
        "slot": "0",
        "type": "t_address"
      },
      {
        "astId": 20,
        "contract": "srcBuild/strategies/USDV3CRVRewardStrategy.sol:USDV3CRVRewardStrategy",
        "label": "authority",
        "offset": 0,
        "slot": "1",
        "type": "t_contract(Authority)171"
      },
      {
        "astId": 192,
        "contract": "srcBuild/strategies/USDV3CRVRewardStrategy.sol:USDV3CRVRewardStrategy",
        "label": "name",
        "offset": 0,
        "slot": "2",
        "type": "t_string_storage"
      },
      {
        "astId": 194,
        "contract": "srcBuild/strategies/USDV3CRVRewardStrategy.sol:USDV3CRVRewardStrategy",
        "label": "symbol",
        "offset": 0,
        "slot": "3",
        "type": "t_string_storage"
      },
      {
        "astId": 198,
        "contract": "srcBuild/strategies/USDV3CRVRewardStrategy.sol:USDV3CRVRewardStrategy",
        "label": "totalSupply",
        "offset": 0,
        "slot": "4",
        "type": "t_uint256"
      },
      {
        "astId": 202,
        "contract": "srcBuild/strategies/USDV3CRVRewardStrategy.sol:USDV3CRVRewardStrategy",
        "label": "balanceOf",
        "offset": 0,
        "slot": "5",
        "type": "t_mapping(t_address,t_uint256)"
      },
      {
        "astId": 208,
        "contract": "srcBuild/strategies/USDV3CRVRewardStrategy.sol:USDV3CRVRewardStrategy",
        "label": "allowance",
        "offset": 0,
        "slot": "6",
        "type": "t_mapping(t_address,t_mapping(t_address,t_uint256))"
      },
      {
        "astId": 221,
        "contract": "srcBuild/strategies/USDV3CRVRewardStrategy.sol:USDV3CRVRewardStrategy",
        "label": "nonces",
        "offset": 0,
        "slot": "7",
        "type": "t_mapping(t_address,t_uint256)"
      },
      {
        "astId": 15629,
        "contract": "srcBuild/strategies/USDV3CRVRewardStrategy.sol:USDV3CRVRewardStrategy",
        "label": "BRIBE",
        "offset": 0,
        "slot": "8",
        "type": "t_contract(Bribe)3327"
      },
      {
        "astId": 15632,
        "contract": "srcBuild/strategies/USDV3CRVRewardStrategy.sol:USDV3CRVRewardStrategy",
        "label": "GAUGE",
        "offset": 0,
        "slot": "9",
        "type": "t_contract(Gauge)6155"
      },
      {
        "astId": 15635,
        "contract": "srcBuild/strategies/USDV3CRVRewardStrategy.sol:USDV3CRVRewardStrategy",
        "label": "bribeRate",
        "offset": 0,
        "slot": "10",
        "type": "t_uint256"
      },
      {
        "astId": 15638,
        "contract": "srcBuild/strategies/USDV3CRVRewardStrategy.sol:USDV3CRVRewardStrategy",
        "label": "bribeRateBase",
        "offset": 0,
        "slot": "11",
        "type": "t_uint256"
      },
      {
        "astId": 15641,
        "contract": "srcBuild/strategies/USDV3CRVRewardStrategy.sol:USDV3CRVRewardStrategy",
        "label": "gaugeRate",
        "offset": 0,
        "slot": "12",
        "type": "t_uint256"
      },
      {
        "astId": 15644,
        "contract": "srcBuild/strategies/USDV3CRVRewardStrategy.sol:USDV3CRVRewardStrategy",
        "label": "gaugeRateBase",
        "offset": 0,
        "slot": "13",
        "type": "t_uint256"
      }
    ],
    "types": {
      "t_address": {
        "encoding": "inplace",
        "label": "address",
        "numberOfBytes": "20"
      },
      "t_contract(Authority)171": {
        "encoding": "inplace",
        "label": "contract Authority",
        "numberOfBytes": "20"
      },
      "t_contract(Bribe)3327": {
        "encoding": "inplace",
        "label": "contract Bribe",
        "numberOfBytes": "20"
      },
      "t_contract(Gauge)6155": {
        "encoding": "inplace",
        "label": "contract Gauge",
        "numberOfBytes": "20"
      },
      "t_mapping(t_address,t_mapping(t_address,t_uint256))": {
        "encoding": "mapping",
        "key": "t_address",
        "label": "mapping(address => mapping(address => uint256))",
        "numberOfBytes": "32",
        "value": "t_mapping(t_address,t_uint256)"
      },
      "t_mapping(t_address,t_uint256)": {
        "encoding": "mapping",
        "key": "t_address",
        "label": "mapping(address => uint256)",
        "numberOfBytes": "32",
        "value": "t_uint256"
      },
      "t_string_storage": {
        "encoding": "bytes",
        "label": "string",
        "numberOfBytes": "32"
      },
      "t_uint256": {
        "encoding": "inplace",
        "label": "uint256",
        "numberOfBytes": "32"
      }
    }
  }
}