{
  "address": "0x7EDc3d43f4A0E30223226841BE67eFaEdDEF4342",
  "abi": [
    {
      "inputs": [
        {
          "internalType": "address",
          "name": "VADERMINTER_",
          "type": "address"
        },
        {
          "internalType": "address",
          "name": "GOVERNANCE_",
          "type": "address"
        },
        {
          "internalType": "contract Authority",
          "name": "AUTHORITY_",
          "type": "address"
        },
        {
          "internalType": "address",
          "name": "VADER_",
          "type": "address"
        },
        {
          "internalType": "address",
          "name": "USDV_",
          "type": "address"
        }
      ],
      "stateMutability": "nonpayable",
      "type": "constructor"
    },
    {
      "anonymous": false,
      "inputs": [
        {
          "indexed": true,
          "internalType": "address",
          "name": "user",
          "type": "address"
        },
        {
          "indexed": true,
          "internalType": "contract Authority",
          "name": "newAuthority",
          "type": "address"
        }
      ],
      "name": "AuthorityUpdated",
      "type": "event"
    },
    {
      "anonymous": false,
      "inputs": [
        {
          "components": [
            {
              "internalType": "uint256",
              "name": "fee",
              "type": "uint256"
            },
            {
              "internalType": "uint256",
              "name": "mintLimit",
              "type": "uint256"
            },
            {
              "internalType": "uint256",
              "name": "burnLimit",
              "type": "uint256"
            }
          ],
          "indexed": false,
          "internalType": "struct IVaderMinter.Limits",
          "name": "previousLimits",
          "type": "tuple"
        },
        {
          "components": [
            {
              "internalType": "uint256",
              "name": "fee",
              "type": "uint256"
            },
            {
              "internalType": "uint256",
              "name": "mintLimit",
              "type": "uint256"
            },
            {
              "internalType": "uint256",
              "name": "burnLimit",
              "type": "uint256"
            }
          ],
          "indexed": false,
          "internalType": "struct IVaderMinter.Limits",
          "name": "nextLimits",
          "type": "tuple"
        }
      ],
      "name": "DailyLimitsChanged",
      "type": "event"
    },
    {
      "anonymous": false,
      "inputs": [
        {
          "indexed": true,
          "internalType": "address",
          "name": "user",
          "type": "address"
        },
        {
          "indexed": true,
          "internalType": "address",
          "name": "newOwner",
          "type": "address"
        }
      ],
      "name": "OwnerUpdated",
      "type": "event"
    },
    {
      "anonymous": false,
      "inputs": [
        {
          "indexed": false,
          "internalType": "uint256",
          "name": "previousPartnerMintCap",
          "type": "uint256"
        },
        {
          "indexed": false,
          "internalType": "uint256",
          "name": "partnerMintCap",
          "type": "uint256"
        }
      ],
      "name": "PartnerMintCapChanged",
      "type": "event"
    },
    {
      "anonymous": false,
      "inputs": [
        {
          "indexed": false,
          "internalType": "uint256",
          "name": "previousPartnercMintFee",
          "type": "uint256"
        },
        {
          "indexed": false,
          "internalType": "uint256",
          "name": "partnerMintFee",
          "type": "uint256"
        }
      ],
      "name": "PartnerMintFeeChanged",
      "type": "event"
    },
    {
      "anonymous": false,
      "inputs": [
        {
          "indexed": false,
          "internalType": "uint256",
          "name": "previousPublicMintCap",
          "type": "uint256"
        },
        {
          "indexed": false,
          "internalType": "uint256",
          "name": "publicMintCap",
          "type": "uint256"
        }
      ],
      "name": "PublicMintCapChanged",
      "type": "event"
    },
    {
      "anonymous": false,
      "inputs": [
        {
          "indexed": false,
          "internalType": "uint256",
          "name": "previousPublicMintFee",
          "type": "uint256"
        },
        {
          "indexed": false,
          "internalType": "uint256",
          "name": "publicMintFee",
          "type": "uint256"
        }
      ],
      "name": "PublicMintFeeChanged",
      "type": "event"
    },
    {
      "anonymous": false,
      "inputs": [
        {
          "indexed": false,
          "internalType": "address",
          "name": "partner",
          "type": "address"
        },
        {
          "indexed": false,
          "internalType": "uint256",
          "name": "mintLimit",
          "type": "uint256"
        },
        {
          "indexed": false,
          "internalType": "uint256",
          "name": "burnLimit",
          "type": "uint256"
        },
        {
          "indexed": false,
          "internalType": "uint256",
          "name": "fee",
          "type": "uint256"
        }
      ],
      "name": "WhitelistPartner",
      "type": "event"
    },
    {
      "inputs": [],
      "name": "USDV",
      "outputs": [
        {
          "internalType": "contract ERC20",
          "name": "",
          "type": "address"
        }
      ],
      "stateMutability": "view",
      "type": "function"
    },
    {
      "inputs": [],
      "name": "VADER",
      "outputs": [
        {
          "internalType": "contract ERC20",
          "name": "",
          "type": "address"
        }
      ],
      "stateMutability": "view",
      "type": "function"
    },
    {
      "inputs": [],
      "name": "VADERMINTER",
      "outputs": [
        {
          "internalType": "contract IVaderMinter",
          "name": "",
          "type": "address"
        }
      ],
      "stateMutability": "view",
      "type": "function"
    },
    {
      "inputs": [],
      "name": "authority",
      "outputs": [
        {
          "internalType": "contract Authority",
          "name": "",
          "type": "address"
        }
      ],
      "stateMutability": "view",
      "type": "function"
    },
    {
      "inputs": [],
      "name": "cycleBurns",
      "outputs": [
        {
          "internalType": "uint256",
          "name": "",
          "type": "uint256"
        }
      ],
      "stateMutability": "view",
      "type": "function"
    },
    {
      "inputs": [],
      "name": "cycleMints",
      "outputs": [
        {
          "internalType": "uint256",
          "name": "",
          "type": "uint256"
        }
      ],
      "stateMutability": "view",
      "type": "function"
    },
    {
      "inputs": [],
      "name": "cycleTimestamp",
      "outputs": [
        {
          "internalType": "uint256",
          "name": "",
          "type": "uint256"
        }
      ],
      "stateMutability": "view",
      "type": "function"
    },
    {
      "inputs": [],
      "name": "dailyLimits",
      "outputs": [
        {
          "components": [
            {
              "internalType": "uint256",
              "name": "fee",
              "type": "uint256"
            },
            {
              "internalType": "uint256",
              "name": "mintLimit",
              "type": "uint256"
            },
            {
              "internalType": "uint256",
              "name": "burnLimit",
              "type": "uint256"
            }
          ],
          "internalType": "struct IVaderMinter.Limits",
          "name": "",
          "type": "tuple"
        }
      ],
      "stateMutability": "view",
      "type": "function"
    },
    {
      "inputs": [],
      "name": "lbt",
      "outputs": [
        {
          "internalType": "address",
          "name": "",
          "type": "address"
        }
      ],
      "stateMutability": "view",
      "type": "function"
    },
    {
      "inputs": [],
      "name": "owner",
      "outputs": [
        {
          "internalType": "address",
          "name": "",
          "type": "address"
        }
      ],
      "stateMutability": "view",
      "type": "function"
    },
    {
      "inputs": [
        {
          "internalType": "uint256",
          "name": "uAmount",
          "type": "uint256"
        },
        {
          "internalType": "uint256",
          "name": "vMinOut",
          "type": "uint256"
        }
      ],
      "name": "partnerBurn",
      "outputs": [
        {
          "internalType": "uint256",
          "name": "vAmount",
          "type": "uint256"
        }
      ],
      "stateMutability": "nonpayable",
      "type": "function"
    },
    {
      "inputs": [
        {
          "internalType": "address",
          "name": "partner",
          "type": "address"
        }
      ],
      "name": "partnerLimits",
      "outputs": [
        {
          "components": [
            {
              "internalType": "uint256",
              "name": "fee",
              "type": "uint256"
            },
            {
              "internalType": "uint256",
              "name": "mintLimit",
              "type": "uint256"
            },
            {
              "internalType": "uint256",
              "name": "burnLimit",
              "type": "uint256"
            }
          ],
          "internalType": "struct IVaderMinter.Limits",
          "name": "",
          "type": "tuple"
        }
      ],
      "stateMutability": "view",
      "type": "function"
    },
    {
      "inputs": [
        {
          "internalType": "uint256",
          "name": "vAmount",
          "type": "uint256"
        },
        {
          "internalType": "uint256",
          "name": "uMinOut",
          "type": "uint256"
        }
      ],
      "name": "partnerMint",
      "outputs": [
        {
          "internalType": "uint256",
          "name": "uAmount",
          "type": "uint256"
        }
      ],
      "stateMutability": "nonpayable",
      "type": "function"
    },
    {
      "inputs": [
        {
          "internalType": "contract Authority",
          "name": "newAuthority",
          "type": "address"
        }
      ],
      "name": "setAuthority",
      "outputs": [],
      "stateMutability": "nonpayable",
      "type": "function"
    },
    {
      "inputs": [
        {
          "internalType": "address",
          "name": "newOwner",
          "type": "address"
        }
      ],
      "name": "setOwner",
      "outputs": [],
      "stateMutability": "nonpayable",
      "type": "function"
    },
    {
      "inputs": [],
      "name": "usdv",
      "outputs": [
        {
          "internalType": "address",
          "name": "",
          "type": "address"
        }
      ],
      "stateMutability": "view",
      "type": "function"
    }
  ],
  "transactionHash": "0x99ce5c5b184871b210951058daf6e36d9c096bc289bf7f0931266630d4279a4f",
  "args": [
    "0x00aadC47d91fD9CaC3369E6045042f9F99216B98",
    "0x1594B6Fd7C346376E51C4Cf46525a9c57c5ea916",
    "0xcbb46b017e8d785C107e97c56135894b3eAD599C",
    "0x2602278EE1882889B946eb11DC0E810075650983",
    "0xea3Fb6f331735252E7Bfb0b24b3B761301293DBe"
  ],
  "numDeployments": 1,
  "solcInputHash": "edd68036c391002ae2af5111886505d2",
  "bytecode": "0x60e06040523480156200001157600080fd5b506040516200118138038062001181833981016040819052620000349162000248565b600080546001600160a01b03199081166001600160a01b0387811691821784556001805490931690871617909155604051869286929133917f8292fce18fa69edf4db7b94ea2e58241df0ae57f97e0a6c9b29067028bf92d7691a36040516001600160a01b0382169033907fa3396fd7f6e0a21b50e5089d2da70d5ac0a3bbbd1f617a93f134b7638998019890600090a350506001600160a01b0385811660805282811660a081905290821660c052620000fe90866000196200015d602090811b62000a9d17901c565b6200012960c05160001960a0516001600160a01b03166200015d60201b62000a9d179092919060201c565b620001528560001960c0516001600160a01b03166200015d60201b62000a9d179092919060201c565b5050505050620002c8565b600060405163095ea7b360e01b81526001600160a01b03841660048201528260248201526000806044836000895af191506200019b905081620001e3565b620001dd5760405162461bcd60e51b815260206004820152600e60248201526d1054141493d59157d1905253115160921b604482015260640160405180910390fd5b50505050565b60003d82620001f657806000803e806000fd5b80602081146200021157801562000223576000925062000228565b816000803e6000511515925062000228565b600192505b5050919050565b6001600160a01b03811681146200024557600080fd5b50565b600080600080600060a086880312156200026157600080fd5b85516200026e816200022f565b602087015190955062000281816200022f565b604087015190945062000294816200022f565b6060870151909350620002a7816200022f565b6080870151909250620002ba816200022f565b809150509295509295909350565b60805160a05160c051610e2e6200035360003960008181610254015281816106c5015261097001526000818161010a015281816107dc0152610859015260008181610163015281816103080152818161047b0152818161053e015281816105b30152818161061301528181610758015281816108ec015281816109bd0152610a410152610e2e6000f3fe608060405234801561001057600080fd5b50600436106101005760003560e01c80639420069c11610097578063bf7e214f11610066578063bf7e214f14610234578063e0d243e914610247578063e2c3b0461461024f578063ec4aad3a1461027657600080fd5b80639420069c146101fe578063a69ff94014610206578063b2ccb6981461020e578063bee0616d1461022157600080fd5b80637a9e5e4b116100d35780637a9e5e4b1461019b5780638036b483146101ae5780638387c510146101b65780638da5cb5b146101eb57600080fd5b8063016813151461010557806313af40351461014957806319bca8941461015e578063686d91e014610185575b600080fd5b61012c7f000000000000000000000000000000000000000000000000000000000000000081565b6040516001600160a01b0390911681526020015b60405180910390f35b61015c610157366004610c9d565b61027e565b005b61012c7f000000000000000000000000000000000000000000000000000000000000000081565b61018d610304565b604051908152602001610140565b61015c6101a9366004610c9d565b61038d565b61012c610477565b6101c96101c4366004610c9d565b6104fb565b6040805182518152602080840151908201529181015190820152606001610140565b60005461012c906001600160a01b031681565b61012c6105af565b61018d61060f565b61018d61021c366004610cc1565b61066f565b61018d61022f366004610cc1565b610803565b60015461012c906001600160a01b031681565b6101c9610997565b61012c7f000000000000000000000000000000000000000000000000000000000000000081565b61018d610a3d565b610294336000356001600160e01b031916610b1b565b6102b95760405162461bcd60e51b81526004016102b090610ce3565b60405180910390fd5b600080546001600160a01b0319166001600160a01b0383169081178255604051909133917f8292fce18fa69edf4db7b94ea2e58241df0ae57f97e0a6c9b29067028bf92d769190a350565b60007f00000000000000000000000000000000000000000000000000000000000000006001600160a01b031663686d91e06040518163ffffffff1660e01b8152600401602060405180830381865afa158015610364573d6000803e3d6000fd5b505050506040513d601f19601f820116820180604052508101906103889190610d09565b905090565b6000546001600160a01b0316331480610422575060015460405163b700961360e01b81526001600160a01b039091169063b7009613906103e190339030906001600160e01b03196000351690600401610d22565b602060405180830381865afa1580156103fe573d6000803e3d6000fd5b505050506040513d601f19601f820116820180604052508101906104229190610d4f565b61042b57600080fd5b600180546001600160a01b0319166001600160a01b03831690811790915560405133907fa3396fd7f6e0a21b50e5089d2da70d5ac0a3bbbd1f617a93f134b7638998019890600090a350565b60007f00000000000000000000000000000000000000000000000000000000000000006001600160a01b0316638036b4836040518163ffffffff1660e01b8152600401602060405180830381865afa1580156104d7573d6000803e3d6000fd5b505050506040513d601f19601f820116820180604052508101906103889190610d71565b61051f60405180606001604052806000815260200160008152602001600081525090565b6040516308387c5160e41b81526001600160a01b0383811660048301527f00000000000000000000000000000000000000000000000000000000000000001690638387c51090602401606060405180830381865afa158015610585573d6000803e3d6000fd5b505050506040513d601f19601f820116820180604052508101906105a99190610d8e565b92915050565b60007f00000000000000000000000000000000000000000000000000000000000000006001600160a01b0316639420069c6040518163ffffffff1660e01b8152600401602060405180830381865afa1580156104d7573d6000803e3d6000fd5b60007f00000000000000000000000000000000000000000000000000000000000000006001600160a01b031663a69ff9406040518163ffffffff1660e01b8152600401602060405180830381865afa158015610364573d6000803e3d6000fd5b6000610687336000356001600160e01b031916610b1b565b6106a35760405162461bcd60e51b81526004016102b090610ce3565b6040516323b872dd60e01b8152336004820152306024820152604481018490527f00000000000000000000000000000000000000000000000000000000000000006001600160a01b0316906323b872dd906064016020604051808303816000875af1158015610716573d6000803e3d6000fd5b505050506040513d601f19601f8201168201806040525081019061073a9190610d4f565b5060405163165996d360e31b815260048101849052602481018390527f00000000000000000000000000000000000000000000000000000000000000006001600160a01b03169063b2ccb698906044016020604051808303816000875af11580156107a9573d6000803e3d6000fd5b505050506040513d601f19601f820116820180604052508101906107cd9190610d09565b90506105a96001600160a01b037f0000000000000000000000000000000000000000000000000000000000000000163383610bc5565b600061081b336000356001600160e01b031916610b1b565b6108375760405162461bcd60e51b81526004016102b090610ce3565b6040516323b872dd60e01b8152336004820152306024820152604481018490527f00000000000000000000000000000000000000000000000000000000000000006001600160a01b0316906323b872dd906064016020604051808303816000875af11580156108aa573d6000803e3d6000fd5b505050506040513d601f19601f820116820180604052508101906108ce9190610d4f565b5060405163bee0616d60e01b815260048101849052602481018390527f00000000000000000000000000000000000000000000000000000000000000006001600160a01b03169063bee0616d906044016020604051808303816000875af115801561093d573d6000803e3d6000fd5b505050506040513d601f19601f820116820180604052508101906109619190610d09565b90506105a96001600160a01b037f0000000000000000000000000000000000000000000000000000000000000000163383610bc5565b6109bb60405180606001604052806000815260200160008152602001600081525090565b7f00000000000000000000000000000000000000000000000000000000000000006001600160a01b031663e0d243e96040518163ffffffff1660e01b8152600401606060405180830381865afa158015610a19573d6000803e3d6000fd5b505050506040513d601f19601f820116820180604052508101906103889190610d8e565b60007f00000000000000000000000000000000000000000000000000000000000000006001600160a01b031663ec4aad3a6040518163ffffffff1660e01b8152600401602060405180830381865afa158015610364573d6000803e3d6000fd5b600060405163095ea7b360e01b81526001600160a01b03841660048201528260248201526000806044836000895af1915050610ad881610c3e565b610b155760405162461bcd60e51b815260206004820152600e60248201526d1054141493d59157d1905253115160921b60448201526064016102b0565b50505050565b6001546000906001600160a01b03168015801590610ba5575060405163b700961360e01b81526001600160a01b0382169063b700961390610b6490879030908890600401610d22565b602060405180830381865afa158015610b81573d6000803e3d6000fd5b505050506040513d601f19601f82011682018060405250810190610ba59190610d4f565b80610bbd57506000546001600160a01b038581169116145b949350505050565b600060405163a9059cbb60e01b81526001600160a01b03841660048201528260248201526000806044836000895af1915050610c0081610c3e565b610b155760405162461bcd60e51b815260206004820152600f60248201526e1514905394d1915497d19052531151608a1b60448201526064016102b0565b60003d82610c5057806000803e806000fd5b8060208114610c68578015610c795760009250610c7e565b816000803e60005115159250610c7e565b600192505b5050919050565b6001600160a01b0381168114610c9a57600080fd5b50565b600060208284031215610caf57600080fd5b8135610cba81610c85565b9392505050565b60008060408385031215610cd457600080fd5b50508035926020909101359150565b6020808252600c908201526b15539055551213d49256915160a21b604082015260600190565b600060208284031215610d1b57600080fd5b5051919050565b6001600160a01b0393841681529190921660208201526001600160e01b0319909116604082015260600190565b600060208284031215610d6157600080fd5b81518015158114610cba57600080fd5b600060208284031215610d8357600080fd5b8151610cba81610c85565b600060608284031215610da057600080fd5b6040516060810181811067ffffffffffffffff82111715610dd157634e487b7160e01b600052604160045260246000fd5b8060405250825181526020830151602082015260408301516040820152809150509291505056fea2646970667358221220edd4a8c96ff09bf1a99b2a0ea0c77df723cf5df3fec4f75244a3a9f8fd33378064736f6c634300080b0033",
  "devdoc": {
    "kind": "dev",
    "methods": {},
    "version": 1
  },
  "userdoc": {
    "kind": "user",
    "methods": {},
    "version": 1
  },
  "storageLayout": {
    "storage": [
      {
        "astId": 17,
        "contract": "srcBuild/VaderGateway.sol:VaderGateway",
        "label": "owner",
        "offset": 0,
        "slot": "0",
        "type": "t_address"
      },
      {
        "astId": 20,
        "contract": "srcBuild/VaderGateway.sol:VaderGateway",
        "label": "authority",
        "offset": 0,
        "slot": "1",
        "type": "t_contract(Authority)171"
      }
    ],
    "types": {
      "t_address": {
        "encoding": "inplace",
        "label": "address",
        "numberOfBytes": "20"
      },
      "t_contract(Authority)171": {
        "encoding": "inplace",
        "label": "contract Authority",
        "numberOfBytes": "20"
      }
    }
  }
}