{
  "address": "0xF1a8a05099F27CcF1b10718c89b8E557335CE4a4",
  "abi": [
    {
      "inputs": [
        {
          "internalType": "contract VaultConfigurationModule",
          "name": "_configModule",
          "type": "address"
        },
        {
          "internalType": "address",
          "name": "_owner",
          "type": "address"
        },
        {
          "internalType": "contract Authority",
          "name": "_authority",
          "type": "address"
        }
      ],
      "stateMutability": "nonpayable",
      "type": "constructor"
    },
    {
      "anonymous": false,
      "inputs": [
        {
          "indexed": true,
          "internalType": "address",
          "name": "user",
          "type": "address"
        },
        {
          "indexed": true,
          "internalType": "contract Authority",
          "name": "newAuthority",
          "type": "address"
        }
      ],
      "name": "AuthorityUpdated",
      "type": "event"
    },
    {
      "anonymous": false,
      "inputs": [
        {
          "indexed": false,
          "internalType": "contract VaultConfigurationModule",
          "name": "newConfigModule",
          "type": "address"
        }
      ],
      "name": "ConfigModuleUpdated",
      "type": "event"
    },
    {
      "anonymous": false,
      "inputs": [
        {
          "indexed": true,
          "internalType": "address",
          "name": "user",
          "type": "address"
        },
        {
          "indexed": true,
          "internalType": "address",
          "name": "newOwner",
          "type": "address"
        }
      ],
      "name": "OwnerUpdated",
      "type": "event"
    },
    {
      "inputs": [],
      "name": "authority",
      "outputs": [
        {
          "internalType": "contract Authority",
          "name": "",
          "type": "address"
        }
      ],
      "stateMutability": "view",
      "type": "function"
    },
    {
      "inputs": [],
      "name": "configModule",
      "outputs": [
        {
          "internalType": "contract VaultConfigurationModule",
          "name": "",
          "type": "address"
        }
      ],
      "stateMutability": "view",
      "type": "function"
    },
    {
      "inputs": [
        {
          "internalType": "contract Vault",
          "name": "vault",
          "type": "address"
        }
      ],
      "name": "initializeVault",
      "outputs": [],
      "stateMutability": "nonpayable",
      "type": "function"
    },
    {
      "inputs": [],
      "name": "owner",
      "outputs": [
        {
          "internalType": "address",
          "name": "",
          "type": "address"
        }
      ],
      "stateMutability": "view",
      "type": "function"
    },
    {
      "inputs": [
        {
          "internalType": "contract Authority",
          "name": "newAuthority",
          "type": "address"
        }
      ],
      "name": "setAuthority",
      "outputs": [],
      "stateMutability": "nonpayable",
      "type": "function"
    },
    {
      "inputs": [
        {
          "internalType": "contract VaultConfigurationModule",
          "name": "newConfigModule",
          "type": "address"
        }
      ],
      "name": "setConfigModule",
      "outputs": [],
      "stateMutability": "nonpayable",
      "type": "function"
    },
    {
      "inputs": [
        {
          "internalType": "address",
          "name": "newOwner",
          "type": "address"
        }
      ],
      "name": "setOwner",
      "outputs": [],
      "stateMutability": "nonpayable",
      "type": "function"
    }
  ],
  "transactionHash": "0x6045fed8f8cd701cfa3d379c07cd222c000ee05de24540e6606e7cb34f578e38",
  "args": [
    "0x77a903733d36A8bAF751b00F376ca75201ab0D1d",
    "0x1594B6Fd7C346376E51C4Cf46525a9c57c5ea916",
    "0xcbb46b017e8d785C107e97c56135894b3eAD599C"
  ],
  "numDeployments": 1,
  "solcInputHash": "edd68036c391002ae2af5111886505d2",
  "bytecode": "0x608060405234801561001057600080fd5b506040516107f13803806107f183398101604081905261002f91610103565b600080546001600160a01b03199081166001600160a01b0385811691821784556001805490931690851617909155604051849284929133917f8292fce18fa69edf4db7b94ea2e58241df0ae57f97e0a6c9b29067028bf92d7691a36040516001600160a01b0382169033907fa3396fd7f6e0a21b50e5089d2da70d5ac0a3bbbd1f617a93f134b7638998019890600090a35050600280546001600160a01b0319166001600160a01b039490941693909317909255506101509050565b6001600160a01b038116811461010057600080fd5b50565b60008060006060848603121561011857600080fd5b8351610123816100eb565b6020850151909350610134816100eb565b6040850151909250610145816100eb565b809150509250925092565b6106928061015f6000396000f3fe608060405234801561001057600080fd5b506004361061007d5760003560e01c80638da5cb5b1161005b5780638da5cb5b146100d9578063ad9ab820146100ec578063bf7e214f146100ff578063ccb6a2701461011257600080fd5b806313af40351461008257806368f1e99a146100975780637a9e5e4b146100c6575b600080fd5b6100956100903660046105e9565b610125565b005b6002546100aa906001600160a01b031681565b6040516001600160a01b03909116815260200160405180910390f35b6100956100d43660046105e9565b6101c6565b6000546100aa906001600160a01b031681565b6100956100fa3660046105e9565b6102b0565b6001546100aa906001600160a01b031681565b6100956101203660046105e9565b610355565b61013b336000356001600160e01b031916610527565b61017b5760405162461bcd60e51b815260206004820152600c60248201526b15539055551213d49256915160a21b60448201526064015b60405180910390fd5b600080546001600160a01b0319166001600160a01b0383169081178255604051909133917f8292fce18fa69edf4db7b94ea2e58241df0ae57f97e0a6c9b29067028bf92d769190a350565b6000546001600160a01b031633148061025b575060015460405163b700961360e01b81526001600160a01b039091169063b70096139061021a90339030906001600160e01b0319600035169060040161060d565b602060405180830381865afa158015610237573d6000803e3d6000fd5b505050506040513d601f19601f8201168201806040525081019061025b919061063a565b61026457600080fd5b600180546001600160a01b0319166001600160a01b03831690811790915560405133907fa3396fd7f6e0a21b50e5089d2da70d5ac0a3bbbd1f617a93f134b7638998019890600090a350565b6102c6336000356001600160e01b031916610527565b6103015760405162461bcd60e51b815260206004820152600c60248201526b15539055551213d49256915160a21b6044820152606401610172565b600280546001600160a01b0319166001600160a01b0383169081179091556040519081527fcc0bfba2fd41fad8e74708649f00db8723ef3361e1e43460f586cf04378035cd9060200160405180910390a150565b6002546040516316f8725960e31b81526001600160a01b0383811660048301529091169063b7c392c890602401600060405180830381600087803b15801561039c57600080fd5b505af11580156103b0573d6000803e3d6000fd5b5050600254604051635607702f60e01b81526001600160a01b0385811660048301529091169250635607702f9150602401600060405180830381600087803b1580156103fb57600080fd5b505af115801561040f573d6000803e3d6000fd5b505060025460405163e7d9934b60e01b81526001600160a01b038581166004830152909116925063e7d9934b9150602401600060405180830381600087803b15801561045a57600080fd5b505af115801561046e573d6000803e3d6000fd5b505060025460405163ac345d0360e01b81526001600160a01b038581166004830152909116925063ac345d039150602401600060405180830381600087803b1580156104b957600080fd5b505af11580156104cd573d6000803e3d6000fd5b50505050806001600160a01b0316638129fc1c6040518163ffffffff1660e01b8152600401600060405180830381600087803b15801561050c57600080fd5b505af1158015610520573d6000803e3d6000fd5b5050505050565b6001546000906001600160a01b031680158015906105b1575060405163b700961360e01b81526001600160a01b0382169063b7009613906105709087903090889060040161060d565b602060405180830381865afa15801561058d573d6000803e3d6000fd5b505050506040513d601f19601f820116820180604052508101906105b1919061063a565b806105c957506000546001600160a01b038581169116145b949350505050565b6001600160a01b03811681146105e657600080fd5b50565b6000602082840312156105fb57600080fd5b8135610606816105d1565b9392505050565b6001600160a01b0393841681529190921660208201526001600160e01b0319909116604082015260600190565b60006020828403121561064c57600080fd5b8151801515811461060657600080fdfea26469706673582212205e1bb975bd33c1ccdf29dfcb98b6f2d85a6807f590ac740f0c7d1e0c8ed8280864736f6c634300080b0033",
  "devdoc": {
    "author": "Transmissions11 and JetJadeja",
    "events": {
      "ConfigModuleUpdated(address)": {
        "params": {
          "newConfigModule": "The new configuration module."
        }
      }
    },
    "kind": "dev",
    "methods": {
      "constructor": {
        "params": {
          "_authority": "The Authority of the module.",
          "_configModule": "The Vault configuration module the module will use to configure Vaults before initialization.",
          "_owner": "The owner of the module."
        }
      },
      "initializeVault(address)": {
        "details": "This will revert if the Vault has already been initialized.",
        "params": {
          "vault": "The Vault to configure and initialize."
        }
      },
      "setConfigModule(address)": {
        "params": {
          "newConfigModule": "The Vault configuration module to set."
        }
      }
    },
    "title": "Rari Vault Initialization Module",
    "version": 1
  },
  "userdoc": {
    "events": {
      "ConfigModuleUpdated(address)": {
        "notice": "Emitted when the config module is updated."
      }
    },
    "kind": "user",
    "methods": {
      "configModule()": {
        "notice": "Vault configuration module used to configure Vaults before initialization."
      },
      "constructor": {
        "notice": "Creates a Vault initialization module."
      },
      "initializeVault(address)": {
        "notice": "Properly configures and initializes a newly deployed Vault."
      },
      "setConfigModule(address)": {
        "notice": "Sets a new Vault configuration module."
      }
    },
    "notice": "Module for initializing newly created Vaults.",
    "version": 1
  },
  "storageLayout": {
    "storage": [
      {
        "astId": 17,
        "contract": "srcBuild/modules/VaultInitializationModule.sol:VaultInitializationModule",
        "label": "owner",
        "offset": 0,
        "slot": "0",
        "type": "t_address"
      },
      {
        "astId": 20,
        "contract": "srcBuild/modules/VaultInitializationModule.sol:VaultInitializationModule",
        "label": "authority",
        "offset": 0,
        "slot": "1",
        "type": "t_contract(Authority)171"
      },
      {
        "astId": 8247,
        "contract": "srcBuild/modules/VaultInitializationModule.sol:VaultInitializationModule",
        "label": "configModule",
        "offset": 0,
        "slot": "2",
        "type": "t_contract(VaultConfigurationModule)8227"
      }
    ],
    "types": {
      "t_address": {
        "encoding": "inplace",
        "label": "address",
        "numberOfBytes": "20"
      },
      "t_contract(Authority)171": {
        "encoding": "inplace",
        "label": "contract Authority",
        "numberOfBytes": "20"
      },
      "t_contract(VaultConfigurationModule)8227": {
        "encoding": "inplace",
        "label": "contract VaultConfigurationModule",
        "numberOfBytes": "20"
      }
    }
  }
}