{
  "address": "0x923Fa212D215806BE9Ad5313F38Df3bf2011eb8B",
  "abi": [
    {
      "inputs": [],
      "stateMutability": "nonpayable",
      "type": "constructor"
    },
    {
      "inputs": [
        {
          "internalType": "address",
          "name": "underlying",
          "type": "address"
        },
        {
          "internalType": "address",
          "name": "vf",
          "type": "address"
        },
        {
          "internalType": "address",
          "name": "vim",
          "type": "address"
        },
        {
          "internalType": "address",
          "name": "voter",
          "type": "address"
        }
      ],
      "name": "deployAndInitAsAuth",
      "outputs": [],
      "stateMutability": "nonpayable",
      "type": "function"
    }
  ],
  "transactionHash": "0x2e594d182697dd2a6b44edb68f83d39dd3d3a2b3db35c65d0647360cabb82cd5",
  "args": [],
  "numDeployments": 1,
  "solcInputHash": "feb3bdbd8ee853e11120888c941c49a9",
  "bytecode": "0x60a060405234801561001057600080fd5b50306080526080516102e761002f6000396000605001526102e76000f3fe608060405234801561001057600080fd5b506004361061002b5760003560e01c8063fb29b79614610030575b600080fd5b61004361003e366004610231565b610045565b005b306001600160a01b037f000000000000000000000000000000000000000000000000000000000000000016141561007b57600080fd5b604051635eb512e760e01b81526001600160a01b03858116600483015260009190851690635eb512e7906024016020604051808303816000875af11580156100c7573d6000803e3d6000fd5b505050506040513d601f19601f820116820180604052508101906100eb919061028d565b604051630ccb6a2760e41b81526001600160a01b0380831660048301529192509084169063ccb6a27090602401600060405180830381600087803b15801561013257600080fd5b505af1158015610146573d6000803e3d6000fd5b5050604051631ae47cc560e21b81526001600160a01b03848116600483015285169250636b91f3149150602401600060405180830381600087803b15801561018d57600080fd5b505af11580156101a1573d6000803e3d6000fd5b50506040516352fa180f60e11b81526001600160a01b0384811660048301528516925063a5f4301e91506024016020604051808303816000875af11580156101ed573d6000803e3d6000fd5b505050506040513d601f19601f82011682018060405250810190610211919061028d565b505050505050565b6001600160a01b038116811461022e57600080fd5b50565b6000806000806080858703121561024757600080fd5b843561025281610219565b9350602085013561026281610219565b9250604085013561027281610219565b9150606085013561028281610219565b939692955090935050565b60006020828403121561029f57600080fd5b81516102aa81610219565b939250505056fea2646970667358221220446150387c329323695855aa949ac48601bdc948e7d70028bf9d2f9602eae26a64736f6c634300080b0033",
  "devdoc": {
    "kind": "dev",
    "methods": {},
    "version": 1
  },
  "userdoc": {
    "kind": "user",
    "methods": {},
    "version": 1
  },
  "storageLayout": {
    "storage": [],
    "types": null
  }
}