{
  "address": "0x89549e232AAcC4579F93B65735A9349038a47775",
  "abi": [
    {
      "inputs": [
        {
          "internalType": "address",
          "name": "_guardian",
          "type": "address"
        },
        {
          "internalType": "address",
          "name": "_authority",
          "type": "address"
        },
        {
          "internalType": "address",
          "name": "__ve",
          "type": "address"
        },
        {
          "internalType": "address",
          "name": "_gauges",
          "type": "address"
        },
        {
          "internalType": "address",
          "name": "_bribes",
          "type": "address"
        }
      ],
      "stateMutability": "nonpayable",
      "type": "constructor"
    },
    {
      "anonymous": false,
      "inputs": [
        {
          "indexed": false,
          "internalType": "uint256",
          "name": "tokenId",
          "type": "uint256"
        },
        {
          "indexed": false,
          "internalType": "int256",
          "name": "weight",
          "type": "int256"
        }
      ],
      "name": "Abstained",
      "type": "event"
    },
    {
      "anonymous": false,
      "inputs": [
        {
          "indexed": true,
          "internalType": "address",
          "name": "owner",
          "type": "address"
        },
        {
          "indexed": true,
          "internalType": "address",
          "name": "gauge",
          "type": "address"
        },
        {
          "indexed": false,
          "internalType": "uint256",
          "name": "tokenId",
          "type": "uint256"
        }
      ],
      "name": "Attach",
      "type": "event"
    },
    {
      "anonymous": false,
      "inputs": [
        {
          "indexed": true,
          "internalType": "address",
          "name": "user",
          "type": "address"
        },
        {
          "indexed": true,
          "internalType": "contract Authority",
          "name": "newAuthority",
          "type": "address"
        }
      ],
      "name": "AuthorityUpdated",
      "type": "event"
    },
    {
      "anonymous": false,
      "inputs": [
        {
          "indexed": true,
          "internalType": "address",
          "name": "delister",
          "type": "address"
        },
        {
          "indexed": true,
          "internalType": "address",
          "name": "token",
          "type": "address"
        }
      ],
      "name": "DeListed",
      "type": "event"
    },
    {
      "anonymous": false,
      "inputs": [
        {
          "indexed": true,
          "internalType": "address",
          "name": "lp",
          "type": "address"
        },
        {
          "indexed": true,
          "internalType": "address",
          "name": "gauge",
          "type": "address"
        },
        {
          "indexed": false,
          "internalType": "uint256",
          "name": "tokenId",
          "type": "uint256"
        },
        {
          "indexed": false,
          "internalType": "uint256",
          "name": "amount",
          "type": "uint256"
        }
      ],
      "name": "Deposit",
      "type": "event"
    },
    {
      "anonymous": false,
      "inputs": [
        {
          "indexed": true,
          "internalType": "address",
          "name": "owner",
          "type": "address"
        },
        {
          "indexed": true,
          "internalType": "address",
          "name": "gauge",
          "type": "address"
        },
        {
          "indexed": false,
          "internalType": "uint256",
          "name": "tokenId",
          "type": "uint256"
        }
      ],
      "name": "Detach",
      "type": "event"
    },
    {
      "anonymous": false,
      "inputs": [
        {
          "indexed": true,
          "internalType": "address",
          "name": "sender",
          "type": "address"
        },
        {
          "indexed": true,
          "internalType": "address",
          "name": "gauge",
          "type": "address"
        },
        {
          "indexed": false,
          "internalType": "uint256",
          "name": "amount",
          "type": "uint256"
        }
      ],
      "name": "DistributeReward",
      "type": "event"
    },
    {
      "anonymous": false,
      "inputs": [
        {
          "indexed": true,
          "internalType": "address",
          "name": "gauge",
          "type": "address"
        },
        {
          "indexed": false,
          "internalType": "address",
          "name": "creator",
          "type": "address"
        },
        {
          "indexed": true,
          "internalType": "address",
          "name": "bribe",
          "type": "address"
        },
        {
          "indexed": true,
          "internalType": "address",
          "name": "pool",
          "type": "address"
        }
      ],
      "name": "GaugeCreated",
      "type": "event"
    },
    {
      "anonymous": false,
      "inputs": [
        {
          "indexed": true,
          "internalType": "address",
          "name": "sender",
          "type": "address"
        },
        {
          "indexed": true,
          "internalType": "address",
          "name": "reward",
          "type": "address"
        },
        {
          "indexed": false,
          "internalType": "uint256",
          "name": "amount",
          "type": "uint256"
        }
      ],
      "name": "NotifyReward",
      "type": "event"
    },
    {
      "anonymous": false,
      "inputs": [
        {
          "indexed": true,
          "internalType": "address",
          "name": "user",
          "type": "address"
        },
        {
          "indexed": true,
          "internalType": "address",
          "name": "newOwner",
          "type": "address"
        }
      ],
      "name": "OwnerUpdated",
      "type": "event"
    },
    {
      "anonymous": false,
      "inputs": [
        {
          "indexed": true,
          "internalType": "address",
          "name": "voter",
          "type": "address"
        },
        {
          "indexed": false,
          "internalType": "uint256",
          "name": "tokenId",
          "type": "uint256"
        },
        {
          "indexed": false,
          "internalType": "int256",
          "name": "weight",
          "type": "int256"
        }
      ],
      "name": "Voted",
      "type": "event"
    },
    {
      "anonymous": false,
      "inputs": [
        {
          "indexed": true,
          "internalType": "address",
          "name": "whitelister",
          "type": "address"
        },
        {
          "indexed": true,
          "internalType": "address",
          "name": "token",
          "type": "address"
        }
      ],
      "name": "Whitelisted",
      "type": "event"
    },
    {
      "anonymous": false,
      "inputs": [
        {
          "indexed": true,
          "internalType": "address",
          "name": "lp",
          "type": "address"
        },
        {
          "indexed": true,
          "internalType": "address",
          "name": "gauge",
          "type": "address"
        },
        {
          "indexed": false,
          "internalType": "uint256",
          "name": "tokenId",
          "type": "uint256"
        },
        {
          "indexed": false,
          "internalType": "uint256",
          "name": "amount",
          "type": "uint256"
        }
      ],
      "name": "Withdraw",
      "type": "event"
    },
    {
      "inputs": [],
      "name": "_ve",
      "outputs": [
        {
          "internalType": "address",
          "name": "",
          "type": "address"
        }
      ],
      "stateMutability": "view",
      "type": "function"
    },
    {
      "inputs": [
        {
          "internalType": "address",
          "name": "",
          "type": "address"
        }
      ],
      "name": "assetForGauge",
      "outputs": [
        {
          "internalType": "address",
          "name": "",
          "type": "address"
        }
      ],
      "stateMutability": "view",
      "type": "function"
    },
    {
      "inputs": [
        {
          "internalType": "uint256",
          "name": "",
          "type": "uint256"
        },
        {
          "internalType": "uint256",
          "name": "",
          "type": "uint256"
        }
      ],
      "name": "assetVote",
      "outputs": [
        {
          "internalType": "address",
          "name": "",
          "type": "address"
        }
      ],
      "stateMutability": "view",
      "type": "function"
    },
    {
      "inputs": [
        {
          "internalType": "uint256",
          "name": "",
          "type": "uint256"
        }
      ],
      "name": "assets",
      "outputs": [
        {
          "internalType": "address",
          "name": "",
          "type": "address"
        }
      ],
      "stateMutability": "view",
      "type": "function"
    },
    {
      "inputs": [
        {
          "internalType": "uint256",
          "name": "tokenId",
          "type": "uint256"
        },
        {
          "internalType": "address",
          "name": "account",
          "type": "address"
        }
      ],
      "name": "attachTokenToGauge",
      "outputs": [],
      "stateMutability": "nonpayable",
      "type": "function"
    },
    {
      "inputs": [],
      "name": "authority",
      "outputs": [
        {
          "internalType": "contract Authority",
          "name": "",
          "type": "address"
        }
      ],
      "stateMutability": "view",
      "type": "function"
    },
    {
      "inputs": [],
      "name": "bribefactory",
      "outputs": [
        {
          "internalType": "address",
          "name": "",
          "type": "address"
        }
      ],
      "stateMutability": "view",
      "type": "function"
    },
    {
      "inputs": [
        {
          "internalType": "address",
          "name": "",
          "type": "address"
        }
      ],
      "name": "bribes",
      "outputs": [
        {
          "internalType": "address",
          "name": "",
          "type": "address"
        }
      ],
      "stateMutability": "view",
      "type": "function"
    },
    {
      "inputs": [
        {
          "internalType": "address[]",
          "name": "_bribes",
          "type": "address[]"
        },
        {
          "internalType": "address[][]",
          "name": "_tokens",
          "type": "address[][]"
        },
        {
          "internalType": "uint256",
          "name": "_tokenId",
          "type": "uint256"
        }
      ],
      "name": "claimBribes",
      "outputs": [],
      "stateMutability": "nonpayable",
      "type": "function"
    },
    {
      "inputs": [
        {
          "internalType": "address[]",
          "name": "_gauges",
          "type": "address[]"
        },
        {
          "internalType": "address[][]",
          "name": "_tokens",
          "type": "address[][]"
        }
      ],
      "name": "claimRewards",
      "outputs": [],
      "stateMutability": "nonpayable",
      "type": "function"
    },
    {
      "inputs": [
        {
          "internalType": "address",
          "name": "",
          "type": "address"
        }
      ],
      "name": "claimable",
      "outputs": [
        {
          "internalType": "uint256",
          "name": "",
          "type": "uint256"
        }
      ],
      "stateMutability": "view",
      "type": "function"
    },
    {
      "inputs": [
        {
          "internalType": "address",
          "name": "_asset",
          "type": "address"
        }
      ],
      "name": "createGauge",
      "outputs": [
        {
          "internalType": "address",
          "name": "",
          "type": "address"
        }
      ],
      "stateMutability": "nonpayable",
      "type": "function"
    },
    {
      "inputs": [
        {
          "internalType": "uint256",
          "name": "tokenId",
          "type": "uint256"
        },
        {
          "internalType": "address",
          "name": "account",
          "type": "address"
        }
      ],
      "name": "detachTokenFromGauge",
      "outputs": [],
      "stateMutability": "nonpayable",
      "type": "function"
    },
    {
      "inputs": [],
      "name": "disableOpenListing",
      "outputs": [],
      "stateMutability": "nonpayable",
      "type": "function"
    },
    {
      "inputs": [
        {
          "internalType": "address[]",
          "name": "_gauges",
          "type": "address[]"
        }
      ],
      "name": "distribute",
      "outputs": [],
      "stateMutability": "nonpayable",
      "type": "function"
    },
    {
      "inputs": [
        {
          "internalType": "address",
          "name": "_gauge",
          "type": "address"
        }
      ],
      "name": "distribute",
      "outputs": [],
      "stateMutability": "nonpayable",
      "type": "function"
    },
    {
      "inputs": [
        {
          "internalType": "uint256",
          "name": "start",
          "type": "uint256"
        },
        {
          "internalType": "uint256",
          "name": "finish",
          "type": "uint256"
        }
      ],
      "name": "distribute",
      "outputs": [],
      "stateMutability": "nonpayable",
      "type": "function"
    },
    {
      "inputs": [],
      "name": "distribute",
      "outputs": [],
      "stateMutability": "nonpayable",
      "type": "function"
    },
    {
      "inputs": [],
      "name": "distro",
      "outputs": [],
      "stateMutability": "nonpayable",
      "type": "function"
    },
    {
      "inputs": [
        {
          "internalType": "uint256",
          "name": "tokenId",
          "type": "uint256"
        },
        {
          "internalType": "address",
          "name": "account",
          "type": "address"
        },
        {
          "internalType": "uint256",
          "name": "amount",
          "type": "uint256"
        }
      ],
      "name": "emitDeposit",
      "outputs": [],
      "stateMutability": "nonpayable",
      "type": "function"
    },
    {
      "inputs": [
        {
          "internalType": "uint256",
          "name": "tokenId",
          "type": "uint256"
        },
        {
          "internalType": "address",
          "name": "account",
          "type": "address"
        },
        {
          "internalType": "uint256",
          "name": "amount",
          "type": "uint256"
        }
      ],
      "name": "emitWithdraw",
      "outputs": [],
      "stateMutability": "nonpayable",
      "type": "function"
    },
    {
      "inputs": [],
      "name": "enableOpenListing",
      "outputs": [],
      "stateMutability": "nonpayable",
      "type": "function"
    },
    {
      "inputs": [
        {
          "internalType": "address",
          "name": "_gauge",
          "type": "address"
        }
      ],
      "name": "gaugeOpenDeposits",
      "outputs": [],
      "stateMutability": "nonpayable",
      "type": "function"
    },
    {
      "inputs": [
        {
          "internalType": "address",
          "name": "_gauge",
          "type": "address"
        }
      ],
      "name": "gaugeStopDeposits",
      "outputs": [],
      "stateMutability": "nonpayable",
      "type": "function"
    },
    {
      "inputs": [],
      "name": "gaugefactory",
      "outputs": [
        {
          "internalType": "address",
          "name": "",
          "type": "address"
        }
      ],
      "stateMutability": "view",
      "type": "function"
    },
    {
      "inputs": [
        {
          "internalType": "address",
          "name": "",
          "type": "address"
        }
      ],
      "name": "gauges",
      "outputs": [
        {
          "internalType": "address",
          "name": "",
          "type": "address"
        }
      ],
      "stateMutability": "view",
      "type": "function"
    },
    {
      "inputs": [
        {
          "internalType": "address[]",
          "name": "_tokens",
          "type": "address[]"
        },
        {
          "internalType": "address",
          "name": "_minter",
          "type": "address"
        }
      ],
      "name": "initialize",
      "outputs": [],
      "stateMutability": "nonpayable",
      "type": "function"
    },
    {
      "inputs": [
        {
          "internalType": "address",
          "name": "",
          "type": "address"
        }
      ],
      "name": "isGauge",
      "outputs": [
        {
          "internalType": "bool",
          "name": "",
          "type": "bool"
        }
      ],
      "stateMutability": "view",
      "type": "function"
    },
    {
      "inputs": [
        {
          "internalType": "address",
          "name": "",
          "type": "address"
        }
      ],
      "name": "isWhitelisted",
      "outputs": [
        {
          "internalType": "bool",
          "name": "",
          "type": "bool"
        }
      ],
      "stateMutability": "view",
      "type": "function"
    },
    {
      "inputs": [],
      "name": "length",
      "outputs": [
        {
          "internalType": "uint256",
          "name": "",
          "type": "uint256"
        }
      ],
      "stateMutability": "view",
      "type": "function"
    },
    {
      "inputs": [],
      "name": "listing_fee",
      "outputs": [
        {
          "internalType": "uint256",
          "name": "",
          "type": "uint256"
        }
      ],
      "stateMutability": "view",
      "type": "function"
    },
    {
      "inputs": [
        {
          "internalType": "address",
          "name": "newMinter_",
          "type": "address"
        }
      ],
      "name": "migrateMinter",
      "outputs": [],
      "stateMutability": "nonpayable",
      "type": "function"
    },
    {
      "inputs": [],
      "name": "minter",
      "outputs": [
        {
          "internalType": "address",
          "name": "",
          "type": "address"
        }
      ],
      "stateMutability": "view",
      "type": "function"
    },
    {
      "inputs": [
        {
          "internalType": "uint256",
          "name": "amount",
          "type": "uint256"
        }
      ],
      "name": "notifyRewardAmount",
      "outputs": [],
      "stateMutability": "nonpayable",
      "type": "function"
    },
    {
      "inputs": [],
      "name": "openListing",
      "outputs": [
        {
          "internalType": "bool",
          "name": "",
          "type": "bool"
        }
      ],
      "stateMutability": "view",
      "type": "function"
    },
    {
      "inputs": [],
      "name": "owner",
      "outputs": [
        {
          "internalType": "address",
          "name": "",
          "type": "address"
        }
      ],
      "stateMutability": "view",
      "type": "function"
    },
    {
      "inputs": [
        {
          "internalType": "uint256",
          "name": "_tokenId",
          "type": "uint256"
        }
      ],
      "name": "poke",
      "outputs": [],
      "stateMutability": "nonpayable",
      "type": "function"
    },
    {
      "inputs": [
        {
          "internalType": "address",
          "name": "_token",
          "type": "address"
        }
      ],
      "name": "removeListing",
      "outputs": [],
      "stateMutability": "nonpayable",
      "type": "function"
    },
    {
      "inputs": [
        {
          "internalType": "uint256",
          "name": "_tokenId",
          "type": "uint256"
        }
      ],
      "name": "reset",
      "outputs": [],
      "stateMutability": "nonpayable",
      "type": "function"
    },
    {
      "inputs": [
        {
          "internalType": "contract Authority",
          "name": "newAuthority",
          "type": "address"
        }
      ],
      "name": "setAuthority",
      "outputs": [],
      "stateMutability": "nonpayable",
      "type": "function"
    },
    {
      "inputs": [
        {
          "internalType": "address",
          "name": "listingFeeAddress_",
          "type": "address"
        }
      ],
      "name": "setListingFeeAddress",
      "outputs": [],
      "stateMutability": "nonpayable",
      "type": "function"
    },
    {
      "inputs": [
        {
          "internalType": "address",
          "name": "newOwner",
          "type": "address"
        }
      ],
      "name": "setOwner",
      "outputs": [],
      "stateMutability": "nonpayable",
      "type": "function"
    },
    {
      "inputs": [],
      "name": "totalWeight",
      "outputs": [
        {
          "internalType": "uint256",
          "name": "",
          "type": "uint256"
        }
      ],
      "stateMutability": "view",
      "type": "function"
    },
    {
      "inputs": [],
      "name": "updateAll",
      "outputs": [],
      "stateMutability": "nonpayable",
      "type": "function"
    },
    {
      "inputs": [
        {
          "internalType": "address[]",
          "name": "_gauges",
          "type": "address[]"
        }
      ],
      "name": "updateFor",
      "outputs": [],
      "stateMutability": "nonpayable",
      "type": "function"
    },
    {
      "inputs": [
        {
          "internalType": "uint256",
          "name": "start",
          "type": "uint256"
        },
        {
          "internalType": "uint256",
          "name": "end",
          "type": "uint256"
        }
      ],
      "name": "updateForRange",
      "outputs": [],
      "stateMutability": "nonpayable",
      "type": "function"
    },
    {
      "inputs": [
        {
          "internalType": "address",
          "name": "_gauge",
          "type": "address"
        }
      ],
      "name": "updateGauge",
      "outputs": [],
      "stateMutability": "nonpayable",
      "type": "function"
    },
    {
      "inputs": [
        {
          "internalType": "uint256",
          "name": "",
          "type": "uint256"
        }
      ],
      "name": "usedWeights",
      "outputs": [
        {
          "internalType": "uint256",
          "name": "",
          "type": "uint256"
        }
      ],
      "stateMutability": "view",
      "type": "function"
    },
    {
      "inputs": [
        {
          "internalType": "uint256",
          "name": "tokenId",
          "type": "uint256"
        },
        {
          "internalType": "address[]",
          "name": "_assetVote",
          "type": "address[]"
        },
        {
          "internalType": "int256[]",
          "name": "_weights",
          "type": "int256[]"
        }
      ],
      "name": "vote",
      "outputs": [],
      "stateMutability": "nonpayable",
      "type": "function"
    },
    {
      "inputs": [
        {
          "internalType": "uint256",
          "name": "",
          "type": "uint256"
        },
        {
          "internalType": "address",
          "name": "",
          "type": "address"
        }
      ],
      "name": "votes",
      "outputs": [
        {
          "internalType": "int256",
          "name": "",
          "type": "int256"
        }
      ],
      "stateMutability": "view",
      "type": "function"
    },
    {
      "inputs": [
        {
          "internalType": "address",
          "name": "",
          "type": "address"
        }
      ],
      "name": "weights",
      "outputs": [
        {
          "internalType": "int256",
          "name": "",
          "type": "int256"
        }
      ],
      "stateMutability": "view",
      "type": "function"
    },
    {
      "inputs": [
        {
          "internalType": "address",
          "name": "_token",
          "type": "address"
        }
      ],
      "name": "whitelist",
      "outputs": [],
      "stateMutability": "nonpayable",
      "type": "function"
    },
    {
      "inputs": [
        {
          "internalType": "address",
          "name": "_token",
          "type": "address"
        }
      ],
      "name": "whitelistAsAuth",
      "outputs": [],
      "stateMutability": "nonpayable",
      "type": "function"
    }
  ],
  "transactionHash": "0xd7783224f9d861748a61324b29ebca1ea8832c7baf7addf10819cbcf8871fd49",
  "args": [
    "0x4d03Fb78BdA67a04f1bD6fDE5024759D8Ce8D866",
    "0xcbb46b017e8d785C107e97c56135894b3eAD599C",
    "0xf2feC13CDB46760E065DDC1DF9dA16Cb87AFD61f",
    "0xE7D2180f8C4Ca8e011173bb260C7E08679AFeEA1",
    "0x994e0F91eeF84d64fC1d4E4c283712928915feDD"
  ],
  "numDeployments": 1,
  "bytecode": "0x61010060405260016010553480156200001757600080fd5b50604051620032f0380380620032f08339810160408190526200003a9162000195565b600080546001600160a01b03199081166001600160a01b0388811691821784556001805490931690881617909155604051879287929133917f8292fce18fa69edf4db7b94ea2e58241df0ae57f97e0a6c9b29067028bf92d7691a36040516001600160a01b0382169033907fa3396fd7f6e0a21b50e5089d2da70d5ac0a3bbbd1f617a93f134b7638998019890600090a350506001600160a01b038316608081905260408051637e062a3560e11b8152905163fc0c546a916004808201926020929091908290030181865afa15801562000118573d6000803e3d6000fd5b505050506040513d601f19601f820116820180604052508101906200013e919062000205565b6001600160a01b0390811660a05291821660c0521660e0525050600480546001600160a81b0319163360ff60a01b1916179055506200022a565b80516001600160a01b03811681146200019057600080fd5b919050565b600080600080600060a08688031215620001ae57600080fd5b620001b98662000178565b9450620001c96020870162000178565b9350620001d96040870162000178565b9250620001e96060870162000178565b9150620001f96080870162000178565b90509295509295909350565b6000602082840312156200021857600080fd5b620002238262000178565b9392505050565b60805160a05160c05160e051613023620002cd600039600081816103dc01526116db0152600081816104d801526117b2015260008181610c3f01528181610cb801528181610f7b0152818161103701526118490152600081816105ca015281816109aa01528181610a4501528181610d4501528181611123015281816112f80152818161178401528181611ccc015281816120b701526124a301526130236000f3fe608060405234801561001057600080fd5b50600436106103275760003560e01c806379e93824116101b8578063aa79979b11610104578063d6dcb0d0116100a2578063e64d64e91161007c578063e64d64e91461077c578063ea94ee44146107a5578063f34e0b2c146107b8578063fecdad60146107c057600080fd5b8063d6dcb0d014610756578063df8f35ac14610769578063e4fc6b6d1461049d57600080fd5b8063bf7e214f116100de578063bf7e214f146106f2578063cf35bdd014610705578063d23254b414610718578063d560b0d71461074357600080fd5b8063aa79979b1461069e578063b980777a146106c1578063b9a09fd5146106c957600080fd5b80639b19251a11610171578063a5f4301e1161014b578063a5f4301e1461062f578063a61c713a14610642578063a7cac84614610655578063a8c5d95a1461067557600080fd5b80639b19251a146105f55780639b6a9d7214610608578063a0281e271461061b57600080fd5b806379e938241461056c5780637a9e5e4b1461058c57806389ebbd251461059f5780638da5cb5b146105b25780638dd598fb146105c557806396c82e57146105ec57600080fd5b8063411b1f771161027757806368c3acb3116102305780636ecbe38a1161020a5780636ecbe38a1461052057806370387a8f146105335780637625391a146105465780637715ee751461055957600080fd5b806368c3acb3146104d3578063698473e3146104fa5780636b91f3141461050d57600080fd5b8063411b1f7714610477578063462d0b2e1461048a57806347b3c6ba1461049d57806353d78693146104a55780636138889b146104ad57806363453ae1146104c057600080fd5b8063310bd74b116102e45780633af32abf116102be5780633af32abf146103fe5780633bdaf5de146104315780633c6b16ab14610444578063402914f51461045757600080fd5b8063310bd74b146103b157806332145f90146103c457806338752a9d146103d757600080fd5b8063024e12551461032c578063075461721461033657806313af4035146103665780631f7b6d321461037957806320b1cb6f1461038b5780632e8596031461039e575b600080fd5b6103346107d3565b005b600454610349906001600160a01b031681565b6040516001600160a01b0390911681526020015b60405180910390f35b61033461037436600461283e565b610823565b6006545b60405190815260200161035d565b6103346103993660046129c1565b6108a0565b6103496103ac366004612a25565b610956565b6103346103bf366004612a47565b61098e565b6103346103d2366004612a47565b610aac565b6103497f000000000000000000000000000000000000000000000000000000000000000081565b61042161040c36600461283e565b600f6020526000908152604090205460ff1681565b604051901515815260200161035d565b61033461043f36600461283e565b610bfc565b610334610452366004612a47565b610c3a565b61037d61046536600461283e565b60136020526000908152604090205481565b610334610485366004612a60565b610d0d565b610334610498366004612a90565b610de7565b610334610e62565b610334610e73565b6103346104bb366004612ad7565b610e82565b6103346104ce36600461283e565b610ec6565b6103497f000000000000000000000000000000000000000000000000000000000000000081565b610334610508366004612a60565b6110eb565b61033461051b36600461283e565b6111c5565b61033461052e36600461283e565b611200565b61033461054136600461283e565b611209565b610334610554366004612a25565b611276565b610334610567366004612b0c565b6112dc565b61037d61057a366004612a47565b600d6020526000908152604090205481565b61033461059a36600461283e565b611425565b6103346105ad36600461283e565b61150f565b600054610349906001600160a01b031681565b6103497f000000000000000000000000000000000000000000000000000000000000000081565b61037d60055481565b61033461060336600461283e565b611548565b610334610616366004612a25565b6115c7565b60045461042190600160a01b900460ff1681565b61034961063d36600461283e565b61162d565b610334610650366004612b79565b611a0a565b61037d61066336600461283e565b600a6020526000908152604090205481565b61034961068336600461283e565b6009602052600090815260409020546001600160a01b031681565b6104216106ac36600461283e565b600e6020526000908152604090205460ff1681565b61037d611a72565b6103496106d736600461283e565b6007602052600090815260409020546001600160a01b031681565b600154610349906001600160a01b031681565b610349610713366004612a47565b611ae5565b61037d610726366004612a60565b600b60209081526000928352604080842090915290825290205481565b610334610751366004612ad7565b611b0f565b61033461076436600461283e565b611b4f565b61033461077736600461283e565b611ba3565b61034961078a36600461283e565b6008602052600090815260409020546001600160a01b031681565b6103346107b3366004612b79565b611c10565b610334611c6f565b6103346107ce366004612bfd565b611cb0565b6107e9336000356001600160e01b031916611dc2565b61080e5760405162461bcd60e51b815260040161080590612c77565b60405180910390fd5b6004805460ff60a01b1916600160a01b179055565b610839336000356001600160e01b031916611dc2565b6108555760405162461bcd60e51b815260040161080590612c77565b600080546001600160a01b0319166001600160a01b0383169081178255604051909133917f8292fce18fa69edf4db7b94ea2e58241df0ae57f97e0a6c9b29067028bf92d769190a350565b60005b8251811015610951578281815181106108be576108be612c9d565b60200260200101516001600160a01b03166331279d3d338484815181106108e7576108e7612c9d565b60200260200101516040518363ffffffff1660e01b815260040161090c929190612cf7565b600060405180830381600087803b15801561092657600080fd5b505af115801561093a573d6000803e3d6000fd5b50505050808061094990612d31565b9150506108a3565b505050565b600c602052816000526040600020818154811061097257600080fd5b6000918252602090912001546001600160a01b03169150829050565b60405163430c208160e01b8152336004820152602481018290527f00000000000000000000000000000000000000000000000000000000000000006001600160a01b03169063430c208190604401602060405180830381865afa1580156109f9573d6000803e3d6000fd5b505050506040513d601f19601f82011682018060405250810190610a1d9190612d4c565b610a2657600080fd5b610a2f81611e6c565b60405163c1f0fb9f60e01b8152600481018290527f00000000000000000000000000000000000000000000000000000000000000006001600160a01b03169063c1f0fb9f90602401600060405180830381600087803b158015610a9157600080fd5b505af1158015610aa5573d6000803e3d6000fd5b5050505050565b6000818152600c6020908152604080832080548251818502810185019093528083529192909190830182828015610b0c57602002820191906000526020600020905b81546001600160a01b03168152600190910190602001808311610aee575b5050505050905060008151905060008167ffffffffffffffff811115610b3457610b34612862565b604051908082528060200260200182016040528015610b5d578160200160208202803683370190505b50905060005b82811015610bea57600b60008681526020019081526020016000206000858381518110610b9257610b92612c9d565b60200260200101516001600160a01b03166001600160a01b0316815260200190815260200160002054828281518110610bcd57610bcd612c9d565b602090810291909101015280610be281612d31565b915050610b63565b50610bf6848483612093565b50505050565b610c12336000356001600160e01b031916611dc2565b610c2e5760405162461bcd60e51b815260040161080590612c77565b610c378161253a565b50565b610c667f00000000000000000000000000000000000000000000000000000000000000003330846125a9565b600554600090610c7e83670de0b6b3a7640000612d6e565b610c889190612da3565b90508015610ca8578060116000828254610ca29190612db7565b90915550505b6040518281526001600160a01b037f0000000000000000000000000000000000000000000000000000000000000000169033907ff70d5c697de7ea828df48e5c4573cb2194c659f1901f70110c52b066dcf50826906020015b60405180910390a35050565b336000908152600e602052604090205460ff16610d2957600080fd5b8115610daa57604051634c35bec560e11b8152600481018390527f00000000000000000000000000000000000000000000000000000000000000006001600160a01b03169063986b7d8a90602401600060405180830381600087803b158015610d9157600080fd5b505af1158015610da5573d6000803e3d6000fd5b505050505b60405182815233906001600160a01b038316907fae268d9aab12f3605f58efd74fd3801fa812b03fdb44317eb70f46dff0e19e2290602001610d01565b6004546001600160a01b03163314610dfe57600080fd5b60005b8251811015610e3e57610e2c838281518110610e1f57610e1f612c9d565b60200260200101516126a1565b80610e3681612d31565b915050610e01565b50600480546001600160a01b0319166001600160a01b039290921691909117905550565b600654610e7190600090611276565b565b600654610e71906000906115c7565b60005b8151811015610ec257610eb0828281518110610ea357610ea3612c9d565b6020026020010151610ec6565b80610eba81612d31565b915050610e85565b5050565b601054600114610ed557600080fd5b6002601055600480546040805163ed29fc1160e01b815290516001600160a01b039092169263ed29fc1192828201926020929082900301816000875af1158015610f23573d6000803e3d6000fd5b505050506040513d601f19601f82011682018060405250810190610f479190612dcf565b50610f5181612714565b6001600160a01b0381811660008181526013602052604090819020549051634cde602960e11b81527f00000000000000000000000000000000000000000000000000000000000000009093166004840152916399bcc05290602401602060405180830381865afa158015610fc9573d6000803e3d6000fd5b505050506040513d601f19601f82011682018060405250810190610fed9190612dcf565b811180156110075750600061100562093a8083612da3565b115b156110e2576001600160a01b03828116600081815260136020526040808220919091555163b66503cf60e01b81527f00000000000000000000000000000000000000000000000000000000000000009092166004830152602482018390529063b66503cf90604401600060405180830381600087803b15801561108957600080fd5b505af115801561109d573d6000803e3d6000fd5b50506040518381526001600160a01b03851692503391507f4fa9693cae526341d334e2862ca2413b2e503f1266255f9e0869fb36e6d89b179060200160405180910390a35b50506001601055565b336000908152600e602052604090205460ff1661110757600080fd5b81156111885760405163fbd3a29d60e01b8152600481018390527f00000000000000000000000000000000000000000000000000000000000000006001600160a01b03169063fbd3a29d90602401600060405180830381600087803b15801561116f57600080fd5b505af1158015611183573d6000803e3d6000fd5b505050505b60405182815233906001600160a01b038316907f60940192810a6fb3bce3fd3e2e3a13fd6ccc7605e963fb87ee971aba829989bd90602001610d01565b6111db336000356001600160e01b031916611dc2565b6111f75760405162461bcd60e51b815260040161080590612c77565b610c37816126a1565b610c3781612714565b61121f336000356001600160e01b031916611dc2565b61123b5760405162461bcd60e51b815260040161080590612c77565b806001600160a01b0316635cbe86bc6040518163ffffffff1660e01b8152600401600060405180830381600087803b158015610a9157600080fd5b815b81811015610951576112ca600760006006848154811061129a5761129a612c9d565b60009182526020808320909101546001600160a01b03908116845290830193909352604090910190205416610ec6565b806112d481612d31565b915050611278565b60405163430c208160e01b8152336004820152602481018290527f00000000000000000000000000000000000000000000000000000000000000006001600160a01b03169063430c208190604401602060405180830381865afa158015611347573d6000803e3d6000fd5b505050506040513d601f19601f8201168201806040525081019061136b9190612d4c565b61137457600080fd5b60005b8351811015610bf65783818151811061139257611392612c9d565b60200260200101516001600160a01b031663a7852afa838584815181106113bb576113bb612c9d565b60200260200101516040518363ffffffff1660e01b81526004016113e0929190612de8565b600060405180830381600087803b1580156113fa57600080fd5b505af115801561140e573d6000803e3d6000fd5b50505050808061141d90612d31565b915050611377565b6000546001600160a01b03163314806114ba575060015460405163b700961360e01b81526001600160a01b039091169063b70096139061147990339030906001600160e01b03196000351690600401612e01565b602060405180830381865afa158015611496573d6000803e3d6000fd5b505050506040513d601f19601f820116820180604052508101906114ba9190612d4c565b6114c357600080fd5b600180546001600160a01b0319166001600160a01b03831690811790915560405133907fa3396fd7f6e0a21b50e5089d2da70d5ac0a3bbbd1f617a93f134b7638998019890600090a350565b6004546001600160a01b0316331461152657600080fd5b600480546001600160a01b0319166001600160a01b0392909216919091179055565b600454600160a01b900460ff166115a15760405162461bcd60e51b815260206004820152601c60248201527f6e6f74206f70656e20666f722067656e6572616c206c697374696e67000000006044820152606401610805565b6002546000546111f7916001600160a01b03908116913391166115c2611a72565b6125a9565b815b818110156109515761161b60076000600684815481106115eb576115eb612c9d565b60009182526020808320909101546001600160a01b03908116845290830193909352604090910190205416612714565b8061162581612d31565b9150506115c9565b6001600160a01b03818116600090815260076020526040812054909116156116805760405162461bcd60e51b815260206004820152600660248201526565786973747360d01b6044820152606401610805565b6001600160a01b0382166000908152600f602052604090205460ff166116d75760405162461bcd60e51b815260206004820152600c60248201526b085dda1a5d195b1a5cdd195960a21b6044820152606401610805565b60007f00000000000000000000000000000000000000000000000000000000000000006001600160a01b031663d27b9a786040518163ffffffff1660e01b81526004016020604051808303816000875af1158015611739573d6000803e3d6000fd5b505050506040513d601f19601f8201168201806040525081019061175d9190612e2e565b604051630e24707d60e11b81526001600160a01b03858116600483015280831660248301527f0000000000000000000000000000000000000000000000000000000000000000811660448301529192506000917f00000000000000000000000000000000000000000000000000000000000000001690631c48e0fa906064016020604051808303816000875af11580156117fb573d6000803e3d6000fd5b505050506040513d601f19601f8201168201806040525081019061181f9190612e2e565b60405163095ea7b360e01b81526001600160a01b03808316600483015260001960248301529192507f00000000000000000000000000000000000000000000000000000000000000009091169063095ea7b3906044016020604051808303816000875af1158015611894573d6000803e3d6000fd5b505050506040513d601f19601f820116820180604052508101906118b89190612d4c565b506001600160a01b03808216600081815260096020908152604080832080548689166001600160a01b03199182161790915594891680845260078352818420805487168617905584845260088352818420805490961617909455600e9052828120805460ff19166001179055825163c3f81cc560e01b81529251919263c3f81cc5926004808301939282900301818387803b15801561195657600080fd5b505af115801561196a573d6000803e3d6000fd5b5050505061197781612714565b600680546001810182556000919091527ff652222313e28459528d920b65115c16c04f3efc82aaedc97be59f3f377c0d3f0180546001600160a01b0319166001600160a01b03868116918217909255604051338152909184811691908416907f48d3c521fd0d5541640f58c6d6381eed7cb2e8c9df421ae165a4f4c2d221ee0d9060200160405180910390a49392505050565b336000908152600e602052604090205460ff16611a2657600080fd5b604080518481526020810183905233916001600160a01b038516917fdcbc1c05240f31ff3ad067ef1ee35ce4997762752e3a095284754544f4c709d791015b60405180910390a3505050565b60035460408051635cc03bbd60e11b815290516000926001600160a01b03169163b980777a9160048083019260209291908290030181865afa158015611abc573d6000803e3d6000fd5b505050506040513d601f19601f82011682018060405250810190611ae09190612dcf565b905090565b60068181548110611af557600080fd5b6000918252602090912001546001600160a01b0316905081565b60005b8151811015610ec257611b3d828281518110611b3057611b30612c9d565b6020026020010151612714565b80611b4781612d31565b915050611b12565b611b65336000356001600160e01b031916611dc2565b611b815760405162461bcd60e51b815260040161080590612c77565b600380546001600160a01b0319166001600160a01b0392909216919091179055565b611bb9336000356001600160e01b031916611dc2565b611bd55760405162461bcd60e51b815260040161080590612c77565b806001600160a01b031663c3f81cc56040518163ffffffff1660e01b8152600401600060405180830381600087803b158015610a9157600080fd5b336000908152600e602052604090205460ff16611c2c57600080fd5b604080518481526020810183905233916001600160a01b038516917ff341246adaac6f497bc2a656f546ab9e182111d630394f0c57c710a59a2cb5679101611a65565b611c85336000356001600160e01b031916611dc2565b611ca15760405162461bcd60e51b815260040161080590612c77565b6004805460ff60a01b19169055565b60405163430c208160e01b8152336004820152602481018690527f00000000000000000000000000000000000000000000000000000000000000006001600160a01b03169063430c208190604401602060405180830381865afa158015611d1b573d6000803e3d6000fd5b505050506040513d601f19601f82011682018060405250810190611d3f9190612d4c565b611d4857600080fd5b828114611d5457600080fd5b610aa5858585808060200260200160405190810160405280939291908181526020018383602002808284376000920191909152505060408051602080890282810182019093528882529093508892508791829185019084908082843760009201919091525061209392505050565b6001546000906001600160a01b03168015801590611e4c575060405163b700961360e01b81526001600160a01b0382169063b700961390611e0b90879030908890600401612e01565b602060405180830381865afa158015611e28573d6000803e3d6000fd5b505050506040513d601f19601f82011682018060405250810190611e4c9190612d4c565b80611e6457506000546001600160a01b038581169116145b949350505050565b6000818152600c6020526040812080549091805b82811015612057576000848281548110611e9c57611e9c612c9d565b6000918252602080832090910154888352600b825260408084206001600160a01b03909216808552919092529120549091508015612042576001600160a01b03808316600090815260076020526040902054611ef89116612714565b6001600160a01b0382166000908152600a602052604081208054839290611f20908490612e4b565b90915550506000878152600b602090815260408083206001600160a01b038616845290915281208054839290611f57908490612e4b565b90915550506000811315611ffb576001600160a01b038281166000908152600760209081526040808320548416835260099091529081902054905163278afc8b60e21b815260048101849052602481018a9052911690639e2bf22c90604401600060405180830381600087803b158015611fd057600080fd5b505af1158015611fe4573d6000803e3d6000fd5b505050508084611ff49190612e8a565b9350612008565b6120058185612e4b565b93505b60408051888152602081018390527f6b3894ce60b9bbe9d93f1a4e6fc25b6b93cd8222e73ab6348d79c596f5b51de9910160405180910390a15b5050808061204f90612d31565b915050611e80565b50806005600082825461206a9190612ecb565b90915550506000848152600d60209081526040808320839055600c9091528120610bf6916127f7565b61209c83611e6c565b81516040516339f890b560e21b8152600481018590526000907f00000000000000000000000000000000000000000000000000000000000000006001600160a01b03169063e7e242d490602401602060405180830381865afa158015612106573d6000803e3d6000fd5b505050506040513d601f19601f8201168201806040525081019061212a9190612dcf565b90506000806000805b858110156121bd57600087828151811061214f5761214f612c9d565b6020026020010151136121845786818151811061216e5761216e612c9d565b602002602001015161217f90612ee2565b61219f565b86818151811061219657612196612c9d565b60200260200101515b6121a99085612e8a565b9350806121b581612d31565b915050612133565b5060005b858110156124835760008882815181106121dd576121dd612c9d565b6020908102919091018101516001600160a01b03808216600090815260078452604080822054909216808252600e909452205490925060ff16801561227f5750806001600160a01b031663a09eebd86040518163ffffffff1660e01b8152600401602060405180830381865afa15801561225b573d6000803e3d6000fd5b505050506040513d601f19601f8201168201806040525081019061227f9190612d4c565b1561246e57600086888b868151811061229a5761229a612c9d565b60200260200101516122ac9190612eff565b6122b69190612f84565b60008d8152600b602090815260408083206001600160a01b0388168452909152902054909150156122e657600080fd5b806122f057600080fd5b6122f982612714565b60008c8152600c6020908152604080832080546001810182559084528284200180546001600160a01b0319166001600160a01b0388169081179091558352600a9091528120805483929061234e908490612e8a565b909155505060008c8152600b602090815260408083206001600160a01b038716845290915281208054839290612385908490612e8a565b9091555050600081131561240c576001600160a01b038083166000908152600960205260409081902054905163f320772360e01b815260048101849052602481018f905291169063f320772390604401600060405180830381600087803b1580156123ef57600080fd5b505af1158015612403573d6000803e3d6000fd5b50505050612418565b61241581612ee2565b90505b6124228186612e8a565b945061242e8187612e8a565b604080518e81526020810184905291975033917f1263a2295e53acd6ef8f655b8afc11fa0f2cf11925be7aa1757d741ef32a926c910160405180910390a2505b5050808061247b90612d31565b9150506121c1565b5060008113156125085760405163fd4a77f160e01b8152600481018990527f00000000000000000000000000000000000000000000000000000000000000006001600160a01b03169063fd4a77f190602401600060405180830381600087803b1580156124ef57600080fd5b505af1158015612503573d6000803e3d6000fd5b505050505b816005600082825461251a9190612db7565b90915550506000978852600d602052604090972096909655505050505050565b6001600160a01b0381166000908152600f602052604090205460ff1661255f57600080fd5b6001600160a01b0381166000818152600f6020526040808220805460ff191690555133917fba65191411de39ff8bcbbe8768e1920cf15711d2c953637e979c7a008ff386fa91a350565b6000846001600160a01b03163b116125c057600080fd5b604080516001600160a01b0385811660248301528481166044830152606480830185905283518084039091018152608490920183526020820180516001600160e01b03166323b872dd60e01b17905291516000928392908816916126249190612fb2565b6000604051808303816000865af19150503d8060008114612661576040519150601f19603f3d011682016040523d82523d6000602084013e612666565b606091505b50915091508180156126905750805115806126905750808060200190518101906126909190612d4c565b61269957600080fd5b505050505050565b6001600160a01b0381166000908152600f602052604090205460ff16156126c757600080fd5b6001600160a01b0381166000818152600f6020526040808220805460ff191660011790555133917f6661a7108aecd07864384529117d96c319c1163e3010c01390f6b704726e07de91a350565b6001600160a01b03808216600090815260086020908152604080832054909316808352600a90915291812054908113156127d6576001600160a01b0383166000908152601260205260408120805460115491829055916127748383612ecb565b90508015612699576000670de0b6b3a76400006127918387612d6e565b61279b9190612da3565b6001600160a01b0388166000908152601360205260408120805492935083929091906127c8908490612db7565b909155505050505050505050565b6011546001600160a01b038416600090815260126020526040902055505050565b5080546000825590600052602060002090810190610c3791905b808211156128255760008155600101612811565b5090565b6001600160a01b0381168114610c3757600080fd5b60006020828403121561285057600080fd5b813561285b81612829565b9392505050565b634e487b7160e01b600052604160045260246000fd5b604051601f8201601f1916810167ffffffffffffffff811182821017156128a1576128a1612862565b604052919050565b600067ffffffffffffffff8211156128c3576128c3612862565b5060051b60200190565b600082601f8301126128de57600080fd5b813560206128f36128ee836128a9565b612878565b82815260059290921b8401810191818101908684111561291257600080fd5b8286015b8481101561293657803561292981612829565b8352918301918301612916565b509695505050505050565b600082601f83011261295257600080fd5b813560206129626128ee836128a9565b82815260059290921b8401810191818101908684111561298157600080fd5b8286015b8481101561293657803567ffffffffffffffff8111156129a55760008081fd5b6129b38986838b01016128cd565b845250918301918301612985565b600080604083850312156129d457600080fd5b823567ffffffffffffffff808211156129ec57600080fd5b6129f8868387016128cd565b93506020850135915080821115612a0e57600080fd5b50612a1b85828601612941565b9150509250929050565b60008060408385031215612a3857600080fd5b50508035926020909101359150565b600060208284031215612a5957600080fd5b5035919050565b60008060408385031215612a7357600080fd5b823591506020830135612a8581612829565b809150509250929050565b60008060408385031215612aa357600080fd5b823567ffffffffffffffff811115612aba57600080fd5b612ac6858286016128cd565b9250506020830135612a8581612829565b600060208284031215612ae957600080fd5b813567ffffffffffffffff811115612b0057600080fd5b611e64848285016128cd565b600080600060608486031215612b2157600080fd5b833567ffffffffffffffff80821115612b3957600080fd5b612b45878388016128cd565b94506020860135915080821115612b5b57600080fd5b50612b6886828701612941565b925050604084013590509250925092565b600080600060608486031215612b8e57600080fd5b833592506020840135612ba081612829565b929592945050506040919091013590565b60008083601f840112612bc357600080fd5b50813567ffffffffffffffff811115612bdb57600080fd5b6020830191508360208260051b8501011115612bf657600080fd5b9250929050565b600080600080600060608688031215612c1557600080fd5b85359450602086013567ffffffffffffffff80821115612c3457600080fd5b612c4089838a01612bb1565b90965094506040880135915080821115612c5957600080fd5b50612c6688828901612bb1565b969995985093965092949392505050565b6020808252600c908201526b15539055551213d49256915160a21b604082015260600190565b634e487b7160e01b600052603260045260246000fd5b600081518084526020808501945080840160005b83811015612cec5781516001600160a01b031687529582019590820190600101612cc7565b509495945050505050565b6001600160a01b0383168152604060208201819052600090611e6490830184612cb3565b634e487b7160e01b600052601160045260246000fd5b6000600019821415612d4557612d45612d1b565b5060010190565b600060208284031215612d5e57600080fd5b8151801515811461285b57600080fd5b6000816000190483118215151615612d8857612d88612d1b565b500290565b634e487b7160e01b600052601260045260246000fd5b600082612db257612db2612d8d565b500490565b60008219821115612dca57612dca612d1b565b500190565b600060208284031215612de157600080fd5b5051919050565b828152604060208201526000611e646040830184612cb3565b6001600160a01b0393841681529190921660208201526001600160e01b0319909116604082015260600190565b600060208284031215612e4057600080fd5b815161285b81612829565b60008083128015600160ff1b850184121615612e6957612e69612d1b565b6001600160ff1b0384018313811615612e8457612e84612d1b565b50500390565b600080821280156001600160ff1b0384900385131615612eac57612eac612d1b565b600160ff1b8390038412811615612ec557612ec5612d1b565b50500190565b600082821015612edd57612edd612d1b565b500390565b6000600160ff1b821415612ef857612ef8612d1b565b5060000390565b60006001600160ff1b0381841382841380821686840486111615612f2557612f25612d1b565b600160ff1b6000871282811687830589121615612f4457612f44612d1b565b60008712925087820587128484161615612f6057612f60612d1b565b87850587128184161615612f7657612f76612d1b565b505050929093029392505050565b600082612f9357612f93612d8d565b600160ff1b821460001984141615612fad57612fad612d1b565b500590565b6000825160005b81811015612fd35760208186018101518583015201612fb9565b81811115612fe2576000828501525b50919091019291505056fea2646970667358221220ec122a3e74c469ce445aec79439e2a1c7ad8a31baaa4b58f9317f4a6c98a193864736f6c634300080b0033"
}